:020000040010EA
:1000000010120020250210002D0210002F021000F7
:100010005365637572697479706C6174666F726D23
:10002000000000000000000000000000410210007D
:100030000000000000000000430210004502100014
:10004000470210004702100047021000470210004C
:10005000470210004702100047021000470210003C
:10006000470210004702100047021000470210002C
:10007000470210004702100047021000470210001C
:10008000470210004702100047021000470210000C
:1000900047021000470210004702100047021000FC
:1000A00047021000470210004702100047021000EC
:1000B00047021000470210004702100047021000DC
:1000C00047021000470210004702100047021000CC
:1000D00047021000470210004702100047021000BC
:1000E00047021000470210004702100047021000AC
:1000F000470210004702100047021000470210009C
:10010000470210004702100047021000470210008B
:10011000470210004702100047021000470210007B
:10012000470210004702100047021000470210006B
:10013000470210004702100047021000470210005B
:10014000470210004702100047021000470210004B
:10015000470210004702100047021000470210003B
:10016000470210004702100047021000470210002B
:10017000470210004702100047021000470210001B
:10018000470210004702100047021000470210000B
:1001900047021000470210004702100047021000FB
:1001A00047021000470210004702100047021000EB
:1001B00047021000470210004702100047021000DB
:1001C0004702100047021000470210002D171000D0
:1001D00047021000470210004702100047021000BB
:1001E00047021000470210004702100047021000AB
:1001F000470210004702100047021000470210009B
:10020000470210004702100047021000470210008A
:100210000348854600F06AF800480047C5211000F1
:10022000101200201248804712480047FEE770462F
:10023000EFF30881EFF309820F4B98470047FEE781
:10024000FEE7FEE7FEE7FEE7ABBE0C4B74469847C1
:1002500020477046F047000009480A490160684697
:1002600008600948486030BFFEE700BF00BF00BF1C
:10027000251E1000110210002D141000911D1000F9
:10028000C0020040000001206B021000F0B51FB456
:100290000646002082B005464024019100901BE0F4
:1002A000019922460F46304600F048F8049A059B13
:1002B000801A994110D310461946224600F02EF8B4
:1002C000361A8F410197224601200021009F00F03D
:1002D00025F838184D4100902046641E0028DFDCC8
:1002E000019B00982946324607B0F0BD1CB509486D
:1002F00000900948019005460126009C05E0E3684E
:1003000007CC33430C3C98471034AC42F7D3FFF78B
:1003100083FF0000F02E1000102F100010B5202ACF
:1003200004DB0146203A9140002010BD914020237B
:100330009C1A0346E3401943904010BD10B5202A93
:1003400004DB0846203AD040002110BD0B46D340C4
:10035000D0402024A21A91400843194610BD000045
:10036000F0B581B0274909680422551A0322910685
:10037000044600910C400123234902E02D1D012E6B
:1003800022D0EE1E774277410E6836061E4600D513
:100390003E46CEB9AE1E774277410E6836061E46FF
:1003A00000D53E4686B96E1E774277410E68360606
:1003B0001E4600D53E463EB96F426F410E68360676
:1003C0001E46DBD53E46D9E783019B0F02D01206BD
:1003D0000C6802E034B10C68009A944304430C604A
:1003E00001B0F0BD130704461C4002D00C689C43CA
:1003F000F4E70C68054B5D1CA84201D21204ECE73F
:100400001C40EBE70800002090020040FFFFFF3F88
:100410001F21014001228A40800F80000249435879
:10042000134343507047C04604020040F0B58CB0FF
:100430000F46034601242004D44D2E46103E316859
:100440000143316028465038016873B304221143D8
:100450000160CF4800684008101A02E0001D012A20
:1004600051D0C21E514251412A68D206224600D4C0
:100470000A46002A47D1821E514251412A68D206BB
:10048000224600D40A46F2BB421E514251412A681C
:10049000D206224600D40A46AABB414241412A68FC
:1004A000D2062246DAD40A46D8E701221143016077
:1004B000FB48006840080421081A01E0001D12BB37
:1004C000C21E514251412A68D207224600D10A4633
:1004D000CAB9821E514251412A68D207224600D130
:1004E0000A4682B9421E514251412A68D207224629
:1004F00000D10A463AB9414241412A68D207224610
:10050000DCD10A46DAE7A3483818A34AA34988424F
:1005100007D8A4480025874239460B9505D32846BD
:1005200004E09F480343336001E101200327914227
:100530003D4600D3054691420394029301960095EF
:1005400000D2022081400D46484209900B9BD943BE
:100550000420069005200590062004900A9312E0DE
:10056000B81C0A90002107980B900498801D0490F5
:100570000598801D05900698801D0690089FBF1D58
:10058000212F00D1BBE0062F089729D8D748B0FB10
:10059000F7F39C00281B5B00002706E0C01AE41854
:1005A0007F1C40F20026BE421AD0804AA6187E4A1E
:1005B0009642F3D2AC4203D806468E42EED203E016
:1005C000099E36198E42E9D22EB1B91C0A913146E4
:1005D000089E0B96E2E7B81C0A90002108980B9041
:1005E000089805282CD8401C0790C048069BB0FBF3
:1005F000F3F398002C1A5B00002706E0C018E41AF9
:100600007F1C40F20026BE421AD0684A8618664A0D
:100610009642F3D2A84203D826468E42EED203E099
:10062000099E36188E42E9D22EB1B91C0A91314684
:10063000079A0B92E2E7B81C0A90002107980B90EA
:10064000089804282CD8801C0790A848059BB0FB6C
:10065000F3F398002C1A5B00002706E0C018E41A98
:100660007F1C40F20026BE421AD0504A86184E4ADD
:100670009642F3D2A84203D826468E42EED203E039
:10068000099E36188E42E9D22EB1B91C0A91314624
:10069000079A0B92E2E7B81C0A90002107980B908A
:1006A0000898032800D960E7C01C0790F848049B0D
:1006B000B0FBF3F398002C1A5B00002707E0C0188A
:1006C000E41A7F1C40F20026BE4200D14DE7374AB3
:1006D0008618354A9642F2D2A84203D826468E4260
:1006E000EDD203E0099E36188E42E8D2002E00D1EA
:1006F00036E7B91C0A913146079A0B92DFE70B9C4B
:10070000600240F20021401A0A9DA91E009B9A0334
:100710000A4302430298024301980260581C604356
:10072000DB49B1FBF0F068434200039C174DC6481B
:10073000006840080421081A02E0001D012B22D0A5
:10074000C31E594259412B685B07234600D40B4610
:10075000CBB9831E594259412B685B07234600D40D
:100760000B4683B9431E594259412B685B07234608
:1007700000D40B463BB9414241412B685B072346FD
:10078000DBD40B46D9E710460CB0F0BD5002004058
:100790000800002000CA91FE006CDC02008C7D0A7B
:1007A0000EC2000000D8B80501EA3206002847FA58
:1007B000CA490A6802430A607047C046B0B52A4871
:1007C0000268836BD90313D49903284911D41C04FC
:1007D000A40F274D2C5D9D04ED0E6D1C6543DB05BC
:1007E0009B0D244C5C436118B1FBF5F1890000E0DE
:1007F0000021214B1960846807232340022B1AD063
:10080000012B0FD102231A4048F200011B4A0DD1DF
:1008100004681C430460126804689C430460520628
:1008200007D408E0990016A2515804E01268520655
:1008300001D547F6005180690F220240501CB1FBE0
:10084000F0F0DE49086017494118174AB1FBF2F190
:10085000164A1160B0BC02BC8E46714672467346A1
:10086000F4468EF30088744708020040001BB7006E
:10087000202D1000C0C62D000400002000110440EF
:10088000001BB7000080000000000000007D000099
:1008900000000000006CDC0200093D00001BB700F6
:1008A0000800002020A1070040420F0000000020A7
:1008B00080B501F09DFAC148006880BC02BC8E463C
:1008C000714672467346F4468EF300887447C046FC
:1008D000824800680121014049426D480840714644
:1008E00072467346F4468EF300887447001BB700C7
:1008F0007A480068022101408803714672467346B7
:10090000F4468EF300887447810AC9B291B182051A
:10091000D20E9140000C0C2303400A48C0580A4BE9
:10092000C0580840D040714672467346F4468EF374
:10093000008874470020714672467346F4468EF371
:1009400000887447F02C10002002004010B529499F
:10095000431829490A68032B10D8980001A21018DF
:100960008746C04600F006B800F02FB800F025B862
:1009700000F027B809690120084030E01F4B984279
:100980000BD1900725D408680222104308601C4848
:1009900000680B6893430B601DE00201520F1DD0ED
:1009A000C301DB0E9A40800E0C2404401548005908
:1009B000081880681040D84011E00869C005C00FD1
:1009C0000DE008698005C00F09E008698007C00FC5
:1009D00005E00B4800680006C00F00E0002010BCD6
:1009E00002BC8E46714672467346F4468EF300880A
:1009F0007447C046F0FFFF7F08020040010000403E
:100A000000110440E02C100080B501F0F1F96B48B2
:100A1000006880BC02BC8E46714672467346F4463E
:100A20008EF300887447C04680B501F0E1F9634851
:100A3000006880BC02BC8E46714672467346F4461E
:100A40008EF300887447C046080000200F480168F4
:100A5000C80313D488030E4811D40A04920F0D4B17
:100A60009A5C8B04DB0E5B1C5343C905890D0A4A53
:100A70004A431018B0FBF3F0800000E000207146FC
:100A800072467346F4468EF3008874474002004075
:100A9000001BB700202D1000C0C62D0081B0002023
:100AA00000900D48016804220A4302600B48016867
:100AB00080220A4302600A48026802210A4000922A
:100AC00002688A43026030BF009A12B102680A438A
:100AD000026001B07047C04610ED00E00002004027
:100AE00010E000E0F0B581B00146324D286800907A
:100AF0002F46503F38680426304338602E488142E4
:100B000000D80146CF4800684008301A012202E0B0
:100B1000001D012C22D0C41E634263412C68E406F0
:100B2000144600D41C46CCB9841E634263412C6831
:100B3000E406144600D41C4684B9441E6342634153
:100B40002C68E406144600D41C463CB94342434199
:100B50002C68E4061446DBD41C46D9E72846403806
:100B600002680723134303602846303802680F23C6
:100B70009A4302601248814200D301462868C007A8
:100B800006D10120C004FFF751FC04462D6804E0A3
:100B90000020FFF74BFC0446009D0220002100F0DE
:100BA00011F8E80602D43868B0433860204601B036
:100BB000F0BDC0465002004000366E010800002023
:100BC00000D8B805F0B585B002909D4CA06D04909A
:100BD000A26804273A43A260F54802685208BA1A8C
:100BE000012502E0121D012E22D0D61E7342734150
:100BF000A66DF6062E4600D41E46CEB9961E73424A
:100C00007341A66DF6062E4600D41E4686B9561EC2
:100C100073427341A66DF6062E4600D41E463EB9B9
:100C200053425341A66DF6062E46DBD41E46D9E745
:100C3000A369072001900343A361DD4A13683A4684
:100C4000FB1A02E01B1D012F22D0DF1E7E427E41D7
:100C500027683F062F4600D53746CFB99F1E7E42F4
:100C60007E4127683F062F4600D5374687B95F1E6D
:100C70007E427E4127683F062F4600D537463FB962
:100C80005E425E4127683F062F46DBD53746D9E7EF
:100C9000236803260396B3432360EF4B1B68D31AE4
:100CA00002E01B1D012F22D0DF1E7E427E416768BD
:100CB000FF072F4600D03746CFB99F1E7E427E41A8
:100CC0006768FF072F4600D0374687B95F1E7E4210
:100CD0007E416768FF072F4600D037463FB95E4226
:100CE0005E416768FF072F46DBD03746D9E7564895
:100CF0000368174613430B26B3430360A36A0F260A
:100D0000B3430B43A362A169019881430298014355
:100D1000A16101F06DF8D0480068391A02E0091DA0
:100D2000012B22D0CB1E5A425A4123681B062B4668
:100D300000D51346CBB98B1E5A425A4123681B0675
:100D40002B4600D5134683B94B1E5A425A4123689D
:100D50001B062B4600D513463BB94A424A4123683D
:100D60001B062B46DBD51346D9E738494118384ACC
:100D7000914201D2012005E03649401836498842A7
:100D800005D8022021680322914308182060102111
:100D9000DD480068314A904205D8206803220243AA
:100DA0002260D9480068049A0A400492391A02E085
:100DB000091D012B22D0CB1E5A425A416368DB0722
:100DC0002B4600D01346CBB98B1E5A425A4163685A
:100DD000DB072B4600D0134683B94B1E5A425A41BB
:100DE0006368DB072B4600D013463BB94A424A41B1
:100DF0006368DB072B46DBD01346D9E71849421856
:100E000018498A42104B05D3174A8018884206D2E7
:100E1000022003901868B043039A80181860DA48DB
:100E20000068884205D21868012101430E208143E1
:100E30001960049810B9A068B843A06005B0F0BD6F
:100E4000F8010040080000204CC00040FF9323FD43
:100E500000512502FFF6C2FFFF629F0200093D001C
:100E6000800F05FD40787D01C08782FE70B51E4B66
:100E70001C681E4DA8420FD1A0071F482DD41A6828
:100E8000022422431A6002688025AA430A430260B2
:100E90001868A043186070BD840AE4B264B1850587
:100EA000ED0EAC40050C0C262E40114DAD595D19D0
:100EB000AE69A6431643AE610201520F12D0C401BF
:100EC000E40EA240800E0C2404400A480059181871
:100ED000836893430B43836070BD026880239A4309
:100EE0000A43026070BDC046080200400100004095
:100EF000F02C1000E02C100000110440B0B5A24905
:100F000009680422521A0123164902E0121D012D1C
:100F100022D0D51E6C426C410D682D061D4600D5B1
:100F20002546CDB9951E6C426C410D682D061D46B7
:100F300000D5254685B9551E6C426C410D682D06BD
:100F40001D4600D525463DB9544254410D682D0635
:100F50001D46DBD52546D9E70A6807239A43024395
:100F60000A60B0BD90020040B0B50146F748006885
:100F700040080322131A0F4C0120002225680D405F
:100F80008D4214D0022B11D025680D408D420ED019
:100F9000012B0BD025680D408D4208D033B1256858
:100FA0000D408D4203D01B1D032BE7D11046B0BD71
:100FB0000800002050020040F0B581B00546DF482F
:100FC00000240460FFF745F9C0002B4F2B4E384634
:100FD00000D530462221C160FFF73BF9C0003846FA
:100FE00000D5304600944560FFF733F9C00038461D
:100FF00000D53046012101610D07D4480068800802
:10100000441CFFF726F92842384600D030460069D4
:10101000C00707D0641E002CF3DC0020C443C7487F
:10102000046000E0009CFFF714F92842384600D025
:101030003046006840060CD5FFF70BF9284200D077
:10104000374638684021014339600020C443BB481B
:101050000460204601B0F0BD0800002080B5FFF715
:10106000F8F8C00001D5054800E0034801680122F6
:101070000A43026080BDC04600C0004000C000506E
:10108000F0B581B00446AD4800260660FFF7E1F8F0
:10109000C0003B4D1B4F284600D53846001F066058
:1010A000FFF7D7F8C000284600D5384600960C3820
:1010B0000460FFF7CEF8C000284600D5384601216D
:1010C00001600C07A1480068C008461CFFF7C1F882
:1010D0002042284600D038460068C00708D0761E57
:1010E000002EF3DC0098C0439449086001B0F0BDC5
:1010F000FFF7AFF8204200D03D46083D286801B018
:10110000F0BDC04610C0005008000020B0B5014638
:101110008A4A002010601A4B1C1F2C2525601C4693
:101120000C3C216019460839164C0C6001211960ED
:1011300086490968C908491C1C68E40714D04C1E7C
:10114000012C0EDB1D68ED070ED0022909D01D68A9
:10115000ED0709D0032C04DB1C68E40704D0091F49
:10116000EAD10020C0431060103B1968490606D53B
:1011700018684021014319600020C0431060B0BDD1
:1011800010C00040A55AA55A08000020F0B58AB04A
:1011900016460546694B00271F60FA43541E6848EF
:1011A0000542204600D0C2E00292664A27209060A5
:1011B00015600868D067644C23463C3B4868079339
:1011C00018602346383B8868059318602346343BF3
:1011D000C868049318600120D060142E00D284E007
:1011E00009950691B10803910422102101910892FA
:1011F0001AE087F310885149029B0B602168069E14
:10120000910073584F4DEB6771184B68079E336020
:101210008B68059E3360C968049B1960E860121DE5
:1012200003998A42089262D24849096880F310887B
:10123000C9084D1C216801400AD187F310886268F3
:101240000F26B2433F4B1A601A68099BD21A9208C4
:101250006D1E002DCDDD266811B130231E40E9D171
:101260000029CCD008998900069E7358354DEB674C
:10127000711800914968079B196034490968C908C9
:101280004D1C216801400AD187F3108862680F2342
:101290009A432C4B1A601A68099BD21A92086D1E49
:1012A000002D18DD266811B1C0231E40E9D1C1B15F
:1012B000009DA968059B1960E968049B196087F384
:1012C0001088089B1B1D0199103101910399089307
:1012D0008B42A9D30BE087F310881849029B0B605F
:1012E000216801990831019189E710200190174880
:1012F0000068C008401C114B029C1249C96BC90709
:1013000018D0411E012911DB0E4AD26BD20711D031
:1013100002280BD00B4AD26BD2070BD0032905DB76
:101320000849C96BC90705D0001FE6D101981C60A8
:101330000AB0F0BD01980AB0F0BDC04664120020AA
:101340000700F0FF04C00040C0C0004008000020BB
:10135000F0B581B000910023194603E01033083145
:10136000202B61D0009DCD40EE0707D016469E4051
:1013700003279F400468BC4334430460AC0708D58E
:101380009C1C1646A6400C249C400768A743374384
:1013900007606C0708D51C1D1646A64030249C40EB
:1013A0000768A743374307602C0708D59C1D1646DE
:1013B000A640C0249C400768A74337430760EC065B
:1013C0000AD51C4608341646A64040F200349C401C
:1013D0000768A74337430760AC060AD51C460A34A2
:1013E0001646A64040F600449C400768A743374392
:1013F00007606C060AD51C460C341646A64043F21C
:1014000000049C400768A743374307602C06A5D516
:101410001C460E341546A5404CF200049C4006685C
:10142000A6432E43066099E701B0F0BDF0B585B044
:101430000E46042101404025054003D129B9EFF3B0
:10144000888604E019B1164601E0EFF38986B16998
:1014500082A001F063F916B1B7693C88FFE784A068
:1014600001F0B6FB87A0214601F058F901200007E2
:101470003840401904D08948844205D1A24800E090
:10148000A24801F0A5FB49E0200B0528049719D1DB
:1014900007272740E005420F0392A006450F994811
:1014A00039462B4601F03AF9A800305803998900D3
:1014B00071580818B900715800910190200527D57E
:1014C0007F4B26E0610B032908D107252540A006A4
:1014D000470F6005C30E039389480BE0092871D0BC
:1014E00008287CD107252540A006470F6005C30EBC
:1014F000039375A029463A4601F010F9A800305828
:10150000B9007158039A8918009001912005D7D429
:101510006A4B04996B48224601F000F97C48016847
:10152000002900D198E000200A46C240D30700D02D
:1015300080E093073AD453073AD413073AD4D3063A
:101540003AD493063AD453063AD4130649D4D30571
:1015500049D4930549D4530549D440F60003834048
:101560000B4246D1D30446D4930446D4530446D404
:10157000130446D4D30346D4930346D4530346D42A
:10158000130346D4D30246D4930246D4530246D41E
:10159000130246D4D30146D4930146D4530146D412
:1015A000120146D41C305428BED155E0401C41E005
:1015B000801C3FE0C01C3DE0001D3BE0401D39E0C9
:1015C000801D37E0E5B26005470F35A039462A4651
:1015D00001F0A4F8B8003058B169491994E742A065
:1015E0004FE7C01D26E0083024E0093022E00A3031
:1015F00020E00B301EE00C301CE00D301AE00E3005
:1016000018E00F3016E0103014E0113012E0123004
:1016100010E013300EE014300CE015300AE0163004
:1016200008E0173006E0183004E0193002E01A3004
:1016300000E01B308100374A5158374A145C374D5F
:1016400060194268364801F069F8605980003549F0
:101650000958354801F062F8FEE7C04648617264F7
:101660004661756C742040203078253038780A0047
:10167000486172644661756C7420416E616C797367
:1016800069733A00496E737472756374696F6E2082
:10169000636F6465203D2025780A0000ABBE000022
:1016A0004C4452482F535452482072743D257820A0
:1016B000696D6D383D25780A000000009E2E1000EF
:1016C0009A2E10001D2E10004C4452482F53545295
:1016D000482072743D257820726E3D257820696D12
:1016E0006D353D25780A0000556E65787065637428
:1016F000656420696E737472756374696F6E00003F
:101700004B2E1000682E1000A22E1000C52E1000C7
:1017100030F10240082C1000F02B100000F00240C5
:10172000832E10005C2C10003D2E1000F0B589B007
:10173000D14F396801263004089070040790B00436
:101740000690F00405903005049070050390B005F4
:101750000290F0050190002900D1C4E00020344639
:1017600084400C4200D0ACE0022484400C4273D18F
:10177000042484400C4271D1082484400C426FD16F
:10178000102484400C426DD1202484400C426BD143
:10179000402484400C4269D1802484400C4267D1AB
:1017A00040F2001484400C4264D140F20024844092
:1017B0000C4261D140F2004484400C425ED140F6BC
:1017C000000484400C425BD141F2000484400C428E
:1017D00058D142F2000484400C4255D144F2000436
:1017E00084400C4252D148F2000484400C424FD154
:1017F000089C84400C424DD1079C84400C424BD144
:10180000069C84400C4249D1059C84400C4247D13F
:10181000049C84400C4245D1039C84400C4243D13B
:10182000029C84400C4241D1019C84400C423FD137
:10183000340684400C423DD1740684400C423BD1B6
:10184000B40684400C4239D1F40684400C4237D1AE
:101850001C30542883D146E0401C32E0801C30E02C
:10186000C01C2EE0001D2CE0401D2AE0801D28E059
:10187000C01D26E0083024E0093022E00A3020E0D4
:101880000B301EE00C301CE00D301AE00E3018E07A
:101890000F3016E0103014E0113012E0123010E07A
:1018A00013300EE014300CE015300AE0163008E07A
:1018B000173006E0183004E0193002E01A3000E07A
:1018C0001B3081006D4A51586DA2105C38180246D9
:1018D0002C3A12683038006880006FA31B587AA039
:1018E00000F01CFF3C6083480168002900D182E0C1
:1018F00000200222042308271025202400943446C7
:1019000084400C4200D0ADE0144684400C4274D1B7
:101910001C4684400C4272D13C4684400C4270D13B
:101920002C4684400C426ED1009C84400C426CD109
:10193000402484400C426AD1802484400C4268D107
:1019400040F2001484400C4265D140F200248440EF
:101950000C4262D140F2004484400C425FD140F618
:10196000000484400C425CD141F2000484400C42EB
:1019700059D142F2000484400C4256D144F2000492
:1019800084400C4253D148F2000484400C4250D1B0
:10199000089C84400C424ED1079C84400C424CD1A0
:1019A000069C84400C424AD1059C84400C4248D19C
:1019B000049C84400C4246D1039C84400C4244D198
:1019C000029C84400C4242D1019C84400C4240D194
:1019D000340684400C423ED1740684400C423CD113
:1019E000B40684400C423AD1F40684400C4238D10B
:1019F0001C30542883D109B0F0BD401C32E0801C5B
:101A000030E0C01C2EE0001D2CE0401D2AE0801DAF
:101A100028E0C01D26E0083024E0093022E00A302A
:101A200020E00B301EE00C301CE00D301AE00E30D0
:101A300018E00F3016E0103014E0113012E01230D0
:101A400010E013300EE014300CE015300AE01630D0
:101A500008E0173006E0183004E0193002E01A30D0
:101A600000E01B30800005490958234800F056FE6D
:101A70002048046009B0F0BD30F002408C2C10000A
:101A8000343C0000444C545C6400747C848C949C12
:101A9000A4ACB4BCC4000000192E1000000000006B
:101AA00000000000BF2D1000CA2D1000102E1000E5
:101AB000EE2D1000000000000000000000000000FB
:101AC00000000000D52D1000202025732830782537
:101AD0003038782920416C61726D2120696C6C6509
:101AE00067616C206163636573732062792025737D
:101AF0000A00000030F10240952D1000F0B589B0C9
:101B00009A4B18462438002101601846203801609D
:101B10000A46089118461C3895490160184618383D
:101B2000944901601846143807210160184610389E
:101B30009149016018460C380260904A9048506103
:101B40009061D06110628F4951629062D0621063DF
:101B5000196848F2000211431960196844F2000242
:101B600011431960196842F20002114319601968A3
:101B700041F2000211431960196840F60002114356
:101B80001960196840F2004211431960196840F267
:101B9000002211431960196840F2001211431960C4
:101BA0001968802206921143196019684022059233
:101BB00011431960196820220492114319601968B1
:101BC00010263143009619601968082529430795A6
:101BD000196019680422114319606B498C6848F236
:101BE00000073C438C60441C88682043274688607B
:101BF000086840F2004318430860086840F6000394
:101C000018430860086844F200042043086008682C
:101C100048F2000420430860086840F20024204392
:101C200008600868104308600868284308600122BB
:101C300093040193886818438860D404886820431B
:101C40002346039488609405081F056825430560B2
:101C5000D4050568254305600C681C430C6013051A
:101C600002930C681C430C6094070D6825430D60BB
:101C70000C6834430C600C68049D2C430C600C68A9
:101C80003E463C430C60530404930D681D430D60B5
:101C90004D6840F200473D434D604D6840F60007F7
:101CA0003D434D600D68059F3D430D600D68069FE7
:101CB0003D430D604D68019B1D434D6015060F6847
:101CC0002F430F608F68009C27438F60076837435E
:101CD00007600768049C2743076004681C4304608E
:101CE0000468039B1C4304600468029B1C4304605B
:101CF00054050668264306604C6840F200163443DB
:101D00004C604C682C434C60046840F200431C4318
:101D10000460046840F600031C430460046841F258
:101D200000052C430460046842F200052C43046063
:101D3000046844F200052C430460046848F200057E
:101D40002C430460486840F2002420434860500659
:101D50004A6802434A600898C043044988600749BA
:101D600008600A480799016009B0F0BD24F00240FC
:101D70008C0006001F003F00010000082CF102400B
:101D8000FFFF0000FFE7000084E300E00CE100E05B
:101D9000002070479A48016802220A430260704797
:101DA00010B50121CA05C3B210490A2B0FD10B6827
:101DB000134208D00B68134205D00B68134202D0BF
:101DC0000B681342F3D10B46183B0D241C600B68C3
:101DD000134208D00B68134205D00B68134202D09F
:101DE0000B681342F3D11839086010BD1800075072
:101DF00080B501F0ADF80749086001F0A5F87D490C
:101E00000860054940180549B0FBF1F00449086035
:101E100080BDC0460400002020A1070040420F0002
:101E200000000020F0B581B0FEF713FAC0005F4D4E
:101E300021D4592016218822286029602A602B6825
:101E40007BB9286029602A602B6853B92860296013
:101E50002A602B682BB9286029602A602B68002B28
:101E6000EAD053480146103941F200020A60016885
:101E7000504A0A4302605049084608384F4A0260F7
:101E80004F48032606601F22530343604D4B836077
:101E9000042303604C4B43604C4B83600523036079
:101EA0004B4C44604B4C8460062404604A4C4460B4
:101EB0004A4C8460072404601B074360484B8360DE
:101EC0000346083B01241C600B680827BB430B60DA
:101ED000091F444B0B6006604349914341604349ED
:101EE00031431C2291438160FFF708FE30044049D2
:101EF0000968814258D03F490968711A592216234E
:101F000088262A602B602E60022917D02F68AFB96F
:101F10002A602B602E60012910D02F6877B92A60C3
:101F20002B602E6051B12F6847B92A602B602E605C
:101F3000091D032902D02F68002FE2D02E490A463E
:101F4000103A112313600A460C3A2C4B13600A1FF7
:101F5000002313600C600B6833B10B6823B10B686E
:101F600013B10B68002BF6D10B46083B1D686D1CA6
:101F70000BD0222515600C600D6835B10D6825B1B8
:101F80000D6815B10D68002DF6D118602120106084
:101F90000C60086830B1086820B1086810B10868A2
:101FA0000028F6D11648046001B0F0BD00010040E1
:101FB000040200400040F0FF10ED00E000001000BF
:101FC000D8ED00E0E3F7030000000310E1FF0F107D
:101FD000007E8000E37F800000800030E1FF04305D
:101FE000E1FFFF5F0000FA05202F1000802F100096
:101FF00028F002400800002010C000400008210026
:1020000008000040F0B589B00D460446434801A9D8
:10201000CCC8CCC1CCC8CCC1414884420ADC4848B9
:10202000844215DC4A48844225D04A48844226D05E
:10203000494809E03B48844212DC3E4884421AD0B9
:102040003D4884421BD03D48844265D1464E25E040
:102050003C48844211D03C4884421ED03B4806E0B4
:102060003148844209D03148844216D030488442F5
:1020700052D13A4E04E0F54E10E03A4E00E03B4EAD
:10208000304600F069FF0746304600F069FF06461B
:10209000042F1AD100F054FF0CE0314E304600F00E
:1020A0005BFF0746304600F05BFF0646042F0CD16D
:1020B00000F042FF002121630321E160A1682C4A66
:1020C0000A40A260059004270DE000202063032051
:1020D000E060A06826490140A160012F03D100F013
:1020E00037FF02900127BDB1B80001A90858711C43
:1020F000B0FBF1F168080818B0FBF5F0801E020C87
:1021000006D0E8000818B0FBF5F00009801E02E0D8
:10211000032109070843606209B0F0BD002D1000DB
:10212000FFFF0650FF2F07500030075000400750B8
:1021300000500750000007500010075000200750C3
:10214000FF2F074000300740004007400050074085
:10215000000007400010074000200740953DCC7F5D
:10216000143D8C7F933CCC6F123C8C6F913D406F43
:102170000FFFF0FF10B50121CA05C3B210490A2BA9
:102180000FD10B68134208D00B68134205D00B68BF
:10219000134202D00B681342F3D10B46183B0D24B7
:1021A0001C600B68134208D00B68134205D00B6803
:1021B000134202D00B681342F3D11839086010BDE6
:1021C0001800075090B09E4800680324201A9D49CB
:1021D0005922162388270A600B600F60022817D047
:1021E0000D68ADB90A600B600F60012810D00D6852
:1021F00075B90A600B600F6050B10D6845B90A608F
:102200000B600F60001D032802D00D68002DE2D086
:102210000420FEF7CDFA1020FEF7A6FE8A48FEF74E
:1022200061FC8A4D2846FEF7F3F826040022284672
:1022300031460992FEF71AFE0F200004844A116805
:1022400081438819106010684FF20001884343F2FF
:10225000000140181060FA4E30461838E12149025A
:10226000FFF7D0FEFDF7F5FFC000F848F8490290EF
:1022700000D50846012441F200012246FFF768F824
:10228000FEF7ECFEF34D2846FEF7FAFE0A90281DF5
:102290000790FEF7F5FE0B90284608300690FEF7F3
:1022A000EFFE0C9028460C300590FEF7E9FE0D90ED
:1022B000284610300490FEF7E3FE0E901435039587
:1022C0002846FEF7DDFE0F9008942407E2490968CE
:1022D00029B3E34800F07CFC099FDE4D2846FEF759
:1022E000CFFE0A900798FEF7CBFE0B900698FEF7FC
:1022F000C7FE0C900598FEF7C3FE0D900498FEF7FC
:10230000BFFE0E900398FEF7BBFE0F90D2490968FE
:10231000F9B1D34800F05CFC0AA807754EE0000A4A
:10232000C0B20028D8D0012825D0FF2800D084E0F2
:10233000DCA000F04DFC09980A900B900C900D90D9
:102340000E900F90FDF785FF204200D15FE1CA4853
:102350005FE1C0B2FF2831D1DEA000F039FC0A975E
:102360000B970C970D970E970F97FDF772FF204272
:102370000DD0C1480DE0BBA000F02AFC0AA80999C5
:102380004175FDF766FF204264D0BB4864E0B34866
:102390001038016808220A4302602846FEF70CFE46
:1023A00010B1B64800F014FC0AA918222846FEF71E
:1023B000EDFE002802DCB24800F00AFC0AA8057D08
:1023C000A648006BCB490140CBA02A4600F0A6F9F5
:1023D0003068204208D13068204205D13068204260
:1023E00002D130682042F3D02846FEF78FFE9A488B
:1023F000076094480068994B191F2E220A601946FD
:102400000C390F6008991960C008401C196889B11F
:10241000411E01290BDB1A6862B1022807D01A6835
:1024200042B1032903DB196821B1001FEED1F84343
:1024300089490860FFF7AEFCFEE79FA04AE7C04667
:10244000080000200001004000D8B805103D006FD2
:102450004400004081481038016808220A430260A5
:102460007C48FEF7A9FD10B1844800F0B1FB0AA931
:1024700018227848FEF78AFE002802DC804800F027
:10248000A7FB089D2806FDF76BFFE806FDF768FF30
:102490000620FEF733FD7BA000F09AFB3068204257
:1024A00008D13068204205D13068204202D130681E
:1024B0002042F3D0644A1046103809990160104652
:1024C0001438016010460838016010460C3801606D
:1024D0001160101F0160916051601161D1609161C4
:1024E00051611162D16191625162FDF7B2FE684D96
:1024F0002042284600D0674867490160FDF7A9FEE1
:102500002042284600D0634863490164FDF7A1FEDC
:102510002042284600D05F4880225F4901928150C6
:10252000FDF797FE2042284600D05A48C0225A495B
:1025300000928150FDF78DFE2042444800D044486F
:1025400055490160FDF785FE2042404800D04048D3
:1025500051490164FDF77DFE20423C4800D03C48D3
:102560004D49019A8150FDF774FE2042374800D052
:1025700037484949009A8150FDF76BFE20422846B2
:1025800000D0444845498160FDF763FE204228465B
:1025900000D0404841498164FDF75BFE2042284657
:1025A00000D03C483D49C151FDF753FE204200D0C8
:1025B000384DC821394801916850FDF74AFE204244
:1025C000224800D0224835498160FDF742FE204272
:1025D0001E48204D00D01E4830498164FDF739FE69
:1025E00020421A4800D01A482C49C151FDF731FE4B
:1025F000204201D01648029002982849019A815041
:102600002748099F47600760FEF748FA66E61348C7
:102610001038104D016808220A4302602846FEF770
:10262000CBFC10B1154800F0D3FA0AA918222846AD
:10263000FEF7ACFD002800DD4EE611484AE6C04634
:1026400018000750080000204400004000410040EE
:102650000041005000F80F006412002010C000403C
:102660006C2D100062722E676F746F5F647064204F
:102670003D3D20747275650000C000504C2D100067
:10268000242D1000656E7465725F647064282900E3
:10269000004000400040005055555555FFFF0000D8
:1026A0000802004062722E676F746F5F647064206E
:1026B0003D3D20307866660073686F756C645F67B7
:1026C0006F746F5F6470642829206572726F722165
:1026D0002121000062722E62616E6B203D3D203030
:1026E0007866662C20626F6F7420746F2062616E52
:1026F0006B30000000FEFF000A0A4C6F61646572D7
:102700003A205645434D4150203D20307825782CC5
:102710002042616E6B203D2025750A000FB410B574
:1027200003A9044B044A029800F018F810BC08BC36
:1027300004B01847752110001012002002E008C8EC
:10274000121F08C1002AFAD170477047002001E02B
:1027500001C1121F002AFBD170470000FFB591B0E4
:102760000F460546002606E025280AD0149A13993C
:1027700090476D1C761C28780028F5D1304615B09E
:10278000F0BD002400940121F34A029400E00443C8
:102790006D1C2B780846203B98401042F7D12878D2
:1027A0002A280ED0022128780246303A092A15D864
:1027B000009A0A235A43303A80180C436D1C00904B
:1027C000F1E701CF0090002805DA0120400304431F
:1027D000009840420090022004436D1C28782E2867
:1027E00015D10420044368786D1C2A280AD101CF32
:1027F0006D1C02900BE002990A22514330394018B7
:102800006D1C02902878014630390929F3D92878BF
:102810006C2810D006DC4C281AD068280ED06A2804
:1028200017D104E0742813D07A2812D110E00120C7
:10283000400504430CE00121090501E003210905DD
:102840000C436978814203D10120000524186D1CD6
:102850006D1C287803906E281ED00CDC632831D0C4
:1028600004DC00288AD0582811D1B2E064287BD03B
:1028700069280CD178E073282DD004DC6F2870D043
:10288000702804D1A7E075286CD078286BD0149AF2
:1028900013999047761C62E06002400F022807D02F
:1028A00003280AD0042838680AD006603F1D56E085
:1028B0003868F11706604160F8E738680680F5E788
:1028C0000670F3E73878694608740020487404A855
:1028D0000390012003E0386803900020C0433F1DAF
:1028E00061070FD5002101E00199491C029A01916D
:1028F000914213DA8142F7DB019A0399895C00293E
:10290000F2D10BE0002101E00199491C01918142C3
:10291000FADB019A0399895C0029F5D101990098A5
:10292000139A401A00902146149B00F03BF901993C
:102930008019461807E0039803990078491C039111
:10294000149A139990470198401E0190401CF2D1AF
:102950002146149B139A009800F014F986196D1CF7
:1029600009E741E033E034E00A20002104900591BA
:102970006002410F022905D001CFC21794460329F6
:1029800005D007E0FF1DFF08FF0003CF06E000B2FF
:10299000C2179446042902D140B2C1178C460022C6
:1029A0006146944506DA0A460021404291418C4630
:1029B0002D2102E0210504D52B216A461176012143
:1029C00003E0E10701D02021F7E7019154E00A205C
:1029D0000BE0102009E010200490002104200443A3
:1029E00008200591029003E0082000210591049041
:1029F0006002410F022905D001CF0022944603292D
:102A000006D006E0FF1DFF08FF0003CF8C4603E061
:102A100080B2042900D1C0B20021019121072BD539
:102A20000399702906D0049A1021059B4A401A4345
:102A300005D00EE040216A461176012108E061468A
:102A4000014306D030216A4611760399517602215E
:102A50000191049A0821059B4A401A430CD1614612
:102A6000014301D1610707D530216A461176012162
:102A700001910299491E02910399582904D037A166
:102A800003910FA90F910DE039A1F9E76146059B6C
:102A9000049AFDF7FBFB039B8C469B5C0F9A521E2E
:102AA0000F92137061460143F0D10F9807A9081ADD
:102AB00020300390600704D501200004844302986D
:102AC00001E0012002900399884201DD401A00E0F4
:102AD000002041180290019809180098401A0090AF
:102AE000E00306D42146149B139A009800F05AF88C
:102AF00086190020049008E006A9085C149A13992E
:102B000090470498401C761C049001998842F3DB9E
:102B1000E0030CD52146149B139A009800F042F86C
:102B2000861904E0149A302013999047761C029974
:102B3000481E02900029F5DC08E00F980F990078F4
:102B4000491C0F91149A13999047761C0399481EBB
:102B500003900029F1DCFBE6092801003031323313
:102B600034353637383961626364656600000000C9
:102B700030313233343536373839414243444546B3
:102B800000000000F8B5044600251E4617468804DC
:102B900004D405E039462020B0476D1C641EF9D5E9
:102BA0002846F8BDFFB50446002581B01E46C8037F
:102BB00001D5302700E02027880404D505E03846F9
:102BC0000399B0476D1C641EF9D5284605B0F0BDC9
:102BD00010B5044601E0FFF7CDFA2078641C0349E4
:102BE0000028F8D10A20FFF7C5FA10BD1012002006
:102BF000343C0000444C545C6400747C848C949C91
:102C0000A4ACB4BCC4000000C52D1000DB2D100026
:102C10000000000000000000042E1000F92D10003C
:102C2000EE2D1000EA2D1000CA2D1000000000004B
:102C3000BF2D1000D52D1000CF2D1000E02D10005D
:102C4000E62D1000F32D1000152E10000C2E100094
:102C5000102E1000092E1000FD2D1000192E10004E
:102C60000000000000000000BF2D1000CA2D100061
:102C7000102E1000EE2D10000000000000000000DB
:102C80000000000000000000D52D1000C52D100030
:102C9000DB2D10000000000000000000042E1000DA
:102CA000F92D1000EE2D1000EA2D1000CA2D100095
:102CB00000000000BF2D1000D52D1000CF2D1000FA
:102CC000E02D1000E62D1000F32D1000152E100041
:102CD0000C2E1000102E1000092E1000FD2D1000DB
:102CE0000000000004000000080000000C000000CC
:102CF00000000000040000000800000010000000B8
:102D0000001BB7000000000000800000001BB7009F
:102D100000000000000000000000000000000000B3
:102D2000010202044552524F5221212120464D43B7
:102D30005F57726974654D756C7469706C6520427B
:102D40004F4F545F524553544F5245004552524FD6
:102D50005221212120464D435F4572617365204217
:102D60004F4F545F524553544F5245004552524FB6
:102D70005221212120464D435F526561644279749E
:102D800065732066726F6D20424F4F545F524553FA
:102D9000544F5245000A257320416C61726D212009
:102DA00043617573656420627920756E707269760F
:102DB000696C656765206163636573730A0A005017
:102DC000444D41300041504230005344483000539C
:102DD00052414D300050444D41310041504231008C
:102DE0005352414D3100464D430043524300555329
:102DF000424800464C415348004542490053494F20
:102E000052414D004750494F004B53005359530016
:102E1000435250540053435500435055005B3078A3
:102E2000253038785D20307825303478202573209F
:102E300030782578205B307825785D0A004361750D
:102E40007365642062792025730A004C44522F5325
:102E500054522072743D257820726E3D2578206989
:102E60006D6D353D25780A004C44522F5354522045
:102E700072743D257820726D3D257820726E3D2557
:102E8000780A00257328307825303878292056694B
:102E90006F6C6174696F6E2120004C445200535472
:102EA00052004578656375746520424B5054207715
:102EB0006974686F75742049434520636F6E6E6551
:102EC00063746564004E6F6E2D7365637572652063
:102ED0004350552074727920746F2066657463685E
:102EE0002073656375726520636F64650000000080
:102EF000802F100000000020100000003C27100070
:102F0000902F100010000020581200004C271000D5
:102F100000000000000000000000000000000000B1
:102F20007FE97FE9FDF7D4BC7FE97FE9FDF7E0BCED
:102F30007FE97FE9FDF7BCBC7FE97FE9FDF764BD70
:102F40007FE97FE9FDF770BD7FE97FE9FDF736BCDA
:102F50007FE97FE9FDF77ABD7FE97FE9FDF7F6BC00
:102F60007FE97FE9FDF7D0BC000000000000000011
:102F70000000000000000000000000000000000051
:102F800030000000006CDC02006CDC02000000007D
:0400000500100211D4
:00000001FF
