:020000041003E7
:10000000E09E0030250203102D0203102F02031082
:100010005365637572697479706C6174666F726D23
:100020000000000000000000000000007134031018
:1000300000000000000000002131031055370310BC
:100040004702031047020310470203104702031040
:100050004702031047020310470203104702031030
:100060004702031047020310470203104702031020
:100070004702031047020310470203104702031010
:100080004702031047020310470203104702031000
:1000900047020310470203104702031047020310F0
:1000A00047020310470203104702031047020310E0
:1000B00047020310470203104702031047020310D0
:1000C00047020310470203104702031047020310C0
:1000D0001D38031023380310470203104702031092
:1000E0004702031047020310991903104702031037
:1000F0004702031047020310470203104702031090
:10010000293803102F380310470203104702031049
:10011000470203104702031047020310470203106F
:10012000470203104702031047020310470203105F
:10013000470203104702031047020310470203104F
:10014000470203104702031047020310470203103F
:10015000470203104702031047020310470203102F
:1001600047020310470203104702031035380310FB
:10017000470203104702031047020310470203100F
:1001800047020310470203104702031047020310FF
:1001900047020310470203104702031047020310EF
:1001A00047020310470203104702031047020310DF
:1001B00047020310470203104702031047020310CF
:1001C000470203104702031047020310493403108B
:1001D00047020310470203104702031047020310AF
:1001E000470203104702031047020310470203109F
:1001F000470203104702031047020310470203108F
:10020000470203104702031047020310470203107E
:100210000348854600F0A6FE00480047B5B6051025
:10022000E09E00301248804712480047FEE77046C3
:10023000EFF30881EFF309820F4B98470047FEE781
:10024000FEE7FEE7FEE7FEE7ABBE0C4B74469847C1
:1002500020477046F047000009480A490160684697
:1002600008600948486030BFFEE700BF00BF00BF1C
:10027000A537031011020310C93103104B340310CA
:10028000C0020040000001206B020310F0B51FB453
:100290000646002082B005464024019100901BE0F4
:1002A000019922460F46304600F0BCFC049A059B9B
:1002B000801A994110D310461946224600F0A2FC3C
:1002C000361A8F410197224601200021009F00F03D
:1002D00099FC38184D4100902046641E0028DFDC50
:1002E000019B00982946324607B0F0BD30B5434324
:1002F00051435C18010C130C0D465D432C1980B260
:1003000092B20546554351430A0C09044D19624106
:100310005843010C00044019514130BD004870475A
:10032000F421071010B50446FFF7F8FF0068005DE0
:10033000C007C00F10BD10B503461C460C43A407F0
:1003400003D009E010C9121F10C3042AFAD203E037
:100350000C781C70491C5B1C521EF9D210BDD2B225
:1003600001E00270401C491EFBD270470022F6E7F4
:1003700010B513460A4604461946FFF7F0FF20461B
:1003800010BD421E5378521C002BFBD10B7813700A
:10039000491C521C002BF9D17047421C0178401CAB
:1003A0000029FBD1801A704710B5002200E0521CD2
:1003B000835C8C5CA34201D1002BF8D1D8B2E1B2AE
:1003C000401A10BD30B504460020034600E05B1C17
:1003D000934203D2E05CCD5C401BF8D030BD0346B5
:1003E0000A780270401C491C002AF9D1184670474F
:1003F00030B505460020034600E05B1C934205D261
:10040000EC5CC85C201A01D1002CF6D130BD10B5CF
:100410004843044641F00EFE002805D00021002C80
:1004200002D0641E0155FAE710BDF7B582B00F4641
:100430000026029C40F0DEFD0090006801902578C7
:10044000641C002D05D0FFF769FF0068405DC00700
:10045000F5D12B2D02D02D2D1CD0641E009800212B
:10046000016039462046049A00F000FC0146002F46
:1004700004D03868A04201D1029838600098006822
:1004800002280BD00098019A0260700506D54842F8
:1004900005B0F0BD012080020643DFE70846F7E71C
:1004A00070B5064640F0A6FD046805460A22002104
:1004B000304600F035FC2C6070BDF8B502464A406D
:1004C000D40F42004B0052085B089A4202D2024607
:1004D000084611464A0023D0C30D4A00DDB2120E71
:1004E000AD1A202D35DA49020126490AF6058A1986
:1004F000002C00D0524220214F1B1146B9402A4106
:100500001018C20D9A4221D0002C17D0012D08DC02
:10051000DA05801AD20F8019D207DBB200F040FC56
:10052000F8BDDA05801A012340001B06C0188018A8
:100530005A428018CA0F1043490007E04908C20711
:100540001143DA05801A80194008801800F020FC59
:10055000F8BD61000122511A001BF7E70122D20702
:100560005140AAE70122D2075040A6E7024670B5E3
:100570004A40D30FDB0740002DD04A002AD0010E9D
:10058000140E000212020919400A520A8418E501E9
:1005900004465443000A120A2E045043A419421977
:1005A000200CC543AA18120C0125AD03521C521988
:1005B00012047F39240400D0521C104301D440009F
:1005C000491EC2B20C06C0092018401C4008802AEF
:1005D00002D003E0002070BD40084000002900DA8E
:1005E0000020184370BD70B502464A40D50F400048
:1005F0004A00ED0740085208002814D0002A12D003
:10060000C40DD30D41020120C0055202490A520A0D
:10061000E41A091812187D34914201D3641C00E0D9
:100620004900002C01DA002070BD0023914201D363
:10063000891A0343400849000028F7D100290AD04D
:10064000914202D10121C90705E0914201D2012165
:1006500001E00121C943E005C018401900F098FBF2
:1006600070BD0000F0B507460846584087B0C00F7F
:10067000049048000E46590040084908BC1A8841B9
:1006800005D2384631461E4617460B4602465800EC
:10069000400810434CD0300D039040055900400DE8
:1006A000490D0590401A0290402872DA1803012182
:1006B000000B09050843019004980092002805D01A
:1006C00001995242002088410092019002984021F5
:1006D0000A1A0199009800F095FA05460C466B46F7
:1006E00007CB00F0B0FAC0197141039A0E0D002338
:1006F000D71756401A467A40164344D0049A002A27
:100700002DD0029A012A039A15DC1205C01A9141D4
:1007100001263605001C7141D20F059ED2070093B9
:10072000019202962A46234600F080FB07B0F0BDF6
:1007300038463146FAE71605224A0F46B218C01A63
:10074000B74101210905001C4F4100187F411146A6
:1007500018187941E20F10436D19644113E0E20764
:100760006D0815436408C2071443039A0126120555
:10077000C01A91413605001C7141CE074008304334
:100780004908C01851412A46234600F042FBCDE7F4
:10079000FFE7049801224000C117121A00238B4181
:1007A00004983146C417381AA141EEE730B4012449
:1007B000E407634030BC55E730B40124E4076140EE
:1007C00030BC4FE70000E0FFF0B51FB488B00B99D4
:1007D0000998002448400999C00F49004908099127
:1007E000C0070B990090490049080B910999089896
:1007F000A64608431CD00B990A98084318D00998BC
:1008000001244000420D4800410D099824050003D1
:10081000000B204309900B980003000B20430B9022
:1008200050181C494018002201901446104605E05B
:10083000002001460DB0F0BD032801DA034600E0B8
:1008400003239C46C11A0AAE0AE05F0008ADED5BC7
:100850004F00F75B7D430027AA187C41491C5B1EB3
:100860006145F2DD410004AB5A522104120C0A43E7
:10087000240C401C0828DFDB019802900099704688
:1008800001910090059B049A0799069800F0CEFA12
:10089000D0E700000DFCFFFFF0B50C465C4085B0D2
:1008A000E40FE40703944C000026640859009446C2
:1008B000490802460296224321D062460A431ED0CE
:1008C0006200570D4A000E032303550D0124024612
:1008D0002C492405781B1B0B360B40182343264359
:1008E000614600901C46501AB44103D30098401C46
:1008F000009002E0921800985B41002803DA002083
:10090000014605B0F0BD00200121090507468646D5
:1009100011E064461D46141BB54106D36546521BC3
:10092000B341744607430C43A646CD074008490827
:10093000284392185B4105460D43EAD110461843FF
:1009400013D06046194650407140084306D06046B7
:10095000101AB34106D20122002306E0002201232F
:10096000DB0702E00122D2435310009874460105D0
:10097000381C6141029C039D0019694100F049FA4D
:10098000BFE70000FD0300000122D207002800DBC2
:10099000101A002900DB511A814201D8012070474A
:1009A000002070470122D207002800DB101A00291E
:1009B00000DB511A814201D20120704700207047AC
:1009C0000122D207002800DB101A002900DB511A8F
:1009D000814201D301207047002070470122D207D5
:1009E000002800DB101A002900DB511A814201D9CE
:1009F00001207047002070470122D207002800DB49
:100A0000101A002900DB511A814201D101207047E0
:100A10000020704710B5002904DB0C460121C907EE
:100A20004042A141002B04DB1C460123DB0752425C
:100A3000A341801A994101D3012010BD002010BDAF
:100A400010B5002904DB0C460121C9074042A14131
:100A5000002B04DB1C460123DB075242A341101A82
:100A60008B4101D2012010BD002010BD10B500291E
:100A700004DB0C460121C9074042A141002B04DBE5
:100A80001C460123DB075242A341101A8B4101D3BC
:100A9000012010BD002010BDC217C10F504010B57D
:100AA0004018CA079623002100F07AF910BD10B54E
:100AB00000229623114600F073F910BD0EB5C2173F
:100AC000C10F5040CA0740180021054B0293019204
:100AD00000910A460B4600F0A9F903B000BD0000E2
:100AE000330400000EB505490291002100910A4629
:100AF0000B46019100F09AF903B000BD33040000E9
:100B0000C20F410040020123400ADB05D207090E53
:100B1000C0187F2901DA00207047962903DC96234C
:100B2000591AC84001E096398840002AF4D0404262
:100B30007047410040020122400AD205090E801888
:100B40007F2901DA00207047962903DC9622511A8A
:100B5000C8407047963988407047000070B5CD0F87
:100B60004A0009030123090B1B0519430B4BED0731
:100B70000024520D9A4201DA002070BD074B343335
:100B80009A4203DC9A1A00F04DF802E00449511829
:100B900088402C43F1D0404270BD0000FF030000AC
:100BA000CDFBFFFFC20FD207400040080BD0C10DA4
:100BB0000723DB01C91840020905400A1143C20896
:100BC000400711437047002001467047CB0FDB07F9
:100BD000490010B5490802460A4307D00A0D072408
:100BE0000903E401090B121B002A01DC002010BDDF
:100BF000C900440F0C43C100E018D205801800F072
:100C0000C7F810BD10B5202A04DB0146203A9140F8
:100C1000002010BD914020239C1A0346E340194355
:100C2000904010BD10B5202A04DB0846203AD04081
:100C3000002110BD0B46D340D0402024A21A914081
:100C40000843194610BD10B5202A06DBCB1708460D
:100C5000203A1041C1170B4306E00B461341D04028
:100C60002024A21A91400843194610BDF7B582B05E
:100C7000029C00272078641C15460197302802D07A
:100C8000002D15D015E020780127641C782804D0A9
:100C9000582802D0002D09D00BE0002D01D0102DD6
:100CA00007D1002710252078641C02E0082500E009
:100CB0000A250026009610E00099012769430818CC
:100CC000020C294680B2714300908E183804864287
:100CD00001D3012001902078641C294600F079F9A5
:100CE0000028E9DA0398002805D0002F01D0641EFF
:100CF00000E0029C04600198002806D040F07AF9D8
:100D000002210160C81E05B0F0BD009930040843FF
:100D1000F9E710B50023036000F08AF910BD000068
:100D2000F7B5009C0F4600262578641C002D05D0E1
:100D3000FFF7F4FA0068405DC007F5D12B2D02D013
:100D40002D2D18D0641E39462046029AFFF78EFFDB
:100D5000002F04D03968A14201D100993960710592
:100D6000022400290BDA4042002803DD40F042F95A
:100D70000460A007FEBD012080020643E3E70028CF
:100D8000F8DA40F037F904600048FEBDFFFFFF7F4E
:100D9000002904DA401C490001D140084000704796
:100DA00070B40024050C05D11024000402D10029E0
:100DB00021D01124050E01D100020834050F01D104
:100DC0000001241D850F01D18000A41C002801DB37
:100DD0004000641C002908D020252E1B0D46F5403C
:100DE000A14000D001212943084301061B1B000A32
:100DF000DB1D02D5002070BC7047DB051818801879
:100E00000029F8DA401C4900F5D170BC40084000C8
:100E1000704710B5002B08DA0024401C614192187D
:100E20005B411A4301D14008400010BDF0B51FB42A
:100E300082B005460C0003D0084640F095F802E069
:100E400040F092F820300246009021462846FFF7F5
:100E5000D9FE049B059A04460F46184311430843E4
:100E600014D0184610431BD0009840210A1A184687
:100E70000599FFF7D7FE05460E46009A0599049896
:100E8000FFF7C0FE084305D0012004E020463946A4
:100E900007B0F0BD0020C11705430E432C43374374
:100EA00000990E986305401A7905E40A00220C4364
:100EB000FD0A0A3002D500200146E9E701051019B4
:100EC00069410C9C0D9D00196941FFF7A2FFDFE706
:100ED00070B54B005B0803430BD04B005C0D002644
:100EE00033466542B341D417AD1AA34102DB00205B
:100EF000014670BD12053018514170BD4A0009030A
:100F00000123090B1B0519430A4B10B5520D9A42D8
:100F100002DA0020014610BD064B34339A4203DC4E
:100F20009A1AFFF77FFE10BD034BD218FFF76AFE37
:100F300010BD0000FF030000CDFBFFFF10B500292E
:100F400004DB0124E40740428C412146002B04DBF2
:100F50001C460123DB075242A341994200D1904233
:100F600010BD00001CB509480090094801900546D5
:100F70000126009C05E0E36807CC33430C3C98470E
:100F80001034AC42F7D3FFF747F900004CDB0710F1
:100F90006CDB071070B50446002903D00020202226
:100FA000012310E0002801D00020C043C046C04605
:100FB0000DE02546D5408D4205D30D469540641B76
:100FC0001D46954040191546521E002DF1DC214664
:100FD00070BD3A2800D23038202302469A43412A75
:100FE00001D310463738884201D30020C0437047F0
:100FF0000FB400B589B00A460DA9009100230C99E1
:10100000002ACB60234B0693234B079301D0042384
:1010100000E00023214A0292214A089201930246ED
:101020006B46002000F0CDF809B008BC04B01847AA
:10103000F0B585B007460020C04301901E46002051
:1010400015460C460091029104903B466A46314693
:1010500004A8FFF7CDFF049902466018002D05D0C3
:10106000002901D0034600E023462B6000290ED062
:10107000002A02DD0099814209D0001B01900094F2
:101080003B466A463146029404A8FFF7B1FF05B01B
:10109000F0BD00001914031039140310FFFFFF7F87
:1010A00025030310FFB5087889B01546FF2805D041
:1010B000491C2D2804D00022002407E000240BE066
:1010C0000122F9E70A235C430419491C0878FF2828
:1010D000F8D1002A00D06442002004902A7801460A
:1010E0002D2A01D02B2A0FD16D1C2D2A02D00022CF
:1010F000049209E00122FBE700260A2233466D1C18
:10110000FFF7F4F8381871412F78FF2FF4D10C9ABB
:10111000A218069202460A4304D0FF23069A91338E
:10112000DA4205DA002109980A4606C00DB0F0BD82
:101130000024B74AB54D2646079200F08FF9029079
:1011400006980391002801DA474200E00746390576
:101150000020AF4A001C51410191009012E0F807B5
:1011600007D022462B4630460799FFF72DFB06464F
:10117000079122462B4610461946FFF725FB0446E9
:101180000D467F10002FEAD10698019B0028009A97
:101190000399029806DAFFF77FFB3246079BFFF7B9
:1011A0007BFB05E0FFF710FB3246079BFFF70CFBCC
:1011B000049A002A02D00122D2075140099A03C2A0
:1011C000B4E7FFB591B0002009900025ED432E2033
:1011D0009E685C681F460190B9696D1C129888472B
:1011E0000090396A88470028F6D10098401C0AD040
:1011F0000D20C0018443002E12DD00982B2809D059
:101200002D280DD103E00020C04315B0F0BD012012
:1012100080020443B9696D1C12988847761E0090BD
:1012200003A9600501D52D2000E02B206A4610732C
:10123000491C0CA80F9102900AE0B9696D1C129824
:10124000884700900120400204431398761E0560F1
:10125000002E02DD00983028EFD0019900988842D6
:1012600045D18020044308E00998401E09900120E0
:10127000400204431399681C0860B9696D1C761E0E
:101280001298884700903028EED030E001998842CB
:1012900005D1200603D480200443761E1DE000986B
:1012A00040F0A8FA002825D0012149020C430098FB
:1012B00007AA0F9903323038761E914208D208707F
:1012C0000F98401C0F90200607D50998401E03E098
:1012D000200602D40998401C0990A00502D5139954
:1012E000681C0860B9696D1C129888470090002E30
:1012F000CCDC59E0002E57DD0098652801D0452848
:1013000052D1A00550D5032000028443B9696D1C59
:10131000761E129888470090002E0CDD2B2804D0F2
:101320002D2808D1FF2001300443B9696D1C1298A3
:101330008847761E0090E00501D52D2100E02B2185
:10134000029801700298401C0290019025E0012053
:10135000400204430EA902980131761E88420ED243
:101360000098029930380006000E087003D10299E7
:10137000019881420AD90298401C029006E0E005DB
:1013800001D5244801E0234840420990B9696D1C09
:1013900012988847009013980560002E04DD00988D
:1013A00040F028FA0028D2D1F969129888470F999D
:1013B000FF200870029903AA087000200A900B9081
:1013C0000CA90AA8099BFFF76DFEA00502D4012015
:1013D000C0431AE72420044209D0E00713D138683B
:1013E0000B9A0A99031D3B60006806C00BE00B993D
:1013F0000A98FFF7EBFB0146E00704D13868021DAD
:101400003A60006801602846FFE6000000001440D2
:101410000000F03FF1D8FFFF4268002A08D00168C1
:101420000B78491C002B03D0521E06C0184670478B
:101430000121C160881E70474268002A0BD0C36832
:101440000168002B07D183688B4204D0491E521CCF
:1014500006C0002070470020C04370470EB5054A03
:1014600002920022009213460192FFF7DFFC03B0C4
:1014700000BD00003304000070B58D180478401CD6
:10148000A207920F01D10278401C231106D10378E4
:10149000401C03E006780E70401C491C521EF9D116
:1014A000002B15D002780C268A1A3440401C0C2CD4
:1014B00003D0A401121B9B1C08E004782402121B19
:1014C000401CF8E714780C70491C521C5B1EF9D5BF
:1014D000A942D3D3002070BDDF2101404139C9B2F8
:1014E000062900D209300F2101400846704700004C
:1014F00070B504460126B005052584422ED818484B
:1015000020402BD100F03AFD08B1032521E000F086
:1015100005FA144D286830430C2188432860522076
:10152000A861200CA861200A80210140A961002047
:10153000A861284608383DF0DFFB286805210143F3
:1015400008208143296002F0E7F8C10F4D00002810
:1015500004D5012004A12A4615F06AFA284670BD78
:10156000FF7F000008100650466C61736820426CD3
:101570006F636B2833324B292045726173652046B7
:1015800061696C6564207265743D25640D0A000014
:10159000F8B506460125A805864201D9052437E09D
:1015A00017460C4600F0EAFC08B103242BE000F0DB
:1015B000B5F93A46174F386828430C2188433860FC
:1015C0000220B861300CB861300AC0B2B861F0B224
:1015D000B861501E0021FA689203FCD4625CBA61C3
:1015E000491C8142F7D9384608383DF085FB3868F8
:1015F0000521014308208143396002F08DF8C10FB5
:101600004C00002804D5012003A1224615F010FA51
:101610002046F8BD08100650466C61736820506182
:1016200067652050726F6772616D204661696C65F5
:1016300064207265743D25640D0A00007CB5044683
:101640006846002686800096814D284601F0FFFE00
:10165000A868012101430C208143A9609F202862D2
:101660002E622E622E6228463DF046FBA8680521B8
:10167000014308208143A9606869C00505D4F0B220
:10168000296B6A461154761CF6E7684641780904CE
:10169000827812025118C0780818206000207CBDA2
:1016A000FEB5044601A8002686800196684D2846AE
:1016B00001F0CDFEA868012101430C208143A960FF
:1016C00005272F622E6228463DF016FBA868384396
:1016D00008218843A8606869C00505D4F0B2296B69
:1016E00001AA1154761CF6E701A84078207000206A
:1016F000FEBDC046FEB5044601A8002686800196C0
:10170000534D284601F0A3FEBB4F3E6005202862E2
:101710002E623DF001FB012038606869C00505D4E8
:10172000F0B2296B01AA1154761CF6E701A84078A3
:101730002070FEBDF8B515460E4601218A0590427F
:1017400001D9052728E0424CA2680A430C218A43AC
:10175000A26003212162010C2162010AC9B2216247
:10176000C0B2206220463DF0C7FA204601F06FFE6D
:10177000002745B1276220463DF0BEFA206B30704D
:10178000761C6D1EF5E720463DF0B6FAA0680521EF
:10179000014308208143A1603846F8BD7CB504466A
:1017A0006846002686800096294D284601F04FFEA7
:1017B000A868012101430C208143A9609020286280
:1017C0002E622E622E622E622E6228463DF094FA20
:1017D000A8680521014308208143A9606869C00504
:1017E00005D4F0B2296B6A461154761CF6E70198CD
:1017F00040BA208000207CBD7CB5044668460026A7
:1018000086800096124D284601F021FEA86801212D
:1018100001430C208143A960AB2028622E622E6216
:101820002E622E6228463DF067FAA8680521014322
:1018300008208143A9606869C00505D4F0B2296B0E
:101840006A461154761CF6E70198207000207CBD92
:101850000010065070B504460126B00505258442E7
:101860002ED8184820402BD100F088FB08B1032562
:1018700021E000F053F8144D286830430C218843D0
:1018800028602020A861200CA861200AF0210140D6
:10189000A9610020A861284608383DF02DFA286883
:1018A0000521014308208143296001F035FFC10F64
:1018B0004D00002804D5012004A12A4615F0B8F8EF
:1018C000284670BDFF0F000008100650466C61737B
:1018D0006820536563746F7220457261736520469A
:1018E00061696C6564207265743D25640D0A0000B1
:1018F00010B5154C2068012101430C208143216063
:101900000420A061204608383DF0F6F92068052142
:10191000014308208143216010BDC04610B50A4C28
:101920002068012101430C20814321600620A06131
:10193000204608383DF0E0F92068052101430820E1
:101940008143216010BDC04608100650012807DB06
:1019500040F20C110E4A5358181A00D20020505071
:101960007047C04640F20C11094842580949CB69FA
:101970009A42114600D319469A4201D801B97047DC
:10198000491E00D2002140F20C1281507047C0461F
:10199000A4460130D04701300248012101600248CD
:1019A00001607047A4C50030F8300450F8B5144603
:1019B00005467A4800270760794E03203060080CFE
:1019C000C0B23060080AC0B23060C8B230603DF0CA
:1019D000A3F93046203801F03AFD3CB137603DF0C4
:1019E0009BF9306928706D1C641EF6E73DF094F990
:1019F00001206A490860F8BD14480050FEB51E4633
:101A000015460C4639491A460A402B460B404F1CD6
:101A1000B3B10290FB1ABE421ED29A4212D90020E4
:101A200021462A461F4600F063F8012853D1029848
:101A300000B9E4197A19F01B83B20020214605E0B1
:101A4000BE422ED2B3B2002021462A4600F050F802
:101A5000012840D101203EE00020009021462A4686
:101A6000019300F045F8012835D1029901B1009F9A
:101A70000198321A01B924184519560A1B48024028
:101A8000029276B3002021462A4640F2002300F05D
:101A90002FF801281FD1E41914484019451C761E5F
:101AA000EFE7019208B1002001E01048401C0290CD
:101AB000770A002687B1304621462A4640F20023A5
:101AC00000F016F8012806D102982418074840199A
:101AD000451C7F1EEEE7FEBD002021462A46019BE5
:101AE000B4E7029B002BAED1B4E7C046FF01000073
:101AF000F0B585B0002B43D01E4617460D4603AC0B
:101B00002046FFF7F7FD2078C0073BD12348019717
:101B1000002707600296224E062030603DF0FCF858
:101B200001241E4804600760022000903060019983
:101B3000080CC0B23060080AC0B23060C8B2306071
:101B40000298401E31460C390A689203FCD4EA5DC3
:101B500032607F1C8742F7D93DF0DEF80F48046001
:101B6000104800680A21B0FBF1F6761E0CD004ADD7
:101B70002846FFF7BFFD287820402870F5D109E0FE
:101B8000012407E0002400E0009C012006A1224679
:101B900014F04EFF204605B0F0BDC046144800507A
:101BA000201006500C800030454550524F4D5F5379
:101BB00050492C20466C6173682050616765205045
:101BC000726F6772616D204661696C656420726531
:101BD000743D25640D0A000010B5F64C20684106DE
:101BE00006D4F5490978490602D514F003FF2068A8
:101BF00040210143216010BD002070470846704716
:101C00000178090642781204511882781202891864
:101C1000C07808187047F8B50092002303221D46CB
:101C2000202B0ED00E46EE40F60707D0009E9E40B9
:101C300017469F400468BC43344304609B1C6D1CE2
:101C4000EEE7F8BDF8B50092002303221D46202BD5
:101C50000ED00E46EE40F60707D0009E9E40174677
:101C60009F40046BBC43344304639B1C6D1CEEE734
:101C7000F8BD01684022914301607047F0B586B01D
:101C80000392BC4B00221A60036828240294234369
:101C900003604900CBB20193491CC9B200910121F4
:101CA000059104921446059900294ED0002A4CD182
:101CB0002546B1490A680A23B2FBF3F203681B0701
:101CC00006D4521EFAD10126F243AA490A6000E066
:101CD0000026C368083B0322D341182401220A2BA3
:101CE00025D89F0001A1C9198F46C04600F014B83D
:101CF00000F014B800F021B800F019B800F022B8D4
:101D000000F015B800F013B800F00AB800F00FB8F2
:101D100000F00DB800F006B8019900E0009981606C
:101D2000082403E08168049100210591324601688E
:101D30003C23994321430160B5E703998160324612
:101D40002C46F4E73246029CF1E7049802B10020E9
:101D5000C0B206B0F0BDC046F0B588B0059304929D
:101D6000844A002414600268282303931A43026003
:101D70000D9A521E02924900CAB20192491CC9B280
:101D800000910121079122460694274607990029D0
:101D90005DD0002C5BD11546C9490A680A23B2FB05
:101DA000F3F23B46046824071746FAD55F1E4AD073
:101DB000C368083B0322D341182201240A2B2AD8E6
:101DC000990001A671188F4600F014B800F01FB8F2
:101DD00000F031B800F01FB800F032B800F01BB8C6
:101DE00000F019B800F011B800F015B800F004B810
:101DF00000F018B801990BE08168059A069BD15450
:101E00005B1C02998B42069303D20C2202E00099DC
:101E100081600822002401683C239943D3B20B431C
:101E20000360B3E78168059B069C1955641C069402
:101E300000240794EFE70499816000242A46EAE72A
:101E40000024039AE7E70120C0434A490860069846
:101E500008B0F0BDFEB500930292464A0027176015
:101E60000268282313430360490001910125944E21
:101E700039463B468DB387BB32680A24B2FBF4F285
:101E80000468240706D4521EFAD10127FA43394CBC
:101E9000226000E00027C268083A0ED00324E24125
:101EA0001824042A03D0022A0AD1029C0DE0012240
:101EB0004BB100252146134609E00821019C04E0AE
:101EC0000127214603E0009C1346E2B282600268CB
:101ED0003C24A2430A430260CCE72F43F8B2FEBD84
:101EE000FFB5009303920B46224A0021116002685D
:101EF0002824144304605A0002920127099A01928F
:101F00006F4C0A460B468FB381BB21680A25B1FB93
:101F1000F5F105682D0706D4491EFAD10121CD43FC
:101F2000144E356000E00021C668083E0FD003253E
:101F3000EE411825042E03D0022E0DD1039D08E09A
:101F4000019EB3420AD2009DED5C5B1C01E00822B9
:101F5000029DEDB2856003E0012100E000272A46E2
:101F600005683C26B54315430560CCE7184604B028
:101F7000F0BDC0462CC300300C8000301CB501AC55
:101F80002046FFF78DFB2178012008401CBD000092
:101F9000B0B501204405684D2868810206D4674920
:101FA0008978890602D514F025FD28682043286029
:101FB000B0BDC04698A200300E240130B0B501205B
:101FC00084055D4D2868410206D45C49897849063C
:101FD00002D514F00FFD286820432860B0BDC0462C
:101FE000B0B50120C405544D2868010207D4022170
:101FF000524A5156002902D514F0FCFC28682043AF
:102000002860B0BD70B504462D4800682D4E311FC4
:102010000A6801239A430A600A68002A01D5401E13
:10202000FAD10025284600F053F86068A168014302
:102030003160326820218A4321690A433260626933
:102040007261B2681C239A43A3691343B360B268F8
:1020500003239A43E3691343B360E268C006400F69
:10206000401C890640F2004314D4424352002168C8
:10207000B1FBF2F29A421FD8130240F200141B1B6C
:102080003468114D25401D4335605043B1FBF0F0DD
:10209000450811E042432168B1FBF2F29A420BD8A5
:1020A000130240F200141B1B3468074D25401D43EA
:1020B00035605043B1FBF0F504480560284670BD1B
:1020C0000C80003004B00B50FF00FCFF30C3003028
:1020D0000021012801D0084600E0C843034A2C290A
:1020E00002D08850091DFAE77047C04620B00B5057
:1020F000B0B5114C2168022806D001280DD101206D
:10210000C50608010DD513E001200507C8000FD44E
:102110000A48C078C00608D40AE0012085064801B4
:1021200006D40648C078000702D514F063FC216885
:1021300029432160B0BDC04698A200300E24013072
:102140000548002141804170D648C16E41F200022D
:102150009143C1667047C04690A10030F0B585B08C
:102160000446BE4E3168481C3060A020CD4A10584D
:102170000290BB4F3A680223535431684A1C3260C4
:102180003A680B23535431684A1C32603A6806237C
:1021900053541D46B34B02A9196031684A1C326082
:1021A000000E3A6850541868807831684A1C3260D2
:1021B0003A6850541868407831684A1C32603A686E
:1021C00050541868007831684A1C32603A6850549C
:1021D0003068411C316039680D5420460C3018605D
:1021E0003068411C3160E17B3A681154186880788E
:1021F00031684A1C32603A68505418684078316837
:102200004A1C32603A6850541868007831684A1C99
:1022100032603A6850543068411C316039680D545E
:102220002046103018603068411C3160E17C3A680B
:1022300011541868807831684A1C32603A685054EA
:102240001868407831684A1C32603A6850541868FF
:10225000007831684A1C32603A6850543068411C3A
:10226000316039680D54019520461430186030688B
:10227000411C3160E17D3A681154186880783168FA
:102280004A1C32603A6850541868407831684A1CD9
:1022900032603A6850541868007831684A1C3260DD
:1022A0003A6850543068411C316039680D542046FA
:1022B000183018603068411C3160E17E3A68115472
:1022C0001868807831684A1C32603A68505418683F
:1022D000407831684A1C32603A6850541868007877
:1022E00031684A1C32603A685054E11D03AD2846FB
:1022F00024F029FB284624F0CDFC3068411C3160D5
:10230000396804220A543068411C31603968182247
:102310000A543068411C3160396822790A543068A7
:10232000411C3160396862790A543068411C31605F
:102330003968A2790A543068411C31603968019BC0
:102340000B5420461C30474D28603068411C3160DA
:10235000E17F3A6811542868807831684A1C3260FD
:102360003A6850542868407831684A1C32603A68AC
:1023700050542868007831684A1C32603A685054DA
:102380003068411C316039680B5420462030286089
:102390002320205C31684A1C32603A685054286817
:1023A000807831684A1C32603A6850542868407816
:1023B00031684A1C32603A685054286800783168A5
:1023C0004A1C32603A6850543068411C31603968A8
:1023D0000B5420462430286020462330017932688F
:1023E000531C33603B689954296889783268531CC0
:1023F00033603B689954296849783268531C3360CC
:102400003B689954296809783268531C33603B68EB
:10241000995431684A1C32603A68019B53542834FD
:102420002C60007A31684A1C32603A68505428683F
:10243000807831684A1C32603A6850542868407885
:1024400031684A1C32603A68505428680078316814
:102450004A1C32603A68505405B0F0BDD0A6003036
:10246000BCA60030DCA600301CB50179427912020E
:1024700051186C46A1800178427812025118827876
:102480001204C0780006801840180090E6480179D0
:10249000204626F0DFFB9C487C3006222146FDF7D3
:1024A0004AFF1CBD1C700230BCB57D20304C205C46
:1024B000002851D02F480178012901D12F4900E08F
:1024C0002D490A794B791B029A186B469A800A7833
:1024D0004B781B029A188B781B04C9780906C91817
:1024E0008918009100210170E56E680607D5224821
:1024F000FFF7BAFF44208543E56628F061FE2146D8
:102500007C311D480FF01CFFE16E00281BD4802099
:102510008143E166684600F089F81748FFF7A4FF99
:10252000022420461BF02EFB0346032015A11CA20B
:1025300014F07EFA20461BF025FB98B1BCBC01BC10
:10254000864614F061BA0E4801420CD08020014347
:10255000E166684600F06AF80748BCBC02BC8E46DB
:10256000FFF782BFBCBDBCBC01BC864628F028BEBC
:102570001C70023034A200304CA200306C4B013091
:102580001000600025733A20707573685F69735F8F
:10259000656E61626C655B25645D0D0A000000007C
:1025A0004C505F70726F6300FEB5154604461C48C0
:1025B0000288B1FBF2F05043081AC1435718B9B270
:1025C0004919184B1E78914219D902951649CE70B7
:1025D0000F802546441C8C700E20002729463A4661
:1025E00030F0FCFC0194E4B2744318B9284621464B
:1025F000FDF7BCFE02980199401A2C1905460A48BD
:10260000C670857007800E200022214630F0E6FC5F
:1026100028B9E8B2464320463146FDF7A7FEFEBD85
:102620005EA6003058A60030BCA10030F0B58DB0D9
:10263000044602A8001D2821FDF798FE31480079C4
:102640002179B1FBF0F24243881A02D02E48C06EC5
:1026500006E02D49C86E627912B980229043C8669F
:10266000410604D548F2000188432749C866A026E0
:10267000254FB959491CB95102ADA871020A6A71B6
:10268000000C28710291E81D21460FF0EBFE0C357D
:102690000420294625F046FA28F070FE18B102A859
:1026A00028F0B6FE0DE0B96E02A828F097FEB86ECD
:1026B000401CB866BB590090032014A11FA214F05F
:1026C000B7F98020F86628F07BFD0E48007E68B1DF
:1026D000812000031B490968014041F2000081424A
:1026E00004D1F86E44F200018843F866B87B0128F3
:1026F00004D101200004F96E8143F9663BF0E8FD46
:102700000DB0F0BDD04701301C7002305B4C505D05
:102710002025733A20544F54414C5F4C505F45562E
:10272000454E545F434E545B25645D204C505F69B9
:102730006E6465785B25645D0D0A00004C505F7324
:102740006176650098A2003080B540F20811F0482B
:102750000022425240F204114250D0214252D43061
:102760002421FDF703FE80BDF0B585B0E94D287842
:10277000012823D100242C70284F2046B847009010
:1027800001263046B847019002252846B8470290F6
:1027900023480068234F00992246B84720484068E4
:1027A00001993246B8471E48806802992A46D94D99
:1027B000B847D020E3490A5A521C0A52A878012887
:1027C00027D1D5484079D5490A79B2FBF0F3434384
:1027D000D01A1ED103A8002444710A7902710A7824
:1027E0004B781B029A188B781B04C9780906C91804
:1027F0008918039100F01AF840F20811D1484452A8
:1028000040F204114450D0214452D4302421FDF729
:10281000ADFD0020A87005B0F0BDC04621840510B4
:1028200050A50030B9B50510D0470130F0B591B0D2
:10283000D02476490B5B002B00D1E4E00490CC203F
:102840000590069408580090032003907049714A3F
:10285000714CA0470025714928468847FEF7A2F928
:102860006F4C2A462346FDF7AFFFFEF777F907AF17
:10287000B8806C4928468847FEF794F92A462346D3
:10288000FDF7A2FFFEF76AF9F880674928468847F6
:102890003881664928468847FEF784F92A46234648
:1028A000FDF792FFFEF75AF978816149284688477B
:1028B000FD81FEF777F92A462346FDF785FFFEF7EF
:1028C0004DF9B8810126304654498847FEF76AF928
:1028D0002A462346FDF778FFFEF740F93882304656
:1028E00050498847FEF75EF92A462346FDF76CFFFC
:1028F000FEF734F9788230464B498847B882304633
:1029000002964A498847FEF74DF92A462346FDF7C5
:102910005BFFFEF723F9F8823046454988477D83FF
:10292000FEF740F92A462346FDF74EFFFEF716F95B
:1029300038830226304639498847FEF733F92A465C
:102940002346FDF741FFFEF709F9B88330463549C4
:102950008847FEF727F92A462346FDF735FFFEF79D
:10296000FDF8F883304630498847388430462F498F
:102970008847FEF717F92A462346FDF725FFFEF79D
:10298000EDF8788430462A498847FD84FEF70AF935
:102990002A462346FDF718FFFEF7E0F8B8843846CC
:1029A00004990FF05FFD059C1848055921A124A248
:1029B000039E3046184B98472648029A827040F290
:1029C0003411B5FBF1F34B43591B40F23313C918D3
:1029D00001800F20394630F001FB0C490859401C9A
:1029E0000851D42008580D46FEF7A3F806996B5AF3
:1029F000DE4949790091019017493046054A064C55
:102A0000A0472FF017FB11B0F0BDC046A44601301F
:102A10006396071099960710316A0410498A0510C9
:102A200000005940718A0510998A05100D8A051019
:102A30003D8805105B4C505D2025730D0A00000099
:102A40006C706176675F7265636F72645F777269DD
:102A500074650000BCA10030BB950710F0B587B0CD
:102A600040F224102A4A115A491C1152294D0026BD
:102A70002E716878012847D19E242748005B274F94
:102A800039793C2359437A798918B1FBF0F24243F2
:102A9000881A39D1049314F021FA39797A7912021B
:102AA000511805AA918039787A7812025118BA78AB
:102AB0001204FB781B069A18511805911649095BF8
:102AC0001422B0FBF2F35343C01A05280DD1042998
:102AD0000BD83B7978796A7800AF07C70420104992
:102AE00010A213F0A5FF0C48015B049AB1FBF2F0B1
:102AF0005043081A01D105A8467105A800F024F832
:102B000040F2241002490E526E7007B0F0BDC0466C
:102B1000A446013090A10030D04701304CA20030D3
:102B2000FF9507104C5072745F70726F6300000065
:102B300040F220106A4900220A5040F224100A5242
:102B40007047C046A4460130F0B593B0054614F076
:102B5000C5F940F22411624A535A002B00D1BCE05F
:102B60001427B0FBF7F17943401A05280DD19E20B8
:102B70005C49085A042808D840F2201010580090E8
:102B80000320594959A213F053FF02AC44212046B7
:102B9000FDF7ECFB0194204629460FF063FC5648F4
:102BA0000668002530462946FDF7FCFE53493446A9
:102BB00000B10C4030462946FDF7F4FE08B938460E
:102BC00000E0182001990C504B48C6683046294651
:102BD000FDF7E8FE344608B148480440304629462F
:102BE000FDF7E0FE08B91C2000E0202001990C5000
:102BF0004148466830462946FDF7D4FE344608B1C0
:102C00003E48044030462946FDF7CCFE08B9242052
:102C100000E0282001990C503748066930462946C3
:102C2000FDF7C0FE344608B134480440304629461A
:102C3000FDF7B8FE08B92C2000E0302001990C50B7
:102C40002D48866830462946FDF7ACFE344608B16B
:102C50002A48044030462946FDF7A4FE08B934202E
:102C600000E0382001990C50234846693046294637
:102C7000FDF798FE08B9344601E0204C3440304658
:102C80002946FDF78FFE08B93C2000E0402001995D
:102C90000C50242F0CD002A9C859CC192169FDF77A
:102CA0000CFC216AFDF709FC103C20603F1DF0E799
:102CB00013480122827040F22014094E31595023EA
:102CC000B1FBF3F55D43691A4F3101806B2002A916
:102CD00036F004FC3059401C305113B0F0BDC046F2
:102CE000A4460130D0470130639607104C507274EF
:102CF0005F7361766500000080480130FFFFFF7F51
:102D0000D84F0130B0B588241A4D285D810706D40C
:102D1000E1490978090702D513F06CFE285D02210C
:102D200001432955B0BDC04680B58C200D490858D7
:102D300000B180BD0C4801780129FAD10021017051
:102D40000A48417D481E0A4682415000084A1368DD
:102D50004B4A3AF09FFB0748C16E01220A43C26604
:102D600080BDC0462C5F013030A30030D047013019
:102D7000C0A600301C700230F0B585B03E4D687EB4
:102D8000012877D100266E7625F02FFD0190FDF702
:102D900009FF3A4F32463B46FDF716FDFDF7DEFED2
:102DA000FDF7A0FE32463B46FDF776FDFDF70EFF30
:102DB0000446286CFDF7F6FE32463B46FDF704FD5F
:102DC000FDF7CCFEFDF78EFE32463B46FDF764FD77
:102DD000FDF7FCFE01462046FDF7F2FD90B9686B59
:102DE000411C696302280EDB01982864029002AF3F
:102DF000381D23490622FDF79EFA5120012239464B
:102E000030F0ECF86E63686CFDF7CCFE00261B4FCB
:102E100032463B46FDF7D8FCFDF7A0FEFDF762FE0B
:102E200032463B46FDF738FDFDF7D0FE0146204611
:102E3000FDF7AAFD90B9A86B411CA96302280EDB1F
:102E400001986864029002AC201D0D490622FDF72E
:102E500072FA52200122214630F0C0F8AE63094DCB
:102E6000686A0021084CA047A86A0121A047E86AC7
:102E70000221A04705B0F0BD90A30030000024401F
:102E80004CA200302CA50030ADEB0610B0B50120EF
:102E9000C404A04D2868010306D48F498978090726
:102EA00002D513F0A7FD286820432860B0BDC046B6
:102EB00010B5984C2068C10706D187490978C90721
:102EC00002D013F097FD206801210143216010BD5D
:102ED000B0B501210C0484408E4D2968214207D0F1
:102EE0007D4A9278C240D00702D013F083FD296852
:102EF000A1432960B0BDC046B0B501210C04844097
:102F0000844D2968214207D1734A9278C240D00784
:102F100002D013F06FFD296821432960B0BDC0467F
:102F20003DF0E2B81A46002302B9DA4300920122CA
:102F30003DF034B9E0B500220192EFF305825AB1B9
:102F400001AA3DF023F9012805D1019919B1012009
:102F50000107044A11608CBD8CBC04BC96463DF050
:102F6000D1B8C04604ED00E01CB51346044600206D
:102F700001900498009007A80288084621463DF079
:102F8000C9FB012800D11CBD03A032211CBC04BC1C
:102F900096463BF0D7BAC0467372632F4170702FCC
:102FA0007379732F6F735F777261702F6F735F77B1
:102FB0007261702E63000000E0B50093901E4242E3
:102FC00042410598049B3DF00BFE069900220A70D1
:102FD0008CBDF8B50C4605463DF06AFC024600265D
:102FE000009601272846394633463DF045FE2670B7
:102FF0003846F8BDBCB51C460025009503212A467D
:103000002B463DF039FE25700120BCBD70B504464D
:1030100042F2000585403F4E3068284207D12E49D4
:103020004978E140890602D513F0E4FC3068284372
:103030003060204670BDC046B0B5364C21680228CD
:103040000AD0012814D10120850748001BD422484A
:10305000C078400614D416E0002916D40320F94A9B
:1030600010560028084611D513F0C4FC20680DE066
:1030700001204507880006D4F248C078800602D5B2
:1030800013F0B8FC2168294303E008460121C90771
:1030900001432160B0BDC0460E24013010B50E4C76
:1030A0002078C30901200DA116A213F0C1FCE44849
:1030B000016880220A43026000202056002800D4C4
:1030C00010BD012420461AF005FC204610BC02BCAD
:1030D0008E4601F069BAC0460E2401305B47524566
:1030E000515D2025733A20504F5745525F46414964
:1030F0004C5F5354535F6D61736B5B25645D0D0AC8
:10310000000000005057525F4F46465F7472696777
:103110006765720098A20030000000000000000007
:10312000284B1868264B1968EFF3098278B107B568
:103130003DF0E2FD0FBC9E46590608D5204B1968AC
:103140000C3A0A60EFF30B8173460BC20CE01C4B88
:1031500019682C3A0A60EFF30B817346FBC24446B0
:103160004D4656465F46F0C272B63BF06FFC62B603
:10317000134B19680A6813CA81F30B88A646114BD2
:10318000186058B10E4B196814B43DF0BBFD14BC67
:10319000A646610602D582F3098870471032F0CA4C
:1031A000A046A946B246BB4682F30988203AF0CA37
:1031B0007047C046C046C046C046C046C046C0462E
:1031C000744B0130D0700230F0B585B00E46400728
:1031D00000D51646B16947A03DF0A2FEB5692C881E
:1031E00049A03EF05DFF4DA021463DF099FE5148BB
:1031F000844203D16A483EF053FF4CE0200B05287F
:10320000049516D107272740E005420F0392A00638
:10321000450F624839462B463DF082FEA8003058E3
:103220000399890071580818B900715800910190EC
:1032300027E04EF20001214046F20002914208D1FF
:1032400007252540A006470F6005C30E039352488B
:103250000BE009283ED0082849D107252540A006C3
:10326000470F6005C30E03933DA029463A463DF043
:1032700057FEA8003058B9007158039A8918009079
:103280000191200501D5344B00E0324B04993348BD
:1032900022463DF045FE43480168D1B10022424834
:1032A000542A16D00B46D340DB0702D1001D521C16
:1032B000F6E73E498C5C3E4D61194A6801683D481D
:1032C0003DF02EFE605980003B4909583B483DF0D7
:1032D00027FEFEE7E5B26005470F17A039462A46EC
:1032E0003DF01EFEB8003058B1694919C7E724A067
:1032F00081E7C046486172644661756C7420402065
:103300003078253038780A00486172644661756CFF
:103310007420416E616C797369733A00496E7374FD
:1033200072756374696F6E20636F6465203D20253C
:10333000780A0000ABBE00004C4452482F53545250
:10334000482072743D257820696D6D383D25780AD6
:10335000000000004E7E07104A7E0710837D071094
:103360004C4452482F535452482072743D257820C3
:10337000726E3D257820696D6D353D25780A000017
:10338000556E657870656374656420696E737472D8
:10339000756374696F6E0000B17D0710CE7D0710F4
:1033A000667E071030F102403823071020230710F3
:1033B00000F00240E97D07108C230710A37D071061
:1033C000B0B520F047FB10F073FFBB4805214173F7
:1033D00033F092FE0024204614F05AFE032016F02B
:1033E000B1FB01252046294612F038FF13F0F6FD07
:1033F00064203BF00FFA13F0EDFD042016F0A2FB61
:1034000020462946B0BC04BC964612F027BFC046F1
:1034100010B52C4801688A0107D4012252061143D5
:103420000160FD48C078800700D410BD012420460B
:103430001AF050FA204610BC02BC8E4601F0B4B817
:1034400098A200300E240130FEE700207047016989
:1034500040F200120A4302617047816809229143D9
:1034600081607047000000000000000000000000C4
:1034700004207146084203D0EFF30980044A104744
:10348000EFF30880024A1047C046C046C046C04617
:10349000A5E6061010B5DF480168CA0107D401226D
:1034A000120611430160DC48C078C00700D110BD8E
:1034B000012420461AF00EFA204610BC02BC8E46AB
:1034C00001F072B898A20030F8B518F029FC044653
:1034D00000F0FCF8704E03CE083EFCF7EEFFB1683A
:1034E000FCF7EBFFFDF70CFB814DA864F068316938
:1034F000FCF7E3FF7169FCF7E0FFFDF701FBA86350
:10350000B069F169FCF7D9FF316AFCF7D6FFFDF726
:10351000F7FAE8632DF068FF00284AD1606DFDF7E7
:10352000EFFA0090E865A06DFDF7EAFA0746286615
:10353000E06DFDF7E5FA06466866206EFDF7E0FAF5
:10354000A866606EFDF7DCFAE866E06EFDF7D8FA73
:103550006867A06EFDF7D4FA2867206FFDF7D0FAF0
:10356000A8674F480178542910D14C490A786AB1AC
:10357000521E0A70120609D100260E7006702846E7
:103580005C302021FCF7F2FE374600964548007873
:1035900078B1F119009800F08DF9FDF7B1FAA8663D
:1035A0002A466C3207CA891800F084F9FDF7A8FA98
:1035B000A8673D480178012969D13C4900220A7079
:1035C00002703B4802803B4804783B48017E61B171
:1035D0000120C107394800688843FDF791FA04B318
:1035E000E86537480068374F09E084B3334800681E
:1035F000344F3840FDF784FAE865314800683840B8
:10360000FDF77EFAA8663048046800212046FDF7E1
:10361000D7F906463C402046FDF772FAA6BB68661D
:1036200035E0E86626480068264F3840FDF768FA1E
:10363000A8672548046800212046FDF7C1F9064621
:103640003C402046FDF75CFA06BB68671FE0007B44
:1036500002281CD1194800681A4F3840FDF750FA6B
:10366000E865174800683840FDF74AFAA86616482A
:10367000046800212046FDF7A3F906463C40204699
:10368000FDF73EFA002ECAD1286600E0286735F023
:10369000E5FB01202870F8BD8048013033A20030DE
:1036A00032A20030C48C0030F59F0030F49F00300F
:1036B000FC9F003044840030D047013000A000302F
:1036C00004A00030FFFFFF7F08A000300848002161
:1036D00081658163C163016441648164C164016582
:1036E00041655C227C2A02D08150121DFAE77047A6
:1036F00008A400300121C905C3B2064A0A2B04D12F
:1037000093690B42FCD10D23136093690B42FCD1EA
:103710001060704700000750F8B50C4800680A2197
:10372000B0FBF1F601270024761E08D06D4628462E
:10373000FDF7B6FF287838402870F5D104E004483A
:103740003EF0AEFC0020C4432046F8BD0C800030A3
:10375000AB7F071010B53AF09FFD04463DF0ACF882
:1037600018B10120000704490860204610BC02BCC3
:103770008E463AF00BBFC04604ED00E010B53DF0B8
:10378000C7FA054CA0603DF0C9FA04494118044A43
:10379000B1FBF2F103C410BD0C80003020A1070082
:1037A00040420F0010B5FCF754FDC00011D40B4887
:1037B0005921162288230160026003600468002CEE
:1037C000F9D0074841F2000101600169054A0A4346
:1037D000026105480549016010BDC0460001004076
:1037E000F40100400040F0FF08ED00E0000003108D
:1037F000B0B5644C2068010540F6000506D4514977
:103800004978090702D513F0F5F8206828432060AD
:10381000B0BDC04698A200300E240130012000F057
:1038200017B8002000F014B8022000F011B80420EE
:1038300000F00EB8032000F00BB800214160704783
:1038400042688A434260704742680A434260704758
:1038500070B5044619F0B8FEA00015490D58686807
:10386000C0071DD0E869C0071AD0442060430F4943
:1038700008188468C1680269836B2E681E55641C31
:10388000B4FBF2F65643A41B8C4204D08460EE696C
:10389000F607F2D101E001210162806A00B18047A0
:1038A000A9697120014200D0A86170BDCC5F0130D0
:1038B000AC260710B0B50C46FDF7EEF805462046DD
:1038C000FDF7EAF80146FCF751FE04462846294672
:1038D000FCF74CFE2146FCF7F0FDB0BC02BC8E4666
:1038E00039F0B0BDB0B5274C2068C10441F20005E5
:1038F00006D414494978C90602D513F07BF820682C
:1039000028432060B0BDC04610B50E4C207880071B
:10391000C30F01200CA115A213F08AF81948016801
:1039200002220A4302602078800700D410BD0124DF
:10393000204619F0CFFF204610BC02BC8E4600F096
:1039400033BEC0460E2401305B475245515D2025F1
:10395000733A20574F524B5F424C41434B4F5554A3
:103960005F6D61736B5B25645D0D0A00576F726B51
:103970005F426C61636B4F75745F747269676765F2
:103980007200000098A2003080B584B002900191CE
:10399000019820B1FFE7404900200860FFE7029846
:1039A0000078302842D1FFE702980069F0B3FFE7C2
:1039B00002984069D0B3FFE702980069A8B3FFE717
:1039C00002980069406978B3FFE7029801693348BB
:1039D0000160029909694969314A1160029949698E
:1039E000304A11600068007806281CD1FFE72B4898
:1039F000006880682C490722FCF7E4FC98B9FFE7CF
:103A000027480068007806280DD1FFE724480068A1
:103A1000806826490822FCF7D5FC20B9FFE7214839
:103A20000068039035E0FFE7FFE7FFE71A4800680A
:103A300020B1FFE71848006803902AE00298006967
:103A400080B1FFE7029800690021FFF79DFF014662
:103A500011480160006820B1FFE70F48006803903B
:103A600017E0FFE70298406980B1FFE702984069DC
:103A70000021FFF789FF014607480160006820B177
:103A8000FFE705480068039003E0FFE7002003908C
:103A9000FFE7039804B080BDC0BC0030B4BC003068
:103AA000B8BC0030BCBC00303986003040860030E5
:103AB00080B582B00190019808B9FFE70EE0019847
:103AC00002210DF057FE0198603007210DF052FEE3
:103AD00001983EF085FA00200190FFE702B080BD1A
:103AE00083B0014601A8017001783020014068468A
:103AF00001700078102803D1FFE70120029014E044
:103B000068460078202803D1FFE7022002900CE0ED
:103B100068460078302803D1FFE70320029004E0D4
:103B2000FFE7FFE700200290FFE7029803B070472D
:103B3000F0B597B00C460546059210880090032713
:103B4000F8A1F74A38462B4612F072FF2846A138F2
:103B500001261D2862D8810001A251188F46C04657
:103B600000F03AB800F056B900F054B900F052B97C
:103B700000F050B900F0A3B800F067B800F061B8E9
:103B800000F05FB800F05DB800F05BB800F0C8B8B6
:103B900000F057B800F055B800F053B800F051B835
:103BA00000F04FB800F04DB800F04BB800F049B845
:103BB00000F047B800F045B800F043B800F041B855
:103BC00000F03FB800F03DB800F03BB800F039B865
:103BD00000F0D1B800F04DB8042000900327CF4981
:103BE0000B25384622462B4619F0CEFDF748C11D5D
:103BF00020462A46FCF7E6FB059A11880B31118016
:103C0000002800D106E1A07A032800D102E10120BA
:103C1000FA49CE4A12F00CFF3E46FBE08B2D00D154
:103C2000D4E08A2D00D1B3E0802D0AD120788028FD
:103C300000D0EFE003202056002800D51AE102262C
:103C4000E8E005990888401CE3E06578E348812DA9
:103C500000D1E2E0822D00D0E6E082214170A72170
:103C60000170A178E278C27081700802851804277B
:103C7000DEE0059A138820780527BE2800D020E1D1
:103C8000264604976578B24F386800900320B1A1AA
:103C900003902A4612F0CCFE059A1388E818801C7F
:103CA0003968884200D0EAE03079012800D0E5E0A8
:103CB00070790028049F00D1E3E0012700E16078DB
:103CC0000A285ED1A07804285BD1E078082858D172
:103CD000E079C64FF870A079B87060797870207973
:103CE0003870A07AB871E07AF871207A3871607A09
:103CF000787180200090221D0126BD49082530469C
:103D00002B4619F041FDBB48006839462A4625F08C
:103D100082FF002800D1B8E002460120B64933E016
:103D2000A14D2B7867780320A0493A4612F080FE17
:103D30002878002869D00497E77806AD6F700320D3
:103D400003909B493A4612F073FEA81C251D0446B9
:103D500029463A46FCF7EFFA964829463A46FCF7D8
:103D6000EAFA0420009094A1039822463B46049F5F
:103D700019F00AFD49E005990888401C08800926C9
:103D800048E002209849714A12F052FE0B2641E0A9
:103D900060780228059A0DD1A1780220072909D15F
:103DA000E178802906D103208A49012212F040FEE1
:103DB000059A6078831C1088C01810800420009039
:103DC00002208549224619F0DFFC23E067780320B2
:103DD0007C493A4612F02CFE072F16D104200090A1
:103DE000A41C03207849072522462B4619F0CCFC59
:103DF000764920462A46FCF7E5FA30B96A4801229E
:103E000002700320724912F013FE059908883818D1
:103E1000801C0880304617B0F0BD81214170A72179
:103E20000170A578857003E04570A7210170022715
:103E30006A4EF019E1192A46FCF77DFAE819059C4B
:103E400021880918218004210491009183B2022065
:103E50006349324619F098FC012630463AF0DAFC04
:103E60002088009701905F49384A04982B4612F049
:103E7000DFFDCFE705990888001DCAE7059A049F72
:103E80001FE0F07928B1092004E0059908880C307A
:103E9000BFE70820315C062901D2022710E0451C4B
:103EA000715D5F290CD171194A78042A18D01F2A34
:103EB00006D188780428059A03D1C87808B914E097
:103EC000059A581C108004202CA1204A3B4612F071
:103ED000AFFD384617B0F0BC02BC8E463AF0D0B900
:103EE000897800290546059AEBD1042728463843EE
:103EF00020180EF0BDF968B1E81D21184978225C40
:103F000012025118491E059A13880B29D9D31B1880
:103F10000027D6E7059A1388039FD2E7E7B6071074
:103F2000D7A907105B414152515D2025733A2041CA
:103F3000415251205441475B3078253032585D2C36
:103F4000206964785B25645D0D0A0000D7A907101D
:103F5000B0A600306C656E5B25645D2C202A705F16
:103F60006F5F6964785B25645D2C206170706C5FA5
:103F70006C656E5B25645D0D0A0000005B4141527B
:103F8000515D2025733A204153534F5F555345529D
:103F90005F494E464F524D4154494F4E2072736C0B
:103FA000745B25645D0D0A000C43013070A8071096
:103FB00049A80710D0A40030414152515F52414EF0
:103FC000444F4D00EEB107107BA907102C80003044
:103FD00079A8071061A807108FA90710458800303D
:103FE000EEA907108FA8071011A80710A8A4003089
:103FF000BDA9071094A40030BDA8071029A8071078
:104000007CB505462248006810B92DF0D9F938B1C1
:1040100020480121017020480024C47320467CBD43
:104020001C49087800220A70411E4A424A411A4E31
:10403000F2730124002DF1D001280ED11AF070F88E
:104040001AF074F8054619F0C3F819F0D7F80346CA
:10405000F07B009003201FA116E0F06B411CF16380
:104060006421B0FBF1F24A43801AD7D11AF058F814
:104070001AF05CF8054619F0ABF819F0BFF80346E2
:10408000F07B0090032005A12A4612F0D1FCC5E781
:1040900040480050418A003090A30030504F5745AF
:1040A000525F4641494C3A2030202D2072756E5F98
:1040B0007077725B25735D2C20706D6E745B257359
:1040C0005D2C206F66662D6F66665B25645D0D0A4C
:1040D00000000000504F5745525F4641494C3A207E
:1040E00030202D2072756E5F7077725B25735D2CAA
:1040F00020706D6E745B25735D2C206F6E2D6F6666
:10410000665B25645D0D0A0080B50748006810B93C
:104110002DF056F910B10548006800B180BD044883
:104120000121017080BDC0464048005040A20030CF
:10413000418A00300022202A03D08B588350121D60
:10414000F9E77047F0B50023104C202B0BD0D55861
:10415000CE582768F619751BB5FBF7F67E43AD1BE5
:10416000C5501B1DF1E7F0BDB0B50C4624F0D6FCE0
:1041700040F2E835684304490860204624F0CEFC4C
:10418000684302490860B0BD784801307448013086
:10419000810702D0001D03218843704770B529486C
:1041A00040F22C11502278230C24064D064E8660D6
:1041B000C560046143618261C161044801210170ED
:1041C000002070BD8FC2F53D8FC2F53C44880030A1
:1041D00010B5032403A105A2204612F029FC0748CC
:1041E000047010BD2573200D0A0000006166655F34
:1041F000696E69745F7374617274000070A000303E
:10420000104801795A394842484170470C480178B2
:1042100009B1491E01700B48017809B1491E0170AE
:10422000417809B1491E4170817809B1491E8170F8
:10423000C17819B15A220271491EC1707047C04637
:10424000C48C003070A00030FEB50446274D285CB9
:10425000274E336800900194032026A1354A12F0BE
:10426000E7FB042C20D301233168E878820701D5CD
:104270005C06A143C40701D01B06994302B131601B
:104280002A7811420AD16A780B0A134206D1AA7819
:104290000B0C134202D1090E014226D003202749FC
:1042A000244A12F0C5FB1BE0032C0DD1012230681B
:1042B000EB78990701D55706B843DB0701D0120602
:1042C000904311B1306000E03068E100C840295DE2
:1042D00008420AD0C3B203201749164A12F0A8FBBD
:1042E000FEBC01BC864612F085BBFEBD0E2401302B
:1042F00098A200305B475245515D20257320574DF1
:104300005374617475735B25585D2020636F646519
:104310005B657272636F64656964785D5B25585D87
:1043200020657272636F646569645B25585D0D0A70
:1043300000000000E3C3071058B80710FDB70710CE
:1043400010B5044603200A490AA212F071FB0F4877
:104350000F4901220A540F4800220A5443F6007004
:104360000860204610BC04BC964612F035B8C04622
:1043700068CC0710616D695F6174636D645F676528
:10438000745F626561726572000000000C040000D9
:10439000CCF9003004040000BCB5134D2878012886
:1043A0000AD1032011A1134A12F042FB0021297007
:1043B0001148407B2DF09CFDA878012812D1E878A7
:1043C000009002200D490B4A0124234612F030FBD5
:1043D0000020A870E87884432046BCBC02BC8E460E
:1043E0003AF012BDBCBDC04604A3003025730D0ACF
:1043F00000000000B1B70710D0470130B4B5071076
:1044000080B5032009A10CA212F012FB7148002113
:104410008170018041600FF075FE32F06DFE0FF08B
:10442000FFF980BC01BC864600F0F0BF5B434F4DF6
:104430005D2025730D0A0000616D725F696E6974FD
:104440000000000080B500F007F8002080BC02BC2E
:104450008E4600F0A9B80000F0B585B002A80A2188
:104460000FF040FF002877D0044657493220C86635
:1044700002AD474E00270A200190009730780428AB
:1044800037D8810001A251188F46C04600F008B805
:1044900000F03FB800F01BB800F02DB800F005B8F0
:1044A00028787E284CD1012031E028787E2809D157
:1044B000384839490818718800273A4622F00EFB1F
:1044C000002855D1009F37703F48C76638E02878EC
:1044D000718801437180334881420AD870682E493F
:1044E00009182A782B4BCA5403213170401C706084
:1044F00026E0377024E07068274909182A78254B90
:10450000CA54401C70607188884219DB04203070E6
:1045100016E028787E2813D028781E491E4A505469
:10452000012070600220307014F056FF29780128B5
:1045300003D1BC2901D1778002E04807400D70808B
:104540006D1C641E9AD102AD284601990FF0CAFE77
:104550000446002892D105E01B48C06E10B90C48F3
:1045600000210170002738460FF092FA05B0F0BD27
:1045700037701548C7661FF0E1F818B10748007892
:104580000128F0D106481049C8600127EBE7C04672
:1045900028A30030DC0500006461013020350130C3
:1045A000E02E00003B040000B0B50146094D6868EC
:1045B00048B1054A926832B9AA6883B200242046FD
:1045C00015F01EFA6C60B0BD2C5F0130014A5160DD
:1045D0009060704704A30030F0B597B00546032003
:1045E0005E495F4A12F024FA5E4E3068415D6029F0
:1045F0000CD140194478812C0BD0822C0DD12D1D6B
:104600000595C17880780002441808E001205649D9
:1046100028E0ED1C0595847801E0AD1C059503208C
:1046200052494F4A234612F003FA281950490968A3
:10463000884202DD0120774914E08CB10A25012768
:104640000599A1421ADA3268505C5118BE2810D080
:1046500005AAFFF76DFA01283D46F1D0054605E0B1
:1046600001206B493E4A12F0E3F90A25E8B217B07F
:10467000F0BDBE2005AAFFF75BFA0546012D01D06B
:104680003EA000E03BA0009003203EA1344A2B4610
:1046900012F0CEF9012DE9D10FAF20263846314670
:1046A000FBF764FE07AD28463146FBF75FFE7B2033
:1046B0000022394604922EF091FC0096384C0834C2
:1046C0000520214640F2F4122B460DF05DF83846E5
:1046D00029463246FBF776FED8B332482BF066FE09
:1046E000314D28462BF062FE2846214640F2F41256
:1046F0002BF064FE08B12DA114E02A48344940F2A1
:10470000F4122BF05BFE08B132A10BE0049A029286
:10471000019206A800902448224913462CF042FA40
:1047200060B13549012035A212F082F91D482BF005
:10473000B7FD1D482BF0B4FD0C2597E77B2007A99A
:1047400001222EF04BFC17482BF0AAFD16482BF047
:10475000A7FD204619F028FD012587E76FA907105E
:1047600099A90710ACA60030F4A70710E9A8071014
:10477000B0A6003053756363657373004661696C5E
:10478000000000005B414152515D2025733A2072C8
:104790006573756C745B25645D2025730D0A0000DC
:1047A00045880030C4BC0030C45D01305B414152DB
:1047B000515D2025733A20414152512044532070CD
:1047C00061727365204572726F720D0A00000000FD
:1047D000458400305B414152515D2025733A2041B0
:1047E000415251205375624361207061727365209C
:1047F0004572726F720D0A0027A9071076657269FB
:1048000066795F63657274696669636174650000E7
:1048100050A9071005A90710F0B589B00546032077
:104820009349944A12F004F993480068415D602965
:1048300012D140194678032491498E4A20463346C6
:1048400012F0F6F8A81C014680198E4A1768B84283
:104850000BDD0120A54901E001208849854A12F0BD
:10486000E7F80A24204609B0F0BD66B18248026824
:104870000E46505C80280AD1501905214056002868
:1048800004D40224EEE701209749E7E7AE1D049225
:1048900090197D490B22FBF795FD0028E2D13546A2
:1048A0000B350720C243049E705D7119BD4207DAC3
:1048B0000346AA3B934203D348782818851CF3E7A4
:1048C0002B4605AA002515708A2810D148780024A7
:1048D000022808D18A78072A05D1C978802902D10F
:1048E00005A901240C701818831CF05C00E02C460C
:1048F00005AF7D700393F118AC2824D08B282AD102
:1049000002974F780025072F284608D1881C5F4959
:104910000722FBF757FD0028284600D10120039904
:10492000C9198A1CB15CAC29039213D1B1184E7815
:10493000029F48B1CD7805A84570801C091D2A4604
:10494000FBF7F9FC01E04E78002503983018801C35
:10495000039000E0029F009503264DA157A2304628
:10496000234612F065F86CB165B17D1C564800789D
:104970000121CC0703280DD0022809D001282ED10F
:10498000012008E05048007800283B482ED10EE076
:10499000022000E0032029460DF004FDF8B1009448
:1049A00003204A490D232A4618F0EEFE32480068DB
:1049B0000399415CBD291BD00525BE294DD1039B20
:1049C000C1184A789A18921C2E4B1B689A4244D1FF
:1049D0000A79012A41D14A7962B101253DE000946A
:1049E00003203A490D232A4618F0CEFE042439E765
:1049F000092437E7C97909B1092100E00821039AA0
:104A00008918425C062A01D2022526E04218537812
:104A10005F2B22D19378042B08D01F2B1DD1D37884
:104A2000042B1AD112790525BAB902E0D278A2B9BD
:104A300004256C1800190DF01BFC354668B10E48B2
:104A4000006800190179C07800024018401E0B2848
:104A500001D3002000E00120850003201CA1054AAD
:104A60002B4611F0E5FF284639F00AFC0446F9E62A
:104A70006FA90710AEA90710ACA60030F4A7071065
:104A8000E9A80710B0A60030152D0710B44C071088
:104A90005B414152515D2025733A20616373655F2C
:104AA0007265715B25645D2C20617574685F766149
:104AB0006C5F6C656E5B25645D0D0A006368656301
:104AC0006B5F61757468000091A6003086A90710BD
:104AD0005B414152515D2025733A20726573756CBC
:104AE000745B25645D0D0A0050A9071005A9071025
:104AF0007CB50C46064603207AA1814A334611F064
:104B000097FF3046A1380025092824D8810001A24A
:104B100051188F4600F012B800F06FB800F061B87D
:104B200000F041B800F02CB800F0ACB800F0AAB822
:104B300000F0A8B800F0A6B800F06BB894490A22BB
:104B40002046FBF7F8FB0120A07204200090022011
:104B500090490B2592E0BE2E7ED0892E70D0882EF3
:104B600000D08FE0674800682070010EE170010CF2
:104B7000A170000A607004250095022087497DE03D
:104B80001AF0A2F8002800D184E00146407881287C
:104B900000D185E0822800D085E0C8788A781202AA
:104BA0001018001D80E0574801461931744AD37926
:104BB000CB7293798B7253794B7213790B72D378D2
:104BC000CB719378C37753788377127842770C252B
:104BD00020462A46FBF7AFFB802000900120694960
:104BE0004CE048490931072520462A46FBF7A3FB3C
:104BF000042000900220644940E04248011D052540
:104C000020462A46FBF797FB0420009002205F49CC
:104C100034E02025E5708026A67022206070AA204E
:104C20002070201D3F4C21462A46FBF784FB00964E
:104C300001203DA122462B4618F0A6FD242521E0A7
:104C400030491031092520462A46FBF774FB042021
:104C500000900220504911E02A49253112252046B2
:104C60002A46FBF768FB2848817DE172C17D2173EC
:104C7000007E607304200090022024A122462B466F
:104C800018F082FD032046491D4A2B4611F0D0FE44
:104C9000A8B27CBD042031A111F0CAFE0025F7E7BF
:104CA0008878C01C00E0801C244EF071020AB271AA
:104CB00085B2281DF070000AB070304608302A46D0
:104CC000FBF739FB0835204631462A46FBF733FB14
:104CD0008420009001201AA122462B4618F054FD92
:104CE000D6E7C0465B4150504C5D2025733A2041C9
:104CF0004152455B3078253032585D0D0A00000086
:104D000078B70710AC80003090A600305245535061
:104D10005F555345525F494E464F524D4154494F9E
:104D20004E000000B0A400302D2D3E2054782053BA
:104D300065727665722052414E440000488600300C
:104D40002D2D3E2054782053657276657220436580
:104D50007274696669636174650000005B4150505C
:104D60004C5D20524553505F41455F5155414C4980
:104D700046494552204572726F720D0A00000000CC
:104D8000A0A400304FB70710FDB60710BCB607103F
:104D900033800030E2B60710CEB6071012B7071006
:104DA00093B60710FEB51AF0EBF80646324FBB7B00
:104DB0000078397C8006C00F0090019103202FA15C
:104DC0003CA211F035FEF86A0EF03EFCF86AC721ED
:104DD000C170F86AF97B0171F9794171B87B0528D6
:104DE00002D838A10C5C00E0FA240090019408B1CC
:104DF000374B00E0354B03203649374A11F018FE97
:104E00003648007801280FD135480168022529432A
:104E100001600C200021334A14F056FF32A12E4AC3
:104E20002846304B11F004FEF96A8C717878FE2226
:104E300002400020042A0DD13278920609D4BA78B3
:104E4000042A07D1B87AFC220240083A5042504165
:104E500000E001203A7C2AB100220A720122CA71C4
:104E60003A6C02E00022CA71082292B203B0F0BC90
:104E700008BC9E4601F032BA90A6003025733A2055
:104E80006170706C5F726573705F726573756C745E
:104E90005B25645D2C2052585F454E435B25645D65
:104EA0002C206F7074696F6E5F666C61675B256440
:104EB0005D0D0A006170706C5F6163745F72657391
:104EC00070000000000C0CFAFAFA0000A9B70710F5
:104ED000A3B70710FEB507108CB707100EA7003058
:104EE000C09F0030881300005B4150504C5D20256E
:104EF000733A206D65746572207265736574205411
:104F00004F5B2564206D735D200D0A0010B5F649D6
:104F1000CA69135C0B73121853780C463434E3706F
:104F20009378A370D378637012793423CA54401DE8
:104F300010BDC046B0B5032414A1204611F078FD81
:104F4000E94D00202864E86A0EF07EFB286C011D04
:104F50002964E96A08180E21C170286C411C296473
:104F6000E96A01220A54286C411C2964E96A0C543C
:104F7000286C411C2964E96A02220A54296CE86AF7
:104F8000B0BC04BC96460FF03BB8C0465B415050E5
:104F90004C5D2053657276696365204572726F724D
:104FA0000D0A000030B4D04900228A700346213B2C
:104FB000062B17D804209C0001A52C19A746C04633
:104FC00000F00CB800F014B800F01FB800F010B8F2
:104FD00000F015B800F00CB800F010B801204874CB
:104FE0004A7019E0452813D0CF2801D1032012E0E0
:104FF0004878FE210140042904D00DE0052012224A
:105000004A74487030BC19F065BF0120487402E052
:10501000012048740220487030BC7047F0B585B05C
:1050200004461A4AD069015D5175051968781075F2
:10503000A91C16461746503606223046FBF77BF968
:10504000287A7872032512A1164F2846B8470F48D0
:10505000828A15A12846B84750200C49085C049064
:105060007378B078F1783279767900900191029274
:10507000039611A12846049AB8470448427A15A11C
:105080002846B8470934204605B0F0BD90A6003048
:10509000434F53454D204F626A656374733A0D0A5E
:1050A00000000000316A04102D20434C4153533A54
:1050B0002025640D0A0000002D204F4249533A205C
:1050C000256420256420256420256420256420256E
:1050D000640D0A002D2041747472696275746573E1
:1050E0003A2025640D0A00001CB5E0B3274809B931
:1050F0008178C1B326490A68530608D5254B012497
:105100001C7040239A430A60497E234A5173234905
:105110000978012915D1224901220A70427800201C
:10512000052A014604D81FA0805C91001FA2515897
:10513000244A107000910220234924A2012311F077
:1051400077FC26480178012906D12549097886226D
:10515000114B99540021017026F00EF918B126F078
:10516000F5F826F00DF932F077FF38F073FF1D489F
:105170000021C171817141710171C17081704170F3
:10518000017019480170014881701CBD90A6003063
:10519000F848013004A30030D04701300EA700309A
:1051A00006A3003001010000010100000100000021
:1051B00001000000000000000000000001000000ED
:1051C0000100000007A30030B4B507106170706CD7
:1051D0005F646973635F696E6400000005A300305B
:1051E0009CBE0030A8A40030D2A100307CB50C4693
:1051F00005460091012011A119A22B4611F018FCBF
:10520000B44E00203064F06A0EF01EFA306C011DBE
:105210003164F16A0818D821C170306C411C3164C6
:10522000F16A0D54306C411C3164F16A0C54316CDC
:10523000F06A7CBC04BC96460EF0E2BE25733A20B0
:105240006572725F73746174655B25645D2C2065A3
:1052500072725F6E756D5B25645D0D0A0000000063
:105260006170706C5F657863657074696F6E5F7292
:105270006573700080B511490978FE220A40042A3E
:1052800002D110490B3101E00349091D0722FBF748
:1052900052F8072080BDC046152D071080B507497C
:1052A0000978FE220A40042A01D1064900E0044997
:1052B0000722FBF740F8072080BDC04691A60030CA
:1052C000B44C07102C80003010B503A107242246EF
:1052D000FBF731F8204610BD608574050802000018
:1052E0007C4880787047C04690A60030FEB519F023
:1052F00047FE0446314DAB7B00788006C00F00901E
:1053000003202F492FA211F093FBE86A0EF09CF9BD
:10531000E86AC421C170E86AE97B0171EA794271E7
:1053200002290FD1697B817129464831E964CA7825
:10533000C2718A780272497841724821695C81722F
:105340000B2600E00626A97B39B101218155A87BF7
:10535000082806D81FA10F5C04E0002181552A6CA3
:105360000FE0FA270090019708B11E4B00E01C4B9C
:1053700003201D491DA211F05BFBE86A80194770EC
:10538000B21C6878FE210140002004290DD121784B
:10539000890609D4A978042907D1A87AFC210140FB
:1053A00008394842484100E00120E96A92B203B05E
:1053B000F0BC08BC9E4600F091BFC04690A60030ED
:1053C00080B507106170706C5F6765745F7265739C
:1053D0007000000004040B0C0F10100FFA00000006
:1053E000A9B70710A3B70710FEB507106170706C5E
:1053F0005F6765745F726573756C745F7265617306
:105400006F6E00003348806A7047C0467FB5032046
:105410002BA12DA211F00CFB2E4E0025B5702E4CA9
:105420002046FEF7B5FEF0622C4824182046FEF711
:10543000AFFE306301F0B2F8462069462A462DF0EF
:10544000CDFD30B13046563069460D22FAF773FF74
:1054500012E0562022493152304657304421C17162
:105460003421817143214171332101714221C17085
:1054700032218170412141704720694600222DF080
:10548000ADFD30B13046633069460D22FAF753FF67
:1054900006E0632008213154124813497166B06652
:1054A0001248306771365320F0714F20B07154208C
:1054B0007071552030714120F0700D4804607FBD3F
:1054C00025730D0A000000006170706C5F696E69E1
:1054D0007400000090A6003064610130DC0500001B
:1054E000083100003747384835453646084A4E44AB
:1054F00048A30030F0B5FFB09EB00246F94FF86106
:10550000396200243C70B878002841D006A80470A5
:1055100019F03AFD7878FE210140042948D1BB7882
:105520000324F1A1F74A204611F082FAFA693B6A96
:1055300004250095F4A1204618F026F9B978C81E74
:10554000022800D2A5E0481E012800D95AE1F869D6
:1055500003787B714178B9718078F871009101907E
:105560000320EC49E74A11F063FA7879C3381C2824
:1055700000D98BE001218140E74A114200D0F8E0D8
:10558000002800D082E000F091FA19F0D3FB39E155
:105590007878FE25284004283CD10B460420009052
:1055A0000320DEA118F0F0F80020FFF715F834E032
:1055B0000A24204614F096FB0021DB4A204614F012
:1055C00083FB0125FD7018F0EFFC00F0C3FF7B6A40
:1055D0000320D6A1CB4A11F02BFA7878052800D009
:1055E000FFE0B878032800D2FBE00F24204614F037
:1055F00079FB0021D64A204614F066FB3D7118F075
:10560000D3FC00F081FFBB6A0320D249BD4A11F0F0
:105610000FFAE6E00020FFF7FFF806460320CE4928
:10562000324611F005FA7878284004282CD10A2E49
:105630002CD000243C640320C849C94A334611F0E9
:10564000F7F9386CF96A08180DF0FEFF386CC01CC9
:1056500038640C2E00D9DBE00121B14041F2C012C8
:10566000114200D1D4E00394F96A0D18F34934468D
:10567000202628463246FAF75EFEA01FC0B2032855
:1056800000D2B7E00398B6E00A2E75D1FFF752FCBE
:10569000B8E0F86900787871032908D1C83817286C
:1056A00005D801218140EA48014200D0BD700A2599
:1056B000284614F017FB0024E14A2846214614F03E
:1056C00003FB0126FE7018F06FFC00F043FF7B6ABD
:1056D0000320E0A1DB4A11F0ABF97878052816D158
:1056E000B878032813D30F25284614F0FBFA0021BD
:1056F000D54A284614F0E8FA3E7118F055FC00F03F
:1057000003FFBB6A0320D149CE4A11F091F97879A1
:105710000146C839022958D3CB2856D0DF2828D1D2
:1057200005AA147004AB1C80F869214619F0F0F941
:1057300000285AD004A8038805AC2078F969F2073C
:1057400000920A180320CCA118F01EF82078FA69FC
:10575000115CC839172955D833468B40BC490B42D8
:1057600050D0101804A9098807AB18F04BFE3E7002
:1057700031E0012003213AE03C640320C149C2A288
:10578000334611F055F9386CF96A08180DF05CFFD2
:10579000386C3546C61C3E640C2D79D80120A840D3
:1057A00041F2C011084273D0F86A8019B949202625
:1057B00003903246FAF7BFFDA81FC0B2062801D8F1
:1057C000B5A10C5C0398845516E0F869002107AB7D
:1057D000024618F017FE40B119F0A6FA07A8008893
:1057E0003862F86900F0B0F90CE002200521FFF7FB
:1057F000FDFC07E0601FA855396C21313964F86A57
:105800000EF0FEFB002019F0C3FB7FB01EB0F0BD10
:105810000396A12007AEA34C3146A0470546311898
:10582000A2200290A0474519A8B23118A320A04792
:105830002D18A8B23118A420A0472D18A8B23118ED
:10584000A520A0472D18A8B231188820A0472D18F0
:10585000A8B231188920A0472D18A8B23118AA2063
:10586000A0472D18A8B23118BE20A047396C4A1C99
:105870003A64FA6A61235354281886B2310A27D051
:105880003A6C531C3B64FB6A82249C54022423E040
:10589000FC6AA01982492B220390FAF74CFD012DD6
:1058A00000D19EE0012203984274386CF96A08180E
:1058B000042D00D18DE00221032D00D18EE0022DB8
:1058C00000D08AE0A2220275386CFA6A101885E0CE
:1058D000812E47D3012481213A6C531C3B64FB6A1F
:1058E000995440E090A6003025733A206170706CA6
:1058F0005F636F6E6E5F73746174655B25645D0DCD
:105900000A0000003DB70710415044555F5345431E
:105910000000000043B507106001001041415251E2
:105920005F5345430000000000DD6D0025733A2001
:1059300054494D4552205354415254202D206173F7
:10594000736F5F315F32202564207365630D0A0039
:10595000E0930400328307102FB607101EB607101D
:10596000ACB607100024396C4A1C3A64FA6A5054E9
:10597000386CF96A081807A93246FAF7DCFC386C6B
:1059800080193864039B012B11D10124204638F083
:1059900041FF3B6CFA6A042000900220424917F054
:1059A000F3FE396CF86A0EF02BFBBC7034E0F86A39
:1059B000001901220275F86A0019042B0BD002218C
:1059C000032B2DD0022B2AD1029AC275F86A001936
:1059D00026E00D2102E00D2122E0114601763E6C09
:1059E000FC6AA019B97D24228154386CF96A081820
:1059F000F97D25228154386CF96A0818397E2622EF
:105A00008154396C2B313964F86A0EF0F9FA012DA2
:105A100000D0F7E60120B87000F0C0FDF2E61146B4
:105A2000C176012038F0F6FE3B6CFA6A0420009043
:105A300002201D4917F0A8FE396CE0E6D42C0710AF
:105A400000DD6D003DB70710E093040032830710BE
:105A50000B00800025733A2054494D455220535481
:105A6000415254202D206173736F5F335F342025C2
:105A700064207365630D0A00436970686572204D88
:105A8000534700001EB607106170706C5F414152B1
:105A900045000000D42C07100102030000000000A4
:105AA000A82C0710F14A0310F8B6071010B51648D5
:105AB000002181734079C32819D0C1280CD0C02897
:105AC00020D103241BA1204610F0B2FF204610BCB9
:105AD00002BC8E4608F088BB032411A1204610F0BA
