:020000041003E7
:10000000D89C0030250203102D0203102F0203108C
:100010005365637572697479706C6174666F726D23
:100020000000000000000000000000008123031019
:10003000000000000000000071200310C92303101D
:100040004702031047020310470203104702031040
:100050004702031047020310470203104702031030
:100060004702031047020310470203104702031020
:100070004702031047020310470203104702031010
:100080004702031047020310470203104702031000
:1000900047020310470203104702031047020310F0
:1000A00047020310470203104702031047020310E0
:1000B00047020310470203104702031047020310D0
:1000C00047020310470203104702031047020310C0
:1000D0003D2403104324031047020310470203107A
:1000E0004702031047020310B9150310470203101B
:1000F0004702031047020310470203104702031090
:10010000492403104F240310470203104702031031
:10011000470203104702031047020310470203106F
:10012000470203104702031047020310470203105F
:10013000470203104702031047020310470203104F
:10014000470203104702031047020310470203103F
:10015000470203104702031047020310470203102F
:1001600047020310470203104702031055240310EF
:10017000470203104702031047020310470203100F
:1001800047020310470203104702031047020310FF
:1001900047020310470203104702031047020310EF
:1001A00047020310470203104702031047020310DF
:1001B00047020310470203104702031047020310CF
:1001C0004702031047020310470203107523031070
:1001D00047020310470203104702031047020310AF
:1001E000470203104702031047020310470203109F
:1001F000470203104702031047020310470203108F
:10020000470203104702031047020310470203107E
:100210000348854600F084FC00480047055B051054
:10022000D89C00301248804712480047FEE77046CD
:10023000EFF30881EFF309820F4B98470047FEE781
:10024000FEE7FEE7FEE7FEE7ABBE0C4B74469847C1
:1002500020477046F047000009480A490160684697
:1002600008600948486030BFFEE700BF00BF00BF1C
:10027000F123031011020310192103107723031037
:10028000C0020040000001206B020310F0B51FB453
:100290000646002082B005464024019100901BE0F4
:1002A000019922460F46304600F056F9049A059B04
:1002B000801A994110D310461946224600F03CF9A5
:1002C000361A8F410197224601200021009F00F03D
:1002D00033F938184D4100902046641E0028DFDCB9
:1002E000019B00982946324607B0F0BD30B5434324
:1002F00051435C18010C130C0D465D432C1980B260
:1003000092B20546554351430A0C09044D19624106
:100310005843010C00044019514130BD004870475A
:10032000709F061010B50446FFF7F8FF0068005DE7
:10033000C007C00F10BD01466139192900D8203807
:10034000704710B503461C460C43A40703D009E0D0
:1003500010C9121F10C3042AFAD203E00C781C70D3
:10036000491C5B1C521EF9D210BDD2B201E00270D2
:10037000401C491EFBD270470022F6E710B5134619
:100380000A4604461946FFF7F0FF204610BD421EFC
:100390005378521C002BFBD10B781370491C521C54
:1003A000002BF9D17047421C0178401C0029FBD179
:1003B000801A704710B5002200E0521C835C8C5CF0
:1003C000A34201D1002BF8D1D8B2E1B2401A10BD3E
:1003D00030B504460020034600E05B1C934203D284
:1003E000E05CCD5C401BF8D030BD03460A7802705B
:1003F000401C491C002AF9D11846704730B5054603
:100400000020034600E05B1C934205D2EC5CC85C14
:10041000201A01D1002CF6D130BD10B54843044656
:1004200039F0C6FC002805D00021002C02D0641E43
:100430000155FAE710BD0000F7B5009C0F460026F5
:100440002578641C002D05D0FFF768FF0068405D2B
:10045000C007F5D12B2D02D02D2D18D0641E3946A2
:100460002046029A00F089F8002F04D03968A14292
:1004700001D1009939607105022400290BDA40424C
:10048000002803DD38F02AFC0460A007FEBD01202F
:1004900080020643E3E70028F8DA38F01FFC046026
:1004A0000048FEBDFFFFFF7FF7B582B00F46002674
:1004B000029C38F013FC0090006801902578641CC1
:1004C000002D05D0FFF72AFF0068405DC007F5D179
:1004D0002B2D02D02D2D1CD0641E00980021016010
:1004E00039462046049A00F048F80146002F04D00F
:1004F0003868A04201D1029838600098006802284C
:100500000BD00098019A0260700506D5484205B0EC
:10051000F0BD012080020643DFE70846F7E770B52B
:10052000064638F0DBFB046805460A220021304607
:10053000FFF782FF2C6070BD10B5202A04DB014656
:10054000203A9140002010BD914020239C1A034680
:10055000E3401943904010BD10B5202A04DB084643
:10056000203AD040002110BD0B46D340D04020247B
:10057000A21A91400843194610BDF7B582B0029CFB
:1005800000272078641C15460197302802D0002DE2
:1005900015D015E020780127641C782804D058284D
:1005A00002D0002D09D00BE0002D01D0102D07D175
:1005B000002710252078641C02E0082500E00A25A9
:1005C0000026009610E00099012769430818020CE4
:1005D000294680B2714300908E183804864201D3B8
:1005E000012001902078641C294600F0E3FA0028DD
:1005F000E9DA0398002805D0002F01D0641E00E03E
:10060000029C04600198002806D038F067FB0221A4
:100610000160C81E05B0F0BD009930040843F9E739
:1006200010B50023036000F0F5FA10BDF8B50246DE
:100630004A40D40F42004B0052085B089A4202D253
:100640000246084611464A0023D0C30D4A00DDB2D7
:10065000120EAD1A202D35DA49020126490AF60597
:100660008A19002C00D0524220214F1B1146B9405C
:100670002A411018C20D9A4221D0002C17D0012D0A
:1006800008DCDA05801AD20F8019D207DBB200F03D
:1006900003FBF8BDDA05801A012340001B06C018D1
:1006A00080185A428018CA0F1043490007E04908D1
:1006B000C2071143DA05801A80194008801800F03B
:1006C000E3FAF8BD61000122511A001BF7E701228D
:1006D000D2075140AAE70122D2075040A6E710B541
:1006E00041000DD04100090E962909DC7E290ADC63
:1006F00007DB410205D0C00F7F21C007C9054018A4
:1007000010BD002010BD9622541A20210A1B01465C
:100710009140E04000F0B8FAA04010BDF0B50746A7
:100720000846584087B0C00F049048000E46590054
:1007300040084908BC1A884105D2384631461E4651
:1007400017460B4602465800400810434CD0300D67
:10075000039040055900400D490D0590401A029044
:10076000402872DA18030121000B090508430190A3
:1007700004980092002805D0019952420020884137
:1007800000920190029840210A1A01990098FFF7FF
:10079000D3FE05460C466B4607CB00F0F8F9C019AE
:1007A0007141039A0E0D0023D71756401A467A401E
:1007B000164344D0049A002A2DD0029A012A039AA3
:1007C00015DC1205C01A914101263605001C714145
:1007D000D20F059ED2070093019202962A46234625
:1007E00000F0A0FA07B0F0BD38463146FAE716052A
:1007F000224A0F46B218C01AB74101210905001C50
:100800004F4100187F41114618187941E20F1043FB
:100810006D19644113E0E2076D0815436408C207CF
:100820001443039A01261205C01A91413605001C93
:100830007141CE07400830434908C01851412A464B
:10084000234600F062FACDE7FFE70498012240005A
:10085000C117121A00238B4104983146C417381A65
:10086000A141EEE730B40124E407634030BC55E712
:1008700030B40124E407614030BC4FE70000E0FFE2
:10088000F0B51FB488B00B99099800244840099925
:10089000C00F490049080991C0070B990090490011
:1008A00049080B9109990898A64608431CD00B9952
:1008B0000A98084318D0099801244000420D4800C6
:1008C000410D099824050003000B204309900B9863
:1008D0000003000B20430B9050181C4940180022C5
:1008E00001901446104605E0002001460DB0F0BD11
:1008F000032801DA034600E003239C46C11A0AAE2E
:100900000AE05F0008ADED5B4F00F75B7D43002719
:10091000AA187C41491C5B1E6145F2DD410004AB15
:100920005A522104120C0A43240C401C0828DFDB15
:10093000019802900099704601910090059B049ADD
:100940000799069800F0EEF9D0E700000DFCFFFFD4
:10095000F0B50C465C4085B0E40FE40703944C000E
:10096000002664085900944649080246029622432C
:1009700021D062460A431ED06200570D4A000E0382
:100980002303550D012402462C492405781B1B0B1B
:10099000360B401823432643614600901C46501AEC
:1009A000B44103D30098401C009002E092180098D4
:1009B0005B41002803DA0020014605B0F0BD0020AD
:1009C000012109050746864611E064461D46141BB1
:1009D000B54106D36546521BB341744607430C43E9
:1009E000A646CD0740084908284392185B410546B2
:1009F0000D43EAD11046184313D0604619465040C3
:100A00007140084306D06046101AB34106D2012255
:100A1000002306E000220123DB0702E00122D2438B
:100A20005310009874460105381C6141029C039DD7
:100A30000019694100F069F9BFE70000FD030000FB
:100A400070B54B005B0803430BD04B005C0D0026D8
:100A500033466542B341D417AD1AA34102DB0020EF
:100A6000014670BD12053018514170BD4A0009039E
:100A70000123090B1B0519430A4B10B5520D9A426D
:100A800002DA0020014610BD064B34339A4203DCE3
:100A90009A1AFFF761FD10BD034BD218FFF74CFD0A
:100AA00010BD0000FF030000CDFBFFFF10B54100AB
:100AB000C40F0A0E40020121400AC905E40740188C
:100AC0007F2A07DA7D2A00DA7D22763A90400146B5
:100AD000002008E0962A09DC1346763B014699403F
:100AE00096239A1AD04000F0CFF801E0963A904051
:100AF000002C00D0404210BD10B5002904DB0124B9
:100B0000E40740428C412146002B04DB1C460123B4
:100B1000DB075242A341994200D1904210BD000030
:100B20001CB5094800900948019005460126009C23
:100B300005E0E36807CC33430C3C98471034AC42E3
:100B4000F7D3FFF769FB00002476071044760710FF
:100B500070B50446002903D000202022012310E0B4
:100B6000002801D00020C043C046C0460DE0254605
:100B7000D5408D4205D30D469540641B1D469540DA
:100B800040191546521E002DF1DC214670BD10B5EE
:100B9000202A06DBCB170846203A1041C1170B4329
:100BA00006E00B461341D0402024A21A914008438E
:100BB000194610BD3A2800D23038202302469A4305
:100BC000412A01D310463738884201D30020C04360
:100BD000704700000FB400B589B00A460DA9009116
:100BE00000230C99002ACB60234B0693234B0793D9
:100BF00001D0042300E00023214A0292214A0892F6
:100C0000019302466B46002000F0B3F909B008BC1E
:100C100004B01847F0B585B007460020C0430190E6
:100C20001E46002015460C460091029104903B465A
:100C30006A46314604A8FFF7CDFF049902466018C2
:100C4000002D05D0002901D0034600E023462B608B
:100C500000290ED0002A02DD0099814209D0001B34
:100C6000019000943B466A463146029404A8FFF77F
:100C7000B1FF05B0F0BD0000C9110310E911031068
:100C8000FFFFFF7F25030310002904DA401C490001
:100C900001D140084000704770B40024050C05D114
:100CA0001024000402D1002921D01124050E01D105
:100CB00000020834050F01D10001241D850F01D168
:100CC0008000A41C002801DB4000641C002908D01F
:100CD00020252E1B0D46F540A14000D001212943BF
:100CE000084301061B1B000ADB1D02D5002070BC57
:100CF0007047DB05181880180029F8DA401C4900F5
:100D0000F5D170BC40084000704710B5002B08DAE0
:100D10000024401C614192185B411A4301D14008F4
:100D2000400010BDF0B51FB482B005460C0003D0E2
:100D3000084637F08DFF02E037F08AFF2030024688
:100D4000009021462846FFF7F7FB049B059A0446CE
:100D50000F4618431143084314D0184610431BD0C4
:100D6000009840210A1A18460599FFF7F5FB054639
:100D70000E46009A05990498FFF7DEFB084305D05C
:100D8000012004E02046394607B0F0BD0020C1171D
:100D900005430E432C43374300990E986305401AD0
:100DA0007905E40A00220C43FD0A0A3002D500202E
:100DB0000146E9E70105101969410C9C0D9D0019D8
:100DC0006941FFF7A2FFDFE70EB5C217C10F504020
:100DD000CA0740180021054B0293019200910A4670
:100DE0000B46FFF79FFF03B000BD00003304000077
:100DF0000EB505490291002100910A460B4601916A
:100E0000FFF790FF03B000BD3304000070B5CD0FB5
:100E10004A0009030123090B1B0519430B4BED077E
:100E20000024520D9A4201DA002070BD074B343382
:100E30009A4203DC9A1AFFF78FFB02E0044951182B
:100E400088402C43F1D0404270BD0000FF030000F9
:100E5000CDFBFFFFFFB5087889B01546FF2805D008
:100E6000491C2D2804D00022002407E000240BE0B8
:100E70000122F9E70A235C430419491C0878FF287A
:100E8000F8D1002A00D06442002004902A7801465C
:100E90002D2A01D02B2A0FD16D1C2D2A02D0002221
:100EA000049209E00122FBE700260A2233466D1C6A
:100EB000FFF71CFA381871412F78FF2FF4D10C9AE4
:100EC000A218069202460A4304D0FF23069A9133E1
:100ED000DA4205DA002109980A4606C00DB0F0BDD5
:100EE0000024B74AB54D2646079200F08FF90290CC
:100EF00006980391002801DA474200E007463905C9
:100F00000020AF4A001C51410191009012E0F80707
:100F100007D022462B4630460799FFF7B1FC06461C
:100F2000079122462B4610461946FFF7A9FC0446B6
:100F30000D467F10002FEAD10698019B0028009AE9
:100F40000399029806DAFFF703FD3246079BFFF785
:100F5000FFFC05E0FFF794FC3246079BFFF790FC8F
:100F6000049A002A02D00122D2075140099A03C2F2
:100F7000B4E7FFB591B0002009900025ED432E2085
:100F80009E685C681F460190B9696D1C129888477D
:100F90000090396A88470028F6D10098401C0AD092
:100FA0000D20C0018443002E12DD00982B2809D0AB
:100FB0002D280DD103E00020C04315B0F0BD012065
:100FC00080020443B9696D1C12988847761E009010
:100FD00003A9600501D52D2000E02B206A4610737F
:100FE000491C0CA80F9102900AE0B9696D1C129877
:100FF000884700900120400204431398761E056044
:10100000002E02DD00983028EFD001990098884228
:1010100045D18020044308E00998401E0990012032
:10102000400204431399681C0860B9696D1C761E60
:101030001298884700903028EED030E0019988421D
:1010400005D1200603D480200443761E1DE00098BD
:1010500038F044FA002825D0012149020C430098B9
:1010600007AA0F9903323038761E914208D20870D1
:101070000F98401C0F90200607D50998401E03E0EA
:10108000200602D40998401C0990A00502D51399A6
:10109000681C0860B9696D1C129888470090002E82
:1010A000CCDC59E0002E57DD0098652801D045289A
:1010B00052D1A00550D5032000028443B9696D1CAC
:1010C000761E129888470090002E0CDD2B2804D045
:1010D0002D2808D1FF2001300443B9696D1C1298F6
:1010E0008847761E0090E00501D52D2100E02B21D8
:1010F000029801700298401C0290019025E00120A6
:10110000400204430EA902980131761E88420ED295
:101110000098029930380006000E087003D1029939
:10112000019881420AD90298401C029006E0E0052D
:1011300001D5244801E0234840420990B9696D1C5B
:1011400012988847009013980560002E04DD0098DF
:1011500038F0C4F90028D2D1F969129888470F995C
:10116000FF200870029903AA087000200A900B90D3
:101170000CA90AA8099BFFF76DFEA00502D4012067
:10118000C0431AE72420044209D0E00713D138688D
:101190000B9A0A99031D3B60006806C00BE00B998F
:1011A0000A9800F041F80146E00704D13868021DB2
:1011B0003A60006801602846FFE600000000144025
:1011C0000000F03FF1D8FFFF4268002A08D0016814
:1011D0000B78491C002B03D0521E06C018467047DE
:1011E0000121C160881E70474268002A0BD0C36885
:1011F0000168002B07D183688B4204D0491E521C22
:1012000006C0002070470020C04370470EB5054A55
:1012100002920022009213460192FFF783FD03B071
:1012200000BD000033040000CB0FDB07490010B500
:10123000490802460A4307D00A0D07240903E401BE
:10124000090B121B002A01DC002010BDC900440F4D
:101250000C43C100E018D2058018FFF715FD10BD42
:10126000024670B54A40D30FDB0740002DD04A003C
:101270002AD0010E140E000212020919400A520A65
:101280008418E50104465443000A120A2E04504310
:10129000A4194219200CC543AA18120C0125AD034C
:1012A000521C521912047F39240400D0521C1043DE
:1012B00001D44000491EC2B20C06C0092018401CCF
:1012C0004008802A02D003E0002070BD40084000A2
:1012D000002900DA0020184370BD70B502464A406C
:1012E000D50F40004A00ED0740085208002814D0EE
:1012F000002A12D0C40DD30D41020120C0055202B4
:10130000490A520AE41A091812187D34914201D38D
:10131000641C00E04900002C01DA002070BD0023AD
:10132000914201D3891A0343400849000028F7D1AC
:1013300000290AD0914202D10121C90705E091425A
:1013400001D2012101E00121C943E005C018401983
:10135000FFF79AFC70BD0122D207002800DB101AAB
:10136000002900DB511A814201D80120704700207A
:1013700070470122D207002800DB101A002900DB89
:10138000511A814201D2012070470020704701228A
:10139000D207002800DB101A002900DB511A814215
:1013A00001D301207047002070470122D207002896
:1013B00000DB101A002900DB511A814201D90120FB
:1013C0007047002070470122D207002800DB101A66
:1013D000002900DB511A814201D101207047002011
:1013E000704710B5002904DB0C460121C9074042B3
:1013F000A141002B04DB1C460123DB075242A34121
:10140000801A994101D3012010BD002010BD10B5F4
:10141000002904DB0C460121C9074042A141002BF1
:1014200004DB1C460123DB075242A341101A8B4107
:1014300001D2012010BD002010BD10B5002904DB31
:101440000C460121C9074042A141002B04DB1C4688
:101450000123DB075242A341101A8B4101D3012023
:1014600010BD002010BDC217C10F504010B540186C
:10147000CA0796230021FFF70FFC10BD10B500220C
:1014800096231146FFF708FC10BDC20F4100400231
:101490000123400ADB05D207090EC0187F2901DAB3
:1014A00000207047962903DC9623591AC84001E0B2
:1014B00096398840002AF4D04042704741004002EB
:1014C0000122400AD205090E80187F2901DA002086
:1014D0007047962903DC9622511AC8407047963906
:1014E00088407047C20FD207400040080BD0C10DA2
:1014F0000723DB01C91840020905400A1143C2084D
:1015000040071143704700200146704770B58D18A1
:101510000478401CA207920F01D10278401C2311CD
:1015200006D10378401C03E006780E70401C491C6D
:10153000521EF9D1002B15D002780C268A1A34409D
:10154000401C0C2C03D0A401121B9B1C08E0047847
:101550002402121B401CF8E714780C70491C521C22
:101560005B1EF9D5A942D3D3002070BDFEB5009013
:10157000104D286840F20016304328603E4C00278A
:1015800027600520286101A887802F61019735F029
:10159000D5F8012020606868304205D1F8B2296A88
:1015A00001AA11547F1CF6E701A840780099087041
:1015B000FEBDC046101006500248012101600248DD
:1015C00001607047CCCB0030F8300450F0B585B0E6
:1015D000002A44D016460F46054603AC2046FFF7C6
:1015E000C5FF2078C0073CD123480197002707603A
:1015F0000296224E0620306035F0A0F801241E48E5
:10160000046007600220009030600199080CC0B2AD
:101610003060080AC0B23060C8B230600298401E24
:1016200031460C390A689203FCD4EA5D32607A1CB8
:1016300087421746F6D335F081F80F48046010480A
:1016400000690A21B0FBF1F6761E0CD004AD2846E5
:10165000FFF78CFF287820402870F5D109E001249D
:1016600007E0002400E0009C012006A1224612F0C1
:10167000F9FD204605B0F0BD14480050201006507A
:101680000C800030454550524F4D5F5350492C203F
:10169000466C61736820506167652050726F677295
:1016A000616D204661696C6564207265743D2564D6
:1016B0000D0A0000F8B50092002303221D46102DEC
:1016C0000ED00E46EE40F60707D0009E9E4017460D
:1016D0009F400468BC43344304609B1C6D1CEEE7D0
:1016E000F8BD10B58906002203239B060D2A02D0FF
:1016F000102A04D105E0046B9C430C430463521C84
:10170000F4E710BDFFB50190AF4800230371AF4A65
:101710001068282100910843106001210A200390DD
:101720000293184600294FD0002B4DD10446A848FB
:1017300000690399B0FBF1F01168090705D4401E58
:10174000FAD10127A048077100E00027D568083DBD
:101750000320C541182001210A2D33D8AB0002A671
:10176000F6180B46B746C04600F014B800F014B89F
:1017700000F020B800F018B800F021B800F014B85C
:1017800000F012B800F00AB800F00EB800F00CB883
:1017900000F006B8642000E065209060082002E0B8
:1017A0009168029100213B4614683C25AC430443F8
:1017B0001460B7E7019890603B462046F4E73B464B
:1017C0000098F1E70B46EFE7029803B10020C0B2A2
:1017D00004B0F0BDFEB50190F348002404717B4BCA
:1017E0001A682820009002430125264602941A60B8
:1017F000002D5DD0002C5BD13746754800690A2268
:10180000B0FBF2F01A68120705D4401EFAD101228B
:10181000E548027100E00022D86808380324E0415E
:10182000182601250A2841D8840002A109192C464E
:101830008F46C04600F014B800F01EB800F02EB875
:1018400000F026B800F02FB800F022B800F020B861
:1018500000F010B800F01CB800F004B800F010B8A8
:1018600064200AE098680199029C0855641C02945F
:10187000062C03D20C260AE065209860082606E0B4
:1018800098680199029C0855641C0294002514462E
:1018900018683C218843F2B20243A8E70020986010
:1018A00014463E46F4E71446009EF1E72C46EFE767
:1018B0000298FEBDFEB500910290BB48002505715F
:1018C000424B1A68282111430122414E2F460195AF
:1018D00019609AB395BB32690A21B2FBF1F219681B
:1018E000090704D4521EFAD10125057100E0002534
:1018F000DC680122083C14D00321CC411821042CBF
:1019000005D0022C029C13D015460F4611E0064666
:101910000120019C44B100220F46019030462C4E1C
:1019200007E00827642403E0009C01903046284E1D
:101930009C6019683C24A1433943C9E71543E8B2C8
:10194000FEBDC046FEB5019200910290964800236C
:1019500003711E4D28682824044301211C4E1F4694
:1019600018462C6071B36BBB31690A22B1FBF2F1EE
:101970002A68120705D4491EFAD101238A490B713E
:1019800000E00023EA680121083A10D00324E24174
:101990001824042A04D0022A029A0AD00B460BE02B
:1019A000019A904207D2009A125C401C01E008277D
:1019B0006422AA6001E0002127462C683C2294435F
:1019C0003C43CEE7FEBDC046D89C00300010085016
:1019D0000C8000300020044902462C2A02D05050CE
:1019E000121DFAE77047C04620B00B501CB50C48DA
:1019F00001466E318A886C46A2806E22805A4988E0
:101A0000090408180090CC480179204622F082FC95
:101A100051487C3006222146FEF793FC1CBDC0468F
:101A2000C89F0030F0B58FB0044604A8001D2821DF
:101A3000FEF7A2FC474800792179B1FBF0F242435E
:101A4000881A02D04448C06E06E04349C86E6279E5
:101A500012B980229043C866410604D548F20001BD
:101A600088433D49C866A0263B4FB959491CB95126
:101A700004ADA871020A6A71000C28710491E81D76
:101A800021460FF02FFA29460C31042021F0BCFE2C
:101A9000324833494184B96E324AB1FBF2F35343C1
:101AA000591A314A891801840E20012429462246F8
:101AB0002BF068FAB86E401CB866BB590090032042
:101AC0002AA136A212F0CEFB8020F86623F0B8FFE0
:101AD0002048007E68B1812000033249096B014033
:101AE00041F20000814204D1F86E44F200018843C3
:101AF000F866B87B012803D12004F96E8143F966AA
:101B00000394A424C54E305902903746A4370025CB
:101B10002846394622F068FC014602980FF0A8F8E2
:101B2000C4217050B420305802900120394622F070
:101B30005BFC014602980FF09BF8C8217050C42C42
:101B400002D03551241DFAE72320BB49039A0A54D9
:101B50000FB0F0BD904F01308097023048A00030A8
:101B6000012C000074180000731800005B4C505DDD
:101B70002025733A20544F54414C5F4C505F4556DA
:101B8000454E545F434E545B25645D204C505F6965
:101B90006E6465785B25645D0D0A00004C505F73D0
:101BA000617665004C9F0030D89C0030F0B58FB056
:101BB000D024514F3B5B002B00D19BE00290CC2006
:101BC00003903858009003204C494D4A12F04AFBCC
:101BD0000025284622F0EEFAFFF784FC494B2A46FE
:101BE000FEF74EFEFFF712F905A9888004943C5BCE
:101BF000DCB1D4203858FFF775FC0022424BFEF7C9
:101C00003FFEFFF703F90A21B0FBF1F24A43801AC5
:101C100040F20412BA5A1F2C03D31E23B2FBF3F274
:101C200001E0B2FBF4F25143451805ACE580002514
:101C3000284622F0A1FAFFF755FC324E2A463346D9
:101C4000FEF71EFEFFF7E2F8208130488068FFF7BC
:101C500049FC2A463346FEF713FEFFF7D7F8372133
:101C60002B4A515C01B9084660810C20282803D01A
:101C700005A90D52801CF9E705AE304602990FF018
:101C800031F9039C3F590320029022A124A212F0B3
:101C9000E9FA28480146203101228A7040F23411C5
:101CA000B7FBF1F34B43D91B40F23313C91801843E
:101CB0000F2031462BF066F90F490859401C085196
:101CC000D42008580C46FFF7F9FB0499635A54498D
:101CD0004979009101901949094A029812F0C2FA13
:101CE000174C6034042D05D0E8B222F063FA01C429
:101CF0006D1CF7E70FB0F0BD644E0130882B071064
:101D0000656407100000594000408F4080CA0030D1
:101D1000589D00305B4C505D2025730D0A0000007B
:101D20006C706176675F7265636F72645F7772690A
:101D30007465000048A00030904F01302B19071047
:101D40003CA10030F0B587B0054640F22410334C7A
:101D5000235A002B5FD03348806A1421B0FBF1F284
:101D60004A43801A05280DD19E202D49085A04287F
:101D700008D840F220102058009003202A492BA2B6
:101D800012F070FA02AC14212046FEF7F5FA204654
:101D900029460FF0A7F83A202749012201920A5458
:101DA00026480768002638463146FFF7E2FA2449FC
:101DB0003D4600B10D4038463146FFF7DAFA08B922
:101DC000042000E0082025501C48C76838463146EA
:101DD000FFF7CFFA08B93D4601E0194D3D403846BE
:101DE0003146FFF7C6FA08B90C2000E01020255054
:101DF00040F22015094E70595021B0FBF1F24A43D0
:101E0000101A4F3082498880204601992FF0A6FF92
:101E10007059401C705107B0F0BDC046644E01308F
:101E2000904F0130549E0030882B07104C50727434
:101E30005F73617665000000D89C00308C500130E3
:101E4000FFFFFF7F80B51C202FF0E2FE48B100218C
:101E50000160416002460C32C9438260C160026188
:101E6000426180BDFEB501920446029128B9354811
:101E700040F24A1134F086F80299654D686C40B121
:101E8000A86C30B140F24A10411D2E4834F07AF867
:101E90000299A86C401CA86427683E460E4003D0F7
:101EA00038468843206025E0201D0090A86C18B9B2
:101EB0002548264934F066F825480268A168036879
:101EC000D9618B6805682B6281252D06029F3D43F1
:101ED0009561026818325A60026818328A60006898
:101EE000009981626068401C6060012101982FF0B8
:101EF000EFF9002736F0C6FC0EBB38B90120000709
:101F000045490860BFF34F8FBFF36F8F10480168DA
:101F10000268D26A38239A1A8F6900688261B80110
:101F20000AD434F06FF8276802990F4202D038467D
:101F30008843206034F070F8FF200006874338465D
:101F4000FEBDC046CC580710B1580710240C000045
:101F500050530130F0B589B0EFF30582B2B3089168
:101F600007902A4806900124E04305902848056F11
:101F700025B9284840F2204134F004F833F00AFF34
:101F80000146EF6BAE6B00200490BE4231D202914D
:101F9000039445202C56A86B05A928462FF02EFA4D
:101FA000E1B2FF2918D01A48006CA0421FD945356C
:101FB0007F29039C07D1019140F220418B311548C4
:101FC00033F0E0FF0199481C287011E009B0F0BC23
:101FD00004BC964636F0DCB8686A039C40B1286BB6
:101FE000C06836F0F7FB029918B1049401E0039C35
:101FF0000299084680F31088BE4204D2049810B1BA
:102000002007FA49086009B0F0BDC046D35F06104A
:10201000D89D00303458071004ED00E0BCB51446DC
:102020000546002000909AB208462946234636F01D
:1020300017FA012800D1BCBD03A03221BCBC04BCEE
:10204000964633F09FBFC0467372632F4170702F66
:102050007379732F6F735F777261702F6F735F7710
:102060007261702E6300000000000000000000009C
:10207000284B1868264B1968EFF3098278B107B529
:1020800036F09CFC0FBC9E46590608D5204B1968BB
:102090000C3A0A60EFF30B8173460BC20CE01C4B49
:1020A00019682C3A0A60EFF30B817346FBC2444671
:1020B0004D4656465F46F0C272B634F0B7F862B687
:1020C000134B19680A6813CA81F30B88A646114B93
:1020D000186058B10E4B196814B436F075FC14BC76
:1020E000A646610602D582F3098870471032F0CA0D
:1020F000A046A946B246BB4682F30988203AF0CAF8
:102100007047C046C046C046C046C046C046C046EE
:10211000505301302C980230F0B585B00E46400780
:1021200000D51646B16947A036F06EFDB5692C881A
:1021300049A037F073FE4DA0214636F065FD5148A9
:10214000844203D16A4837F069FE4CE0200B052831
:10215000049516D107272740E005420F0392A006F9
:10216000450F624839462B4636F04EFDA8003058E0
:102170000399890071580818B900715800910190AD
:1021800027E04EF20001214046F20002914208D1C0
:1021900007252540A006470F6005C30E039352484C
:1021A0000BE009283ED0082849D107252540A00684
:1021B000470F6005C30E03933DA029463A4636F00B
:1021C00023FDA8003058B9007158039A891800906F
:1021D0000191200501D5344B00E0324B049933487E
:1021E000224636F011FD43480168D1B10020542841
:1021F00017D00A46C240D20701D1401CF7E7810040
:102200003D4A51583D4A145C3D4D601942683D4875
:1022100036F0FAFC605980003B4909583B4836F0DB
:10222000F3FCFEE7E5B26005470F17A039462A46E2
:1022300036F0EAFCB8003058B1694919C7E724A064
:1022400081E7C046486172644661756C7420402025
:102250003078253038780A00486172644661756CC0
:102260007420416E616C797369733A00496E7374BE
:1022700072756374696F6E20636F6465203D2025FD
:10228000780A0000ABBE00004C4452482F53545211
:10229000482072743D257820696D6D383D25780A97
:1022A000000000008F530710E75207106C4307101F
:1022B0004C4452482F535452482072743D25782084
:1022C000726E3D257820696D6D353D25780A0000D8
:1022D000556E657870656374656420696E73747299
:1022E000756374696F6E00009A430710B743071057
:1022F000675C071030F10240B8A00610A0A00610DD
:1023000000F00240FA4307100CA106108C4307109E
:10231000B0B5144840F22C110167134D0124EC773D
:102320000FF06CFF1148052141732DF037FD6E2031
:10233000295C09B100212954032014F0E3F8204658
:1023400011F08CFD0A4D00202860642033F032FF2C
:102350002C60042014F0D6F82046B0BC02BC8E4697
:1023600011F07CBDC8860130D89C0030904F013000
:1023700044480050FEE700207047000000000000C5
:1023800004207146084203D0EFF30980044A104745
:10239000EFF30880024A1047C046C046C046C04618
:1023A000D16006100121C905C3B2064A0A2B04D127
:1023B00093690B42FCD10D23136093690B42FCD14E
:1023C000106070470000075010B533F0E3FC04467E
:1023D00036F07AF918B10120000704490860204658
:1023E00010BC02BC8E4633F0F1BDC04604ED00E0E7
:1023F00010B5FDF72EFFC00011D40B48592116224D
:1024000088230160026003600468002CF9D007484B
:1024100041F2000101600169054A0A430261054871
:102420000549016010BDC04600010040F4010040B4
:102430000040F0FF08ED00E000000310012000F074
:102440000DB8002000F00AB8022000F007B8042000
:1024500000F004B8032000F001B8000070B581005E
:10246000154A54586168C9071DD0E169C9071AD0D7
:10247000442141430F4840188568C1680269836B55
:1024800026685E556D1CB5FBF2F65643AD1B8D42BA
:1024900004D08560E669F607F2D101E0012101620E
:1024A000806A00B18047A1697120014200D0A0611B
:1024B00070BDC0466C8701302CA50610B0B50C4627
:1024C000FEF7D1FF05462046FEF7CDFF0146FEF799
:1024D000C7FE044628462946FEF7C2FE2146FEF7FF
:1024E000A5F8B0BC02BC8E4632F06EBF80B584B099
:1024F00002900191019820B1FFE740490020086057
:10250000FFE702980078302842D1FFE7029800697F
:10251000F0B3FFE702984069D0B3FFE70298006983
:10252000A8B3FFE702980069406978B3FFE7029813
:10253000016933480160029909694969314A1160AA
:1025400002994969304A11600068007806281CD158
:10255000FFE72B48006880682C490722FDF738FF09
:1025600098B9FFE727480068007806280DD1FFE7F3
:1025700024480068806826490822FDF729FF20B911
:10258000FFE721480068039035E0FFE7FFE7FFE73A
:102590001A48006820B1FFE71848006803902AE055
:1025A0000298006980B1FFE7029800690021FFF7F7
:1025B0009DFF014611480160006820B1FFE70F4808
:1025C0000068039017E0FFE70298406980B1FFE7D9
:1025D000029840690021FFF789FF01460748016022
:1025E000006820B1FFE705480068039003E0FFE7BB
:1025F00000200390FFE7039804B080BD58BA003074
:102600004CBA003050BA003054BA00306A840030FE
:102610007184003080B582B00190019808B9FFE75D
:102620000EE0019802210DF041FF01986030072172
:102630000DF03CFF019837F047FB00200190FFE7C9
:1026400002B080BD83B0014601A80170017830203E
:102650000140684601700078102803D1FFE701208F
:10266000029014E068460078202803D1FFE702209A
:1026700002900CE068460078302803D1FFE7032081
:10268000029004E0FFE7FFE700200290FFE70298D6
:1026900003B07047F0B597B014460E460546108853
:1026A00000900327FAA1EC4A38462B4611F0DAFDD8
:1026B0002846A13801231D2862D8810001A25118A3
:1026C0008F46C04600F03AB800F08EB900F08CB9E1
:1026D00000F08AB900F088B900F0A3B800F067B83C
:1026E00000F061B800F05FB800F05DB800F05BB8D2
:1026F00000F0CFB800F057B800F055B800F053B86C
:1027000000F051B800F04FB800F04DB800F04BB8F1
:1027100000F049B800F047B800F045B800F043B801
:1027200000F041B800F03FB800F03DB800F03BB811
:1027300000F039B800F0DBB800F04DB80593042084
:1027400000900325DF490B27284632463B4618F008
:10275000C7FAD9492F3130463A46FDF739FE21886C
:102760000B312180002800D110E1B07A0328059BAD
:1027700000D139E10120D449D44A11F073FD32E18E
:102780008B2D00D1DCE08A2D00D1BCE0802D0AD158
:102790003078802800D027E103203056002800D56B
:1027A00025E1022320E12088401C20801CE1727872
:1027B000EB48812A00D1EBE0822A00D0EFE08221B1
:1027C0004170A7210170B178F278C270817008025F
:1027D00082180427E7E02388307805270021049138
:1027E000BE28059700D027E17578B94FB86E0090E4
:1027F0000320B8A103902A4611F034FD2388E8187D
:10280000801CB96E884200D015E13079012800D0D3
:1028100011E170790125002800D1EBE004952F46E5
:102820000AE170780A2867D1B078042864D1F0787A
:10283000082861D13079717909020818B179090441
:10284000F279120651180818F17AB27A337A777A47
:10285000C74D3F02FB18120409068918C918A8625F
:10286000E96280200090321D0127C24908263846BF
:10287000334618F035FAFC48806D28352946324633
:1028800022F07DFC002800D1B8E002460120BA49C0
:1028900035E005936827A54DEB5D72780320A449C8
:1028A000049211F0DFFCE85D01281CD1F77806AD39
:1028B0006F70032003909F493A4611F0D3FCAD1C82
:1028C000361D284631463A46FDF73BFD9A483146CB
:1028D0003A46FDF736FD0420009098A103982A4659
:1028E0003B4618F0FDF92088049908184CE0208830
:1028F000401C2080092377E002209C49734A11F094
:10290000B1FC0B2370E01D46707802280CD1B17821
:102910000220072908D1F178802905D103208E49AA
:10292000012211F09FFC7078831C2088C018208041
:102930000420009002208949324618F0D1F952E073
:1029400005937578032080492A4611F08BFC072DEA
:1029500018D104200090B61C03207C49072732467A
:102960003B4618F0BDF97A49283130463A46FDF722
:102970002FFD38B968206D4901220A54032075499A
:1029800011F070FC20882818801C2080059B2BE00B
:1029900081214170A7210170B278827003E04270FA
:1029A000A721017002276E4DE819F1191646FDF7AF
:1029B000C8FCF01921880918218004210591009193
:1029C00083B2022067492A4618F08AF90125284671
:1029D00033F0F0FB20880097019063493B4A05984B
:1029E000334611F03FFC2B46184617B0F0BD208847
:1029F000001DDAE6F07930B1092005E020880C30BE
:102A000020803B46F0E70820315C062902D20227ED
:102A1000049511E0471CF15D5F290CD1F1194A784A
:102A2000042A1BD01F2A06D18878042803D1C8782D
:102A30000028384614E0059F581C208004202FA150
:102A4000224A3B4611F00EFC04980028059BCBD08F
:102A50003548C35DC8E7C046B568071089780029C6
:102A6000059FE9D104270490384330180EF048F947
:102A700020B30498C01D31184978325C12025118F5
:102A8000491E23880B29C3D31B180027C0E7C04663
:102A90005B414152515D2025733A20414152512002
:102AA0005441475B3078253032585D2C206964787A
:102AB0005B25645D0D0A00000C80003023880495BE
:102AC000039FB9E7134D0710AD0B0710B56807104A
:102AD000D09E00306C656E5B25645D2C202A705F93
:102AE0006F5F6964785B25645D2C206170706C5F3A
:102AF0006C656E5B25645D0D0A0000005B41415210
:102B0000515D2025733A204153534F5F5553455231
:102B10005F494E464F524D4154494F4E2072736C9F
:102B2000745B25645D0D0A0024A50610D89C003056
:102B3000352707109622071070A3003041415251EB
:102B40005F52414E444F4D0074240710EF4C071064
:102B50000C8000303E270710B4240710635507107F
:102B6000788600306A6D0710E42A0710950B07106D
:102B700048A00030B26007107F31071010B5032461
:102B8000044905A2204611F06DFB3620C3490C54C0
:102B900010BDC046C30207106166655F696E697447
:102BA0005F73746172740000FEB504462D4F3D18CA
:102BB00062200290285C2C4E336B0090019403201D
:102BC0002AA13A4A11F04EFB042C24D30123306B86
:102BD0006521795C8A0701D55C06A043CC0701D04A
:102BE0001B06984302B13063029ABA5C10420CD1C2
:102BF0006322BA5C030A134207D16422BA5C030C55
:102C0000134202D1000E08422BD003202949274A43
:102C100011F028FB20E0032C10D101221248006B98
:102C200065217B5C990701D55706B843DB0701D0C6
:102C30001206904321B10C49086301E00A48006B79
:102C4000E100C8400299695C08420AD0C3B203207F
:102C50001749164A11F006FBFEBC01BC864611F06E
:102C6000C5BAFEBDC89F00304C9F00305B4752453F
:102C7000515D20257320574D5374617475735B2526
:102C8000585D2020636F64655B657272636F646575
:102C90006964785D5B25585D20657272636F646559
:102CA00069645B25585D0D0A000000002C6D07105B
:102CB0006FFB061014FB061080B5032009490AA219
:102CC00011F0D0FA0E480F4901220A540E4A002092
:102CD000885443F600720A6080BC02BC8E4611F034
:102CE0006FB9C046E63E0710616D695F6174636D40
:102CF000645F6765745F6265617265720000000001
:102D00000C040000F4FF003004040000F8B5202497
:102D1000624D285D01280AD103206549114A11F04E
:102D2000A1FA002028551048407B29F0D7FB7925CF
:102D3000F34E705D012813D17A27F05D00900220D8
:102D40000A49084A0124234611F08CFA00207055E4
:102D5000F05D84432046F8BC02BC8E4633F0F8BDDB
:102D6000F8BDC046D7590710904F0130EB26071029
:102D7000F0B585B0032543A145A2284611F072FAAB
:102D80002620464F00243C5420203C547920444EB9
:102D90003454444804610FF081F82CF0FFFF7B208D
:102DA0003454414840F26841FDF7E6FA3F4840F2AA
:102DB0006841FDF7E1FA3E493EA2284611F052FA79
:102DC00070203452E8433E498A070A4601D00A1D62
:102DD0000240344EF2623B4D4A19930703D040F251
:102DE000E0528A1802403848C261FC74BC763C73D9
:102DF000364804604460462001A922462AF0C2F801
:102E000030B13348263001A90D22FDF79AFA11E0BE
:102E10002F483049C18427304421C1713421817148
:102E200043214171332101714221C17032218170EE
:102E300041214170472001A900222AF0A3F830B1B6
:102E40002348333001A90D22FDF77BFA07E0332038
:102E50001F4908220A542048204A4A6388631C48B4
:102E6000532101754F21C17454218174552141743E
:102E7000412101741A49C16011484019706605B0BA
:102E8000F0BDC0465B434F4D5D2025730D0A000029
:102E9000616D725F696E697400000000589D0030BA
:102EA000D89C0030D09E0030CC0E0130640A013036
:102EB000E63E07106170706C5F696E697400000017
:102EC00004890130DC050000C89F0030E450013067
:102ED0003CA10030083100003747384835453646B8
:102EE000084A4E44B0B50146EA4D286948B1054A42
:102EF000926832B96A6983B20024204613F05EFA00
:102F00002C61B0BDC88601307CB50C460646032056
:102F10006EA1754A334611F0A5F93046A138002557
:102F2000092825D8810001A251188F4600F012B857
:102F300000F05BB800F04EB800F036B800F02AB8E8
:102F400000F099B800F097B800F095B800F093B889
:102F500000F056B880492F310A222046FDF7F1F9DA
:102F60000120A07204200090022088490B257EE0F9
:102F7000BE2E68D0892E5BD0882E7CD18020E07058
:102F80000720A07002206070882121700425009520
:102F900081496CE067484178812974D0822975D1D4
:102FA000408840BA001D72E06B4801463A316B4AD6
:102FB000136B526B0A81C387100C4881180CC880B0
:102FC0000C2520462A46FDF7BCF980200090012000
:102FD00063A14CE06949072520462A46FDF7B1F96F
:102FE000042000900220664941E0664905252046FC
:102FF0002A46FDF7A6F9042000900220624936E037
:103000002025E5708026A67022206070AA202070FE
:10301000201D424C403421462A46FDF792F9009685
:1030200001203FA122462B4617F05AFE242522E01C
:103030005749092520462A46FDF783F904200090C8
:103040000220544913E029A1122520462A46FDF703
:1030500078F976202A49085CE0727720085C2073B2
:103060007820085C607304200090022025A122468D
:103070002B4617F035FE032048491B4A2B4611F01A
:10308000F1F8A8B27CBD8078C01C00E0881C2A4EF4
:10309000F071010AB17185B2281DF070000AB0709C
:1030A0003046083023492A46FDF74BF908352046BB
:1030B00031462A46FDF745F98420009001201FA1E2
:1030C00022462B4617F00CFEDBE7C0465B41505012
:1030D0004C5D2025733A20414152455B30782530C4
:1030E00032585D0D0A000000CC680710BE10040EB7
:1030F0000800065F1F040000000008000007000031
:10310000D89C0030524553505F555345525F494E4D
:10311000464F524D4154494F4E0000000CA3003021
:103120002D2D3E20547820536572766572205241D1
:103130004E440000748000307C8400302D2D3E20F1
:10314000547820536572766572204365727469669F
:1031500069636174650000000C80003048A0003095
:103160002D2D3E2054782053657276657220537958
:103170007374656D205469746C65000054AA061060
:103180008F4E0710F0F60610034C07100E4D071077
:103190005CAA0610FA4C0710B35207107B2A0710DE
:1031A000B0B57249CA6E135C22243C4D2B551218DF
:1031B00053780C467434E3709378A370D3786370BB
:1031C00012797423CA54401DB0BDC04610B5032403
:1031D0000CA1204611F046F8644AD06A44710121DE
:1031E00001710E21C17000218170E7214170E6213B
:1031F0000170072111620222827110BC04BC964644
:103200000EF0D8BD5B4150504C5D2053657276691D
:103210006365204572726F720D0A0000F0B585B0CB
:103220001A4CE0781A4EF0762079B0761948C06EC4
:10323000194D6835411D06222846FDF782F8E07ACF
:1032400016498877032416A11A4F2046B847728B77
:1032500019A12046B84768200F490A5C6B78A87806
:10326000E9782E796D79009001910296039516A167
:103270002046B8470948827F1AA120463B4605B040
:10328000049CA646F0BC01B01847C0460489013032
:10329000D89D0030D09E0030C89F0030589D00302F
:1032A000434F53454D204F626A656374733A0D0A6C
:1032B00000000000654204102D20434C4153533A56
:1032C0002025640D0A0000002D204F4249533A206A
:1032D000256420256420256420256420256420257C
:1032E000640D0A002D2041747472696275746573EF
:1032F0003A2025640D0A0000BCB50C460546009135
:1033000001200CA114A22B4610F0ACFF174AD06A82
:103310000571D821C17000218170E7214170E6213B
:103320000170062111624471BCBC04BC96460EF0CB
:1033300041BDC04625733A206572725F7374617433
:10334000655B25645D2C206572725F6E756D5B2513
:10335000645D0D0A000000006170706C5F65786349
:10336000657074696F6E5F7265737000D09E003017
:10337000F0B5FFB0AEB007466F22FC48002484547D
:10338000FB4DFC49AF66E9667026835D002B49D092
:103390005E20F94F3C54F87FFE210140042969D199
:1033A0000B940C922C460325F4A1FB4A284610F0FE
:1033B00059FFA36E04240094F8A1EE4F28463A4624
:1033C00017F08EFCE94DA95DC81E022800D2A1E0CD
:1033D000481E012801D900F02DFD3B7872242B55A1
:1033E000B878732168547978E34A11750091019097
:1033F0000320ED49E84A10F035FF285DC3381C284A
:103400000B9C00D969E201218140E84A114200D1B8
:1034100077E1012003217FB02EB0F0BC04BC9646BA
:10342000FFF76ABF0A96D448C07FFE210C9108407E
:10343000042854D1042400940325DD492846CD4AAC
:103440003B4617F04DFCDB49DB4A284610F00AFFEB
:10345000C8490878602800D022E14E78812E00D13A
:103460004BE1822E00D054E1A394C87889780902F8
:103470000E1850E10A24204613F0C8F80021CF4A64
:10348000204613F07DF817F0F7FE02F09FF86B6806
:103490000320CBA1C04A10F0E5FEF87F052816D125
:1034A000B248805D032812D30F24204613F0AEF8F3
:1034B0000021CC4A204613F063F817F0DDFE02F03D
:1034C0005FF8AB680320C849B34A10F0CBFEA948A7
:1034D0007FB02EB0F0BC02BC8E4601F0D7BA0320FC
:1034E000B449C24A10F0BEFEA2490878602800D054
:1034F000DEE00B944F780320BD49BC4A06463B46AC
:1035000010F0B0FEAC6EB81CA04200DCE7E0012079
:10351000B849CFE038787227E855032908D1C83870
:10352000172805D801218140B348014200D0AC558D
:103530000A25284613F06AF80021A04A28468B4D38
:1035400013F01EF817F098FE02F040F8884C6368FC
:103550000320AAA1904A10F085FE8748C07F052865
:1035600017D1A85D032814D30F25284613F04EF871
:1035700000219C4A28467D4D7D4C13F001F817F040
:103580007BFE01F0FDFFA36803209749824A10F0FB
:1035900069FEE85D0146C839022900D28CE0CB28DB
:1035A00000D189E0DF2800D0D9E035F013FA802679
:1035B0000096704C621C0320994915230A9217F05B
:1035C0008FFB6078002801D000F028FCA078082844
:1035D00001D000F023FC0096924F2837032492A1DB
:1035E000082520463A462B4617F07AFB009661489C
:1035F0000B96C61C8E49204632462B4617F070FBB0
:10360000384631460B9E5B4C2A46FCF7E1FE00280B
:1036100001D000F003FCE07A082801D000F0FEFBA6
:103620000096804C3034032582A108272846224684
:103630003B4617F055FB00964E4E0C367C4928460B
:1036400032463B4617F04CFB204631460B9E494C18
:103650003A46FCF7BDFE002800D0DFE3207D0028BD
:1036600000D0DBE3607D002800D0D7E30DAD374606
:10367000152628460A993246FCF763FE0097032078
:103680006EA12A46334617F02BFBA07D822800D17D
:103690004DE3812800D051E3364CE07D18264FE3FE
:1036A00001206949444A10F0DDFD0A20304DD7E081
:1036B000012065494D4AD0E02E480DAA014617F079
:1036C00049FE002800D1B1E30DA80088A0665F483C
:1036D000C16D491CC165274801F0D8F9AAE3002F44
:1036E00040D024498878802800D092E105200856EF
:1036F000002800D5E6E10220B2E0A3958E782C46A2
:1037000009E0002800D0E8E000F024FD4F48C4653F
:1037100090E30224A394164D03203549264A3346EC
:1037200010F0A0FDA019A96E884202DD01203149E8
:1037300092E0002E00D18DE00A220124A399B1422B
:1037400000DB6DE10B4A505C5118BE2800D162E1EC
:10375000A3AAFEF79FFF01282246EFD080E00120B8
:10376000032165E301203A49A4E7C046D89C003014
:10377000D09E003004890130589D003025733A20D6
:103780006170706C5F636F6E6E5F73746174655BA4
:1037900025645D0D0A000000D45E071041504455B9
:1037A0005F534543000000008D11071060010010B9
:1037B0007F4B0710943E07106D59071000DD6D0018
:1037C00025733A2054494D455220535441525420B8
:1037D0002D206173736F5F315F3220256420736524
:1037E000630D0A00E0930400D52F0710C859071095
:1037F0000E3407107E3807100B00800025733A2026
:1038000054494D4552205354415254202D20617348
:10381000736F5F335F34202564207365630D0A0086
:10382000DD54071048A00030535953545F4F000037
:10383000DD490710535953545F5200005349474E16
:103840005F4D53475F310000780B07104C9F0030ED
:10385000113D07100120FC49FC4A10F003FD0A202D
:103860000B90C4B20320FA49224610F0FBFCF94841
:10387000C07F0C99084004282DD10A2C2DD0274652
:1038800000242C620320F449F44A3B4610F0EAFC81
:103890002E6AEB6AE620985598190C9484703C4681
:1038A000E7214170F01C28620C2F5BD80121A14058
:1038B00041F2C012114255D01D461F18E84920247C
:1038C00038462246FCF73DFD0B99881FC0B20328FD
:1038D0003AD30C9839E00A2C06D17FB02EB0F0BC58
:1038E00001BC8646FFF772BC2F4600253D620320CF
:1038F000D949DC4A234610F0B5FC3E6AFB6AE62053
:10390000985598198570E7214170F01C38620C2C8D
:1039100066D80121A14041F2C012114260D00C933F
:103920001C18CF49202720463A46FCF70AFD0B9881
:10393000801FC0B2062801D8CB490D5CE55524365E
:10394000CA4806620C9805E0481F38552436C74817
:103950000662284631467FB02EB0F0BC04BC9646C5
:103960000EF028BAA1200DAEC14D3146A84707463A
:103970003118A2200B90A847C719B8B23118A3205C
:10398000A8473F18B8B23118A420A8473F18B8B2CA
:103990003118A520A8473F18B8B231188820A84789
:1039A0003F18B8B231188920A8473F18B8B231186B
:1039B000AA20A8473F18B8B23118BE20A847AB4983
:1039C000CD6A0B6A6121E954381886B2320A591C53
:1039D000002A6FD082276F54991C02230C936EE04B
:1039E0001F461D18A3492B222846FCF7AAFC012CD0
:1039F00000D105E101216974042C00D1F9E0022015
:103A0000032C00D1FBE0022C00D0F7E0A2212975A5
:103A1000F5E0022757E0BE20A3AAFEF73BFE0246D0
:103A2000D4B21646012C01D093A000E09448009037
:103A300003209449854A234610F014FC012C30469B
:103A400000D00DE70DAC202620460B943146FCF744
:103A500093FCA5AD28463146FCF78EFC7A20002267
:103A60002146099229F08EFA0096874F3C46083489
:103A70000520214640F2F4122B460CF021FD0B9854
:103A800029463246FCF7A4FC002800D135E27F48E5
:103A900026F0CCFF7E4D284626F0C8FF284621465A
:103AA00040F2F41226F0CAFF002800D112E1794951
:103AB0006E4DCFE1812E33D301220C9281226A54C4
:103AC000491C2FE00627C81973490B22FCF780FC1C
:103AD0000028304600D0C3E60B370720C2436F49A9
:103AE000C85DC919A74207DA0346AA3B934203D32C
:103AF00048783818871CF2E70DAA0B9C14708A28A6
:103B000041D148780025022840D18A78072A3DD142
:103B1000C9788029614A3AD10DA901250D7036E096
:103B200000220C9268544F1CE8190DA93246FCF78C
:103B300008FCB8194D4E3062012C13D101242046E7
:103B400032F038FB336AF26A0420009002205449B4
:103B500017F0C6F8316AF06A0EF02CF951480A994C
:103B6000445268E00C98281801220275042C42D0B7
:103B70000221032C3D4D00D19BE0022C00D097E0A8
:103B80000B9AC27595E02546444A03E0434A38182B
:103B9000871CD05D0DA909914C70D119AC2823D098
:103BA0008B2800D0A3E04C780020072C064609D1D2
:103BB000881C3D490722FCF70BFC384A0028304698
:103BC00000D1012039198F1CD15DAC2900D08DE0C6
:103BD000D1194E7848B1CC780DA84470801C091DCD
:103BE0002246FCF7AEFB01E04E780024F019871C5A
:103BF0007DE00D2003E00D211C4D5AE0084628769B
:103C00007620284A105C242168547720105C2521F6
:103C100068547820105C2621685415462E361348C7
:103C20000662384631460EF0C5F8012C00D001E19D
:103C300001200A99685200200649C87488760873E2
:103C40001A4908604860F5E0113D07106D590710EA
:103C5000B2270710589D0030A1270710924907107E
:103C600008AA0610794D071052A10610D09E003008
:103C7000092F0310DCA906104661696C00000000E2
:103C8000AC6E0710B73E0710788600305CBA003083
:103C900084850130B53C071049AA0610048901301B
:103CA0007E4D0710D89C003028C60610E450013025
:103CB0001146C176012032F07DFA2B6AEA6A0420AF
:103CC00000900220F74917F00BF8296AE86A0EF015
:103CD00071F8AFE0F448F54940F2F41226F0AEFE78
:103CE0000028F74D00D1A8E0F149B3E03446009434
:103CF0000326F049F04A30462B4610F0B3FA7DB166
:103D000074B10998451CF048C07F032800D1AFE08A
:103D1000022800D1AAE0012800D0D5E00120A8E0C7
:103D2000E948C07F0028E74900D0D6E0AFE0E54C85
:103D3000207EE17D09020818192601E01726E14CD2
:103D40000990A7190DAD0A95153584B22846394654
:103D50002246FCF7F6FA0B9800900320DDA12A46D4
:103D6000234616F0BDFF0697385D3519691C00948F
:103D700007910191029005200890D949D94A0596EA
:103D8000334610F06FFA0B98009041350120D64968
:103D9000CC4A2B4616F0A4FF32F018F8CC48866DBA
:103DA000A5AD202728463946FCF7E6FA0097099882
:103DB000153082B208980A992B460CF081FBCB4D46
:103DC00008B1AD1C25E037460B94C94802210026F6
:103DD00032460CF0EFFAE0B9386840242030009603
:103DE00001A951C10496C2480221324633460CF063
:103DF00001FB70B9B34E0798301800900194BC488D
:103E0000A5A92022012423460CF028FB002800D17C
:103E1000D2E00120B7492A4610F024FA0120B64921
:103E2000B04A10F01FFAA82021F0F6FC022005216C
:103E3000FFF762FA7FB02EB0F0BD099A02920192AC
:103E4000A4A80090B348B249134627F0EBF9002824
:103E500048D0B1490120B14A10F004FAAC4826F02C
:103E60005FFDAC4826F05CFD0C20F9E4022000E088
:103E7000032029460CF0D8FF30B30120C007009082
:103E80000320A0490D232A4616F02AFF8D49C85D5C
:103E9000BD288B4D24D034460523BE281E4600D0B5
:103EA000ECE0C81941787918891CAA6E91421E4627
:103EB00000D0E3E0017901291E4600D0DEE041791F
:103EC000002974D00126D9E00120C007009003200A
:103ED0008C490D232A4616F003FF0420FFF7E6FB6A
:103EE0000920BDE47A20A5A9012229F04BF88848D1
:103EF00026F016FD874826F013FD3B7A787AB97ACA
:103F00000090019103208649864A10F0ABF94025C4
:103F1000A4950DAAA4AB204640F2F41120F06BFD4D
:103F200018B102460120804912E080260096012047
:103F30007E49224640F2F41316F0D2FE644CA06D86
:103F4000A49A0DA921F0D2F838B10246012078498F
:103F500010F088F95A4D012082E403207549764A11
:103F600010F080F9A06D7549202221F0E6F818B113
:103F700002460120724911E00096012071496F4A02
:103F8000202316F0ADFEA595A06D6F49A5AA21F0DE
:103F900095F90028DED0024601206C4910F062F944
:103FA000474D01206A495F4A10F05CF9D3E70B9353
:103FB000C07960B309202BE031F008FFE0070090E2
:103FC00003204E49069A0B9B16F08AFE0598305C3A
:103FD000C838172800D92DE7214681403B480142C7
:103FE00000D127E737490DAA069817F0B3F93349EE
:103FF0000C9A8C54002800D118E70DA8008830498D
:1040000088663349C86D401CC865FFF764FB08200B
:10401000C0192C4A115C062902D202260B9B2DE006
:1040200011184A785F2A0B9B1E4627D18A78042AEA
:104030000CD01F2A0B9B1E4620D1CA78042A1E468C
:104040001CD1097905260029E8D104E0C9780B9B29
:104050001E4699B904261B4989190F1838460CF0D9
:104060004FFE2646164D0B9B40B13879F978090270
:104070000818401E0B2811D3002010E0032022490D
:104080001F4A1C46334610F0EDF82046042E01D995
:10409000FFF7E6FB1D48805DFFF7E2FB012086008D
:1040A000BCE7C0467E4D07105CBA00307682003017
:1040B000D63C07107F230710FE650710D89C003000
:1040C000D09E003004890130589D00300B008000E4
:1040D0004C9F00305349474E5F4D53475F320000BD
:1040E000AB230710776D0710216A07100703000044
:1040F000A98A0030A9300710A0040710144F071038
:10410000C8590710504F0710CC27071024A50610D8
:104110005CBA00308485013060390710BA6207103C
:104120009D100710516E07104B320710A062071048
:1041300075320710E63E0710C763071070A3003002
:10414000F33007103B4C0710FCC70030AB310710B1
:1041500060040710F0B58BB0E74D0026AE757220F5
:10416000E64F385CC3285AD0C12835D0C02860D16A
:104170000324E3A1204610F075F8287D02285AD0C8
:10418000012800D083E00324E249204610F06AF8B9
:10419000E149E24A204610F065F801200A9068756E
:1041A000FFF73CF8FB48007B002800D1C4E0FA4848
:1041B000816E0A460D3AD6B2142E00D314262C4630
:1041C0000D2900DC00263D46C16EF44864300D31F7
:1041D0003246FCF7B6F8B1E00320F1A110F042F846
:1041E00000200A90E874287D032875D0022852D058
:1041F000012800D094E00320EEA110F033F8012054
:104200006875FFF70BF8E448806E0C2804DDE14880
:10421000007B002800D15CE20420A87584E0032024
:10422000E8A110F01FF80BB0F0BC01BC864601F00D
:10423000F3B90BB0F0BD0320E7A110F013F8022092
:104240006875D548816E072970D1D249CA7812069F
:104250000B791B049A184B791B02D21889795218D2
:10426000016F8A4200D0ACE06979012900D036E2C2
:10427000036ADD48808A0121009001910320DB4917
:10428000DB4A0FF0EFFF002003F03EFF9FE0AC752C
:10429000012068759BE02C460325D6A128460FF027
:1042A000E1FFFEF7BBFFBB48007B002800D085E0A4
:1042B0000D20FEF775FF0646B74FB86E864200DB4D
:1042C0002EE100F031FC002800D150E2657502209B
:1042D000A075786F386728E10325CCA128460FF038
:1042E000C1FF2846FEF75CFFAB498A6E904261DA57
:1042F0004A6F8B6F0A679A4200D0CFE023230026D3
:10430000A14CE654521C8A674A6D521C4A65222110
:104310009D4A515C01B90225657509F00DF905E169
:104320000420A875012068752C46FFE00121A971C1
:104330000721A975016F48E02C463D46A673032767
:10434000B649384632460FF08DFFA37B43B10A9839
:10435000C0070090914A64320320B1A116F0C0FC5E
:104360008D48806E0B280ADC0320874CA075012045
:10437000AD49874A0FF076FF2F46254627E000F02B
:10438000D3FB002800D18DE006460124A749804ACE
:10439000204633460FF066FF652E00D102277A4E85
:1043A000B775A34920467A4A3B460FF05BFF2F467C
:1043B00035460CE001200867734C65750420A07534
:1043C000B4E00122AA710622AA75491C01675E2089
:1043D0000A90285C8006C00FAB7D009003209549B1
:1043E000954A0FF03FFF6C4EF16AC420C87000245C
:1043F0008C70E7204870E6200870687D0871732291
:10440000BA5C4A7102280FD1A879887130467030A1
:104410003063C278CA7182780A724078487270201C
:10442000305C88720B2700E00627A87D38B1012098
:10443000C855A87D082806D880490D5C04E00020F6
:10444000C855306A10E0FA250090019508B17C4B00
:1044500000E07C4B03207C497C4A0FF003FFF16AAB
:10446000C8194570B81C484DEA7FFE231340042B41
:10447000464B10D10A9AAA5C92060BD470229A5C21
:10448000042A08D174229A5CFC231340083B5C4246
:104490005C4100E0012482B2204614E13A4CA5754B
:1044A000657543E086206A4E305C00282F46364D05
:1044B00000D149E1E87C002800D114E1654C254693
:1044C0003035654E31466E3106222846FBF739FFFE
:1044D0006E20305C414241414900A9712A4D2021A2
:1044E00009915B4A5156002900D477E1002800D198
:1044F00070E17F206FE1C046589D0030D89C0030AD
:104500005B4150504C5D20476574205265710D0A27
:10451000000000005F3C07107C3E0710106707108A
:104520000120386765750420A075184F5E2009903A
:10453000205C8006C00FA37D009003203D4947A268
:104540000FF090FE144EF16AC520C8700A9888706A
:10455000E7204870E62008702546607D08717322C8
:10456000BA5C4A71032800D180E00622022800D1FB
:1045700082E0012800D08EE0A87D00F0D7FFF16A2C
:104580008871072287E0C046589D0030D89C0030D3
:104590001067071004890130D09E00301CA2003043
:1045A0005B4150504C5D20536574205265710D0A7B
:1045B000000000005B535245515D204E6F726D61EB
:1045C0006C0D0A005B4150504C5D204163742052D9
:1045D00065710D0A000000005B475245515D204E99
:1045E0006578740D0A000000D89D0030F1FD0610BA
:1045F000656607105B535245515D20426C6F636BDB
:104600002046697273740D0A000000005B53524526
:10461000515D20426C6F636B0D0A00003B24071054
:1046200053454C4143530000C73807107427071007
:10463000E0240710BC170710996B071049A106105A
:10464000336E0710AC6E071054270710B36A0710BB
:10465000904F0130C4A00030C89F00306170706C72
:104660005F7365745F72657370000000A87D00F071
:104670005DFFF16A88710722304670303063C3787D
:104680008B548B1887785F70407898707020305CFE
:10469000D870121DEA4FE87FFE230340042B11D18E
:1046A0000998285C80060BD47020385C042809D156
:1046B0007420385CFC230340083B5842584100E01A
:1046C00001200A900A980BB0F0BC08BC9E4600F08E
:1046D00083BD00F029FA00285FD002209DE500206C
:1046E00003F00AFE73E60A98E8740320D949DB4A0E
:1046F00006900FF0B7FD3920395C491CCAB2132A65
:1047000000D900213954D64F3037D64C21466E316E
:1047100006223846FBF715FE6E20205C41424141DF
:104720004900B971C84FB90702D03F1D06998F43A0
:104730002021099171560029C94A00D4CFE00028F0
:1047400000D1C8E07F20C7E08820C149085C00078D
:10475000800F00D1AEE6687F852800D1AAE602204E
:10476000A8750120C849BC4A0FF07CFD2FE68620C1
:10477000B649085CC8B12320012121540A98786504
:104780002077786F3867401CB8672220205C00B91A
:104790000225CF4F65753046BFE58620AB49085CE2
:1047A00070B10D2008F0C8FEBEE58820A849085C5D
:1047B0000007800FDFD0607F8528DCD00220B3E6C1
:1047C0008820A349085C0007800FEAD0687F85280D
:1047D000E7D082E77D20C043362160545920285C11
:1047E000372160549A48C06EA06316F045FD2946F3
:1047F0000546487F0146B13910290CD301463539A9
:10480000122904D80A9A8A409A490A4203D11B38CD
:10481000052800D3D4E005209749984A0FF022FDDF
:104820006D249048005DFF2800D0C9E08548806A6B
:1048300001461E318D4200D8C2E082494B6A7F4E4C
:10484000727F317AFF270090019502910397032729
:104850008B4938460FF006FD707F7A4948628D62B9
:104860008048005D30727B49864A079738460FF0D2
:10487000F9FC974B3920195C491CCAB20024132A51
:10488000224600D80A461A546F4DA80702D02D1DA3
:104890000798854328460CF0B1FD34F09BF8284674
:1048A00028F030F901200A906F4820300890002647
:1048B000432006902F46052C00D185E009986A49CF
:1048C0000C5408984670069839460A9A28F05AFB04
:1048D0002C37641CEFE77D20C0433621505459200B
:1048E000285C372150545A48C06E906338460CF00B
:1048F00085FD34F06FF8384628F004F900255A4851
:1049000020300890432607972C46052C0CD0099898
:1049100055490C5408984570304639460A9A28F093
:1049200031FB2C37641CF0E734F054F8079F38460D
:104930000A9928F01FF90024052C0CD009984A493F
:104940000C540A9A089842704320394628F01AFB02
:104950004437641CF0E734F03DF800250595079EC8
:10496000EFB2042F17D8059CE1B2032911D83846BD
:10497000324628F045F909983B490D5408998C7046
:1049800006984870432031460A9A28F0FBFA641CC6
:10499000EAE76D1CE4E734F01DF816F06DFC274AD9
:1049A000537F28494B6288626D212E4C615C1172E5
:1049B0000090019103202D492D4A0FF053FC444FE4
:1049C00004F018FA1D4D02E534F004F828460A995F
:1049D00028F0D0F82F46052E0CD0099822490E5405
:1049E0000A9A089842704320394628F0CBFA443797
:1049F000761CF0E7069533F0EDFF00260596069C41
:104A0000F7B2042F17D8059DE9B2032911D838460B
:104A1000224628F0F5F8099813490E5408998D702C
:104A200007984870432021460A9A28F0ABFA6D1C7B
:104A3000EAE7761CE4E733F0CDFFC0E7589D00308D
:104A4000D89C0030D09E003004890130904F013056
:104A5000809702307C3E0710106707105F620710D6
:104A6000C4A00030C89F003048A00030E3110710F8
:104A7000316C07101FC0070091090710E868071084
:104A8000FD1007108E6E0710FC3A0710BCB50378B6
:104A900072240F4D2B5541780E4A11758078732280
:104AA000A8540091019003200BA11AA20FF0DAFB89
:104AB000285DC038032806D8022804D0BCBC01BC3D
:104AC0008646FFF747BBBCBC01BC8646FEF77EBBF3
:104AD000D89C0030589D00305B4150504C5D2025E3
:104AE000733A20747970655B3078253032585D2CCC
:104AF0002063686F6963655B3078253032585D2CC0
:104B000020696E766F6B655B3078253032585D0DAD
:104B10000A0000006170706C5F6D73675F70726F88
:104B20006365737300000000F0B593B0BD48C27FA9
:104B3000022A05D3101F022805D2BF4DEE200BE03C
:104B4000BC4D0A2008E0022A04D1B7A303200D902F
:104B5000B74D1EE0B94D0C200D900023052A18D842
:104B6000900001A10818874600F00AB800F00CB8C0
:104B700000F00FB800F006B800F008B800F008B870
:104B8000B7A306E0B0A304E0B3A302E0ACA300E047
:104B9000AFA30D9800900320B3A10FF063FBB849B9
:104BA0000846683007790D227A4086786023734082
:104BB00013435A425A41099268228B5C12934178FE
:104BC000C9B280220F9108925140194363233246A3
:104BD00007935A400A43C1781191622306935940C2
:104BE00011431A243A46059462400A435142514106
:104BF0000B91109631460D9E0E9739430A914079DC
:104C00000C90A048478B0024B44200D1AFE06888E4
:104C1000874200D08CE02979129888421CD16879AB
:104C20000F9A824218D1E879119A824214D1A87958
:104C3000109981424ED1287A0E99814204D00E9962
:104C4000042978D8742876D1687A0C99814200D1E9
:104C5000A1E05A286CD19EE0A879109A824223D113
:104C6000EA79119B93421FD12A7A33460E9E9642CF
:104C70001E4619D16A7A0C9E96421E4614D112988D
:104C8000F0B30B98002876D11298012850D10E98D5
:104C900001284DD1119801284AD11098002847D1F8
:104CA0006879622828D043E0129A8A4240D1E97993
:104CB000119A8A423CD16979622939D16A7A297A72
:104CC000652911D1662A0FD1632864D010998142D9
:104CD0002ED160E06D282BD1109811992AF094FD07
:104CE0000D9E0028A7D123E05A2A21D1109A824292
:104CF0001ED10E9881421BD10F982AF0CFFD15E0EE
:104D000068790A9921B9622802D1119902290AD039
:104D10006238411E88410121099A51400143B0D1B6
:104D200011980228ADD10F982AF0A4FD0D9E90BBDA
:104D30001C35641C68E7652808D06E28F8D10E98E9
:104D40002AF084FD0D9E0028F2D07DE70E982AF00F
:104D500045FD0D9E002800D076E700200428E7D00E
:104D60005349095C401C0E9A8A42F7D16CE76526CC
:104D7000304613B0F0BD089800900798019006984F
:104D80000290059803900C98049003203EA1002304
:104D900022460FF067FA2E78042046A122463346B9
:104DA0000FF060FA1F4A5677907F66260028DFD002
:104DB000E97A8842DCD8D17F4A1ED2B2042A03D8CD
:104DC0009200444B9F5800E00C277223424AD35C68
:104DD000ED59C32B09D1FE231940042920D12818ED
:104DE000401E0078742150541AE02818401E0078A4
:104DF00060B1FE24214004290ED174215054C12BEE
:104E00000ED1FD2108400928B2D109E0012033A1CB
:104E100022460FF027FAABE7C12B01D10328A7D117
:104E20000026A5E7589D003052532D343835000038
:104E300038E006108CE0061030C60610A4E106101B
:104E40005365635574696C005072697661746500CE
:104E500053656353697465005574696C69747900AE
:104E60005075626C696300005341505B25645D3A84
:104E700025732C204F424A5B25645D0D0A0000001B
:104E8000C89F0030D89D00306C6F6720636E74201F
:104E90006F6269735B25645D3A2025642E25642E5C
:104EA00025642E25642E25642E25640D0A0000003D
:104EB00080B506104F424A5F4C4953545B25645DF0
:104EC0002C204F424A5F494E464F5B25645D0D0AD8
:104ED00000000000F8A40610D89C00304E4F5F413F
:104EE00043434553535B25645D0D0A00FEB52C48D2
:104EF000C66A02460125F5710020B0717071C021AB
:104F000031710F21F170B070E7207070E6203070C1
:104F10000820106214462348303023496E3106229F
:104F2000FBF70FFA1BF08EFC276A0224F455F619E2
:104F30007470B01C1D492622FBF703FA2920355452
:104F4000282035542A2034542C37154C27622B2026
:104F50000521315428F0E6FE28F014FF28F034FF34
:104F600028F050FF1248006E2646216AE26A172395
:104F7000535402AB23635418030AE370030CA37069
:104F8000030E63704B1D33622071E807009003200D
:104F900008A115F0A5FE318CF06A2CF025FDFEBDB0
:104FA000D09E0030C4A00030C89F00308CA90610ED
:104FB0003CA10030455252434F44455F5055534841
:104FC00000000000F0B585B06D48C76A02460125B3
:104FD000FD710020B8717871C02139710F21F9700D
:104FE000B870E7207870E6203870082010626548B5
:104FF000303065496E3106242246FBF7A2F91BF0DA
:1050000021FC5F48066A0220B855BF1901907870EC
:10501000B81C5E492622FBF794F928203D542A3615
:1050200057480662292002953D54574DEE69584F66
:10503000BB6E032057A15DA20FF014F9B86E80B1CA
:105040005F49604A4A84401E5F4AB0FBF2F3534313
:10505000181A5E4A801808840E200022314627F074
:1050600091FFA0203A58EF69454BD96A186A1D464E
:10507000019B0B540918CC718A71130A4B71130CE4
:105080000B71120ECA708C700B224A70FA7B0A7276
:10509000BA7B4A727A7B8A723A7B0C73CA72FA7C48
:1050A0004A73BA7C8A737A7CCA733A7C4C740A74E9
:1050B000EE6A3118FA7D8A74BA7DCA747A7D0A75EF
:1050C0003A7D8C754A75FA7ECA75BA7E0A767A7E02
:1050D0004A763A7E1B3028628A76F91D03AD28464F
:1050E0001BF0A6FA28461BF07FFB254D2B6A0420F7
:1050F000F054F01818214170397981707979C170B4
:10510000B97944710171F97F8171B97FC171EA6A1E
:105110002E46D018797F0172397F847241723946E8
:105120002031CD78C5728D7805734D784573202573
:105130007D5DC4738573CD7905748D7945744D7922
:1051400085740D790475C5740C4608343463CC7AC3
:1051500044758C7A84754C7AC475097A1933336234
:1051600001760298C0070090032019A115F0B8FD40
:10517000318CF06A05B0F0BC04BC96462CF034BC0F
:10518000D09E0030C4A00030C89F0030B4A90610E3
:10519000809702305B4C505D2025733A204C505F65
:1051A000696E6465785B25645D0D0A006C705F6CE8
:1051B0006173745F7265636F72645F6461746100D0
:1051C00048A00030012C0000741800007318000083
:1051D0004C505F5055534800F0B5FFB08EB01746A5
:1051E0000E4604467421A7480B91435C009401923B
:1051F0000425A5A1AEA228460FF034F854B3B04957
:10520000002008908870E72003904870E620029004
:105210000870F078069033F0DDFB80200590009058
:10522000F41CF81E83B20120A6A12246079315F0B4
:1052300057FD069BA24A18460830D0700E37B8B208
:10524000010A0A9609940ED082211171390A51710E
:10525000911D11E0304639467FB00EB0F0BC04BC61
:1052600096460CF0A7BD802804D381211171511DF1
:10527000032501E0111D02250F7056193F27F77015
:105280009449C96DF1710A0AB2710A0C7271090E62
:105290003171691D00900491019105258E498F4C53
:1052A000284622460EF0DEFF8A48C06D00908C49E9
:1052B000284622463B460EF0D5FF8648C06D0DAC11
:1052C000E070010AA170010C6170000E2070384678
:1052D000079D29461FF076FB0C907E48806D0CA937
:1052E0000836009601912146099A2B461FF0E2F9F3
:1052F00048B1024601207B490EF0B4FFA52020F002
:105300008BFA089E0BE00C980599009104994618B9
:10531000B3B26B48C21C012073A115F0E1FC594ADD
:105320000B98105CFE210140F31C0A290A9F58D1FA
:105330006F20115C012957D10693BC1D002515541F
:10534000BD70039878700298387033F043FB08966C
:10535000B6B20520684969A233460EF083FF0821E2
:1053600079713D71DF20F8706D48026B436BB97342
:1053700023712270190EE171190CA171190A617162
:10538000110EE170110CA170110A6170816AC06A7E
:10539000607361723D76FD75020E2274020CE27339
:1053A000000AA073080E2073080CE072080AA072AD
:1053B000059800903C1D03205A49152522462B468E
:1053C00015F08EFC0DA821462A46FAF7BAFF300ADE
:1053D0000FD0334682217976192618211722099C8D
:1053E00010E099B2364848E001200321FDF784FF20
:1053F00045E0172516223346802E099C04D3182633
:1054000081202946A05401E011462E460796089FA8
:105410006754A0192A49CD1C29461E461A46FAF798
:1054200090FF0DA80B90153029463246FAF789FFF8
:1054300007983D18A8B24026265430F0C7FC0C96B9
:105440002448806D0CA90091691C89B26318153736
:10545000BAB20B991FF0AEFF50B10246012032499B
:105460000EF000FFA72020F0D7F90A98069D03E070
:1054700030F0ACFC44350A98A9B20CF09BFC7FB02C
:105480000EB0F0BDD89C003025733A204143535BE9
:1054900025645D2C20454E5F41545B25645D2C20C6
:1054A00074785F6C656E5B25645D0D0A000000001A
:1054B0006170706C5F73656E645F6D736700000090
:1054C000C05C01302D2D3E20547820504C41494E77
:1054D000000000004C9F0030F4230710565D0710B9
:1054E000921207105A3107102D2D3E205478204378
:1054F0006970686572000000C022071064736D5FF8
:105500007365635F675F7369676E696E675F784431
:105510004C4D535F415044555F6275696C640000A7
:1055200048A00030DD540710843007101CB5042853
:1055300002D808A10C5C00E0FA240090019408B1A4
:10554000074B00E0054B0320064907A20EF08AFE38
:1055500020461CBD000202120C000000AC6E0710B9
:10556000336E0710542707106170706C5F73657499
:105570005F726573756C745F726561736F6E000046
:1055800010B504460320044904A223460EF06AFE27
:105590002048846010BDC0466A1A07106170706CA4
:1055A0005F7570646174655F7365635F345F343821
:1055B000355F666F725F74696D6573746172745F75
:1055C0007365635F7574696C6974790010B504461E
:1055D0000320044904A223460EF044FE0D48446013
:1055E00010BDC0466A1A07106170706C5F757064F8
:1055F0006174655F7365635F666F725F74696D6523
:1056000073746172745F7365635F7574696C6974D8
:1056100079000000D09E0030F0B5C1B07524EC4F89
:1056200000253D55EB4E307D01281D9544D10325C5
:10563000E9A128460EF016FE01201C907075EAA123
:10564000EF4A28462B460EF00DFE8620ED49085CF9
:10565000B8B3FDF7E3FDEC48806E0C2837DDFFF7AB
:1056600063FA05460320E9A1E54A2B460EF0FAFD50
:105670006DBB737FB07F00900320EAA1F24A0EF069
:10568000F1FD707F01469B3912291D9D1B9400D8A6
:1056900095E00246D33A022A00D296E0092800D1CA
:1056A00093E0012800D190E0D74AD46EF27F032A1C
:1056B00000D005E20C2209E20220B07501207075CD
:1056C00008E08820FB49085C0007800FC1D0022059
:1056D000B0751D9D5E201C90305C395DB37D8006E9
:1056E000C00F009001910320F349F44A0EF0BAFD77
:1056F000C548C06AC721C1708570E7214170E621A5
:105700000170717D01717321795C4171B07D062852
:1057100002D8F5490E5C00E0FA260090019608B127
:10572000F24B00E0F24B0320F249F34A0EF09AFDEF
:10573000EB48807E012814D1EA49C8683D462746D7
:1057400002242043C8600C200021EC4A10F018FF0E
:10575000EB49E94A20463C462F461D9DE74B0EF09B
:1057600081FDE048C16A8E71DD4BD87FFE22024088
:10577000042A284611D11C98185C80060CD470208D
:10578000385C0428284608D17420385CFC2202408A
:10579000083A5042504100E001203A5D012A05D10B
:1057A00000220A72CF4A126A012301E008222B4626
:1057B000CB7192B2FFF710FD3D5541B0F0BD1C9A80
:1057C0008A40D04B1A4200D163E7CF4A127B012AAC
:1057D0001CD1C44AD46E0D26421E082A1FD90229A4
:1057E00060D32F2800D180E3A42800D103E3A928A7
:1057F00001D101F080FCAD2800D177E2D32800D19F
:105800006EE2D42800D0A6E102206AE20124BF495A
:10581000A74A20460EF026FDB4751B9C5AE790005F
:1058200001A108188746C04600F010B800F093B9EF
:1058300000F091B900F08FB900F091B900F0C5B94E
:1058400000F0E8B900F087B900F000BAA35DA44801
:10585000877F0325AE49AF4A28460EF003FD012F8E
:1058600001D001F048FCA0190178092901D100F00C
:105870007DFD012901D001F03EFC4178092901D0CC
:1058800001F039FC8278812A01D100F027FF822AB9
:1058900001D000F025FF0179C278120252180525C7
:1058A00000F01EFFA05D8E498F7F009601900325BA
:1058B00099499A4A28463B460EF0D4FCF91E032922
:1058C00001D901F018FCA0198A0001A39A18974683
:1058D00000F006B800F024BB00F014BB00F019BBC8
:1058E0000021804DA8651991E9658D49CE6903783D
:1058F00003208C498C4A0EF0B5FCA96DE86D0A5C5A
:10590000012A1B9C01D000F0B4FC09184B78801CC4
:10591000E865337003208549834A1A900EF0A2FC93
:10592000307804286D4F354601D31A982870E91C49
:105930001A910321189117951999814201D300F00A
:105940009DFC2E461991189879497A4D2A460EF0F9
:1059500089FC6449C86D421CCA65896D0B5C022BC9
:1059600000D098E08E5CC21C5E4DEA650B189B78F7
:10597000162B0BD1001DE8658B5C1A98401E037036
:1059800003206D496B4A0EF06DFC04E001206B4969
:10599000684A0EF067FCE96D4A1CEA65A86D435C35
:1059A000092B0DD11A9B9C1E8B1CEB65875C277005
:1059B000812F16964AD1C91CE965C75C277046E05D
:1059C00001205F495B4D2A460EF04CFC179E62E0B9
:1059D000D89C0030589D00305B415245515D204EAF
:1059E0006F726D616C0D0A005B415245515D20255F
:1059F000733A206964785B25645D0D0A000000003D
:105A0000FA660710904F0130D09E00305B4152453E
:105A1000515D2025733A2072736C745B25645D0DB3
:105A20000A0000005B415245515D2025733A206F0A
:105A3000626A5F69645B25645D2C206D6574686FC4
:105A4000645B25645D0D0A00BB5A07101946812F5F
:105A5000179E0AD303203B49364A169B0EF002FCE0
:105A6000802727701F49886DC96D41181A9D2846E7
:105A70003A46FAF766FC04200090032032492A4691
:105A80003B4615F02DF92078164AD16D0818D065DF
:105A90001B9C124F274D03202C492A460EF0E2FB97
:105AA0001A9882301A901999491C3546307844E783
:105AB000BB5A071080970230641F07108B6B0710CA
:105AC000114A127B012A00D019E20D22A35C122B8D
:105AD0003ED1A3189D785F78D61C7DE6D89C003017
