:020000041003E7
:10000000D89C0030250203102D0203102F0203108C
:100010005365637572697479706C6174666F726D23
:10002000000000000000000000000000B1270310E5
:100030000000000000000000A12403103528031078
:100040004702031047020310470203104702031040
:100050004702031047020310470203104702031030
:100060004702031047020310470203104702031020
:100070004702031047020310470203104702031010
:100080004702031047020310470203104702031000
:1000900047020310470203104702031047020310F0
:1000A00047020310470203104702031047020310E0
:1000B00047020310470203104702031047020310D0
:1000C00047020310470203104702031047020310C0
:1000D000A9280310AF28031047020310470203109A
:1000E0004702031047020310691803104702031068
:1000F0004702031047020310470203104702031090
:10010000B5280310BB280310470203104702031051
:10011000470203104702031047020310470203106F
:10012000470203104702031047020310470203105F
:10013000470203104702031047020310470203104F
:10014000470203104702031047020310470203103F
:10015000470203104702031047020310470203102F
:10016000470203104702031047020310C12803107F
:10017000470203104702031047020310470203100F
:1001800047020310470203104702031047020310FF
:1001900047020310470203104702031047020310EF
:1001A00047020310470203104702031047020310DF
:1001B00047020310470203104702031047020310CF
:1001C000470203104702031047020310A52703103C
:1001D00047020310470203104702031047020310AF
:1001E000470203104702031047020310470203109F
:1001F000470203104702031047020310470203108F
:10020000470203104702031047020310470203107E
:100210000348854600F07EFC004800474174051005
:10022000D89C00301248804712480047FEE77046CD
:10023000EFF30881EFF309820F4B98470047FEE781
:10024000FEE7FEE7FEE7FEE7ABBE0C4B74469847C1
:1002500020477046F047000009480A490160684697
:1002600008600948486030BFFEE700BF00BF00BF1C
:100270005D2803101102031049250310A72703105E
:10028000C0020040000001206B020310F0B51FB453
:100290000646002082B005464024019100901BE0F4
:1002A000019922460F46304600F050F9049A059B0A
:1002B000801A994110D310461946224600F036F9AB
:1002C000361A8F410197224601200021009F00F03D
:1002D0002DF938184D4100902046641E0028DFDCBF
:1002E000019B00982946324607B0F0BD30B5434324
:1002F00051435C18010C130C0D465D432C1980B260
:1003000092B20546554351430A0C09044D19624106
:100310005843010C00044019514130BD004870475A
:10032000A8B8061010B50446FFF7F8FF0068005D96
:10033000C007C00F10BD10B503461C460C43A407F0
:1003400003D009E010C9121F10C3042AFAD203E037
:100350000C781C70491C5B1C521EF9D210BDD2B225
:1003600001E00270401C491EFBD270470022F6E7F4
:1003700010B513460A4604461946FFF7F0FF20461B
:1003800010BD421E5378521C002BFBD10B7813700A
:10039000491C521C002BF9D17047421C0178401CAB
:1003A0000029FBD1801A704710B5002200E0521CD2
:1003B000835C8C5CA34201D1002BF8D1D8B2E1B2AE
:1003C000401A10BD30B504460020034600E05B1C17
:1003D000934203D2E05CCD5C401BF8D030BD0346B5
:1003E0000A780270401C491C002AF9D1184670474F
:1003F00030B505460020034600E05B1C934205D261
:10040000EC5CC85C201A01D1002CF6D130BD10B5CF
:10041000484304463BF068F9002805D00021002C31
:1004200002D0641E0155FAE710BD0000F7B5009C2C
:100430000F4600262578641C002D05D0FFF76EFFBF
:100440000068405DC007F5D12B2D02D02D2D18D0AE
:10045000641E39462046029A00F089F8002F04D025
:100460003968A14201D1009939607105022400293F
:100470000BDA4042002803DD3AF0CCF80460A00714
:10048000FEBD012080020643E3E70028F8DA3AF0D7
:10049000C1F804600048FEBDFFFFFF7FF7B582B0E2
:1004A0000F460026029C3AF0B5F8009000680190D3
:1004B0002578641C002D05D0FFF730FF0068405DF3
:1004C000C007F5D12B2D02D02D2D1CD0641E009815
:1004D0000021016039462046049A00F048F80146A0
:1004E000002F04D03868A04201D1029838600098EB
:1004F000006802280BD00098019A0260700506D5AA
:10050000484205B0F0BD012080020643DFE70846FF
:10051000F7E770B506463AF07DF8046805460A220A
:1005200000213046FFF782FF2C6070BD10B5202AF5
:1005300004DB0146203A9140002010BD9140202369
:100540009C1A0346E3401943904010BD10B5202A81
:1005500004DB0846203AD040002110BD0B46D340B2
:10056000D0402024A21A91400843194610BDF7B587
:1005700082B0029C00272078641C15460197302821
:1005800002D0002D15D015E020780127641C7828B2
:1005900004D0582802D0002D09D00BE0002D01D046
:1005A000102D07D1002710252078641C02E00825B3
:1005B00000E00A250026009610E000990127694313
:1005C0000818020C294680B2714300908E18380436
:1005D000864201D3012001902078641C294600F056
:1005E000E3FA0028E9DA0398002805D0002F01D0AB
:1005F000641E00E0029C04600198002806D03AF0D6
:1006000009F802210160C81E05B0F0BD0099300450
:100610000843F9E710B50023036000F0F5FA10BDB8
:10062000F8B502464A40D40F42004B0052085B081E
:100630009A4202D20246084611464A0023D0C30D10
:100640004A00DDB2120EAD1A202D35DA490201261C
:10065000490AF6058A19002C00D0524220214F1B6E
:100660001146B9402A411018C20D9A4221D0002CDF
:1006700017D0012D08DCDA05801AD20F8019D207B5
:10068000DBB200F003FBF8BDDA05801A012340005D
:100690001B06C01880185A428018CA0F1043490020
:1006A00007E04908C2071143DA05801A801940089B
:1006B000801800F0E3FAF8BD61000122511A001B16
:1006C000F7E70122D2075140AAE70122D2075040A2
:1006D000A6E710B541000DD04100090E962909DCAE
:1006E0007E290ADC07DB410205D0C00F7F21C0074D
:1006F000C905401810BD002010BD9622541A2021B3
:100700000A1B01469140E04000F0B8FAA04010BD3D
:10071000F0B507460846584087B0C00F049048001F
:100720000E46590040084908BC1A884105D238468F
:1007300031461E4617460B460246580040081043F5
:100740004CD0300D039040055900400D490D0590E7
:10075000401A0290402872DA18030121000B0905A3
:100760000843019004980092002805D00199524254
:100770000020884100920190029840210A1A0199B4
:100780000098FFF7D3FE05460C466B4607CB00F0FA
:10079000F8F9C0197141039A0E0D0023D71756407E
:1007A0001A467A40164344D0049A002A2DD0029A61
:1007B000012A039A15DC1205C01A9141012636055B
:1007C000001C7141D20F059ED20700930192029640
:1007D0002A46234600F0A0FA07B0F0BD384631465D
:1007E000FAE71605224A0F46B218C01AB74101218E
:1007F0000905001C4F4100187F4111461818794126
:10080000E20F10436D19644113E0E2076D081543D0
:100810006408C2071443039A01261205C01A9141C5
:100820003605001C7141CE07400830434908C01806
:1008300051412A46234600F062FACDE7FFE70498CB
:1008400001224000C117121A00238B41049831463F
:10085000C417381AA141EEE730B40124E40763401D
:1008600030BC55E730B40124E407614030BC4FE7A9
:100870000000E0FFF0B51FB488B00B990998002480
:1008800048400999C00F490049080991C0070B99D0
:100890000090490049080B9109990898A646084319
:1008A0001CD00B990A98084318D0099801244000DD
:1008B000420D4800410D099824050003000B204318
:1008C00009900B980003000B20430B9050181C4913
:1008D0004018002201901446104605E00020014611
:1008E0000DB0F0BD032801DA034600E003239C4667
:1008F000C11A0AAE0AE05F0008ADED5B4F00F75B7E
:100900007D430027AA187C41491C5B1E6145F2DD2E
:10091000410004AB5A522104120C0A43240C401C1F
:100920000828DFDB01980290009970460191009041
:10093000059B049A0799069800F0EEF9D0E70000AD
:100940000DFCFFFFF0B50C465C4085B0E40FE407FA
:1009500003944C0000266408590094464908024656
:100960000296224321D062460A431ED06200570DF0
:100970004A000E032303550D012402462C49240589
:10098000781B1B0B360B401823432643614600900F
:100990001C46501AB44103D30098401C009002E05A
:1009A000921800985B41002803DA0020014605B048
:1009B000F0BD0020012109050746864611E0644686
:1009C0001D46141BB54106D36546521BB341744600
:1009D00007430C43A646CD07400849082843921810
:1009E0005B4105460D43EAD11046184313D06046DB
:1009F000194650407140084306D06046101AB34172
:100A000006D20122002306E000220123DB0702E0D8
:100A10000122D2435310009874460105381C6141ED
:100A2000029C039D0019694100F069F9BFE70000CD
:100A3000FD03000070B54B005B0803430BD04B0077
:100A40005C0D002633466542B341D417AD1AA3416D
:100A500002DB0020014670BD12053018514170BD07
:100A60004A0009030123090B1B0519430A4B10B562
:100A7000520D9A4202DA0020014610BD064B343373
:100A80009A4203DC9A1AFFF761FD10BD034BD2189E
:100A9000FFF74CFD10BD0000FF030000CDFBFFFF82
:100AA00010B54100C40F0A0E40020121400AC905D9
:100AB000E40740187F2A07DA7D2A00DA7D22763A99
:100AC00090400146002008E0962A09DC1346763B58
:100AD0000146994096239A1AD04000F0CFF801E0E1
:100AE000963A9040002C00D0404210BD10B500292D
:100AF00004DB0124E40740428C412146002B04DB47
:100B00001C460123DB075242A341994200D1904287
:100B100010BD00001CB50948009009480190054629
:100B20000126009C05E0E36807CC33430C3C984762
:100B30001034AC42F7D3FFF76FFB0000409307106F
:100B40006093071070B50446002903D000202022CE
:100B5000012310E0002801D00020C043C046C04659
:100B60000DE02546D5408D4205D30D469540641BCA
:100B70001D46954040191546521E002DF1DC2146B8
:100B800070BD10B5202A06DBCB170846203A10416D
:100B9000C1170B4306E00B461341D0402024A21A94
:100BA00091400843194610BD3A2800D2303820231E
:100BB00002469A43412A01D310463738884201D36E
:100BC0000020C043704700000FB400B589B00A464A
:100BD0000DA9009100230C99002ACB60234B0693AA
:100BE000234B079301D0042300E00023214A029203
:100BF000214A0892019302466B46002000F0B3F9A7
:100C000009B008BC04B01847F0B585B0074600200D
:100C1000C04301901E46002015460C4600910291EB
:100C200004903B466A46314604A8FFF7CDFF04997D
:100C300002466018002D05D0002901D0034600E0CF
:100C400023462B6000290ED0002A02DD0099814244
:100C500009D0001B019000943B466A46314602943D
:100C600004A8FFF7B1FF05B0F0BD0000BD110310EF
:100C7000DD110310FFFFFF7F25030310002904DAB5
:100C8000401C490001D140084000704770B4002466
:100C9000050C05D11024000402D1002921D0112413
:100CA000050E01D100020834050F01D10001241DF9
:100CB000850F01D18000A41C002801DB4000641CCA
:100CC000002908D020252E1B0D46F540A14000D05C
:100CD00001212943084301061B1B000ADB1D02D525
:100CE000002070BC7047DB05181880180029F8DA5E
:100CF000401C4900F5D170BC40084000704710B559
:100D0000002B08DA0024401C614192185B411A4311
:100D100001D14008400010BDF0B51FB482B00546B7
:100D20000C0003D0084639F02FFC02E039F02CFC0F
:100D300020300246009021462846FFF7F7FB049B2F
:100D4000059A04460F4618431143084314D0184629
:100D500010431BD0009840210A1A18460599FFF746
:100D6000F5FB05460E46009A05990498FFF7DEFB51
:100D7000084305D0012004E02046394607B0F0BD05
:100D80000020C11705430E432C43374300990E98AA
:100D90006305401A7905E40A00220C43FD0A0A3073
:100DA00002D500200146E9E70105101969410C9CB4
:100DB0000D9D00196941FFF7A2FFDFE70EB5C217CD
:100DC000C10F5040CA0740180021054B0293019201
:100DD00000910A460B46FFF79FFF03B000BD0000DD
:100DE000330400000EB505490291002100910A4626
:100DF0000B460191FFF790FF03B000BD33040000E4
:100E000070B5CD0F4A0009030123090B1B051943D7
:100E10000B4BED070024520D9A4201DA002070BD01
:100E2000074B34339A4203DC9A1AFFF78FFB02E038
:100E30000449511888402C43F1D0404270BD000055
:100E4000FF030000CDFBFFFFFFB5087889B0154612
:100E5000FF2805D0491C2D2804D00022002407E0DB
:100E600000240BE00122F9E70A235C430419491C22
:100E70000878FF28F8D1002A00D0644200200490AE
:100E80002A7801462D2A01D02B2A0FD16D1C2D2A3C
:100E900002D00022049209E00122FBE700260A2288
:100EA00033466D1CFFF722FA381871412F78FF2F57
:100EB000F4D10C9AA218069202460A4304D0FF23EA
:100EC000069A9133DA4205DA002109980A4606C0EB
:100ED0000DB0F0BD0024B74AB54D2646079200F08C
:100EE0008FF9029006980391002801DA474200E04A
:100EF000074639050020AF4A001C5141019100907E
:100F000012E0F80707D022462B4630460799FFF734
:100F1000B1FC0646079122462B4610461946FFF7BC
:100F2000A9FC04460D467F10002FEAD10698019BCC
:100F30000028009A0399029806DAFFF703FD32466B
:100F4000079BFFF7FFFC05E0FFF794FC3246079B89
:100F5000FFF790FC049A002A02D00122D2075140E8
:100F6000099A03C2B4E7FFB591B0002009900025AB
:100F7000ED432E209E685C681F460190B9696D1C88
:100F8000129888470090396A88470028F6D100985F
:100F9000401C0AD00D20C0018443002E12DD0098B1
:100FA0002B2809D02D280DD103E00020C04315B017
:100FB000F0BD012080020443B9696D1C1298884776
:100FC000761E009003A9600501D52D2000E02B209E
:100FD0006A461073491C0CA80F9102900AE0B96987
:100FE0006D1C12988847009001204002044313981A
:100FF000761E0560002E02DD00983028EFD00199A2
:101000000098884245D18020044308E00998401E9A
:1010100009900120400204431399681C0860B969D3
:101020006D1C761E1298884700903028EED030E074
:101030000199884205D1200603D480200443761EFE
:101040001DE0009839F0E6FE002825D00121490274
:101050000C43009807AA0F9903323038761E91424C
:1010600008D208700F98401C0F90200607D50998E9
:10107000401E03E0200602D40998401C0990A005F8
:1010800002D51399681C0860B9696D1C12988847CD
:101090000090002ECCDC59E0002E57DD009865282A
:1010A00001D0452852D1A00550D503200002844329
:1010B000B9696D1C761E129888470090002E0CDDD1
:1010C0002B2804D02D2808D1FF2001300443B96912
:1010D0006D1C12988847761E0090E00501D52D21E1
:1010E00000E02B21029801700298401C02900190B0
:1010F00025E00120400204430EA902980131761E2A
:1011000088420ED20098029930380006000E08700E
:1011100003D10299019881420AD90298401C029099
:1011200006E0E00501D5244801E02348404209904B
:10113000B9696D1C12988847009013980560002EBD
:1011400004DD009839F066FE0028D2D1F9691298C2
:1011500088470F99FF200870029903AA08700020A1
:101160000A900B900CA90AA8099BFFF76DFEA00539
:1011700002D40120C0431AE72420044209D0E0072A
:1011800013D138680B9A0A99031D3B60006806C0AA
:101190000BE00B990A9800F041F80146E00704D1F2
:1011A0003868021D3A60006801602846FFE60000CA
:1011B000000014400000F03FF1D8FFFF4268002A11
:1011C00008D001680B78491C002B03D0521E06C0C2
:1011D000184670470121C160881E70474268002A86
:1011E0000BD0C3680168002B07D183688B4204D001
:1011F000491E521C06C0002070470020C0437047A3
:101200000EB5054A02920022009213460192FFF7A2
:1012100083FD03B000BD000033040000CB0FDB07EB
:10122000490010B5490802460A4307D00A0D0724B1
:101230000903E401090B121B002A01DC002010BD88
:10124000C900440F0C43C100E018D2058018FFF715
:1012500015FD10BD024670B54A40D30FDB074000B4
:101260002DD04A002AD0010E140E000212020919D4
:10127000400A520A8418E50104465443000A120A3F
:101280002E045043A4194219200CC543AA18120C6D
:101290000125AD03521C521912047F39240400D0D9
:1012A000521C104301D44000491EC2B20C06C009B2
:1012B0002018401C4008802A02D003E0002070BDA6
:1012C00040084000002900DA0020184370BD70B5C6
:1012D00002464A40D50F40004A00ED074008520838
:1012E000002814D0002A12D0C40DD30D41020120D1
:1012F000C0055202490A520AE41A091812187D342C
:10130000914201D3641C00E04900002C01DA002066
:1013100070BD0023914201D3891A0343400849005C
:101320000028F7D100290AD0914202D10121C90732
:1013300005E0914201D2012101E00121C943E0050C
:10134000C0184019FFF79AFC70BD0122D20700288F
:1013500000DB101A002900DB511A814201D801205C
:101360007047002070470122D207002800DB101AC6
:10137000002900DB511A814201D201207047002070
:1013800070470122D207002800DB101A002900DB79
:10139000511A814201D30120704700207047012279
:1013A000D207002800DB101A002900DB511A814205
:1013B00001D901207047002070470122D207002880
:1013C00000DB101A002900DB511A814201D10120F3
:1013D00070470020704710B5002904DB0C4601213E
:1013E000C9074042A141002B04DB1C460123DB0757
:1013F0005242A341801A994101D3012010BD00201F
:1014000010BD10B5002904DB0C460121C90740427C
:10141000A141002B04DB1C460123DB075242A34100
:10142000101A8B4101D2012010BD002010BD10B553
:10143000002904DB0C460121C9074042A141002BD1
:1014400004DB1C460123DB075242A341101A8B41E7
:1014500001D3012010BD002010BDC217C10F5040A4
:1014600010B54018CA0796230021FFF70FFC10BDE6
:1014700010B5002296231146FFF708FC10BDC20FDD
:10148000410040020123400ADB05D207090EC018C3
:101490007F2901DA00207047962903DC9623591A28
:1014A000C84001E096398840002AF4D04042704795
:1014B000410040020122400AD205090E80187F290E
:1014C00001DA00207047962903DC9622511AC840A1
:1014D0007047963988407047C20FD20740004008D5
:1014E0000BD0C10D0723DB01C91840020905400AD2
:1014F0001143C2084007114370470020014670475E
:1015000070B58D180478401CA207920F01D10278A3
:10151000401C231106D10378401C03E006780E70AE
:10152000401C491C521EF9D1002B15D002780C2604
:101530008A1A3440401C0C2C03D0A401121B9B1CA3
:1015400008E004782402121B401CF8E714780C70A1
:10155000491C521C5B1EF9D5A942D3D3002070BD93
:1015600070B504460126B005844225D817482040AE
:1015700022D100F087FB08B1032220E000F05EF9E1
:10158000134D286830430C21884328605220A861FD
:10159000200CA861200A80210140A9610020A861D7
:1015A00036F000FD286805210143082081432960A9
:1015B00001F022F9002800D470BDC00F42000120C4
:1015C00004A170BC08BC9E4613F0F2BBFF7F000074
:1015D00008100650466C61736820426C6F636B287C
:1015E00033324B29204572617365204661696C6511
:1015F00064207265743D25640D0A0000F8B5064646
:101600000125A805864201D9052435E017460C4678
:1016100000F038FB08B1032429E000F00FF93A4646
:10162000164F386828430C21884338600220B8617F
:10163000300CB861300AC0B2B861F0B2B861501E67
:101640000021FA689203FCD4625CBA61491C8142B1
:10165000F7D936F0A7FC38680521014308208143FB
:10166000396001F0C9F8C10F4C00002804D50120F1
:1016700003A1224613F09CFB2046F8BD081006503B
:10168000466C61736820506167652050726F6772A5
:10169000616D204661696C6564207265743D2564E6
:1016A0000D0A0000FEB500906E4DA86840F20016CD
:1016B0003043A8602868012101430C208143296040
:1016C0000524AC6101A800278780AF61019736F03F
:1016D00069FC28682043082188432860E868304274
:1016E00005D1F8B2A96A01AA11547F1CF6E701A836
:1016F000407800990870FEBDFEB50090104D286836
:1017000040F2001630432860874C002727600520F0
:10171000286101A887802F61019736F055FC0120D0
:1017200020606868304205D1F8B2296A01AA1154D4
:101730007F1CF6E701A8407800990870FEBDC046FE
:1017400010100650F8B514460D4601218A05904246
:1017500027D8444E32680A430C218A433260032161
:10176000B161010CB161010AC9B2B161C0B2B0612D
:1017700036F018FCB06840F200110143B160002758
:101780003CB1B76136F00EFCB06A2870641E6D1C67
:10179000F6E736F007FC3068052101430820814355
:1017A0003160F8BD70B504460126B005844225D8E5
:1017B0001748204022D100F065FA08B1032220E04A
:1017C00000F03CF8134D286830430C218843286012
:1017D0002020A861200CA861200AF0210140A96105
:1017E0000020A86136F0DEFB2868052101430820AF
:1017F0008143296001F000F8002800D470BDC00FBB
:101800004200012004A170BC08BC9E4613F0D0BA6F
:10181000FF0F000008100650466C61736820536586
:1018200063746F72204572617365204661696C65EF
:1018300064207265743D25640D0A000010B5094CE2
:101840002068012101430C20814321600620A06112
:1018500036F0A8FB20680521014308208143216060
:1018600010BDC04608100650024801210160024820
:1018700001607047A8CB0030F8300450F0B585B057
:10188000002A44D016460F46054603AC2046FFF713
:1018900033FF2078C0073CD1234801970027076019
:1018A0000296224E0620306036F08EFB01241E4840
:1018B000046007600220009030600199080CC0B2FB
:1018C0003060080AC0B23060C8B230600298401E72
:1018D00031460C390A689203FCD4EA5D32607A1C06
:1018E00087421746F6D336F06FFB0F480460104866
:1018F00000690A21B0FBF1F6761E0CD004AD284633
:10190000FFF7FAFE287820402870F5D109E001247D
:1019100007E0002400E0009C012006A1224613F00D
:1019200047FA204605B0F0BD14480050201006507C
:101930000C800030454550524F4D5F5350492C208C
:10194000466C61736820506167652050726F6772E2
:10195000616D204661696C6564207265743D256423
:101960000D0A0000F8B50092002303221D46102D39
:101970000ED00E46EE40F60707D0009E9E4017465A
:101980009F400468BC43344304609B1C6D1CEEE71D
:10199000F8BD10B58906002203239B060D2A02D04C
:1019A000102A04D105E0046B9C430C430463521CD1
:1019B000F4E710BDFFB50190AF4800230371AF4AB3
:1019C0001068282100910843106001210A2003902B
:1019D0000293184600294FD0002B4DD10446A84849
:1019E00000690399B0FBF1F01168090705D4401EA6
:1019F000FAD10127A048077100E00027D568083D0B
:101A00000320C541182001210A2D33D8AB0002A6BE
:101A1000F6180B46B746C04600F014B800F014B8EC
:101A200000F020B800F018B800F021B800F014B8A9
:101A300000F012B800F00AB800F00EB800F00CB8D0
:101A400000F006B8642000E065209060082002E005
:101A50009168029100213B4614683C25AC43044345
:101A60001460B7E7019890603B462046F4E73B4698
:101A70000098F1E70B46EFE7029803B10020C0B2EF
:101A800004B0F0BDFEB501907B48002404717B4B8F
:101A90001A682820009002430125264602941A6005
:101AA000002D5DD0002C5BD13746754800690A22B5
:101AB000B0FBF2F01A68120705D4401EFAD10122D9
:101AC000EA48027100E00022D86808380324E041A7
:101AD000182601250A2841D8840002A109192C469C
:101AE0008F46C04600F014B800F01EB800F02EB8C3
:101AF00000F026B800F02FB800F022B800F020B8AF
:101B000000F010B800F01CB800F004B800F010B8F5
:101B100064200AE098680199029C0855641C0294AC
:101B2000062C03D20C260AE065209860082606E001
:101B300098680199029C0855641C0294002514467B
:101B400018683C218843F2B20243A8E7002098605D
:101B500014463E46F4E71446009EF1E72C46EFE7B4
:101B60000298FEBDFEB500910290C04800250571A7
:101B7000424B1A68282111430122414E2F460195FC
:101B800019609AB395BB32690A21B2FBF1F2196868
:101B9000090704D4521EFAD10125057100E0002581
:101BA000DC680122083C14D00321CC411821042C0C
:101BB00005D0022C029C13D015460F4611E00646B4
:101BC0000120019C44B100220F46019030462C4E6A
:101BD00007E00827642403E0009C01903046284E6B
:101BE0009C6019683C24A1433943C9E71543E8B216
:101BF000FEBDC046FEB50192009102909B480023B5
:101C000003711E4D28682824044301211C4E1F46E1
:101C100018462C6071B36BBB31690A22B1FBF2F13B
:101C20002A68120705D4491EFAD101238F490B7186
:101C300000E00023EA680121083A10D00324E241C1
:101C40001824042A04D0022A029A0AD00B460BE078
:101C5000019A904207D2009A125C401C01E00827CA
:101C60006422AA6001E0002127462C683C229443AC
:101C70003C43CEE7FEBDC046D89C00300010085063
:101C80000C8000301CB501AC2046FFF70BFD21781D
:101C9000012008401CBD00000020044902462C2AF7
:101CA00002D05050121DFAE77047C04620B00B50CA
:101CB0001CB50C48014666318A886C46A2806622B3
:101CC000805A4988090408180090F848017920468C
:101CD00023F0ACFF51487C3006222146FEF72BFB57
:101CE0001CBDC046C89F0030F0B58FB0044604A8A4
:101CF000001D2821FEF73AFB474800792179B1FB06
:101D0000F0F24243881A02D04448C06E06E04349CC
:101D1000C86E627912B980229043C866410604D524
:101D200048F2000188433D49C866A0263B4FB95997
:101D3000491CB95104ADA871020A6A71000C2871DE
:101D40000491E81D21460FF083FE29460C31042042
:101D500022F0E8FF324833494184B96E324AB1FB80
:101D6000F2F35343591A314A891801840E20012491
:101D7000294622462CF0D4FDB86E401CB866BB59EB
:101D8000009003202AA136A213F012F88020F866F2
:101D900025F0BCFA2048007E68B18120000332495A
:101DA000896A014041F20000814204D1F86E44F298
:101DB00000018843F866B87B012803D12004F96E3E
:101DC0008143F9660394A424A44E30590290374607
:101DD000A43700252846394623F092FF0146029891
:101DE0000FF0FAFCC4217050B4203058029001204A
:101DF000394623F085FF014602980FF0EDFCC8211B
:101E00007050C42C02D03551241DFAE72320174905
:101E1000039A0A540FB0F0BD684F0130509702305A
:101E200040A00030012C000074180000731800005E
:101E30005B4C505D2025733A20544F54414C5F4C0D
:101E4000505F4556454E545F434E545B25645D20BC
:101E50004C505F696E6465785B25645D0D0A000017
:101E60004C505F73617665004C9F0030D89C003009
:101E7000F0B593B0D02279498B5A002B00D1EBE01A
:101E800004900692CC2005900858009003207449D5
:101E9000744A754C0890A047002574492846884725
:101EA000FFF71AFB724C2A462346FEF7E3FCFEF7C7
:101EB000A7FF09AFB8806F4928468847FFF70CFB9A
:101EC0002A462346FEF7D6FCFEF79AFFF8806A49B9
:101ED000284688473881694928468847FD81FFF7A9
:101EE000FBFA2A462346FEF7C5FCFEF789FF7881F8
:101EF00063488068FFF7F0FA2A462346FEF7BAFCEB
:101F0000FEF77EFF37215F4A515C01B90846B88170
:101F100001263046079155498847FFF7DDFA2A46E2
:101F20002346FEF7A7FCFEF76BFF38823046514987
:101F30008847FFF7D1FA2A462346FEF79BFCFEF7B7
:101F40005FFF788230464C498847B8820396304616
:101F50004A4988477D83FFF7BFFA2A462346FEF7A2
:101F600089FCFEF74DFFF8824548006AFFF7B4FA96
:101F70002A462346FEF77EFCFEF742FF079901B989
:101F8000084638830226304638498847FFF7A4FAC6
:101F90002A462346FEF76EFCFEF732FFB883304632
:101FA00034498847FFF798FA2A462346FEF762FC31
:101FB000FEF726FFF88330462F498847388430469D
:101FC0002E498847FD84FFF787FA2A462346FEF705
:101FD00051FCFEF715FF78842948806BFFF77CFAE7
:101FE0002A462346FEF746FCFEF70AFF079901B989
:101FF0000846B884384604990FF02AFD174E059C10
:10200000355921A123A20898174EB047264801460A
:102010002031039A8A7040F23411B5FBF1F34B433F
:10202000591B40F23313C91801840F2039462CF094
:1020300077FC0A490859401C0851D42008580C461E
:10204000FFF736FA0699635A814949790091019060
:1020500017490898034AB04713B0F0BD3C4E013011
:102060000A4A0710D1810710B14D0410555A0510C6
:10207000000059407D5A0510A55A0510195A05103F
:102080005CCA0030589D00305B4C505D2025730DBC
:102090000A0000006C706176675F7265636F72643E
:1020A0005F7772697465000040A00030684F0130AE
:1020B00019370710F0B593B0054640F22410634A73
:1020C000135A002B00D1BFE06248006B1427B0FB0D
:1020D000F7F17943401A05280DD19E205C49085A32
:1020E000042808D840F220101058009003205A49C4
:1020F0005AA212F05DFE02AC44212046FEF736F9EA
:102100000194204629460FF0A3FC57480668002595
:1021100030462946FFF727F95449344600B10C40B0
:1021200030462946FFF71FF908B9384600E0182065
:1021300001990C504C48C66830462946FFF713F900
:10214000344608B14948044030462946FFF70BF9A8
:1021500008B91C2000E0202001990C504248466834
:1021600030462946FFF7FFF8344608B13F4804409F
:1021700030462946FFF7F7F808B9242000E0282068
:1021800001990C503848066930462946FFF7EBF8AC
:10219000344608B13548044030462946FFF7E3F895
:1021A00008B92C2000E0302001990C502E48866898
:1021B00030462946FFF7D7F8344608B12B4804408B
:1021C00030462946FFF7CFF808B9342000E0382020
:1021D00001990C502448466930462946FFF7C3F858
:1021E00008B9344601E0214C344030462946FFF717
:1021F000BAF808B93C2000E0402001990C50242F87
:102200000CD002A9C859CC192169FEF709FA216A34
:10221000FEF706FA103C20603F1DF0E73A20144A12
:102220000121115440F22014084D28595022B0FBCE
:10223000F2F35343181A4F30814A908102A831F0CB
:102240002DFA2859401C285113B0F0BD3C4E0130E6
:10225000684F0130549E00300A4A07104C50727487
:102260005F7361766500000064500130FFFFFF7FFF
:10227000D89C003080B51C2031F06AF948B10021AB
:102280000160416002460C32C9438260C160026154
:10229000426180BDFEB501920446029128B93548DD
:1022A00040F24A1135F0F2FA0299654DE86C40B1FE
:1022B000286D30B140F24A10411D2E4835F0E6FA43
:1022C0000299286D401C286527683E460E4003D0C1
:1022D00038468843206025E0201D0090286D18B9FD
:1022E0002548264935F0D2FA25480268A1680368D6
:1022F000D9618B6805682B6281252D06029F3D43BD
:102300009561026818325A60026818328A60006863
:10231000009981626068401C60600121019830F082
:102320007BFC002737F056FF0EBB38B901200007B1
:1023300045490860BFF34F8FBFF36F8F10480168A6
:102340000268D26A38239A1A8F6900688261B801DC
:102350000AD435F0DBFA276802990F4202D03846DA
:102360008843206035F0DCFAFF20000687433846BA
:10237000FEBDC046A77607108C760710240C00001F
:1023800028530130F0B589B0EFF30582B2B308915C
:1023900007902A4806900124E04305902848856F5D
:1023A00025B9284840F2204135F070FA35F076F929
:1023B0000146EF6BAE6B00200490BE4231D2029119
:1023C000039445202C56A86B05A9284630F0BAFC8A
:1023D000E1B2FF2918D01A48806CA0421FD94535B8
:1023E0007F29039C07D1019140F220418B31154890
:1023F00035F04CFA0199481C287011E009B0F0BC86
:1024000004BC964637F06CBB686A039C40B1286BED
:10241000C06837F089FE029918B1049401E0039C6A
:102420000299084680F31088BE4204D2049810B185
:1024300020070549086009B0F0BDC046DB780610EA
:10244000D89D00300F76071004ED00E0BCB51446AF
:102450000546002000909AB208462946234637F0E8
:10246000A7FC012800D1BCBD03A03221BCBC04BC28
:10247000964635F00BBAC0467372632F4170702FC9
:102480007379732F6F735F777261702F6F735F77DC
:102490007261702E63000000000000000000000068
:1024A000284B1868264B1968EFF3098278B107B5F5
:1024B00037F02CFF0FBC9E46590608D5204B1968F3
:1024C0000C3A0A60EFF30B8173460BC20CE01C4B15
:1024D00019682C3A0A60EFF30B817346FBC244463D
:1024E0004D4656465F46F0C272B635F01FFB62B6E7
:1024F000134B19680A6813CA81F30B88A646114B5F
:10250000186058B10E4B196814B437F005FF14BCAD
:10251000A646610602D582F3098870471032F0CAD8
:10252000A046A946B246BB4682F30988203AF0CAC3
:102530007047C046C046C046C046C046C046C046BA
:1025400028530130FC970230F0B585B00E464007A5
:1025500000D51646B16947A037F0F2FFB5692C885F
:1025600049A039F0F7F84DA0214637F0E9FF51486E
:10257000844203D16A4839F0EDF84CE0200B05287D
:10258000049516D107272740E005420F0392A006C5
:10259000450F624839462B4637F0D2FFA800305825
:1025A0000399890071580818B90071580091019079
:1025B00027E04EF20001214046F20002914208D18C
:1025C00007252540A006470F6005C30E0393524818
:1025D0000BE009283ED0082849D107252540A00650
:1025E000470F6005C30E03933DA029463A4637F0D6
:1025F000A7FFA8003058B9007158039A89180090B5
:102600000191200501D5344B00E0324B0499334849
:10261000224637F095FF43480168D1B10020542885
:1026200017D00A46C240D20701D1401CF7E781000B
:102630003D4A51583D4A145C3D4D601942683D4841
:1026400037F07EFF605980003B4909583B4837F01E
:1026500077FFFEE7E5B26005470F17A039462A4627
:1026600037F06EFFB8003058B1694919C7E724A0A8
:1026700081E7C046486172644661756C74204020F1
:102680003078253038780A00486172644661756C8C
:102690007420416E616C797369733A00496E73748A
:1026A00072756374696F6E20636F6465203D2025C9
:1026B000780A0000ABBE00004C4452482F535452DD
:1026C000482072743D257820696D6D383D25780A63
:1026D00000000000A6710710F47007102E620710AA
:1026E0004C4452482F535452482072743D25782050
:1026F000726E3D257820696D6D353D25780A0000A4
:10270000556E657870656374656420696E73747264
:10271000756374696F6E00005C6207107962071060
:10272000C979071030F10240F0B90610D8B9061087
:1027300000F00240BC62071044BA06104E62071057
:10274000B0B5144840F22C110167134D0124EC7709
:1027500010F012FB1148052141732EF0C7FF6D20C8
:10276000295C09B100212954032014F0C3FC204640
:1027700012F01AF90A4D00202860642035F09AF909
:102780002C60042014F0B6FC2046B0BC02BC8E467F
:1027900012F00AB9A0860130D89C0030684F013091
:1027A00044480050FEE70020704700000000000091
:1027B00004207146084203D0EFF30980044A104711
:1027C000EFF30880024A1047C046C046C046C046E4
:1027D000D57906100121C905C3B2064A0A2B04D1D6
:1027E00093690B42FCD10D23136093690B42FCD11A
:1027F0001060704700000750F8B50C4800690A21C6
:10280000B0FBF1F601270024761E08D06D4628465D
:10281000FEF748FF287838402870F5D104E00448D6
:1028200038F098FF0020C4432046F8BD0C800030EB
:10283000D362071010B534F031FF044637F0EEFBD9
:1028400018B10120000704490860204610BC02BCF2
:102850008E4635F03FB8C04604ED00E010B5FDF7F8
:10286000F8FCC00011D40B485921162288230160BE
:10287000026003600468002CF9D0074841F20001AF
:1028800001600169054A0A43026105480549016082
:1028900010BDC04600010040F40100400040F0FFC0
:1028A00008ED00E000000310012000F00DB800204A
:1028B00000F00AB8022000F007B8042000F004B8C5
:1028C000032000F001B8000070B58100154A54588B
:1028D0006168C9071DD0E169C9071AD04421414385
:1028E0000F4840188568C1680269836B26685E5589
:1028F0006D1CB5FBF2F65643AD1B8D4204D08560CE
:10290000E669F607F2D101E001210162806A00B1B7
:102910008047A1697120014200D0A06170BDC0460E
:102920003C87013068BE0610B0B50C46FEF795FD39
:1029300005462046FEF791FD0146FEF78BFC044656
:1029400028462946FEF786FC2146FDF769FEB0BC05
:1029500002BC8E4634F09CB980B584B002900191DF
:10296000019820B1FFE7404900200860FFE7029886
:102970000078302842D1FFE702980069F0B3FFE702
:1029800002984069D0B3FFE702980069A8B3FFE757
:1029900002980069406978B3FFE7029801693348FB
:1029A0000160029909694969314A116002994969CE
:1029B000304A11600068007806281CD1FFE72B48D8
:1029C000006880682C490722FDF7FCFC98B9FFE7F6
:1029D00027480068007806280DD1FFE724480068E2
:1029E000806826490822FDF7EDFC20B9FFE7214861
:1029F0000068039035E0FFE7FFE7FFE71A4800684B
:102A000020B1FFE71848006803902AE002980069A7
:102A100080B1FFE7029800690021FFF79DFF0146A2
:102A200011480160006820B1FFE70F48006803907B
:102A300017E0FFE70298406980B1FFE7029840691C
:102A40000021FFF789FF014607480160006820B1B7
:102A5000FFE705480068039003E0FFE700200390CC
:102A6000FFE7039804B080BD34BA003028BA0030C4
:102A70002CBA003030BA00306A84003071840030E3
:102A800080B582B00190019808B9FFE70EE0019887
:102A900002210EF0BFFA0198603007210EF0BAFA59
:102AA000019838F0ADFD00200190FFE702B080BD35
:102AB00083B0014601A801700178302001406846CA
:102AC00001700078102803D1FFE70120029014E084
:102AD00068460078202803D1FFE7022002900CE02E
:102AE00068460078302803D1FFE70320029004E015
:102AF000FFE7FFE700200290FFE7029803B070476E
:102B0000F0B597B014460E4605461088009003278E
:102B1000FAA1EC4A38462B4612F04AF92846A13869
:102B200001231D2862D8810001A251188F46C0469A
:102B300000F03AB800F08EB900F08CB900F08AB914
:102B400000F088B900F0A3B800F067B800F061B8F1
:102B500000F05FB800F05DB800F05BB800F0CFB8EF
:102B600000F057B800F055B800F053B800F051B875
:102B700000F04FB800F04DB800F04BB800F049B885
:102B800000F047B800F045B800F043B800F041B895
:102B900000F03FB800F03DB800F03BB800F039B8A5
:102BA00000F0DBB800F04DB8059304200090032539
:102BB000DF490B27284632463B4619F0D3F8D9495E
:102BC0002F3130463A46FDF7FDFB21880B3121803D
:102BD000002800D110E1B07A0328059B00D139E12B
:102BE0000120D449D44A12F0E3F832E18B2D00D110
:102BF000DCE08A2D00D1BCE0802D0AD1307880281D
:102C000000D027E103203056002800D525E102231B
:102C100020E12088401C20801CE17278EB48812A4A
:102C200000D1EBE0822A00D0EFE082214170A721A1
:102C30000170B178F278C27081700802821804279E
:102C4000E7E023883078052700210491BE28059706
:102C500000D027E17578B94FB86E00900320B8A175
:102C600003902A4612F0A4F82388E818801CB96E55
:102C7000884200D015E13079012800D011E1707947
:102C80000125002800D1EBE004952F460AE1707879
:102C90000A2867D1B078042864D1F078082861D177
:102CA0003079717909020818B1790904F2791206AC
:102CB00051180818F17AB27A337A777AC74D3F0201
:102CC000FB18120409068918C918A862E962802055
:102CD0000090321D0127C24908263846334619F0B4
:102CE00041F8FC48006D28352946324623F0C1FEE4
:102CF000002800D1B8E002460120BA4935E005932A
:102D00006827A54DEB5D72780320A449049212F068
:102D10004FF8E85D01281CD1F77806AD6F700320ED
:102D200003909F493A4612F043F8AD1C361D2846E1
:102D300031463A46FDF7FFFA9A4831463A46FDF7E2
:102D4000FAFA0420009098A103982A463B4619F00D
:102D500009F82088049908184CE02088401C20803D
:102D6000092377E002209C49734A12F021F80B23D3
:102D700070E01D46707802280CD1B1780220072936
:102D800008D1F178802905D103208E49012212F063
:102D90000FF87078831C2088C018208004200090D1
:102DA00002208949324618F0DDFF52E0059375781C
:102DB000032080492A4611F0FBFF072D18D104207B
:102DC0000090B61C03207C49072732463B4618F08A
:102DD000C9FF7A49283130463A46FDF7F3FA38B947
:102DE00068206D4901220A540320754911F0E0FF63
:102DF00020882818801C2080059B2BE081214170B1
:102E0000A7210170B278827003E04270A72101709F
:102E100002276E4DE819F1191646FDF78CFAF019E4
:102E200021880918218004210591009183B2022094
:102E300067492A4618F096FF0125284634F03AFEE5
:102E400020880097019063493B4A0598334611F06A
:102E5000AFFF2B46184617B0F0BD2088001DDAE6FC
:102E6000F07930B1092005E020880C3020803B4605
:102E7000F0E70820315C062902D20227049511E010
:102E8000471CF15D5F290CD1F1194A78042A1BD047
:102E90001F2A06D18878042803D1C878002838462C
:102EA00014E0059F581C208004202FA1224A3B4695
:102EB00011F07EFF04980028059BCBD03548C35DF8
:102EC000C8E7C0461486071089780029059FE9D114
:102ED00004270490384330180EF0C6FC20B3049841
:102EE000C01D31184978325C12025118491E2388DE
:102EF0000B29C3D31B180027C0E7C0465B414152D2
:102F0000515D2025733A2041415251205441475B85
:102F10003078253032585D2C206964785B25645DFB
:102F20000D0A00000C80003023880495039FB9E748
:102F30002E6B07102129071014860710D09E003031
:102F40006C656E5B25645D2C202A705F6F5F696421
:102F5000785B25645D2C206170706C5F6C656E5BC6
:102F600025645D0D0A0000005B414152515D202542
:102F7000733A204153534F5F555345525F494E4674
:102F80004F524D4154494F4E2072736C745B25640F
:102F90005D0D0A0060BE0610D89C00303F4507104A
:102FA000A040071058A30030414152515F52414E9A
:102FB000444F4D007E4207100A6B07100C80003012
:102FC00048450710BE4207103E7307107886003050
:102FD000C98A0710664907100929071040A0003068
:102FE000147E07108F4F071010B50324044905A263
:102FF000204611F0DDFE3620C5490C5410BDC046F8
:10300000452007106166655F696E69745F7374615E
:1030100072740000FEB504462D4F3D185A200290F0
:10302000285C2C4EB36A0090019403202AA13A4AEE
:1030300011F0BEFE042C24D30123B06A5D21795C1B
:103040008A0701D55C06A043CC0701D01B06984334
:1030500002B1B062029ABA5C10420CD15B22BA5C37
:10306000030A134207D15C22BA5C030C134202D15B
:10307000000E08422BD003202949274A11F098FE60
:1030800020E0032C10D101221248806A5D217B5C74
:10309000990701D55706B843DB0701D012069043C4
:1030A00021B10C49886201E00A48806AE100C84009
:1030B0000299695C08420AD0C3B203201749164A34
:1030C00011F076FEFEBC01BC864611F035BEFEBD99
:1030D000C89F00304C9F00305B475245515D202512
:1030E0007320574D5374617475735B25585D2020B0
:1030F000636F64655B657272636F64656964785D54
:103100005B25585D20657272636F646569645B2539
:10311000585D0D0A000000008B8A0710F118071097
:103120009618071080B5032009490AA211F040FE45
:103130000E480F4901220A540E4A0020885443F6D3
:1031400000720A6080BC02BC8E4611F0DFBCC04633
:10315000975D0710616D695F6174636D645F67659A
:10316000745F626561726572000000000C0400000B
:10317000D0FF003004040000F8B52024644D285D21
:1031800001280AD103206749114A11F011FE0020DD
:1031900028551048407B2AF06FFE7825F54E705D6B
:1031A000012813D17927F05D009002200A49084ACE
:1031B0000124234611F0FCFD00207055F05D84438E
:1031C0002046F8BC02BC8E4635F008B8F8BDC046B3
:1031D000B2770710684F0130F5440710F0B585B09D
:1031E000032545A147A2284611F0E2FD2620484FBD
:1031F00000243C5420203C547820464E3454464809
:1032000004610FF005FC2EF071FA7A203454434823
:1032100040F26841FDF7AAF8414840F26841FDF7E5
:10322000A5F8404940A2284611F0C2FD6F20345451
:1032300070203454E8433F498A070A4601D00A1DEA
:103240000240354EF2623C4D4A19930703D040F2DA
:10325000E0528A18024039484261FC74BC763C73E3
:10326000374804604460462001A922462BF058FBF1
:1032700030B134484A3001A90D22FDF75CF812E064
:103280004A213048304A42524B304421C1713421E6
:10329000817143214171332101714221C170322179
:1032A000817041214170472001A900222BF038FB99
:1032B00030B12448573001A90D22FDF73CF807E052
:1032C0005720204908220A542048214A8A65C865A7
:1032D0001C482049016331305321C1714F21817154
:1032E00054214171552101714121C170114840198A
:1032F000706605B0F0BDC0465B434F4D5D20257341
:103300000D0A0000616D725F696E69740000000053
:10331000589D0030D89C0030D09E0030A80E01305F
:10332000400A0130975D07106170706C5F696E69CB
:1033300074000000D4880130DC050000C89F003014
:10334000BC50013034A10030083100003747384804
:1033500035453646084A4E44B0B50146EB4D28691E
:1033600048B1054A926832B96A6983B2002420469E
:1033700013F01CFE2C61B0BDA08601307CB50C465C
:10338000064603206EA1754A334611F011FD304602
:10339000A1380025092825D8810001A251188F469F
:1033A00000F012B800F05BB800F04EB800F036B88C
:1033B00000F02AB800F099B800F097B800F095B87E
:1033C00000F093B800F056B880492F310A22204609
:1033D000FCF7B1FF0120A072042000900220884970
:1033E0000B257EE0BE2E68D0892E5BD0882E7CD146
:1033F0008020E0700720A07002206070882121707A
:103400000425009581496CE067484178812974D092
:10341000822975D1408840BA001D72E06B48014690
:103420003A316B4A136B526B0A81C387100C488187
:10343000180CC8800C2520462A46FCF77CFF80200B
:103440000090012063A14CE06949072520462A46E7
:10345000FCF771FF042000900220664941E06649B4
:10346000052520462A46FCF766FF0420009002202E
:10347000624936E02025E5708026A6702220607023
:10348000AA202070201D424C403421462A46FCF7D9
:1034900052FF009601203FA122462B4618F062FC05
:1034A000242522E05749092520462A46FCF743FFF8
:1034B000042000900220544913E029A1122520463F
:1034C0002A46FCF738FF75202A49085CE07276200E
:1034D000085C20737720085C607304200090022051
:1034E00025A122462B4618F03DFC032048491B4AE3
:1034F0002B4611F05DFCA8B27CBD8078C01C00E0BA
:10350000881C2A4EF071010AB17185B2281DF07035
:10351000000AB0703046083023492A46FCF70BFFFA
:103520000835204631462A46FCF705FF84200090E6
:1035300001201FA122462B4618F014FCDBE7C046F1
:103540005B4150504C5D2025733A20414152455B10
:103550003078253032585D0D0A0000002B860710A8
:10356000BE10040E0800065F1F04000000003AB3FE
:1035700000070000D89C0030524553505F5553451A
:10358000525F494E464F524D4154494F4E00000044
:10359000F8A200302D2D3E205478205365727665B8
:1035A000722052414E440000748000307C84003010
:1035B0002D2D3E2054782053657276657220436528
:1035C0007274696669636174650000000C80003084
:1035D00040A000302D2D3E20547820536572766532
:1035E000722053797374656D205469746C650000A2
:1035F000F4C50610A16C0710FC1407101E6A071012
:10360000296B0710FCC50610156B0710B570071065
:10361000FD480710B0B57349CA6E135C22243D4DB6
:103620002B55121853780C467434E3709378A370BA
:10363000D378637012797423CA54401DB0BDC0465C
:1036400010B503240CA1204611F0B2FB654AD06AE4
:103650004471012101710E21C17000218170E721A7
:103660004170E6210170072111620222827110BCB3
:1036700004BC96460FF058B95B4150504C5D205346
:10368000657276696365204572726F720D0A00007B
:10369000F0B585B01B4C207922211B4E705430466A
:1036A0002230E17841701948C06E194D6035411DD6
:1036B00006222846FCF73FFEE07A16498877032465
:1036C00015A11A4F2046B847728C19A12046B84759
:1036D00060200F490A5C6B78A878E9782E796D79BB
:1036E000009001910296039515A12046B84709481C
:1036F000827F1AA120463B4605B0049CA646F0BC3A
:1037000001B01847D4880130D89D0030D09E0030D9
:10371000C89F0030589D0030434F53454D204F62A5
:103720006A656374733A0D0A00000000B14D04101D
:103730002D20434C4153533A2025640D0A000000CC
:103740002D204F4249533A202564202564202564CA
:103750002025642025642025640D0A002D20417455
:1037600074726962757465733A2025640D0A0000ED
:10377000BCB50C460546009101200CA114A22B46B5
:1037800011F016FB174AD06A0571D821C1700021CB
:103790008170E7214170E6210170062111624471B8
:1037A000BCBC04BC96460FF0BFB8C04625733A2097
:1037B0006572725F73746174655B25645D2C20654E
:1037C00072725F6E756D5B25645D0D0A000000000E
:1037D0006170706C5F657863657074696F6E5F723D
:1037E00065737000D09E0030F0B5FFB0AEB00746F4
:1037F0006E22FC4800248454FB4DFC49AF66E96608
:103800006F26835D002B49D06620F94F3C54F87F2A
:10381000FE210140042969D10B940C922C4603250A
:10382000F4A1FB4A284611F0C3FAA36E04240094C5
:10383000F8A1EE4F28463A4618F094FAE94DA95DF2
:10384000C81E022800D2A1E0481E012801D900F0BC
:1038500035FD3B7871242B55B878722168547978FE
:10386000E34A1175009101900320ED49E84A11F0F7
:103870009FFA285DC3381C280B9C00D969E20121FE
:103880008140E84A114200D177E1012003217FB055
:103890002EB0F0BC04BC9646FFF76ABF0A96D44827
:1038A000C07FFE210C910840042854D104240094C8
:1038B0000325DD492846CD4A3B4618F053FADB493B
:1038C000DB4A284611F074FAC8490878602800D00D
:1038D00022E14E78812E00D14BE1822E00D054E1BE
:1038E000A394C878897809020E1850E10A2420466A
:1038F00013F084FC0021CF4A204613F039FC18F065
:10390000FBFC02F0D9F86B680320CBA1C04A11F090
:103910004FFAF87F052816D1B248805D032812D3EC
:103920000F24204613F06AFC0021CC4A204613F0F5
:103930001FFC18F0E1FC02F099F8AB680320C849BD
:10394000B34A11F035FAA9487FB02EB0F0BC02BCE2
:103950008E4601F0DDBA0320B449C24A11F028FABC
:10396000A2490878602800D0DEE00B944F7803204D
:10397000BD49BC4A06463B4611F01AFAAC6EB81C6B
:10398000A04200DCE7E00120B849CFE03878712799
:10399000E855032908D1C838172805D801218140E6
:1039A000B348014200D0AC550A25284613F026FC46
:1039B0000021A04A28468B4D13F0DAFB18F09CFC3E
:1039C00002F07AF8884C63680320AAA1904A11F0AB
:1039D000EFF98748C07F052817D1A85D032814D3C5
:1039E0000F25284613F00AFC00219C4A28467D4DED
:1039F0007D4C13F0BDFB18F07FFC02F037F8A36894
:103A000003209749824A11F0D3F9E85D0146C8398D
:103A1000022900D28CE0CB2800D189E0DF2800D039
:103A2000D9E036F07FFC80260096704C621C0320A3
:103A3000994915230A9218F095F96078002801D069
:103A400000F030FCA078082801D000F02BFC009694
:103A5000924F2837032492A1082520463A462B4648
:103A600018F080F9009661480B96C61C8E492046D6
:103A700032462B4618F076F9384631460B9E5B4CA1
:103A80002A46FCF79FFC002801D000F00BFCE07AEE
:103A9000082801D000F006FC0096804C3034032545
:103AA00082A10827284622463B4618F05BF900967B
:103AB0004E4E0C367C49284632463B4618F052F9A9
:103AC000204631460B9E494C3A46FCF77BFC0028C9
:103AD00000D0E7E3207D002800D0E3E3607D0028EC
:103AE00000D0DFE30DAD3746152628460A99324649
:103AF000FCF721FC009703206EA12A46334618F0FC
:103B000031F9A07D822800D155E3812800D059E306
:103B1000364CE07D182657E301206949444A11F0EC
:103B200047F90A20304DD7E0012065494D4AD0E0E1
:103B30002E480DAA014618F04DFC002800D1B9E32B
:103B40000DA80088A0665F48416D491C4165274863
:103B500001F0DEF9B2E3002F40D0244988788028B4
:103B600000D092E105200856002800D5E6E10220A9
:103B7000B2E0A3958E782C4609E0002800D0E8E05A
:103B800000F02CFD4F48446598E30224A394164DA1
:103B900003203549264A334611F00AF9A019A96EC7
:103BA000884202DD0120314992E0002E00D18DE0F3
:103BB0000A220124A399B14200DB6DE10B4A505C5B
:103BC0005118BE2800D162E1A3AAFEF799FF01288F
:103BD0002246EFD080E0012003216DE301203A4925
:103BE000A4E7C046D89C0030D09E0030D488013075
:103BF000589D003025733A206170706C5F636F6E62
:103C00006E5F73746174655B25645D0D0A0000006E
:103C1000367C0710415044555F5345430000000077
:103C2000542F0710600100109A690710455D0710B6
:103C30004877071000DD6D0025733A2054494D4543
:103C400052205354415254202D206173736F5F31C1
:103C50005F32202564207365630D0A00E093040041
:103C6000E54D0710A37707101E5207102F570710B6
:103C70000B00800025733A2054494D45522053547F
:103C8000415254202D206173736F5F335F342025C0
:103C900064207365630D0A00B872071040A00030FD
:103CA000535953545F4F0000F8670710535953544A
:103CB0005F5200005349474E5F4D53475F3100004C
:103CC000EC2807104C9F0030C25B07100120EB4925
:103CD000EB4A11F06DF80A200B90C4B20320E949B9
:103CE000224611F065F8FD48C07F0C990840042871
:103CF0002DD10A2C2DD0274600242C620320F84910
:103D0000F84A3B4611F054F82E6AEB6AE6209855C3
:103D100098190C9484703C46E7214170F01C28628D
:103D20000C2F5BD80121A14041F2C012114255D0A5
:103D30001D461F18EC49202438462246FCF7FBFAA2
:103D40000B99881FC0B203283AD30C9839E00A2C8B
:103D500006D17FB02EB0F0BC01BC8646FFF770BC28
:103D60002F4600253D620320DD49E04A234611F03D
:103D70001FF83E6AFB6AE620985598198570E7217E
:103D80004170F01C38620C2C66D80121A14041F230
:103D9000C012114260D00C931C18D3492027204632
:103DA0003A46FCF7C8FA0B98801FC0B2062801D823
:103DB000CF490D5CE5552436CE4806620C9805E0E7
:103DC000481F38552436CB480662284631467FB016
:103DD0002EB0F0BC04BC96460EF0A6BDA1200DAEE0
:103DE000C54D3146A84707463118A2200B90A84779
:103DF000C719B8B23118A320A8473F18B8B2311874
:103E0000A420A8473F18B8B23118A520A8473F18EA
:103E1000B8B231188820A8473F18B8B231188920A5
:103E2000A8473F18B8B23118AA20A8473F18B8B21F
:103E30003118BE20A847AF49CD6A0B6A6121E95409
:103E4000381886B2320A591C002A6FD082276F5464
:103E5000991C02230C936EE01F461D18A7492B22C4
:103E60002846FCF768FA012C00D10FE101216974A2
:103E7000042C00D1FCE00220032C00D105E1022C2F
:103E800000D001E1A2212975FFE0022757E0BE2002
:103E9000A3AAFEF735FE0246D4B21646012C01D085
:103EA00097A000E098480090032098498A4A23464A
:103EB00010F07EFF012C304600D00DE70DAC20261F
:103EC00020460B943146FCF751FAA5AD2846314601
:103ED000FCF74CFA7B200022214609922AF020FDB3
:103EE00000968B4F3C4608340520214640F2F412E0
:103EF0002B460DF099F80B9829463246FCF762FAEA
:103F0000002800D13DE2834828F02CFA824D284653
:103F100028F028FA2846214640F2F41228F02AFA1E
:103F2000002800D11AE17D49724DD7E1812E33D3AB
:103F300001220C9281226A54491C2FE00627C819DD
:103F400077490B22FCF73EFA0028304600D0C3E642
:103F50000B370720C2437349C85DC919A74207DA66
:103F60000346AA3B934203D348783818871CF2E7EC
:103F70000DAA0B9C14708A2844D148780025022889
:103F800043D18A78072A40D1C9788029654A3DD132
:103F90000DA901250D7039E000220C9268544F1CC8
:103FA000E8190DA93246FCF7C6F9B819514E30622E
:103FB000012C16D10124204633F07CFD336AF26ACD
:103FC000042000900220584917F0CCFE316AF06AB4
:103FD0000EF0AAFC554A0A9814547020002111547E
:103FE00072E00C98281801220275042C42D002219C
:103FF000032C404D00D1A0E0022C00D09CE00B9A95
:10400000C2759AE02546474A03E0464A3818871C9D
:10401000D05D0DA909914C70D119AC2823D08B2803
:1040200000D0A8E04C780020072C064609D1881C57
:104030003F490722FCF7C6F93A4A0028304600D12A
:10404000012039198F1CD15DAC2900D092E0D11923
:104050004E7848B1CC780DA84470801C091D2246CA
:10406000FCF769F901E04E780024F019871C82E022
:104070000D200AE00D211F4D5FE0C046C25B071016
:1040800048770710BC450710084628767520274A50
:10409000105C242168547620105C25216854772018
:1040A000105C2621685415462E36124806623846A2
:1040B00031460EF039FC012C00D0FFE001200A99B6
:1040C00068547020002129540448C174817601731A
:1040D000184801604160F1E048770710589D0030B2
:1040E000AB450710AD670710A8C50610946B071005
:1040F0008ABA0610D09E00307D3303107CC50610AE
:104100004661696C000000000B8C0710685D0710A9
:104110007886003038BA00305C850130665B071065
:10412000E9C50610D4880130996B0710D89C00307F
:1041300034E40610BC5001301146C176012033F042
:10414000B9FC2B6AEA6A042000900220F74917F0B4
:1041500009FE296AE86A0EF0E7FBAFE0F448F5498A
:1041600040F2F41228F006F90028F74D00D1A8E03B
:10417000F149B3E0344600940326F049F04A304652
:104180002B4610F015FE7DB174B10998451CF0481E
:10419000C07F032800D1AFE0022800D1AAE00128A7
:1041A00000D0D5E00120A8E0E948C07F0028E74919
:1041B00000D0D6E0AFE0E54C207EE17D0902081892
:1041C000192601E01726E14C0990A7190DAD0A95B3
:1041D000153584B2284639462246FCF7ACF80B98D0
:1041E00000900320DDA12A46234617F0BBFD069769
:1041F000385D3519691C00940791019102900520E2
:104200000890D949D94A0596334610F0D1FD0B984C
:10421000009041350120D649CC4A2B4617F0A2FD2B
:1042200033F058FACC48066DA5AD2027284639460C
:10423000FCF79CF800970998153082B208980A9903
:104240002B460CF0F1FECB4D08B1AD1C25E03746F6
:104250000B94C9480221002632460CF05FFEE0B9FB
:10426000386840242030009601A951C10496C24804
:104270000221324633460CF071FE70B9B34E0798F6
:10428000301800900194BC48A5A92022012423469F
:104290000CF098FE002800D1D2E00120B7492A4650
:1042A00010F086FD0120B649B04A10F081FDA8202B
:1042B00022F02CFF02200521FFF75AFA7FB02EB022
:1042C000F0BD099A02920192A4A80090B348B249A5
:1042D000134628F043FC002848D0B1490120B14AD8
:1042E00010F066FDAC4827F0B7FFAC4827F0B4FFEC
:1042F0000C20F1E4022000E0032029460DF04AFBE7
:1043000030B30120C00700900320A0490D232A46A6
:1043100017F028FD8D49C85DBD288B4D24D034464B
:104320000523BE281E4600D0ECE0C8194178791854
:10433000891CAA6E91421E4600D0E3E00179012952
:104340001E4600D0DEE04179002974D00126D9E074
:104350000120C007009003208C490D232A4617F046
:1043600001FD0420FFF7DEFB0920B5E47B20A5A9B1
:1043700001222AF0D5FA884827F06EFF874827F0F7
:104380006BFF3B7A787AB97A0090019103208649D5
:10439000864A10F00DFD4025A4950DAAA4AB204639
:1043A00040F2F41121F0A1FF18B10246012080492A
:1043B00012E08026009601207E49224640F2F41346
:1043C00017F0D0FC644C206DA49A0DA922F008FBD4
:1043D00038B102460120784910F0EAFC5A4D01201C
:1043E0007AE403207549764A10F0E2FC206D7549A5
:1043F000202222F01CFB18B102460120724911E074
:104400000096012071496F4A202317F0ABFCA59557
:10441000206D6F49A5AA22F0CBFB0028DED0024612
:1044200001206C4910F0C4FC474D01206A495F4AE5
:1044300010F0BEFCD3E70B93C07960B309202BE0EA
:1044400033F048F9E007009003204E49069A0B9B91
:1044500017F088FC0598305CC838172800D92DE77C
:10446000214681403B48014200D127E737490DAA48
:10447000069817F0AFFF33490C9A8C54002800D1EE
:1044800018E70DA80088304988663349486D401CFC
:104490004865FFF75CFB0820C0192C4A115C06290F
:1044A00002D202260B9B2DE011184A785F2A0B9B43
:1044B0001E4627D18A78042A0CD01F2A0B9B1E4641
:1044C00020D1CA78042A1E461CD109790526002964
:1044D000E8D104E0C9780B9B1E4699B904261B4914
:1044E00089190F1838460DF0BFF92646164D0B9B5B
:1044F00040B13879F97809020818401E0B2811D309
:10450000002010E0032022491F4A1C46334610F0C9
:104510004FFC2046042E01D9FFF7DEFB1D48805DCD
:10452000FFF7DAFB01208600BCE7C046996B071055
:1045300038BA003076820030875B07108941071057
:104540005D830710D89C0030D09E0030D4880130A5
:10455000589D00300B0080004C9F00305349474E5F
:104560005F4D53475F320000B5410710D68A0710F0
:104570008087071007030000A98A0030B94E071092
:104580009F210710266D0710A3770710626D071093
:10459000D645071060BE061038BA00305C85013081
:1045A0001158071011800710642E0710B08B0710E8
:1045B0005B500710F77F071085500710975D0710B5
:1045C0001E81071058A30030034F0710566A0710CA
:1045D000D8C70030BB4F07105F210710F0B58BB074
:1045E000E64D0026AE757120E54F385CC32859D0E2
:1045F000C12834D0C0285FD10324E2A1204610F0A6
:10460000D7FB287D022859D0012800D082E003245E
:10461000E149204610F0CCFBE149E04A204610F089
:10462000C7FB01200A906875FFF732F8FA48007B53
:10463000002800D1C3E0F948816E0A460D3AD6B28F
:10464000142E00D314262C460D2900DC00263D46EE
:10465000C16E0D31F2483246FBF76DFEB1E003202A
:10466000F0A110F0A5FB00200A90E874287D032833
:1046700075D0022852D0012800D094E00320EEA18A
:1046800010F096FB01206875FFF702F8E348806E92
:104690000C2804DDE048007B002800D15BE2042008
:1046A000A87584E00320E8A110F082FB0BB0F0BCF9
:1046B00001BC864601F026BA0BB0F0BD0320E7A18D
:1046C00010F076FB02206875D448816E072970D1FE
:1046D000D149CA7812060B791B049A184B791B0230
:1046E000D21889795218016F8A4200D0ABE029793B
:1046F000012900D035E2036ADC48808B012100905B
:1047000001910320DA49DB4A10F052FB002003F04C
:10471000E9FE9EE0AC75012068759AE02C46032501
:10472000D5A1284610F044FBFEF7B2FFBA48007B43
:10473000002800D084E00D20FEF76CFF0646B74F3E
:10474000B86E864200DB2DE100F030FC002800D17D
:104750004FE265750220A075786F386727E1032561
:10476000CBA1284610F024FB2846FEF753FFAB49A7
:104770008A6E904260DA4A6F8B6F0A679A4200D065
:10478000CEE023230026A14CE654521C8A674A6DD2
:10479000521C4A6522219D4A515C01B9022565756A
:1047A00009F0C6FC04E10420A875012068752C46B8
:1047B000FEE0012169710721A975016F47E02C46D0
:1047C0003D46A6730327B6493846324610F0F0FA44
:1047D000A37B3BB10A98C00700900320B1A1904A87
:1047E00017F0C0FA8D48806E0B280ADC0320874C36
:1047F000A0750120AD49874A10F0DAFA2F46254608
:1048000027E000F0D3FB002800D18DE0064601240C
:10481000A749804A2046334610F0CAFA652E00D1D7
:1048200002277A4EB775A34920467A4A3B4610F0D4
:10483000BFFA2F4635460CE001200867734C6575BA
:104840000420A075B4E001226A710622AA75491CF1
:10485000016766200A90285C8006C00FAB7D00903F
:1048600003209549954A10F0A3FA6C4EF16AC420D2
:10487000C87000248C70E7204870E6200870687DBE
:1048800008717222BA5C4A7102280FD16879887166
:10489000304670303063C278CA7182780A724078CC
:1048A00048727020305C88720B2700E00627A87DD4
:1048B00038B10120C855A87D082806D880490D5C6C
:1048C00004E00020C855306A10E0FA2500900195F8
:1048D00008B17C4B00E07C4B03207C497C4A10F003
:1048E00067FAF16AC8194570B81C484DEA7FFE2383
:1048F0001340042B464B10D10A9AAA5C92060BD4A3
:104900006F229A5C042A08D173229A5CFC2313401C
:10491000083B5C425C4100E0012482B2204614E185
:104920003A4CA575657543E086206A4E305C0028D8
:104930002F46364D00D149E1E87C002800D114E132
:10494000654C25465435654E31466631062228466B
:10495000FBF7F1FC6620305C414241414900A971FE
:104960002A4D202109915B4A5156002900D477E154
:10497000002800D170E17F206FE1C046589D0030D3
:10498000D89C00305B4150504C5D204765742052EC
:1049900065710D0A00000000105B07106F8407109E
:1049A0002D5D07100120386765750420A075184F2C
:1049B00066200990205C8006C00FA37D0090032034
:1049C0003D4947A210F0F4F9144EF16AC520C870B1
:1049D0000A988870E7204870E62008702546607DB8
:1049E00008717222BA5C4A71032800D180E0062265
:1049F000022800D182E0012800D08EE0A87D01F0DD
:104A00000BF8F16A8871072287E0C046589D003094
:104A1000D89C00306F840710D4880130D09E0030BD
:104A20008CA200305B4150504C5D20536574205285
:104A300065710D0A000000005B535245515D204E28
:104A40006F726D616C0D0A005B4150504C5D2041EE
:104A50006374205265710D0A000000005B475245E7
:104A6000515D204E6578740D0A000000D89D00301D
:104A7000731B0710C48307105B535245515D2042DE
:104A80006C6F636B2046697273740D0A000000003E
:104A90005B535245515D20426C6F636B0D0A000001
:104AA0004542071053454C414353000078570710C7
:104AB0007E450710EA4207108F350710F888071067
:104AC00081BA0610928B07100B8C07105E450710F9
:104AD00012880710684F0130BCA00030C89F00301A
:104AE0006170706C5F7365745F7265737000000055
:104AF000A87D00F091FFF16A88710722304670307E
:104B00003063C3788B548B1887785F7040789870C7
:104B10007020305CD870121DEA4FE87FFE230340FE
:104B2000042B11D10998285C80060BD46F20385CC7
:104B3000042809D17320385CFC230340083B584209
:104B4000584100E001200A900A980BB0F0BC08BC64
:104B50009E4600F0B7BD00F029FA00285FD0022081
:104B60009EE5002003F0B6FD73E60A98E874032082
:104B7000D949DB4A069010F01BF93920395C491CF1
:104B8000CAB2132A00D900213954D64F5437D64C13
:104B90002146663106223846FBF7CDFB6620205CB5
:104BA000414241414900B971C84FB90702D03F1D88
:104BB00006998F432021099171560029C94A00D4D2
:104BC000CFE0002800D1C8E07F20C7E08820C1499D
:104BD000085C0007800F00D1AEE6687F852800D111
:104BE000AAE60220A8750120C849BC4A10F0E0F8E6
:104BF0002FE68620B649085CC8B123200121215444
:104C00000A9878652077786F3867401CB86722204B
:104C1000205C00B90225CF4F65753046C0E586207F
:104C2000AB49085C70B10D2009F082FABFE588201D
:104C3000A849085C0007800FDFD0607F8528DCD0A2
:104C40000220B3E68820A349085C0007800FEAD061
:104C5000687F8528E7D082E77D20C0435A216054D1
:104C60006120285C5B2160549A48C06EE06517F0B3
:104C700043FB29460546487F0146B13910290CD32C
:104C800001463539122904D80A9A8A409A490A42BB
:104C900003D11B38052800D3D4E005209749984A52
:104CA00010F086F865249048005DFF2800D0C9E028
:104CB0008548806A01461E318D4200D8C2E0824993
:104CC0004B6A7F4E727F317AFF27009001950291E7
:104CD000039703278B49384610F06AF8707F7A49AA
:104CE00048628D628048005D30727B49864A079732
:104CF000384610F05DF8974B3920195C491CCAB250
:104D00000024132A224600D80A461A546F4DA807D9
:104D100002D02D1D0798854328460DF027F935F060
:104D200001FB284629F0BCFB01200A906F48203087
:104D300008900026432006902F46052C00D185E0E0
:104D400009986A490C5408984670069839460A9A98
:104D500029F0E6FD2C37641CEFE77D20C0435A2183
:104D600050546120285C5B2150545A48C06ED06575
:104D700038460DF0FBF835F0D5FA384629F090FBAF
:104D800000255A4820300890432607972C46052CCA
:104D90000CD0099855490C5408984570304639464E
:104DA0000A9A29F0BDFD2C37641CF0E735F0BAFAF9
:104DB000079F38460A9929F0ABFB0024052C0CD03C
:104DC00009984A490C540A9A089842704320394677
:104DD00029F0A6FD4437641CF0E735F0A3FA00255E
:104DE0000595079EEFB2042F17D8059CE1B2032961
:104DF00011D83846324629F0D1FB09983B490D5469
:104E000008998C7006984870432031460A9A29F018
:104E100087FD641CEAE76D1CE4E735F083FA17F0C0
:104E20006BFA274A537F28494B62886265212E4CD2
:104E3000615C11720090019103202D492D4A0FF001
:104E4000B7FF444F04F0EAFB1D4D02E535F06AFA66
:104E500028460A9929F05CFB2F46052E0CD00998AC
:104E600022490E540A9A089842704320394629F084
:104E700057FD4437761CF0E7069535F053FA0026C7
:104E80000596069CF7B2042F17D8059DE9B20329B1
:104E900011D83846224629F081FB099813490E544F
:104EA00008998D7007984870432021460A9A29F086
:104EB00037FD6D1CEAE7761CE4E735F033FAC0E70E
:104EC000589D0030D89C0030D09E0030D4880130EE
:104ED000684F0130509702302D5D07106F84071026
:104EE000AB7F0710BCA00030C89F003040A000304E
:104EF000AA2F0710908907101FC00700F32607107C
:104F000047860710C42E0710ED8B0710AD59071008
:104F1000BCB5037871240F4D2B5541780E4A11759D
:104F200080787222A8540091019003200BA11AA24C
:104F30000FF03EFF285DC038032806D8022804D0B1
:104F4000BCBC01BC8646FFF749BBBCBC01BC864665
:104F5000FEF776BBD89C0030589D00305B41505026
:104F60004C5D2025733A20747970655B307825306C
:104F700032585D2C2063686F6963655B307825303B
:104F800032585D2C20696E766F6B655B307825300A
:104F900032585D0D0A0000006170706C5F6D7367C0
:104FA0005F70726F6365737300000000F0B593B0BB
:104FB000BD48C27F022A05D3101F022805D2BF4D6B
:104FC000EE200BE0BC4D0A2008E0022A04D1B7A372
:104FD00003200D90B74D1EE0B94D0C200D9000231D
:104FE000052A18D8900001A10818874600F00AB8D1
:104FF00000F00CB800F00FB800F006B800F008B8E8
:1050000000F008B8B7A306E0B0A304E0B3A302E041
:10501000ACA300E0AFA30D9800900320B3A10FF064
:10502000C7FEB8490846603007790D227A40867875
:10503000602334465C401443624262410992CB5C77
:1050400012934178C9B280220F91089251401943BE
:105050006323324607935A400A43C1781191622371
:105060000693594011431A243A46059462400A4374
:10507000514251410B91109631460D9E0E97394386
:105080000A9140790C90A048478C0024B44200D18A
:10509000AFE06888874200D08CE029791298884276
:1050A0001CD168790F9A824218D1E879119A82420C
:1050B00014D1A879109981424ED1287A0E99814253
:1050C00004D00E99042978D8742876D1687A0C997E
:1050D000814200D1A1E05A286CD19EE0A879109AB3
:1050E000824223D1EA79119B93421FD12A7A334617
:1050F0000E9E96421E4619D16A7A0C9E96421E4614
:1051000014D11298F0B30B98002876D11298012888
:1051100050D10E9801284DD1119801284AD11098EC
:10512000002847D16879622828D043E0129A8A4241
:1051300040D1E979119A8A423CD16979622939D101
:105140006A7A297A652911D1662A0FD1632864D039
:10515000109981422ED160E06D282BD110981199C1
:105160002BF0EEFF0D9E0028A7D123E05A2A21D173
:10517000109A82421ED10E9881421BD10F982CF0BA
:1051800029F815E068790A9921B9622802D11199A4
:1051900002290AD06238411E88410121099A5140F2
:1051A0000143B0D111980228ADD10F982BF0FEFF2A
:1051B0000D9E90BB1C35641C68E7652808D06E28DE
:1051C000F8D10E982BF0DEFF0D9E0028F2D07DE77F
:1051D0000E982BF09FFF0D9E002800D076E7002050
:1051E0000428E7D053A1095C401C0E9A8A42F7D1EB
:1051F0006CE76526304613B0F0BD0898009007981C
:10520000019006980290059803900C980490032052
:105210003EA1002322460FF0CBFD2E78042046A1AC
:10522000224633460FF0C4FD1F4A5677907F66260C
:105230000028DFD0E97A8842DCD8D17F4A1ED2B27A
:10524000042A03D89200444B9F5800E00C27712396
:10525000424AD35CED59C32B09D1FE2319400429DE
:1052600020D12818401E0078732150541AE02818C5
:10527000401E007860B1FE24214004290ED1732124
:105280005054C12B0ED1FD2108400928B2D109E0AC
:10529000012033A122460FF08BFDABE7C12B01D1DA
:1052A0000328A7D10026A5E7589D003052532D347E
:1052B0003835000044FE061098FE06103CE4061047
:1052C000B0FF06105365635574696C0050726976BF
:1052D0006174650053656353697465005574696C46
:1052E000697479005075626C696300005341505BCA
:1052F00025645D3A25732C204F424A5B25645D0D81
:105300000A000000C89F0030D89D00306C6F6720F5
:10531000636E74206F6269735B25645D3A20256457
:105320002E25642E25642E25642E25642E25640DDD
:105330000A000000000304064F424A5F4C495354E0
:105340005B25645D2C204F424A5F494E464F5B25EA
:10535000645D0D0A0000000034BE0610D89C0030C9
:105360004E4F5F4143434553535B25645D0D0A0037
:10537000F0B587B04548C46A01460127E7710022AD
:105380000492A2716271C02020710F20E070A2709F
:10539000E7206070E6202070082008620D463C4837
:1053A00054303C4966310622FAF7C5FF1CF088FAF2
:1053B0002D6A02266655641966700296A01C36494D
:1053C0002622FAF7B8FF29200597275428202754CA
:1053D0002A2026542C352D4F3D622B2007212154A5
:1053E0002AF05AF92AF088F92AF0A8F92AF0C4F923
:1053F0002A49049888470690FD6A3E6A172104915D
:10540000A95506A9039139633A46AC19010E61709A
:10541000010CA170010AE170771D176220710598D7
:105420001E49884706900499E955184A0399116363
:10543000010EA171010CE171010A217237460A3790
:10544000176260720298154988470499E9550399D3
:105450000E4A1163010EE172010C2173010A61739E
:1054600033460F3311461362D26A0C469119887382
:105470000598C0070090032009A116F073FC218C49
:10548000E06A2DF051FF07B0F0BDC046D09E00305D
:10549000BCA00030C89F00302CC50610555A05101E
:1054A000455252434F44455F505553480000000059
:1054B000F0B585B06D48C76A02460125FD71002030
:1054C000B8717871C02139710F21F970B870E72077
:1054D0007870E620387008201062654854306549BD
:1054E000663106242246FAF726FF1CF0E9F95F48E8
:1054F000066A0220B855BF1901907870B81C5E4941
:105500002622FAF718FF28203D542A36574806620B
:10551000292002953D54574D6E69584FBB6E0320AC
:1055200057A15DA20FF044FCB86E80B15F49604A9C
:105530004A84401E5F4AB0FBF2F35343181A5E4A96
:10554000801808840E200022314629F0E9F9A020B5
:105550003A586F69454BD96A186A1D46019B0B542E
:105560000918CC718A71130A4B71130C0B71120E4E
:10557000CA708C700B224A70FA7B0A72BA7B4A722C
:105580007A7B8A723A7B0C73CA72FA7C4A73BA7C51
:105590008A737A7CCA733A7C4C740A74EE6A311846
:1055A000FA7D8A74BA7DCA747A7D0A753A7D8C75E3
:1055B0004A75FA7ECA75BA7E0A767A7E4A763A7E4D
:1055C0001B3028628A76F91D03AD28461CF032F89C
:1055D00028461CF047F9254D2B6A0420F054F0189A
:1055E00018214170397981707979C170B979447124
:1055F0000171F97F8171B97FC171EA6A2E46D018B5
:10560000797F0172397F8472417239462031CD78B9
:10561000C5728D7805734D78457320257D5DC47303
:105620008573CD7905748D7945744D7985740D79BF
:105630000475C5740C4608343463CC7A44758C7A8E
:1056400084754C7AC475097A1933336201760298ED
:10565000C0070090032019A116F084FB318CF06A7A
:1056600005B0F0BC04BC96462DF05EBED09E003066
:10567000BCA00030C89F003054C5061050970230BF
:105680005B4C505D2025733A204C505F696E646519
:10569000785B25645D0D0A006C705F6C6173745FEC
:1056A0007265636F72645F646174610040A0003072
:1056B000012C000074180000731800004C505F505B
:1056C00055534800F0B5FFB08EB017460E4604465D
:1056D0007321A7480B91435C009401920425A5A176
:1056E000AEA228460FF064FB54B3B04900200890E6
:1056F0008870E72003904870E62002900870F078E8
:10570000069034F00FFE802005900090F41CF81EE7
:1057100083B20120A6A12246079316F023FB069B25
:10572000A24A18460830D0700E37B8B2010A0A965D
:1057300009940ED082211171390A5171911D11E025
:10574000304639467FB00EB0F0BC04BC96460DF032
:10575000EBB8802804D381211171511D032501E08C
:10576000111D02250F7056193F27F7709449496D96
:10577000F1710A0AB2710A0C7271090E3171691D58
:1057800000900491019105258E498F4C28462246B0
:105790000FF00EFB8A48406D00908C492846224647
:1057A0003B460FF005FB8648406D0DACE070010AEA
:1057B000A170010C6170000E20703846079D2946CB
:1057C00020F07AFD0C907E48006D0CA908360096FA
:1057D00001912146099A2B4620F0E6FB48B102468A
:1057E00001207B490FF0E4FAA52021F08FFC089EF0
:1057F0000BE00C980599009104994618B3B26B48D8
:10580000C21C012073A116F0ADFA594A0B98105C26
:10581000FE210140F31C0A290A9F58D16E20115C19
:10582000012957D10693BC1D00251554BD7003985E
:1058300078700298387034F075FD0896B6B205207D
:10584000684969A233460FF0B3FA082179713D71B6
:10585000DF20F8706D48026B436BB97323712270BF
:10586000190EE171190CA171190A6171110EE17023
:10587000110CA170110A6170816AC06A6073617253
:105880003D76FD75020E2274020CE273000AA073CD
:10589000080E2073080CE072080AA07205980090A8
:1058A0003C1D03205A49152522462B4616F05AFA6C
:1058B0000DA821462A46FAF73EFD300A0FD033469E
:1058C00082217976192618211722099C10E099B2B5
:1058D000364848E001200321FDF74AFF45E017253F
:1058E00016223346802E099C04D31826812029468F
:1058F000A05401E011462E460796089F6754A01950
:105900002A49CD1C29461E461A46FAF714FD0DA851
:105910000B90153029463246FAF70DFD07983D18D1
:10592000A8B24026265431F0D5FE0C962448006DCE
:105930000CA90091691C89B263181537BAB20B998A
:1059400021F0B2F950B10246012032490FF030FA8D
:10595000A72021F0DBFB0A98069D03E031F0BAFE98
:1059600044350A98A9B20CF0DFFF7FB00EB0F0BD4D
:10597000D89C003025733A204143535B25645D2C4D
:1059800020454E5F41545B25645D2C2074785F6C2C
:10599000656E5B25645D0D0A000000006170706C2F
:1059A0005F73656E645F6D7367000000985C013023
:1059B0002D2D3E20547820504C41494E00000000CF
:1059C0004C9F0030FE410710B87A0710593007107D
:1059D0006A4F07102D2D3E2054782043697068656A
:1059E00072000000CA40071064736D5F7365635FE7
:1059F000675F7369676E696E675F78444C4D535F8C
:105A0000415044555F6275696C64000040A00030ED
:105A1000B8720710944E07101CB5042802D808A1CC
:105A20000C5C00E0FA240090019408B1074B00E000
:105A3000054B0320064907A20FF0BAF920461CBD0A
:105A4000000202120C0000000B8C0710928B071052
:105A50005E4507106170706C5F7365745F7265738B
:105A6000756C745F726561736F6E000010B50446EB
:105A70000320044904A223460FF09AF920488460C9
:105A800010BDC046583807106170706C5F75706447
:105A90006174655F7365635F345F3438355F666F6B
:105AA000725F74696D6573746172745F7365635F4F
:105AB0007574696C6974790010B504460320044953
:105AC00004A223460FF074F90D48446010BDC0468F
:105AD000583807106170706C5F7570646174655F31
