:020000040000FA
:1000000018120020250200002D0200002F0200001F
:100010005365637572697479706C6174666F726D23
:10002000000000000000000000000000410200008D
:100030000000000000000000430200004502000034
:10004000470200004702000047020000470200008C
:10005000470200004702000047020000470200007C
:10006000470200004702000047020000470200006C
:10007000470200004702000047020000470200005C
:10008000470200004702000047020000470200004C
:10009000470200004702000047020000470200003C
:1000A000470200004702000047020000470200002C
:1000B000470200004702000047020000470200001C
:1000C000453000004D3000004702000047020000AC
:1000D00047020000470200004702000047020000FC
:1000E00047020000470200004702000047020000EC
:1000F00047020000470200004702000047020000DC
:1001000047020000470200004702000047020000CB
:1001100047020000470200004702000047020000BB
:1001200047020000470200004702000047020000AB
:10013000470200004702000047020000470200009B
:10014000470200004702000047020000470200008B
:100150004702000047020000470200006912000049
:10016000470200004702000047020000470200006B
:10017000470200004702000047020000470200005B
:10018000470200004702000047020000470200004B
:10019000470200004702000047020000470200003B
:1001A000470200004702000047020000470200002B
:1001B000470200004702000047020000470200001B
:1001C000470200004702000047020000E11E000055
:1001D00047020000693000004702000047020000AB
:1001E00047020000470200004702000047020000EB
:1001F00047020000470200004702000047020000DB
:1002000047020000470200004702000047020000CA
:100210000348854600F0FCF800480047613C0000B8
:10022000181200201248804712480047FEE7704627
:10023000EFF30881EFF309820F4B98470047FEE781
:10024000FEE7FEE7FEE7FEE7ABBE0C4B74469847C1
:1002500020477046F047000009480A490160684697
:1002600008600948486030BFFEE700BF00BF00BF1C
:10027000752D000011020000E11B00004525000063
:10028000C0020040000001206B020000F0B51FB466
:100290000646002082B005464024019100901BE0F4
:1002A000019922460F46304600F0A0F8049A059BBB
:1002B000801A994110D310461946224600F086F85C
:1002C000361A8F410197224601200021009F00F03D
:1002D0007DF838184D4100902046641E0028DFDC70
:1002E000019B00982946324607B0F0BDF8B50024BE
:1002F0002546002904DA0E46012400214042B1417E
:10030000002B04DA1E46002352420125B341FFF7B9
:10031000BDFF8C4617461E46AC4203D00025404226
:100320008D41AC46002C02D0002657429E416146CA
:100330003A46334601B0F0BD30B5434351435C18F3
:10034000010C130C0D465D432C1980B292B2054688
:10035000554351430A0C09044D1962415843010C9D
:1003600000044019514130BD03460B439B0703D0A5
:1003700009E008C9121F08C0042AFAD203E00B786A
:100380000370401C491C521EF9D27047D2B201E0E2
:100390000270401C491EFBD270470022F6E710B5E0
:1003A00013460A4604461946FFF7F0FF204610BDE3
:1003B00010B54843044605F0E7FC002805D00021AD
:1003C000002C02D0641E0155FAE710BD10B5202A9A
:1003D00004DB0146203A9140002010BD91402023CB
:1003E0009C1A0346E3401943904010BD10B5202AE3
:1003F00004DB0846203AD040002110BD0B46D34014
:10040000D0402024A21A91400843194610BD000094
:100410001CB5094800900948019005460126009C3A
:1004200005E0E36807CC33430C3C98471034AC42FA
:10043000F7D3FFF7F1FE0000586200007862000079
:100440000120000609490A6802430A6008490A684F
:1004500002430A600A6882430A6070467146724627
:100460007346F4468EF300887447C0460802004085
:100470000C000040B0B51546044600F01BF8012DF5
:1004800005D1216880220A43226004216161B0BD48
:1004900080B5014606480022FFF7ECFF80BC02BC95
:1004A0008E46714672467346F4468EF30088744752
:1004B00000000A50F0B591B0412201920260844AD6
:1004C00040F2E833914201D87D3B00E0C83B814ACD
:1004D000914202D940F2E833FA3B049302907E48FD
:1004E000814200D301460E917C480A9005F03CFF02
:1004F0000E9A0D900021322501200C9040F2E83038
:10050000059008910B91079103E00E9A109D062D1E
:1005100070D96D1E68080F90441C20460B9F394609
:100520003B46FFF709FF02460B460D9E3046394613
:10053000FFF7ACFE10950C9A15402818451EA90A25
:10054000E3D1374600260990314622463346FFF76D
:10055000F3FE02460B4638463146FFF797FE0E9BE8
:10056000191ACA175140891A0A9A91421A46CDDCC3
:1005700082422ED10A96049A1046604340F2E83136
:10058000B0FBF1F0211A01290F9E00DC012108299E
:1005900000DB08210695701A3746103F039010289B
:1005A0003B4600DC0B46E31A40F2E830434393FB42
:1005B000F4F3D51AE81745402D1A05988542A4DCB6
:1005C0009A4207960998089005950E9A039C9DD12A
:1005D00005E00A910F9807900998089096E7102C6B
:1005E00000DC0F46012F029D0C9E0990214618DB6E
:1005F000402217E0079B581C049A4243384992FB5B
:10060000F1F10918012900DC0121082900DB08218A
:100610005C1A0898421E0692103B1F46102CE0DD23
:10062000E0E7BA011097380341F20003C31A3F24F0
:1006300006980440084610290D9F00DB1020014653
:100640000002001940F20014001B18431043E86038
:1006500006988005000FA861224800682A68019B5F
:100660009A432A600422121A02E0121D012C22D0A1
:10067000D01E434243412868C007344600D01C4680
:10068000CCB9901E434243412868C007344600D08D
:100690001C4684B9501E434243412868C007344673
:1006A00000D01C463CB9534253412868C007344629
:1006B000DBD01C46D9E710980818401C099A424321
:1006C000D31700213846FFF711FE11B0F0BDC04628
:1006D00020A1070000350C0040420F0000CA9A3BE1
:1006E00018FCFFFF100000201F21014001228A405A
:1006F000800F800008494358934343507047C046D9
:100700001F21014001228A40800F80000249435886
:10071000134343507047C04604020040F0B58CB00C
:100720000F46034601242004D44D2E46103E316866
:100730000143316028465038016873B304221143E5
:100740000160CF4800684008101A02E0001D012A2D
:1007500051D0C21E514251412A68D206224600D4CD
:100760000A46002A47D1821E514251412A68D206C8
:10077000224600D40A46F2BB421E514251412A6829
:10078000D206224600D40A46AABB414241412A6809
:10079000D2062246DAD40A46D8E701221143016084
:1007A000FB48006840080421081A01E0001D12BB44
:1007B000C21E514251412A68D207224600D10A4640
:1007C000CAB9821E514251412A68D207224600D13D
:1007D0000A4682B9421E514251412A68D207224636
:1007E00000D10A463AB9414241412A68D20722461D
:1007F000DCD10A46DAE7A3483818A34AA34988425D
:1008000007D8A4480025874239460B9505D32846CA
:1008100004E09F480343336001E101200327914234
:100820003D4600D3054691420394029301960095FC
:1008300000D2022081400D46484209900B9BD943CB
:100840000420069005200590062004900A9312E0EB
:10085000B81C0A90002107980B900498801D049002
:100860000598801D05900698801D0690089FBF1D65
:10087000212F00D1BBE0062F089729D8D748B0FB1D
:10088000F7F39C00281B5B00002706E0C01AE41861
:100890007F1C40F20026BE421AD0804AA6187E4A2B
:1008A0009642F3D2AC4203D806468E42EED203E023
:1008B000099E36198E42E9D22EB1B91C0A913146F1
:1008C000089E0B96E2E7B81C0A90002108980B904E
:1008D000089805282CD8401C0790C048069BB0FB00
:1008E000F3F398002C1A5B00002706E0C018E41A06
:1008F0007F1C40F20026BE421AD0684A8618664A1B
:100900009642F3D2A84203D826468E42EED203E0A6
:10091000099E36188E42E9D22EB1B91C0A91314691
:10092000079A0B92E2E7B81C0A90002107980B90F7
:10093000089804282CD8801C0790A848059BB0FB79
:10094000F3F398002C1A5B00002706E0C018E41AA5
:100950007F1C40F20026BE421AD0504A86184E4AEA
:100960009642F3D2A84203D826468E42EED203E046
:10097000099E36188E42E9D22EB1B91C0A91314631
:10098000079A0B92E2E7B81C0A90002107980B9097
:100990000898032800D960E7C01C0790F948049B19
:1009A000B0FBF3F398002C1A5B00002707E0C01897
:1009B000E41A7F1C40F20026BE4200D14DE7374AC0
:1009C0008618354A9642F2D2A84203D826468E426D
:1009D000EDD203E0099E36188E42E8D2002E00D1F7
:1009E00036E7B91C0A913146079A0B92DFE70B9C58
:1009F000600240F20021401A0A9DA91E009B9A0342
:100A00000A4302430298024301980260581C604363
:100A1000DC49B1FBF0F068434200039C174DC74826
:100A2000006840080421081A02E0001D012B22D0B2
:100A3000C31E594259412B685B07234600D40B461D
:100A4000CBB9831E594259412B685B07234600D41A
:100A50000B4683B9431E594259412B685B07234615
:100A600000D40B463BB9414241412B685B0723460A
:100A7000DBD40B46D9E710460CB0F0BD5002004065
:100A80001000002000CA91FE006CDC02008C7D0A80
:100A90000EC2000000D8B80501EA3206002847FA65
:100AA00055490A6802430A607047C046B0B52A48F3
:100AB0000268836BD90313D49903284911D41C0409
:100AC000A40F274D2C5D9D04ED0E6D1C6543DB05C9
:100AD0009B0D244C5C436118B1FBF5F1890000E0EB
:100AE0000021214B1960846807232340022B1AD070
:100AF000012B0FD102231A4048F200011B4A0DD1ED
:100B000004681C430460126804689C430460520635
:100B100007D408E0990016A2515804E01268520662
:100B200001D547F6005180690F220240501CB1FBED
:100B3000F0F0D049086017494118174AB1FBF2F1AB
:100B4000164A1160B0BC02BC8E46714672467346AE
:100B5000F4468EF30088744708020040001BB7007B
:100B6000645F0000C0C62D000C000020001104408E
:100B7000001BB7000080000000000000007D0000A6
:100B800000000000006CDC0200093D00001BB70003
:100B90001000002020A1070040420F0008000020A4
:100BA00080B502F0CDF8B348006880BC02BC8E4628
:100BB000714672467346F4468EF300887447C04609
:100BC0000D4800680121014049426E4808407146C5
:100BD00072467346F4468EF300887447001BB700D4
:100BE0000548006802210140880371467246734639
:100BF000F4468EF30088744700020040810AC9B2AF
:100C000091B18205D20E9140000C0C2303400A489A
:100C1000C0580A4BC0580840D040714672467346CF
:100C2000F4468EF30088744700207146724673467E
:100C3000F4468EF300887447145F000020020040E1
:100C400010B52949431829490A68032B10D8980080
:100C500001A210188746C04600F006B800F02FB871
:100C600000F025B800F027B809690120084030E0FD
:100C70001F4B98420BD1900725D4086802221043DD
:100C800008601C4800680B6893430B601DE002017C
:100C9000520F1DD0C301DB0E9A40800E0C2404407D
:100CA00015480059081880681040D84011E00869BC
:100CB000C005C00F0DE008698005C00F09E0086994
:100CC0008007C00F05E00B4800680006C00F00E079
:100CD000002010BC02BC8E46714672467346F44634
:100CE0008EF300887447C046F0FFFF7F0802004083
:100CF0000100004000110440045F000080B502F0D4
:100D00001FF8FE48006880BC02BC8E4671467246E1
:100D10007346F4468EF300887447C04680B502F0EF
:100D20000FF8F648006880BC02BC8E4671467246D9
:100D30007346F4468EF300887447C04610000020C6
:100D40000F480168C80313D488030E4811D40A045D
:100D5000920F0D4B9A5C8B04DB0E5B1C5343C90551
:100D6000890D0A4A4A431018B0FBF3F0800000E0F6
:100D70000020714672467346F4468EF3008874472D
:100D800040020040001BB700645F0000C0C62D0099
:100D9000014800687047C04694020040F0B581B039
:100DA0000146324D286800902F46503F386804268F
:100DB000304338602E48814200D80146CF48006851
:100DC0004008301A012202E0001D012C22D0C41E6E
:100DD000634263412C68E406144600D41C46CCB937
:100DE000841E634263412C68E406144600D41C460A
:100DF00084B9441E634263412C68E406144600D45F
:100E00001C463CB9434243412C68E4061446DBD4FB
:100E10001C46D9E72846403802680723134303607D
:100E20002846303802680F239A43026012488142F4
:100E300000D301462868C00706D10120C004FFF78F
:100E40006DFC04462D6804E00020FFF767FC0446B3
:100E5000009D0220002100F011F8E80602D4386855
:100E6000B0433860204601B0F0BDC046500200409B
:100E700000366E011000002000D8B805F0B585B02E
:100E800002909D4CA06D0490A26804273A43A26092
:100E9000F34802685208BA1A012502E0121D012E19
:100EA00022D0D61E73427341A66DF6062E4600D49C
:100EB0001E46CEB9961E73427341A66DF6062E46A7
:100EC00000D41E4686B9561E73427341A66DF606BF
:100ED0002E4600D41E463EB953425341A66DF60637
:100EE0002E46DBD41E46D9E7A369072001900343B1
:100EF000A361DB4A13683A46FB1A02E01B1D012F6F
:100F000022D0DF1E7E427E4127683F062F4600D555
:100F10003746CFB99F1E7E427E4127683F062F4647
:100F200000D5374687B95F1E7E427E4127683F065F
:100F30002F4600D537463FB95E425E4127683F06DF
:100F40002F46DBD53746D9E7236803260396B343FC
:100F50002360FA4B1B68D31A02E01B1D012F22D01D
:100F6000DF1E7E427E416768FF072F4600D037466E
:100F7000CFB99F1E7E427E416768FF072F4600D093
:100F8000374687B95F1E7E427E416768FF072F465E
:100F900000D037463FB95E425E416768FF072F4683
:100FA000DBD03746D9E756480368174613430B266C
:100FB000B3430360A36A0F26B3430B43A362A16943
:100FC0000198814302980143A16101F0B9FEDB4819
:100FD0000068391A02E0091D012B22D0CB1E5A42AB
:100FE0005A4123681B062B4600D51346CBB98B1EEE
:100FF0005A425A4123681B062B4600D5134683B933
:101000004B1E5A425A4123681B062B4600D51346F5
:101010003BB94A424A4123681B062B46DBD513469F
:10102000D9E738494118384A914201D2012005E0F8
:10103000364940183649884205D8022021680322E3
:101040009143081820601021BC480068314A904242
:1010500005D82068032202432260B8480068049A39
:101060000A400492391A02E0091D012B22D0CB1E3E
:101070005A425A416368DB072B4600D01346CBB96E
:101080008B1E5A425A416368DB072B4600D0134639
:1010900083B94B1E5A425A416368DB072B4600D086
:1010A00013463BB94A424A416368DB072B46DBD013
:1010B0001346D9E71849421818498A42104B05D3FC
:1010C000174A8018884206D2022003901868B0435D
:1010D000039A80181860DB480068884205D21868B7
:1010E000012101430E2081431960049810B9A068C2
:1010F000B843A06005B0F0BDF8010040100000202A
:101100004CC00040FF9323FD00512502FFF6C2FFB3
:10111000FF629F0200093D00800F05FD40787D01C0
:10112000C08782FE70B51E4B1C681E4DA8420FD1B1
:10113000A0071F482DD41A68022422431A600268AF
:101140008025AA430A4302601868A043186070BD56
:10115000840AE4B264B18505ED0EAC40050C0C26A2
:101160002E40114DAD595D19AE69A6431643AE61CF
:101170000201520F12D0C401E40EA240800E0C24D2
:1011800004400A4800591818836893430B4383604E
:1011900070BD026880239A430A43026070BDC04656
:1011A0000802004001000040145F0000045F0000DE
:1011B00000110440F0B501210904154A0024052559
:1011C0000E4602E01460C01B17D93746B0420646EF
:1011D00000D33E460F4B1B68734353609460156009
:1011E00013680B42EED113680B42EBD113680B422C
:1011F000E8D113680B42F3D0E4E7F0BC01BC8646AB
:101200007046714672467346F4468EF30088744702
:1012100010E000E008000020B0B5014689480068F1
:1012200040080322131A0F4C0120002225680D40AC
:101230008D4214D0022B11D025680D408D420ED066
:10124000012B0BD025680D408D4208D033B12568A5
:101250000D408D4203D01B1D032BE7D11046B0BDBE
:10126000100000205002004000480047B9860000EE
:1012700010B50120C407FFF78BFD07490A68224318
:101280000A6010BC02BC8E46714672467346F44634
:101290008EF300887447C04694020040F0B581B0D8
:1012A0000546EB4800240460FEF7D3FFC000404F22
:1012B000404E384600D530462221C160FEF7C9FFB6
:1012C000C000384600D5304600944560FEF7C1FFA7
:1012D000C000384600D53046012101610D07E048C5
:1012E00000688008441CFEF7B4FF2842384600D04E
:1012F00030460069C00707D0641E002CF3DC0020D4
:10130000C443D348046000E0009CFEF7A2FF2842DB
:10131000384600D03046006840060CD5FEF799FFED
:10132000284200D037463868402101433960002008
:10133000C443C7480460204601B0F0BD100000203F
:1013400010B50446FEF785FFC00001D5D54800E082
:10135000D348016808220A4302602046FFF79EFF37
:1013600010BC02BC8E46714672467346F4468EF33C
:101370000088744705480168054808407146724670
:101380007346F4468EF300887447C04640C0004060
:1013900000FEFF0080B5FEF75CFFC00001D5C1482C
:1013A00000E0BF48016801220A43026080BDC046D8
:1013B00000C0004000C00050F0B581B00446A44811
:1013C00000260660FEF745FFC0001C4D1C4F284656
:1013D00000D53846001F0660FEF73BFFC0002846D8
:1013E00000D5384600960C380460FEF732FFC00086
:1013F000284600D53846012101600C07984800684E
:10140000C008461CFEF725FF2042284600D038467B
:101410000068C00708D0761E002EF3DC0098C04399
:101420008B49086001B0F0BDFEF713FF204200D0E9
:101430003D46083D286801B0F0BDC04610C00040E0
:1014400010C000501000002070B5960809D00C465E
:1014500005462846FFF7B0FF01C4761E2D1D002E5D
:10146000F7D17B48006870BC02BC8E46714672465C
:101470007346F4468EF300887447C04670B559B180
:101480000C460546032006053046FFF795FF01C5CB
:10149000641E361D002CF7D16D48006870BDC04633
:1014A000F0B58AB016460546694B00271F60FA431F
:1014B000541E68480542204600D0C2E00292664AA7
:1014C0002720906015600868D067644C23463C3B39
:1014D0004868079318602346383B8868059318606E
:1014E0002346343BC868049318600120D060142E52
:1014F00000D284E009950691B108039104221021DD
:10150000019108921AE087F310885149029B0B6001
:101510002168069E910073584F4DEB6771184B6818
:10152000079E33608B68059E3360C968049B196011
:10153000E860121D03998A42089262D2CD49096877
:1015400080F31088C9084D1C216801400AD187F337
:10155000108862680F26B2433F4B1A601A68099BD5
:10156000D21A92086D1E002DCDDD266811B13023F0
:101570001E40E9D10029CCD008998900069E7358F5
:10158000354DEB67711800914968079B1960B9499F
:101590000968C9084D1C216801400AD187F31088E9
:1015A00062680F239A432C4B1A601A68099BD21A5F
:1015B00092086D1E002D18DD266811B1C0231E4053
:1015C000E9D1C1B1009DA968059B1960E968049B38
:1015D000196087F31088089B1B1D01991031019138
:1015E000039908938B42A9D30BE087F31088FE4937
:1015F000029B0B60216801990831019189E7102055
:1016000001909C480068C008401CF74B029C12499E
:10161000C96BC90718D0411E012911DB0E4AD26BD4
:10162000D20711D002280BD00B4AD26BD2070BD0B5
:10163000032905DB0849C96BC90705D0001FE6D19E
:1016400001981C600AB0F0BD01980AB0F0BDC04618
:10165000701200200700F0FF04C00040C0C000402E
:101660001000002070B514460D460646FEF7F1FD49
:10167000C00001D50B4800E00948016808220A4370
:101680000260304629462246FFF70AFF70BC02BCC2
:101690008E46714672467346F4468EF30088744750
:1016A00000C0004000C00050F0B581B000910023A0
:1016B000194603E010330831202B61D0009DCD4046
:1016C000EE0707D016469E4003279F400468BC43A0
:1016D00034430460AC0708D59C1C1646A6400C2475
:1016E0009C400768A743374307606C0708D51C1D5B
:1016F0001646A64030249C400768A743374307603E
:101700002C0708D59C1D1646A640C0249C4007689F
:10171000A74337430760EC060AD51C460834164633
:10172000A64040F200349C400768A7433743076057
:10173000AC060AD51C460A341646A64040F60044BC
:101740009C400768A743374307606C060AD51C46D0
:101750000C341646A64043F200049C400768A74399
:10176000374307602C06A5D51C460E341546A54008
:101770004CF200049C400668A6432E43066099E79D
:1017800001B0F0BDF0B581B000910023194603E02F
:1017900010330831202B61D0009DCD40EE0707D0DB
:1017A00016469E4003279F40046BBC4334430463AA
:1017B000AC0708D59C1C1646A6400C249C40076B21
:1017C000A743374307636C0708D51C1D1646A64080
:1017D00030249C40076BA743374307632C0708D589
:1017E0009C1D1646A640C0249C40076BA743374368
:1017F0000763EC060AD51C4608341646A64040F29C
:1018000000349C40076BA74337430763AC060AD5F7
:101810001C460A341646A64040F600449C40076B1E
:10182000A743374307636C060AD51C460C3416469B
:10183000A64043F200049C40076BA743374307636D
:101840002C06A5D51C460E341546A5404CF20004C6
:101850009C40066BA6432E43066399E701B0F0BD9A
:10186000DC480068714672467346F4468EF3008881
:101870007447C04610000020B0B50D4604460D4820
:10188000844202D004F070FD01E004F071FD0A21F1
:101890000A464243AB00B2FBF3F2521DB2FBF1F138
:1018A0004A1E226122684023134323608900B0FB53
:1018B000F1F0B0BD0010085080B5FFF7DDFF80BC2F
:1018C00002BC8E46714672467346F4468EF300881B
:1018D00074470000BFF34F8F044805490160BFF310
:1018E0004F8F00BF00BF00BF00BFFAE70CED00E064
:1018F0000400FA05F0B585B00490800707D10D46C5
:1019000029B114461AB12819411EA9420BD205B0BB
:10191000F0BC01BC86467046714672467346F4467A
:101920008EF3008874470A466A4045E880F0202A12
:10193000024601D341E880F24102E8D49042E6D168
:101940000B2042030499480B0C28039200D98918F4
:101950001AA0224603F094FFA01E01900120C004AB
:1019600002900026374603E0361F3F1DA742CED225
:101970000498C01903994118924A904201D8184816
:10198000091818480068C20A029890430843FFF7F4
:1019900013FD8E4909680029B9D1A119E85502291A
:1019A000E2D3EA19030A5370019BBB42DCD0030C5B
:1019B00093700429D8D3000ED070D5E752656164C6
:1019C0004E657746575F532C20616464723A202538
:1019D0003038582C2073697A653A2025750A000042
:1019E00000A0FEFF40C0004070120020F0B589B09A
:1019F0000D460224810705D125B11AB1A9184E1E42
:101A0000AE420BD2204609B0F0BC02BC8E467146F5
:101A100072467346F4468EF30088744733466B4033
:101A200045E880F1202B0B4601D346E880F34E02B7
:101A3000E8D49942E6D10B214B03410B0C290394C6
:101A40000293044601D8014600E0C11854A0079251
:101A500003F016FF01200490C7040023594A5A4E90
:101A600021460197914201D80A4601E002980A18DE
:101A70000691306BC00A8743059217430798C41A32
:101A8000042C08930BD3E818C17809068278120455
:101A90005118407800020818E95C44181FE03846E5
:101AA000FFF78AFC49490968002977D108996A5CDF
:101AB000FF23009398438318022C0FD34FF6007036
:101AC0008343681842781202D318032C06D1009978
:101AD00009048B4380780004C41800E01C46FEF71C
:101AE000B8FBC00001D53A4801E030461038016823
:101AF00008220A43026030460C380760059840050A
:101B0000C00D0699089B26D0304608380460301F67
:101B100021220260049830602E480068C008032229
:101B2000101A326872B1022835D0326852B10128D9
:101B300031D0326832B170B332681AB1001D032857
:101B4000EFD128E01B1D091D0020079A9342019F39
:101B50001C4A87D357E7301F222202600498306066
:101B60001C48006880080322101A3268002ACBD073
:101B700002280ED03268002AC6D0012809D0326867
:101B8000002AC1D028B13268002ABDD0001D032828
:101B9000EBD1114800E0114804F02CF9039832E72A
:101BA00057726974654E657746575F532C206164A0
:101BB00064723A20253038582C2073697A653A20AF
:101BC00025750A00FF9F010010C000407012002020
:101BD00000C000501000002076600000B7600000D8
:101BE000F0B585B00E46042101404025054003D1E3
:101BF00029B9EFF3888604E019B1164601E0EFF346
:101C00008986B16982A003F03BFE16B1B7693C88B2
:101C1000FFE784A004F0EEF887A0214603F030FE31
:101C2000012000073840401904D08948844205D17A
:101C3000A24800E0A24804F0DDF849E0200B0528A6
:101C4000049719D107272740E005420F0392A00609
:101C5000450F994839462B4603F012FEA80030582C
:101C60000399890071580818B900715800910190C2
:101C7000200527D57F4B26E0610B032908D10725D6
:101C80002540A006470F6005C30E039389480BE06B
:101C9000092871D008287CD107252540A006470FC8
:101CA0006005C30E039375A029463A4603F0E8FD8C
:101CB000A8003058B9007158039A89180090019112
:101CC0002005D7D46A4B04996B48224603F0D8FD0F
:101CD0007C480168002900D198E000200A46C240F3
:101CE000D30700D080E093073AD453073AD41307C0
:101CF0003AD4D3063AD493063AD453063AD41306C8
:101D000049D4D30549D4930549D4530549D440F661
:101D1000000383400B4246D1D30446D4930446D4F7
:101D2000530446D4130446D4D30346D4930346D471
:101D3000530346D4130346D4D30246D4930246D465
:101D4000530246D4130246D4D30146D4930146D459
:101D5000530146D4120146D41C305428BED155E05C
:101D6000401C41E0801C3FE0C01C3DE0001D3BE00A
:101D7000401D39E0801D37E0E5B26005470F35A012
:101D800039462A4603F07CFDB8003058B16949193C
:101D900094E742A04FE7C01D26E0083024E0093058
:101DA00022E00A3020E00B301EE00C301CE00D3049
:101DB0001AE00E3018E00F3016E0103014E0113049
:101DC00012E0123010E013300EE014300CE0153049
:101DD0000AE0163008E0173006E0183004E0193049
:101DE00002E01A3000E01B308100374A5158374A70
:101DF000145C374D60194268364803F041FD605964
:101E0000800035490958354803F03AFDFEE7C046E1
:101E1000486172644661756C7420402030782530CA
:101E200038780A00486172644661756C7420416EAE
:101E3000616C797369733A00496E73747275637477
:101E4000696F6E20636F6465203D2025780A00006D
:101E5000ABBE00004C4452482F5354524820727479
:101E60003D257820696D6D383D25780A0000000019
:101E70000862000004620000876100004C44524880
:101E80002F535452482072743D257820726E3D25A0
:101E90007820696D6D353D25780A0000556E6578AE
:101EA00070656374656420696E73747275637469B8
:101EB0006F6E0000B5610000D26100000C6200008E
:101EC0002F62000030F102402C5E0000145E000022
:101ED00000F00240ED610000805E0000A76100009C
:101EE000F0B589B0D14F39680126300408907004EC
:101EF0000790B0040690F00405903005049070053A
:101F00000390B0050290F0050190002900D1C4E0D3
:101F10000020344684400C4200D0ACE002248440CF
:101F20000C4273D1042484400C4271D108248440B3
:101F30000C426FD1102484400C426DD12024844087
:101F40000C426BD1402484400C4269D180248440EF
:101F50000C4267D140F2001484400C4264D140F23C
:101F6000002484400C4261D140F2004484400C4281
:101F70005ED140F6000484400C425BD141F2000483
:101F800084400C4258D142F2000484400C4255D1A6
:101F900044F2000484400C4252D148F200048440D0
:101FA0000C424FD1089C84400C424DD1079C844088
:101FB0000C424BD1069C84400C4249D1059C844084
:101FC0000C4247D1049C84400C4245D1039C844080
:101FD0000C4243D1029C84400C4241D1019C84407C
:101FE0000C423FD1340684400C423DD174068440FB
:101FF0000C423BD1B40684400C4239D1F4068440F3
:102000000C4237D11C30542883D146E0401C32E0CA
:10201000801C30E0C01C2EE0001D2CE0401D2AE09A
:10202000801D28E0C01D26E0083024E0093022E0B1
:102030000A3020E00B301EE00C301CE00D301AE0BE
:102040000E3018E00F3016E0103014E0113012E0BE
:10205000123010E013300EE014300CE015300AE0BE
:10206000163008E0173006E0183004E0193002E0BE
:102070001A3000E01B3081006D4A51586DA2105C8F
:10208000381802462C3A12683038006880006FA376
:102090001B587AA003F0F4FB3C60834801680029D8
:1020A00000D182E0002002220423082710252024EA
:1020B0000094344684400C4200D0ADE01446844085
:1020C0000C4274D11C4684400C4272D13C46844080
:1020D0000C4270D12C4684400C426ED1009C84404E
:1020E0000C426CD1402484400C426AD1802484404C
:1020F0000C4268D140F2001484400C4265D140F299
:10210000002484400C4262D140F2004484400C42DE
:102110005FD140F6000484400C425CD141F20004DF
:1021200084400C4259D142F2000484400C4256D102
:1021300044F2000484400C4253D148F2000484402D
:102140000C4250D1089C84400C424ED1079C8440E4
:102150000C424CD1069C84400C424AD1059C8440E0
:102160000C4248D1049C84400C4246D1039C8440DC
:102170000C4244D1029C84400C4242D1019C8440D8
:102180000C4240D1340684400C423ED17406844057
:102190000C423CD1B40684400C423AD1F40684404F
:1021A0000C4238D11C30542883D109B0F0BD401CFA
:1021B00032E0801C30E0C01C2EE0001D2CE0401DF1
:1021C0002AE0801D28E0C01D26E0083024E0093008
:1021D00022E00A3020E00B301EE00C301CE00D3015
:1021E0001AE00E3018E00F3016E0103014E0113015
:1021F00012E0123010E013300EE014300CE0153015
:102200000AE0163008E0173006E0183004E0193014
:1022100002E01A3000E01B308000054909582348CD
:1022200003F02EFB2048046009B0F0BD30F00240FE
:10223000B05E0000343C0000444C545C6400747C8C
:10224000848C949CA4ACB4BCC400000083610000E6
:10225000000000000000000029610000346100005F
:102260007A610000586100000000000000000000DA
:1022700000000000000000003F61000020202573E6
:10228000283078253038782920416C61726D212002
:10229000696C6C6567616C20616363657373206250
:1022A000792025730A00000030F10240FF60000031
:1022B000F0B589B09A4B18462438002101601846C1
:1022C000203801600A46089118461C38954901607B
:1022D00018461838944901601846143807210160DF
:1022E000184610389149016018460C380260904A2F
:1022F000904850619061D06110628F495162906244
:10230000D0621063196848F200021143196019681D
:1023100044F2000211431960196842F200021143AD
:102320001960196841F2000211431960196840F6FA
:10233000000211431960196840F20042114319600C
:10234000196840F2002211431960196840F2001226
:1023500011431960196880220692114319601968A7
:1023600040220592114319601968202204921143FA
:1023700019601968102631430096196019680825FC
:1023800029430795196019680422114319606B49A4
:102390008C6848F200073C438C60441C88682043EA
:1023A00027468860086840F20043184308600868C0
:1023B00040F6000318430860086844F20004204314
:1023C0000860086848F2000420430860086840F28A
:1023D0000024204308600868104308600868284308
:1023E0000860012293040193886818438860D4042C
:1023F000886820432346039488609405081F056875
:1024000025430560D4050568254305600C681C4319
:102410000C60130502930C681C430C6094070D6854
:1024200025430D600C6834430C600C68049D2C43FC
:102430000C600C683E463C430C60530404930D68EA
:102440001D430D604D6840F200473D434D604D68AF
:1024500040F600073D434D600D68059F3D430D600C
:102460000D68069F3D430D604D68019B1D434D6007
:1024700015060F682F430F608F68009C27438F60FD
:102480000768374307600768049C274307600468B0
:102490001C4304600468039B1C4304600468029BA3
:1024A0001C43046054050668264306604C6840F2ED
:1024B000001634434C604C682C434C60046840F276
:1024C00000431C430460046840F600031C4304609E
:1024D000046841F200052C430460046842F20005E0
:1024E0002C430460046844F200052C430460046833
:1024F00048F200052C430460486840F20024204361
:10250000486050064A6802434A600898C04304493C
:102510008860074908600A480799016009B0F0BD62
:1025200024F002408C0006001F003F00010000085C
:102530002CF10240FFFF0000FFE7000084E300E011
:102540000CE100E00020704780B582B000910021CE
:102550000422082300F00CF802B080BC02BC8E46B6
:10256000714672467346F4468EF300887447000045
:10257000F0B585B01C4616460F460546006E012193
:1025800003918843286603F0EBFE029003F0ECFE13
:10259000009003F0EDFE019000200495A860202C2F
:1025A00000D020025FB30743374303980743049DDD
:1025B0002F6000206860954F7C1CFDF74AFE20428A
:1025C0003DD0934E9348854254D09348854248D09D
:1025D0009248854265D1964C204603F0D5FE38429C
:1025E00000D1FFE0204603F0CFFE3840012866D03E
:1025F000204603F0C9FE3840022850D04EE00A9F22
:10260000064303980643049D2E600298874200D239
:1026100089E07E48441CFDF71CFE204200D082E089
:1026200086480168C022D2437C4B9D4272D0794BD0
:102630009D426BD0784B9D426FD1802370E07F48E4
:102640000168744A95424FD0734A9542019E46D024
:10265000724A954251D120221143102291430160C8
:10266000C0E0714C204603F08FFE800100D1B9E03C
:102670006E4D1EE06A4C204603F086FE800200D1BB
:10268000B0E0684D204603F07FFE2840012816D0B8
:10269000204603F079FE2840022800D00196019ED2
:1026A000A0E0644C204603F06FFE000300D199E0E7
:1026B000614D204603F068FE2840012805D105B091
:1026C000F0BC01BC864603F05BBE204603F05CFE16
:1026D00028400228009800D03046064682E080223A
:1026E0001143402291430EE040F60042914340F6F0
:1026F000000289180160019E74E043F200029143D8
:1027000042F2000289180160009E6BE040F600036F
:102710004B4A05E09032202302E042F20003494A8E
:102720001140194301603A4E3A48854215D03A4863
:1027300085420AD03948854227D13D4C204603F0D6
:1027400023FE000132D0314D0EE0374C204603F01D
:102750001BFE80012AD0354D1EE0314C204603F08F
:1027600013FE800222D02F4D204603F00DFE28409C
:10277000012817D0204603F007FE28400228049DB8
:1027800014D103F0F5FD064610E02A4C204603F074
:10279000FBFD00030AD0284D204603F0F5FD28403C
:1027A000012822D103F0ECFD0646049D02988742E1
:1027B00016D2B74214D2244817B30A210A467243EC
:1027C000B2FBF7F2521DB2FBF1F2531E696883426D
:1027D00017D81E48014019436960B6FBF2F601E0C4
:1027E00000206860304605B0F0BD204603F0CCFD07
:1027F00028400228049DD9D103F0B6FD0646D5E74E
:10280000696801436960760AECE7C046FFFFFF0F85
:10281000001BB70000300650002006500010065084
:102820000F00A066FFFF3F000E006066FFFFFF0382
:102830000D0040660600C0A6FFFF0F001802004012
:10284000FFF3FFFFFFCFFFFFFF01000000FEFFFFD0
:10285000034908607047C046014800687047C04699
:10286000040000401B48016802220A4302607047CE
:1028700080B5FFF7F7FF80BC01BC86467046714605
:1028800072467346F4468EF3008874471148016817
:1028900001220A430260704780B5FFF7F7FF80BC52
:1028A00001BC86467046714672467346F4468EF306
:1028B0000088744710B5010E064A8B58FF24240681
:1028C000A0430124844023438B508858A043885060
:1028D00010BDC0460800004080B5FFF7EBFF80BC8C
:1028E00001BC86467046714672467346F4468EF3C6
:1028F00000887447B0B51D4A116803235C1A1C494F
:102900000D682D0613D5022C0ED00D682D060ED5A0
:10291000012C09D00D682D0609D52CB10D682D06A6
:1029200005D5241D032CEBD10020C043B0BD0C689D
:102930009C4304430C6010681B1A0020C2434C687F
:10294000E40711D0022B0ED04C68E4070CD0012B09
:1029500009D04C68E40707D02BB14C68E40703D0DA
:102960001B1D032BEBD11046B0BDC046100000204C
:10297000F8010040F0B581B00022EFF30584EFF3D9
:102980000B83002C00D18CE0002B00D089E08F4C11
:1029900064CC2368154335431D430C3C6E1E2A4608
:1029A000B24125B18B4200D17AE0082500E0002534
:1029B000E3695E425E4127693FB967692FB9A7693C
:1029C0001FB9324001D0012502E08B4200D167E0FF
:1029D000E26A236A43B9636A33B9A36A23B9082D4B
:1029E00002D10AB9022501E08A4259D0E26B236B79
:1029F00043B9636B33B9A36B23B9082D02D10AB96C
:102A0000032501E08A424BD0E26C236C43B9636C2E
:102A100033B9A36C23B9082D02D10AB9042501E00A
:102A20008A423DD0E26D236D43B9636D33B9A36D26
:102A300023B9082D02D10AB9052501E08A422FD019
:102A4000E26E236E43B9636E33B9A36E23B9082DCA
:102A500002D10AB9062501E08A4221D0E36F226F34
:102A600042B9626F32B9A26F22B91BB9082D01D1E8
:102A7000072504E000228B4213D0072D11D80E4603
:102A80000746083002F0BCFC50B10C49C151C219D4
:102A90002B01E2505160E118091D45C16A1C00E09C
:102AA0000022104601B0F0BC02BC8E467146724650
:102AB0007346F4468EF300887447C046A5EDF5FED4
:102AC00010B5401EEFF3058207280ED86AB1000149
:102AD0003E4A1418E068884207D1606802F036FD6B
:102AE000002020606060A060E06010BC01BC8646F1
:102AF0007046714672467346F4468EF300887447FA
:102B000080B5EFF30580414241410F4802780A4306
:102B1000D1070DD101210170002080F30B8880F3D3
:102B200009882A488021FDF738FC022080F31488A8
:102B300080BC01BC86467046714672467346F446B8
:102B40008EF300887447C0461812002080B5401EDE
:102B500007280AD8EFF30B823AB900011B4A101874
:102B6000C2688A4201D100F00BF880BC01BC8646E5
:102B70007046714672467346F4468EF30088744779
:102B8000EFF3058121B106C882F30B8881F3098830
:102B90007047000080B5401E07280CD800010B4A82
:102BA0001018EFF30B824368934204D1C2688A4243
:102BB00001D100F00DF880BC01BC8646704671461C
:102BC00072467346F4468EF300887447883A0020B4
:102BD000EFF3058139B1EFF309810160002181F341
:102BE0000B8881F309887047EFF3058030B10748FF
:102BF0000168074A0A43074911400160704671465F
:102C000072467346F4468EF3008874470CED00E07C
:102C10000040FA05FFFFFA05EFF3058078B10C4894
:102C2000016840F600420A43026001204107094A58
:102C300013688B431360800611680143116070466E
:102C4000714672467346F4468EF300887447C04658
:102C50008CED00E034EF00E010B50121CA05C3B2ED
:102C600010490A2B0FD10B68134208D00B6813428E
:102C700005D00B68134202D00B681342F3D10B4608
:102C8000183B0D241C600B68134208D00B681342DC
:102C900005D00B68134202D00B681342F3D11839E8
:102CA000086010BD1800075080B50A48FEF776F896
:102CB00009A003F09FF80320FFF71CFE80BC01BCB5
:102CC00086467046714672467346F4468EF3008817
:102CD0007447C04600366E0153657420706F776587
:102CE00072206C6576656C20746F20312E30560D25
:102CF0000000000080B50A48FEF750F809A003F074
:102D000079F80020FFF7F6FD80BC01BC86467046CE
:102D1000714672467346F4468EF300887447C04687
:102D200000D8B80553657420706F776572206C65A4
:102D300076656C20746F20312E3236560D000000FF
:102D400080B503F01DFB0749086003F015FB7D49C2
:102D50000860054940180549B0FBF1F004490860D6
:102D600080BDC0460C00002020A1070040420F009B
:102D700008000020F0B581B0FDF76BFAC0005F4D90
:102D800021D4592016218822286029602A602B68C6
:102D90007BB9286029602A602B6853B928602960B4
:102DA0002A602B682BB9286029602A602B68002BC9
:102DB000EAD053480146103941F200020A60016826
:102DC000504A0A4302605049084608384F4A026098
:102DD0004F48032606601F22530343604D4B836018
:102DE000042303604C4B43604C4B8360052303601A
:102DF0004B4C44604B4C8460062404604A4C446055
:102E00004A4C8460072404601B074360484B83607E
:102E10000346083B01241C600B680827BB430B607A
:102E2000091F444B0B60066043499143416043498D
:102E300031431C2291438160FFF73AFA3004404944
:102E40000968814258D03F490968711A59221623EE
:102E500088262A602B602E60022917D02F68AFB910
:102E60002A602B602E60012910D02F6877B92A6064
:102E70002B602E6051B12F6847B92A602B602E60FD
:102E8000091D032902D02F68002FE2D02E490A46DF
:102E9000103A112313600A460C3A2C4B13600A1F98
:102EA000002313600C600B6833B10B6823B10B680F
:102EB00013B10B68002BF6D10B46083B1D686D1C47
:102EC0000BD0222515600C600D6835B10D6825B159
:102ED0000D6815B10D68002DF6D118602120106025
:102EE0000C60086830B1086820B1086810B1086843
:102EF0000028F6D11648046001B0F0BD0001004082
:102F0000040200400040F0FF10ED00E0000000006F
:102F1000D8ED00E0E3F7030000000310E1FF0F101D
:102F2000007E8000E37F800000800030E1FF0430FD
:102F3000E1FFFF5F0000FA058062000040650000CD
:102F400028F002401000002010C0004000082100BE
:102F500008000040F0B581B016460D4604462B4FE0
:102F6000B8420ED000202B498C420CDD2A498C42FD
:102F700011D02A498C4210D029498C4229D12B48A2
:102F80000EE021480CE027498C4208D026498C42AB
:102F90001FD1294804E0274802E0254800E01C48EA
:102FA00003F0F2F9022808D12548844209DCBC422A
:102FB0000DD01C4884420AD022E080001F490858E6
:102FC00007E01748844202D01448844218D103F025
:102FD000CBF9410800228E4201D9022107E0B0FB63
:102FE000F6F10B0E03D05A1CB1FBF2F11A46154351
:102FF00025606160521C4A43B0FBF2F001B0F0BDA5
:1030000003F0B6F9E5E7C0460200805E0000054027
:103010000300C05EFF100550001105500020055050
:103020000021055000010540001005500500C0BEFC
:10303000040080BE0500405F0400005F245F0000C4
:10304000FF1F055000480047218200000448016826
:103050004A424A4102600348012101607047C0466C
:103060003049004008010540004800475D800000ED
:10307000F0B589B00D460446434801A9CCC8CCC17F
:10308000CCC8CCC1414884420ADC4848844215DCA3
:103090004A48844225D04A48844226D0494809E01B
:1030A0003B48844212DC3E4884421AD03D48844268
:1030B0001BD03D48844265D1464E25E03C488442C1
:1030C00011D03C4884421ED03B4806E0314884423F
:1030D00009D03148844216D03048844252D13A4E09
:1030E00004E03E4E10E03A4E00E03B4E304603F026
:1030F0004BF90746304603F04BF90646042F1AD128
:1031000003F036F90CE0314E304603F03DF9074646
:10311000304603F03DF90646042F0CD103F024F9A4
:10312000002121630321E160A1682D4A0A40A260C9
:10313000059004270DE0002020630320E060A068D4
:1031400027490140A160012F03D103F019F9029032
:103150000127BDB1B80001A90858711CB0FBF1F1FD
:1031600068080818B0FBF5F0801E020C06D0E800D5
:103170000818B0FBF5F00009801E02E003210907E2
:103180000843606209B0F0BD445F0000FFFF0650D5
:10319000FF2F0750003007500040075000500750E5
:1031A000000007500010075000200750FF2F074075
:1031B0000030074000400740005007400000074033
:1031C0000010074000200740953DCC7F143D8C7FC8
:1031D000933CCC6F123C8C6F913D406F103D006F63
:1031E0000FFFF0FF80B5FFF743FF80BC01BC8646B0
:1031F0007046714672467346F4468EF300887447F3
:1032000070B50C4605462F4EFDF723F8C00001D5DA
:10321000F54801E030461038016808220A43026090
:1032200030460C38056068051FD030460838046009
:10323000301F2121016001203060ED480068C00886
:1032400003210A1A00212148336883B3022A2BD0B4
:10325000336863B3012A27D0336843B322B333689A
:103260002BB3121D032AEFD11EE0301F2221016073
:1032700001203060DE48006880080321091A1248E6
:103280003268002AD1D002290ED03268002ACCD070
:10329000012909D03268002AC7D029B13268002A32
:1032A000C3D0091D0329EBD102F0A4FD0221084679
:1032B00070BC02BC8E46714672467346F4468EF36D
:1032C0000088744710C0004076600000B7600000BE
:1032D00080B584B001AB07C33F4801A903F078F87B
:1032E00004B080BD10B58AB0109C09940F9C08945E
:1032F0000E9C07940D9C06940C9C059404930392D9
:1033000002910190072906D0022909D1324801A96A
:1033100003F06AF805E0304801A903F08DF800E0F9
:10332000014800B20AB010BDBEFF000010B586B063
:10333000099C0594089C04940393029201910090C7
:103340002548694603F058F806B010BD10B5074C83
:10335000204641F20001FDF720F819200103204624
:1033600040F29812FDF700F810BDC0460070002032
:1033700080B582B0019100901748694603F060F86B
:1033800002B080BD80B584B001AB07C3124801A96B
:1033900003F066F804B080BD80B582B00191009062
:1033A0000D48694603F060F802B080BD80B584B076
:1033B00001AB07C3084801A903F05AF804B080BD67
:1033C00080B584B00391029000200190024801A9C9
:1033D00003F01EF804B080BD4D50D7DC10B50121BC
:1033E000CA05C3B210490A2B0FD10B68134208D08B
:1033F0000B68134205D00B68134202D00B681342CE
:10340000F3D10B46183B0D241C600B68134208D007
:103410000B68134205D00B68134202D00B681342AD
:10342000F3D11839086010BD18000750F0B58FB0FF
:103430001E4615460191074607AC601C1F21FCF78C
:10344000ACFF812020701B4806901B4805901B484C
:1034500004901B4803901B48029005212046FFF76B
:103460009BFF01460024E04309B10FB0F0BD009579
:10347000054607A83946019AFFF798FF28B907A81B
:1034800003A91022FFF792FF10B128460FB0F0BD3C
:1034900007A802A90422FFF789FF00282846E4D1E3
:1034A000326807A80099FFF76DFF0028DDD0E043E0
:1034B0000FB0F0BD666F726D506C61747269747993
:1034C0005365637501020304054800684000C00F9E
:1034D000714672467346F4468EF300887447C046C0
:1034E00040C0004070B504460120C54302F000FF13
:1034F00074B12F210903AF2212030B4600B113460A
:103500001B680D4EB3420BD120B12432114602E0AC
:103510006D1C05E02431094A2046FCF725FF0025F3
:10352000284670BC02BC8E46714672467346F4460D
:103530008EF300887447C0464D53434B5C06000031
:1035400010B5FFF789F90446FFF782F9204610BC51
:1035500002BC8E46714672467346F4468EF300886E
:103560007447000070B5012585F310881D4CFCF7E9
:1035700070FEC00001D51C4801E0204610380168EB
:1035800029430160194800210160194A1268231F6C
:103590002E261E6023460C3B2E051E602560D20899
:1035A000521C236883B1531E012B0BDB25685DB1D0
:1035B000022A07D025683DB1032B03DB23681BB12A
:1035C000121FEED1C9430160FFF74CF970BC01BC7A
:1035D00086467046714672467346F4468EF30088FE
:1035E0007447C04610C0004000C000507012002058
:1035F00010000020F0B58BB04A4D2846FDF780F84A
:103600000024284621462246FDF78CFD464D2F46D4
:103610000C3F3868454908400321090440183860C8
:1036200038684349084043F2000140183860414E71
:103630003046FDF765F8304621462246FDF772FD1B
:1036400028461C38016870220A9211438022099290
:10365000D243089211400160016807220A43082101
:1036600006918A430260344E3046FDF749F83046F1
:1036700021462246FDF756FD2E46103E30682B4966
:1036800008400122D104401830600F20039001054A
:103690003068079188430592D1054018306027486B
:1036A000FDF72EF8254821462246FDF73BFD3868F8
:1036B0000A9908430899084038603868204908404A
:1036C00040F20071401838601E4F3846FDF718F878
:1036D000384621462246FDF725FDE868184908408E
:1036E00040F200614018E860E868114F384046F247
:1036F00000014018E8601448FDF702F828691049F5
:10370000084040F20051401828612869384045F2CD
:10371000000140182861FCF79CFDC0000B481BD538
:1037200016E0C046103D006F50000040FFFFF0FF64
:10373000FF0FFFFF913D406F123C8C6F933CCC6FAD
:10374000FFF0FFFF953DCC7F0900004000410040A5
:10375000004801E000410050A42142580C231343CB
:1037600043505F4F3846FCF7CBFF20210891384685
:103770002246FDF7D7FC284620380168042204922F
:1037800011430B22D2430A400260016840220A9290
:103790001143B022914301600168524A114040F246
:1037A00000428918016001684F4A114044F200024A
:1037B000891801604D4F3846FCF7A2FF3846214674
:1037C0002246FDF7AFFC4A4F3846FCF799FF3846D2
:1037D00006992246FDF7A6FC30680D2102910843A8
:1037E0000224A04330603068D0210143089881430F
:1037F0003160306840F600710843306030684FF245
:10380000000738433060039A1006291F0E680643EC
:1038100003460E60E9693943E961E96940F60070E1
:103820000143E961E969F02631430196E961E969FB
:103830001143E961296811432960296831432960EE
:1038400029680143296029683943296011042F68D8
:103850000F432F602F68079807432F602F681E467D
:103860001F432F6017072B683B432B602B46083BF9
:103870001A6832431A601A683A431A60059A1207A6
:10388000521E6B691340029A12079A186A616A699C
:1038900032436A616A6902436A616A690A436A611A
:1038A00069694FF2000001436961696940F600707F
:1038B0000143696169690198014369616968394334
:1038C0006960696831436960DB4F3E46403EDB4DCD
:1038D000403DFCF7BEFCC00030460CD50AE0C046B7
:1038E0000D004066FFF0FFFFFF0FFFFF1800209262
:1038F0001C0030922846102107912246FDF742FF16
:10390000FCF7A7FCC000304600D528460A9922469D
:10391000FDF738FFFCF79DFCC000304600D5284677
:1039200009992246FDF72EFFFCF793FCC0003046B4
:1039300000D5284640F600012246FDF723FFFCF79C
:1039400088FCC000304600D5284644F200012246DB
:10395000FDF718FFFCF77DFCC00000D52E46304671
:1039600048F200012246FDF70DFFFCF772FCC00093
:103970003846B24D00D5284607992246FDF702FF8A
:10398000FCF767FCC000384600D528460899224657
:10399000FDF7F8FEFCF75DFCC000384600D5284670
:1039A0000A992246FDF7EEFEFCF753FCC0003846AC
:1039B00000D5284609992246FDF7E4FEFCF749FCAC
:1039C000C000384600D5284640F200112246FDF7D7
:1039D000D9FEFCF73EFCC000384600D5284640F230
:1039E00000212246FDF7CEFEFCF733FCC00038462E
:1039F00000D5284640F200412246FDF7C3FEFCF701
:103A000028FCC000384600D5284640F60001224672
:103A1000FDF7B8FEFCF71DFCC000384600D528466F
:103A200041F200012246FDF7ADFEFCF712FCC0009A
:103A3000384600D5284642F200012246FDF7A2FE94
:103A4000FCF707FCC000384600D5284648F20001C4
:103A50002246FDF797FE3E4640364035FCF7F9FB1F
:103A6000C000304600D528460A992246FDF78AFE56
:103A7000FCF7EFFBC00000D52E46304640F20011A7
:103A80002246FDF77FFE80376C4E8036FCF7E1FB67
:103A9000C000384600D5304605992246FDF772FE33
:103AA000FCF7D7FBC0003846624D00D530462146B2
:103AB0002246FDF767FEFCF7CCFBC000384600D578
:103AC000304604992246FDF75DFEFCF7C2FBC000BC
:103AD000384600D5304606992246FDF753FEFCF7DE
:103AE000B8FBC000384600D5304607992246FDF79E
:103AF00049FEFCF7AEFBC000384600D530460899B9
:103B00002246FDF73FFEFCF7A4FBC000384600D577
:103B1000304640F200412246FDF734FEFCF799FBA7
:103B2000C00000D53746384640F600012246FDF772
:103B300029FEFCF78EFBC0003D4F384600D52846D5
:103B400040F200112246FDF71DFEFCF782FBC0008B
:103B5000384600D5284640F200212246FDF712FEE5
:103B6000FCF777FBC000384600D5284640F20041FC
:103B70002246FDF707FEFCF76CFBC000384600D577
:103B8000284640F600012246FDF7FCFD3E46403641
:103B90004035FCF75EFBC000304600D528460A9948
:103BA0002246FDF7EFFDFCF754FBC000304600D580
:103BB000284609992246FDF7E5FDFCF74AFBC000BF
:103BC00000D52E46304640F200112246FDF7DAFDC0
:103BD000C037184DC035FCF73CFBC000384600D557
:103BE000284607992246FDF7CDFDFCF732FBC000C1
:103BF000384600D5284608992246FDF7C3FDFCF754
:103C000028FBC000384600D528460A992246FDF711
:103C1000B9FDFCF71EFBC00000D52F4638460999B8
:103C200022460BB0F0BC08BC9E46FDF7ABBDC046BB
:103C300000410040004100504040004040400050E2
:103C4000064801684A424A4102607046714672461F
:103C50007346F4468EF300887447C04630490040EE
:103C600070B5C74EB544C74E30680321081AC6491F
:103C70005922162388240A600B600C60022817D092
:103C80000D68ADB90A600B600C60012810D00D689A
:103C900075B90A600B600C6050B10D6845B90A60D7
:103CA0000B600C60001D032802D00D68002DE2D0CF
:103CB000B64A106840F60071884340F6002140186B
:103CC000106010684FF2000188434AF2000140186A
:103CD0001060AF48FCF7E4FE3920FDF79DFAAD48CF
:103CE000FDF75CF8FDF756FBFFF784FCAA4818388F
:103CF000E1214902FFF7BCF9A84C2068A84901401E
:103D000020684000C20FA7A001F0BAFD05A8042159
:103D10000191FDF7B3FBACA002F06CF8AD4801686F
:103D2000ADA001F0ADFD0599B3A001F0A9FD802083
:103D300005990840890602D420B1C14903E030B991
:103D4000B9A005E0BD49BF4801F09AFD02E0B1A06D
:103D500002F050F82068800001D5BC4800E0BA4865
:103D600002F048F83168BA4801F08AFDFCF771FAB0
:103D7000C00001D5B84800E0B648012741F2000173
:103D80003A46FDF791FCB54C2046FCF7B9FC0026FD
:103D9000204647F200013246FDF7C4F9F906B04C5F
:103DA000022520462A46FFF7D5F8049779072068B0
:103DB000039108432060AB48029505607349583968
:103DC000206808432060A84801F05AFDFFF7BEFABA
:103DD00030463146FFF7F4FA0146193001D088B277
:103DE00018B9A24802F006F802E0A14801F048FD27
:103DF000A04801F045FD05A802F0A6FA049D38B1DF
:103E000001469D4801F03CFD9C4801F0F3FFB1E004
:103E1000964801F0EFFF9A4801F032FD01F0EAFB0D
:103E200038B10146944801F02BFD964801F0E2FFBD
:103E3000A0E02E078D4801F0DDFF934801684A425B
:103E40004A410260A8072168814321608F48029996
:103E50000160BFF34F8FBFF36F8F206803998843D2
:103E600020607E48FCF740FC89488A49016001686F
:103E7000096881F388880F210A07006841680A40B1
:103E8000B2422CD13F480068019A101A424C02E01D
:103E9000001D002B4ED1C31E5A425A4123683342A3
:103EA0002B4600D11346002B44D1831E5A425A415F
:103EB000236833422B4600D11346DBBB431E5A42D4
:103EC0005A41236833422B4600D1134693BB4242EA
:103ED0004241236833422B46DAD11346D8E76E4875
:103EE00001F088FF6D4801F085FF6D4880F38888F8
:103EF0006C486D49016000206C49F0B45F4656463D
:103F00004D464446F0B4012291430A460B460C4606
:103F10000D460E460F46884689468A468B468C4695
:103F200081F300888C47F0BCA046A946B246BB4648
:103F3000F0BCFEE70398801E01400020F0B45F460D
:103F400056464D464446F0B4012291430A460B467C
:103F50000C460D460E460F46884689468A468B46D5
:103F60008C4681F300888C47F0BCA046A946B24637
:103F7000BB46F0BC30BF30BF30BF30BFFAE7C046F1
:103F800090F9FFFF100000200001004058000040A1
:103F90000D00200000D8B8051800075040C00040B0
:103FA00000FEFF000A0A5365637572653A205645A4
:103FB000434D4150203D20307825782C2062616EA1
:103FC0006B203D256C750A004368697020696E6638
:103FD0006F3A000028F00240095B53656375726513
:103FE00020626F756E64617279203A2030782530D6
:103FF00038785D0A00000000095B434F4E46494790
:10400000302020202020202020203A203078253009
:1040100038785D0009426F6F742066726F6D2041C1
:1040200050524F4D2E00000009426F6F742066728F
:104030006F6D204C44524F4D2E0000001460000064
:104040001A600000745F00003A6000002060000009
:104050009A5F000000410040004100500300C05E34
:104060000001054004E100E002600000F76000008C
:10407000685F0000E65F00008F5F0000D460000012
:10408000CC5F0000556000003049004084E100E052
:1040900008ED02E000000310AE5F00009360000036
:1040A0000082003000800030FFE7FEE70180003032
:1040B000B0B50246C648C74B9A421BD1EFF31082F7
:1040C00072B6C54C2278012A02D162B60B3011E0DB
:1040D0000120207062B60A7A0B7908680B4D1946E8
:1040E000A847EFF3108172B62178012901D1002190
:1040F000217062B600B2B0BC02BC8E4671467246F8
:104100007346F4468EF300887447C0468535010037
:10411000B0B50246DB48DC4B9A421BD1EFF310826C
:1041200072B6E14C2278012A02D162B60B3011E05E
:104130000120207062B60A7A0B7908680B4D194687
:10414000A847EFF3108172B62178012901D100212F
:10415000217062B600B2B0BC02BC8E467146724697
:104160007346F4468EF300887447C046D5D10000EC
:10417000B0B50246E348E44B9A421AD1EFF31082FD
:1041800072B6E24C2278012A02D162B60B3010E0FE
:104190000120207062B609C90A680B4D1946A8476C
:1041A000EFF3108172B62178012901D1002121702D
:1041B00062B600B2B0BC02BC8E467146724673460F
:1041C000F4468EF30088744729D30000F0B587B019
:1041D0000246E948E94B9A422DD1EFF3108272B6BC
:1041E000E74B1A78012A02D162B60B3023E0CE6980
:1041F0000F690120187062B620200D5CC868069017
:104200008B680C790A6848698969B6B2BFB20097B1
:1042100001AF43C704950E4D104621461A46069B32
:10422000A847F24AEFF3108172B61178012901D143
:104230000021117062B600B207B0F0BC02BC8E461D
:10424000714672467346F4468EF300887447C04642
:10425000CDCD000070B582B00246E248E24B9A42F2
:1042600020D1EFF3108272B6E04D2A78012A02D1F4
:1042700062B60B3016E00120287062B611C9083909
:104280000E4608364CCE4969009601910B4E2146E8
:10429000B047EFF3108172B62978012901D10021CE
:1042A000297062B600B202B070BC02BC8E46714684
:1042B00072467346F4468EF300887447D1CF0000EF
:1042C00070B582B00246E148E14B9A4220D1EFF34B
:1042D000108272B6DF4D2A78012A02D162B60B3005
:1042E00016E00120287062B611C908390E4608365A
:1042F0004CCE4969009601910B4E2146B047EFF331
:10430000108172B62978012901D10021297062B685
:1043100000B202B070BC02BC8E4671467246734653
:10432000F4468EF300887447F5D3000010B5EFF320
:10433000108072B6EA4C2078012802D162B60E488D
:104340000DE00120207062B60A488047EFF310812B
:1043500072B62178012901D10021217062B600B224
:1043600010BC02BC8E46714672467346F4468EF30C
:1043700000887447F9200100F1FF000010B50146E4
:10438000EF48F04A914217D1EFF3108172B6EE4C2C
:104390002178012902D162B60B300DE00120207096
:1043A00062B60E488047EFF3108172B6217801297A
:1043B00001D10021217062B600B210BC02BC8E4651
:1043C000714672467346F4468EF300887447C046C1
:1043D000E6FF00004D50D7DC74120020513A010076
:1043E000F0B583B0F14CF24A90423FD10191274899
:1043F000007802A90870264E3046FCF781F90025A6
:10440000304629462A46FCF78DFE0320C106214E80
:10441000012730463A46FEF79DFD78073168014393
:1044200031601D480760B807316801433160FCF70F
:10443000B1FF1A481A491B4A9047EFF3108072B631
:10444000F64E3078012802D162B60B340EE0377098
:1044500062B6019A07CA154B98470446EFF31080DD
:1044600072B63078012800D1357062B620B203B040
:10447000F0BC02BC8E46714672467346F4468EF31B
:1044800000887447E6FF00004D50D7DC0180000033
:104490000200805E0000054004E100E0B10300007E
:1044A000355D0000F9500100741200201D2101004B
:1044B00010B50146F048F14A914217D1EFF310814F
:1044C00072B6EF4C2178012902D162B60B300DE0B3
:1044D0000120207062B60E488047EFF3108172B65B
:1044E0002178012901D10021217062B600B210BCEF
:1044F00002BC8E46714672467346F4468EF30088BF
:104500007447C046E6FF00004D50D7DC741200200F
:104510008537010070B582B00246F148F14B9A42EE
:104520001DD1EFF3108272B6EF4D2A78012A02D125
:1045300062B60B3013E00120287062B611C90A6818
:104540004B68896800910F4E2146B047EFF3108108
:1045500072B62978012901D10021297062B600B212
:1045600002B070BC02BC8E46714672467346F44679
:104570008EF300887447C046E6FF00004D50D7DC3C
:104580007412002099E40000B0B50246EE48EF4BEB
:104590009A421BD1EFF3108272B6ED4C2278012AB9
:1045A00002D162B60B3011E00120207062B60A7AA7
:1045B0000B7908680E4D1946A847EFF3108172B6C3
:1045C0002178012901D10021217062B600B2B0BC6E
:1045D00002BC8E46714672467346F4468EF30088DE
:1045E0007447C046E6FF00004D50D7DC741200202F
:1045F00059E00000B0B50246ED48EE4B9A421AD1A0
:10460000EFF3108272B6EC4C2278012A02D162B626
:104610000B3010E00120207062B609C90A680E4D07
:104620001946A847EFF3108172B62178012901D10C
:104630000021217062B600B2B0BC02BC8E46714649
:1046400072467346F4468EF300887447E6FF000016
:104650004D50D7DC74120020BDE20000F0B587B0E9
:104660000246F248F24B9A422DD1EFF3108272B615
:10467000F04B1A78012A02D162B60B3023E0CE69E2
:104680000F690120187062B620200D5CC868069082
:104690008B680C790A6848698969B6B2BFB200971D
:1046A00001AF43C704950F4D104621461A46069B9D
:1046B000A847FA4AEFF3108172B61178012901D1A7
:1046C0000021117062B600B207B0F0BC02BC8E4689
:1046D000714672467346F4468EF300887447C046AE
:1046E000741200208DE3000010B50246E948EA4B41
:1046F0009A421AD1EFF3108272B6E84C2278012A5E
:1047000002D162B60B3010E00120207062B60A7947
:1047100008680E4B11469847EFF3108172B6217866
:10472000012901D10021217062B600B210BC02BC87
:104730008E46714672467346F4468EF3008874477F
:10474000E6FF00004D50D7DC74120020F135010067
:10475000B0B50246E848E94B9A421BD1EFF310820C
:1047600072B6E74C2278012A02D162B60B3011E012
:104770000120207062B68A680B7908680D4D1946D1
:10478000A847EFF3108172B62178012901D10021E9
:10479000217062B600B2B0BC02BC8E467146724651
:1047A0007346F4468EF300887447C046E6FF000067
:1047B0004D50D7DC4136010070B582B00246EC485E
:1047C000EC4B9A421ED1EFF3108272B6EA4D2A7872
:1047D000012A02D162B60B3014E00120287062B6C3
:1047E0004C680E4608364CCE087800960C4E214692
:1047F000B047EFF3108172B62978012901D1002169
:10480000297062B600B202B070BC02BC8E4671461E
:1048100072467346F4468EF3008874477412002083
:10482000B9F7000010B50246EB48EC4B9A4218D19C
:10483000EFF3108272B6EA4C2278012A02D162B6F6
:104840000B300EE00120207062B603C90D4A90477C
:10485000EFF3108172B62178012901D10021217076
:1048600062B600B210BC02BC8E46714672467346F8
:10487000F4468EF300887447E6FF00004D50D7DC05
:10488000741200205DF80000B0B50246EC48ED4B14
:104890009A421AD1EFF3108272B6EB4C2278012AB9
:1048A00002D162B60B3010E00120207062B609C957
:1048B0000A680E4D1946A847EFF3108172B62178A9
:1048C000012901D10021217062B600B2B0BC02BC46
:1048D0008E46714672467346F4468EF300887447DE
:1048E000E6FF00004D50D7DC741200207DF7000079
:1048F00010B50246F148F24B9A421AD1EFF31082FA
:1049000072B6F04C2278012A02D162B60B3010E068
:104910000120207062B60A7908680E4B114698474C
:10492000EFF3108172B62178012901D100212170A5
:1049300062B600B210BC02BC8E4671467246734627
:10494000F4468EF300887447E6FF00004D50D7DC34
:10495000741200205DF60000B0B50246F048F14B3D
:104960009A421AD1EFF3108272B6EF4C2278012AE4
:1049700002D162B60B3010E00120207062B609C986
:104980000A680E4D1946A847EFF3108172B62178D8
:10499000012901D10021217062B600B2B0BC02BC75
:1049A0008E46714672467346F4468EF3008874470D
:1049B000E6FF00004D50D7DC74120020F5F6000031
:1049C000F0B583B00246EF48EF4B9A4222D1EFF3A5
:1049D000108272B6ED4D2A78012A02D162B60B30F0
:1049E00018E08E690F698A680120287062B6CB686A
:1049F0004C68087849690097019102960E4E21464D
:104A0000B047EFF3108172B62978012901D1002156
:104A1000297062B600B203B0F0BC02BC8E4671468B
:104A200072467346F4468EF300887447E6FF000032
:104A30004D50D7DC7412002095000100B0B502463D
:104A4000E948EA4B9A421AD1EFF3108272B6E84C69
:104A50002278012A02D162B60B3010E08A68012068
:104A6000207062B609C90E4D1946A847EFF31081B0
:104A700072B62178012901D10021217062B600B2FD
:104A8000B0BC02BC8E46714672467346F4468EF345
:104A900000887447E6FF00004D50D7DC74120020F8
:104AA000D9FF000010B50246E848E94B9A4218D1F8
:104AB000EFF3108272B6E74C2278012A02D162B677
:104AC0000B300EE00120207062B608680D4988475F
:104AD000EFF3108172B62178012901D100212170F4
:104AE00062B600B210BC02BC8E4671467246734676
:104AF000F4468EF300887447E6FF00004D50D7DC83
:104B000074120020F9FD000070B582B00246ED4835
:104B1000ED4B9A421FD1EFF3108272B6EB4D2A781B
:104B2000012A02D162B60B3015E00E69CB68012074
:104B3000287062B68A680C790868B1B200910F4E8D
:104B40002146B047EFF3108172B62978012901D1CF
:104B50000021297062B600B202B070BC02BC8E4661
:104B6000714672467346F4468EF300887447C04619
:104B7000E6FF00004D50D7DC7412002021FC00003D
:104B8000B0B50246F648F74B9A421AD1EFF31082BD
:104B900072B6F54C2278012A02D162B60B3010E0D1
:104BA0008A680120207062B609C90E4D1946A847CF
:104BB000EFF3108172B62178012901D10021217013
:104BC00062B600B2B0BC02BC8E46714672467346F5
:104BD000F4468EF300887447E6FF00004D50D7DCA2
:104BE00074120020A1FE0000B0B50246F648F74B53
:104BF0009A421AD1EFF3108272B6F54C2278012A4C
:104C000002D162B60B3010E00120207062B609C9F3
:104C10000A680E4D1946A847EFF3108172B6217845
:104C2000012901D10021217062B600B2B0BC02BCE2
:104C30008E46714672467346F4468EF3008874477A
:104C4000E6FF00004D50D7DC74120020ED1F01007C
:104C5000F0B583B00246F948F94B9A4221D1EFF3FF
:104C6000108272B6F74D2A78012A02D162B60B3053
:104C700017E00120287062B611C908390F460837BD
:104C8000CCCF89690096019702910F4E2146B0471B
:104C9000EFF3108172B62978012901D10021297022
:104CA00062B600B203B0F0BC02BC8E4671467246DA
:104CB0007346F4468EF300887447C046E6FF000052
:104CC0004D50D7DC741200205D3A010010B5024649
:104CD000F748F84B9A4218D1EFF3108272B6F64CAF
:104CE0002278012A02D162B60B300EE0012020703A
:104CF00062B603C90D4A9047EFF3108172B621786E
:104D0000012901D10021217062B600B210BC02BCA1
:104D10008E46714672467346F4468EF30088744799
:104D2000E6FF00004D50D7DC74120020790B010023
:104D3000B0B50146FC48FD4A914218D1EFF310810D
:104D400072B6FB4D2978012902D162B60B300EE014
:104D50000120287062B600240D4920468847EFF3F1
:104D6000108172B62978012900D12C7062B600B288
:104D7000B0BC02BC8E46714672467346F4468EF352
:104D800000887447E6FF00004D50D7DC7412002005
:104D90003920010010B50246E348E44B9A4218D18D
:104DA000EFF3108272B6E24C2278012A02D162B689
:104DB0000B300EE00120207062B608680D4988476C
:104DC000EFF3108172B62178012901D10021217001
:104DD00062B600B210BC02BC8E4671467246734683
:104DE000F4468EF300887447E6FF00004D50D7DC90
:104DF000741200205D4F010010B50246F148F24BDD
:104E00009A4218D1EFF3108272B6F04C2278012A40
:104E100002D162B60B300EE00120207062B6087835
:104E20000D498847EFF3108172B62178012901D12D
:104E30000021217062B600B210BC02BC8E467146E1
:104E400072467346F4468EF300887447E6FF00000E
:104E50004D50D7DC74120020B137010070B582B01C
:104E60000246F248F24B9A4220D1EFF3108272B61A
:104E7000F04D2A78012A02D162B60B3016E0CB68D9
:104E80000120287062B68A680C7908680E69496941
:104E9000009601910E4E2146B047EFF3108172B695
:104EA0002978012901D10021297062B600B202B02F
:104EB00070BC02BC8E46714672467346F4468EF351
:104EC00000887447E6FF00004D50D7DC74120020C4
:104ED000959E0000F0B58DB00246F148F14B9A4224
:104EE00031D1EFF3108272B6EF4B1A78012A02D15A
:104EF00062B60B3027E00120187062B688680B900C
:104F0000C8680C900E694F698D6908790A90086825
:104F100009900C7F0B4620330DCBC96A0096019790
:104F20000295039404AC0DC40791104C09AB0FCB50
:104F3000A047FA4AEFF3108172B61178012901D126
:104F40000021117062B600B20DB0F0BC02BC8E46FA
:104F5000714672467346F4468EF300887447C04625
:104F6000E6FF00004D50D7DC74120020259F0000A2
:104F7000B0B50246E748E84B9A421AD1EFF31082E7
:104F800072B6E64C2278012A02D162B60B3010E0EC
:104F90000120207062B609C90A680E4D1946A8475B
:104FA000EFF3108172B62178012901D1002121701F
:104FB00062B600B2B0BC02BC8E4671467246734601
:104FC000F4468EF300887447E6FF00004D50D7DCAE
:104FD00074120020F1A2000070B582B00246EA48C7
:104FE000EA4B9A421ED1EFF3108272B6E84D2A784E
:104FF000012A02D162B60B3014E00E69012028703C
:1050000062B6CB680A7A0C79086800960E4E214683
:10501000B047EFF3108172B62978012901D1002140
:10502000297062B600B202B070BC02BC8E467146F6
:1050300072467346F4468EF300887447E6FF00001C
:105040004D50D7DC74120020F1A1000070B582B081
:105050000246E748E74B9A421DD1EFF3108272B641
:10506000E54D2A78012A02D162B60B3013E08A6836
:105070000120287062B6CB6811C9896800910F4E73
:105080002146B047EFF3108172B62978012901D18A
:105090000021297062B600B202B070BC02BC8E461C
:1050A000714672467346F4468EF300887447C046D4
:1050B000E6FF00004D50D7DC7412002081A20000F2
:1050C00070B582B00246CA48CA4B9A4220D1EFF36B
:1050D000108272B6C84D2A78012A02D162B60B300E
:1050E00016E0CB680120287062B68A680C790868DF
:1050F0000E694969009601910E4E2146B047EFF3C3
:10510000108172B62978012901D10021297062B677
:1051100000B202B070BC02BC8E4671467246734645
:10512000F4468EF300887447E6FF00004D50D7DC4C
:1051300074120020059E0000F0B58DB00246AC4808
:10514000AC4B9A4231D1EFF3108272B6AA4B1A7867
:10515000012A02D162B60B3027E00120187062B636
:1051600088680B90C8680C900E694F698D69087942
:105170000A90086809900C7F0B4620330DCBC96A52
:10518000009601970295039404AC0DC40791104C4E
:1051900009AB0FCBA047984AEFF3108172B6117894
:1051A000012901D10021117062B600B20DB0F0BC2E
:1051B00002BC8E46714672467346F4468EF30088F2
:1051C0007447C046E6FF00004D50D7DC7412002043
:1051D000E59F0000B0B502468548864B9A421AD139
:1051E000EFF3108272B6844C2278012A02D162B6A3
:1051F0000B3010E00120207062B609C90A680E4D1C
:105200001946A847EFF3108172B62178012901D120
:105210000021217062B600B2B0BC02BC8E4671465D
:1052200072467346F4468EF300887447E6FF00002A
:105230004D50D7DC7412002089A1000070B582B0F7
:1052400002466B486B4B9A421ED1EFF3108272B646
:10525000694D2A78012A02D162B60B3014E00E693A
:105260000120287062B6CB680A7A0C79086800962B
:105270000E4E2146B047EFF3108172B6297801290E
:1052800001D10021297062B600B202B070BC02BC2C
:105290008E46714672467346F4468EF30088744714
:1052A000E6FF00004D50D7DC7412002089A00000FA
:1052B00070B582B002464E484E4B9A421DD1EFF374
:1052C000108272B64C4D2A78012A02D162B60B3098
:1052D00013E08A680120287062B6CB6811C989681A
:1052E00000910F4E2146B047EFF3108172B6297836
:1052F000012901D10021297062B600B202B070BC50
:1053000002BC8E46714672467346F4468EF30088A0
:105310007447C046E6FF00004D50D7DC74120020F1
:1053200019A1000070B582B002463148314B9A4253
:105330001ED1EFF3108272B62F4D2A78012A02D1C6
:1053400062B60B3014E0CB688A680120287062B620
:1053500011C9097A00919BB20E4E2146B047EFF376
:10536000108172B62978012901D10021297062B615
:1053700000B202B070BC02BC8E46714672467346E3
:10538000F4468EF300887447E6FF00004D50D7DCEA
:1053900074120020A19A0000B0B502461448154BC3
:1053A0009A421AD1EFF3108272B6134C2278012A76
:1053B00002D162B60B3010E00120207062B609C93C
:1053C0000A680E4D1946A847EFF3108172B621788E
:1053D000012901D10021217062B600B2B0BC02BC2B
:1053E0008E46714672467346F4468EF300887447C3
:1053F000E6FF00004D50D7DC741200201D81000034
:10540000F0B582B001467A4A156815B1754803783F
:105410001DE00720C3434B4C6007204601D0E01D30
:105420001840724D42F60006A4191C40083C146056
:10543000002309C5236063601568231A0560436073
:1054400041480360684803606648012303700020F8
:10545000002902D4044619B96AE00124002967D062
:105460001C4065D14B0703D007239943103100E05E
:1054700008314B1E5C4C2468A34259D25B4E346801
:1054800067688F4206D2236823B126461C465F68B0
:105490008F42F8D3AC424BD03068236833607B1A1C
:1054A000112B31D365186E0705D0012080F31088C9
:1054B00080F39088FEE76B6061604C4E3368AB42CE
:1054C00004D21E68AE421946F8D301E031461E46AA
:1054D0004B680093CF1801976F68019BAB4203D1D3
:1054E000009BFF184F600D46EB19B34201D03246C6
:1054F00006E01268964203D07268D2196A60326878
:105500002A60A94200D00D606168374B1A68521AB0
:105510001A600D4B1D68AA4200D21A600830314A49
:10552000127800232360531E9A41D2071143616011
:10553000410705D0012080F3108880F39088FEE7B2
:1055400002B0F0BD7C120020843A0020B0B50028E3
:1055500047D0244909784A1E9141CA07011F0B68A8
:105560001A4208D0083804685CB1012080F3108822
:1055700080F39088FEE7012080F3108880F3908804
:10558000FEE793430B60012282F390880968164A74
:1055900013685B181360154B1C68844204D223689F
:1055A00083422246F8D301E01A462346546815196F
:1055B000854202D109195160104644189C4201D01D
:1055C0001C4607E00A4C2468A34203D05C686118BB
:1055D00041601C680460824200D01060002080F3AB
:1055E0009088B0BD7C3A0020803A0020083B002023
:1055F00078120020F0B5C1B0202025900DAC601CC1
:105600001F21FAF7CAFE80202070022100252046C3
:105610002A46FDF75DFEEE4308B1761E1AE10996B3
:105620008E4805608E4800680890FAF712FEC000A8
:105630008C4E8D4F304600D5384604210C91416088
:10564000FAF707FEC000304600D53846001F056057
:10565000FAF7FFFDC000304600D538460B950560CF
:10566000FAF7F7FDC000304600D5384601218160C9
:105670000A910C070898C008451CFAF7EAFD204279
:10568000304600D03846806820B16D1E012DF4DA16
:10569000099806E0FAF7DDFD2042304600D0384692
:1056A000006808900B9D6D4805606D480068079084
:1056B000FAF7CFFD2042304600D038460C994160C1
:1056C000FAF7C7FD2042304600D03846001F0C993B
:1056D0000160FAF7BEFD2042304600D03846056032
:1056E000FAF7B7FD2042304600D038460A9981606B
:1056F0000798C008451CFAF7ACFD2042304600D0A0
:105700003846806820B16D1E012DF4DA099806E054
:10571000FAF79FFD2042304600D0384600680790D7
:105720000B9D4E4805604E4800680690FAF791FDC3
:105730002042304600D038460C994160FAF789FD86
:105740002042304600D03846001F08210160FAF799
:1057500080FD2042304600D038460560FAF779FDDA
:105760002042304600D038460A9981600698C00829
:10577000451CFAF76EFD2042304600D0384680685E
:1057800038B16D1E002DF4DC099E344806603046A9
:1057900006E0FAF75EFD204200D03E463068099EE2
:1057A000409007983F9008983E9000F0A1FD08B106
:1057B000572000E01720400300682C49884204D19C
:1057C00000F096FD18B12A4802E0F61E3EE0294896
:1057D00015A93CC83CC13CC83CC13CC83CC13CC804
:1057E0003CC13EA80C2126AA25ABFDF71FFE08B13F
:1057F000761F2BE000F07CFD08B11F4800E01F4839
:105800002EA93CC83CC13CC83CC13CC83CC13CC8BA
:105810003CC10B9A04920392402402942EA801905A
:1058200000920DA802211346FDF75CFD08B10A3E67
:105830000CE0019415A800900DA826A920220123B0
:10584000FDF774FD08B9064600E00B3E0DA80221E5
:10585000FDF78EFD304641B0F0BDC046701200200D
:105860001000002008C0004008C0005031565344CA
:1058700044E00A0044E0020004E00A0004E0020000
:105880000FB410B503A9044B044A029800F018F8AD
:1058900010BC08BC04B01847DD3300001C12002007
:1058A00002E008C8121F08C1002AFAD170477047E9
:1058B000002001E001C1121F002AFBD17047000047
:1058C000FFB591B00F460546002606E025280AD010
:1058D000149A139990476D1C761C28780028F5D1EE
:1058E000304615B0F0BD002400940121F34A029423
:1058F00000E004436D1C2B780846203B9840104282
:10590000F7D128782A280ED0022128780246303A8A
:10591000092A15D8009A0A235A43303A80180C43B2
:105920006D1C0090F1E701CF0090002805DA0120FE
:1059300040030443009840420090022004436D1C41
:1059400028782E2815D10420044368786D1C2A2855
:105950000AD101CF6D1C02900BE002990A2251433B
:10596000303940186D1C02902878014630390929D9
:10597000F3D928786C2810D006DC4C281AD0682877
:105980000ED06A2817D104E0742813D07A2812D1D7
:1059900010E00120400504430CE00121090501E06D
:1059A000032109050C436978814203D101200005D8
:1059B00024186D1C6D1C287803906E281ED00CDCFA
:1059C000632831D004DC00288AD0582811D1B2E0F5
:1059D00064287BD069280CD178E073282DD004DCB2
:1059E0006F2870D0702804D1A7E075286CD0782873
:1059F0006BD0149A13999047761C62E06002400FB6
:105A0000022807D003280AD0042838680AD0066084
:105A10003F1D56E03868F11706604160F8E73868C6
:105A20000680F5E70670F3E73878694608740020C9
:105A3000487404A80390012003E038680390002014
:105A4000C0433F1D61070FD5002101E00199491CAA
:105A5000029A0191914213DA8142F7DB019A03998C
:105A6000895C0029F2D10BE0002101E00199491C79
:105A700001918142FADB019A0399895C0029F5D1F1
:105A800001990098139A401A00902146149B00F047
:105A90003BF901998019461807E0039803990078AB
:105AA000491C0391149A139990470198401E019044
:105AB000401CF2D12146149B139A009800F014F96F
:105AC00086196D1C09E741E033E034E00A2000212B
:105AD000049005916002410F022905D001CFC21741
