:020000040000FA
:1000000018120020250200002D0200002F0200001F
:100010005365637572697479706C6174666F726D23
:10002000000000000000000000000000410200008D
:100030000000000000000000430200004502000034
:10004000470200004702000047020000470200008C
:10005000470200004702000047020000470200007C
:10006000470200004702000047020000470200006C
:10007000470200004702000047020000470200005C
:10008000470200004702000047020000470200004C
:10009000470200004702000047020000470200003C
:1000A000470200004702000047020000470200002C
:1000B000470200004702000047020000470200001C
:1000C000412F0000492F00004702000047020000B6
:1000D00047020000470200004702000047020000FC
:1000E00047020000470200004702000047020000EC
:1000F00047020000470200004702000047020000DC
:1001000047020000470200004702000047020000CB
:1001100047020000470200004702000047020000BB
:1001200047020000470200004702000047020000AB
:10013000470200004702000047020000470200009B
:10014000470200004702000047020000470200008B
:10015000470200004702000047020000251500008A
:10016000470200004702000047020000470200006B
:10017000470200004702000047020000470200005B
:10018000470200004702000047020000470200004B
:10019000470200004702000047020000470200003B
:1001A000470200004702000047020000470200002B
:1001B000470200004702000047020000470200001B
:1001C000470200004702000047020000DD1D00005A
:1001D00047020000652F00004702000047020000B0
:1001E00047020000470200004702000047020000EB
:1001F00047020000470200004702000047020000DB
:1002000047020000470200004702000047020000CA
:100210000348854600F0FCF800480047ED3900002F
:10022000181200201248804712480047FEE7704627
:10023000EFF30881EFF309820F4B98470047FEE781
:10024000FEE7FEE7FEE7FEE7ABBE0C4B74469847C1
:1002500020477046F047000009480A490160684697
:1002600008600948486030BFFEE700BF00BF00BF1C
:10027000712C000011020000DD1A00004124000072
:10028000C0020040000001206B020000F0B51FB466
:100290000646002082B005464024019100901BE0F4
:1002A000019922460F46304600F0A0F8049A059BBB
:1002B000801A994110D310461946224600F086F85C
:1002C000361A8F410197224601200021009F00F03D
:1002D0007DF838184D4100902046641E0028DFDC70
:1002E000019B00982946324607B0F0BDF8B50024BE
:1002F0002546002904DA0E46012400214042B1417E
:10030000002B04DA1E46002352420125B341FFF7B9
:10031000BDFF8C4617461E46AC4203D00025404226
:100320008D41AC46002C02D0002657429E416146CA
:100330003A46334601B0F0BD30B5434351435C18F3
:10034000010C130C0D465D432C1980B292B2054688
:10035000554351430A0C09044D1962415843010C9D
:1003600000044019514130BD03460B439B0703D0A5
:1003700009E008C9121F08C0042AFAD203E00B786A
:100380000370401C491C521EF9D27047D2B201E0E2
:100390000270401C491EFBD270470022F6E710B5E0
:1003A00013460A4604461946FFF7F0FF204610BDE3
:1003B00010B54843044605F02FFA002805D0002167
:1003C000002C02D0641E0155FAE710BD10B5202A9A
:1003D00004DB0146203A9140002010BD91402023CB
:1003E0009C1A0346E3401943904010BD10B5202AE3
:1003F00004DB0846203AD040002110BD0B46D34014
:10040000D0402024A21A91400843194610BD000094
:100410001CB5094800900948019005460126009C3A
:1004200005E0E36807CC33430C3C98471034AC42FA
:10043000F7D3FFF7F1FE0000645C0000845C00006D
:10044000F0B583B00290800707D10D4629B114465C
:100450001AB12819411EA9420BD203B0F0BC01BC4D
:1004600086467046714672467346F4468EF300889F
:1004700074470A466A4045E880F0202A024601D3C4
:1004800041E880F24102E8D49042E6D117A00299F7
:10049000224604F03DFFA01E00900120C004019000
:1004A0000026374603E0361F3F1DA742D5D20298EB
:1004B000C11919480068C20A01989043084301F025
:1004C000D9F88A4909680029C7D1A119E855022934
:1004D000E9D3EA19030A5370009BBB42E3D0030C33
:1004E00093700429DFD3000ED070DCE7526561649D
:1004F000496E61637469766542616E6B5F532C204F
:10050000616464723A20253038582C2073697A650A
:100510003A2025750A00000040C00040F0B589B0BF
:1005200005460226800706D10C4621B11AB1A01853
:10053000411EA1420BD2304609B0F0BC02BC8E462F
:10054000714672467346F4468EF3008874470B4634
:10055000634044E880F0202B034601D341E880F358
:100560004102E8D49842E6D1049654A02946089264
:10057000089A04F0CDFE089901200590C6040023D6
:10058000594F0396C91A386BC00A86432E43042973
:1005900006930CD3E018C17809068278120451182A
:1005A000407800020818E15C4018079025E00291AD
:1005B000304601F05FF84D490968002900D07BE022
:1005C000069BE25CFF21019188438218029902296F
:1005D00012D34FF6007082430792E018427812025D
:1005E000079BD3180793079A032906D10199090499
:1005F0008A438078000482180792FFF72AFEC00021
:1006000001D53B4801E038461038016808220A430A
:10061000026038460C3806606805C00D0899069BD4
:1006200025D038460838079A0260381F2122026018
:1006300005983860DA480068C0080322101A3A6842
:1006400072B1022833D03A6852B101282FD03A68EB
:1006500032B160B33A681AB1001D0328EFD126E029
:100660001B1D2D1D00208B42039E8BD364E7381F7A
:100670002222026005983860C94800688008032279
:10068000101A3A68002ACCD002280ED03A68002A04
:10069000C7D0012809D03A68002AC2D028B13A68E8
:1006A000002ABED0001D0328EBD1124800E01248FA
:1006B00005F0E8F804983FE704983DE7577269743D
:1006C00065496E61637469766542616E6B5F532C38
:1006D00020616464723A20253038582C2073697A7E
:1006E000653A2025750A000010C0004070120020F5
:1006F00000C00050A45A0000E55A00000120000686
:1007000009490A6802430A6008490A6802430A6004
:100710000A6882430A607046714672467346F44620
:100720008EF300887447C046080200400C00004069
:10073000B0B51546044600F01BF8012D05D121681F
:1007400080220A43226004216161B0BD80B5014668
:1007500006480022FFF7ECFF80BC02BC8E467146C3
:1007600072467346F4468EF30088744700000A50C0
:10077000F0B591B0412201920260844A40F2E83320
:10078000914201D87D3B00E0C83B814A914202D9A9
:1007900040F2E833FA3B049302907E48814200D352
:1007A00001460E917C480A9005F0F2FA0E9A0D90DF
:1007B0000021322501200C9040F2E830059008918C
:1007C0000B91079103E00E9A109D062D70D96D1EB6
:1007D00068080F90441C20460B9F39463B46FFF7A4
:1007E000ABFD02460B460D9E30463946FFF74EFDE7
:1007F00010950C9A15402818451EA90AE3D13746D2
:1008000000260990314622463346FFF795FD024601
:100810000B4638463146FFF739FD0E9B191ACA17A9
:100820005140891A0A9A91421A46CDDC82422ED151
:100830000A96049A1046604340F2E831B0FBF1F0AA
:10084000211A01290F9E00DC0121082900DB082163
:100850000695701A3746103F039010283B4600DC7F
:100860000B46E31A40F2E830434393FBF4F3D51A06
:10087000E81745402D1A05988542A4DC9A42079650
:100880000998089005950E9A039C9DD105E00A9160
:100890000F9807900998089096E7102C00DC0F46F7
:1008A000012F029D0C9E0990214618DB402217E083
:1008B000079B581C049A4243384992FBF1F10918EE
:1008C000012900DC0121082900DB08215C1A0898B5
:1008D000421E0692103B1F46102CE0DDE0E7BA01F5
:1008E0001097380341F20003C31A3F2406980440CE
:1008F000084610290D9F00DB102001460002001958
:1009000040F20014001B18431043E860069880056D
:10091000000FA861224800682A68019B9A432A6058
:100920000422121A02E0121D012C22D0D01E4342D2
:1009300043412868C007344600D01C46CCB9901EFD
:10094000434243412868C007344600D01C4684B95E
:10095000501E434243412868C007344600D01C461D
:100960003CB9534253412868C0073446DBD01C468B
:10097000D9E710980818401C099A4243D317002160
:100980003846FFF7B3FC11B0F0BDC04620A1070008
:1009900000350C0040420F0000CA9A3B18FCFFFFD4
:1009A000100000201F21014001228A40800F80009A
:1009B00008494358934343507047C0461F210140A4
:1009C00001228A40800F800002494358134343505C
:1009D0007047C04604020040F0B58CB00F46034695
:1009E00001242004D44D2E46103E3168014331606D
:1009F00028465038016873B3042211430160CF4880
:100A000000684008101A02E0001D012A51D0C21EE1
:100A1000514251412A68D206224600D40A46002A91
:100A200047D1821E514251412A68D206224600D443
:100A30000A46F2BB421E514251412A68D206224662
:100A400000D40A46AABB414241412A68D206224646
:100A5000DAD40A46D8E7012211430160FB48006856
:100A600040080421081A01E0001D12BBC21E5142B9
:100A700051412A68D207224600D10A46CAB9821ECD
:100A8000514251412A68D207224600D10A4682B912
:100A9000421E514251412A68D207224600D10A46DD
:100AA0003AB9414241412A68D2072246DCD10A467E
:100AB000DAE7A3483818A34AA349884207D8A448CC
:100AC0000025874239460B9505D3284604E09F4808
:100AD0000343336001E10120032791423D4600D3E7
:100AE00005469142039402930196009500D202209C
:100AF00081400D46484209900B9BD9430420069043
:100B000005200590062004900A9312E0B81C0A9074
:100B1000002107980B900498801D04900598801D73
:100B200005900698801D0690089FBF1D212F00D1BB
:100B3000BBE0062F089729D8D748B0FBF7F39C00F5
:100B4000281B5B00002706E0C01AE4187F1C40F257
:100B50000026BE421AD0804AA6187E4A9642F3D298
:100B6000AC4203D806468E42EED203E0099E361907
:100B70008E42E9D22EB1B91C0A913146089E0B96DD
:100B8000E2E7B81C0A90002108980B900898052805
:100B90002CD8401C0790C048069BB0FBF3F398008C
:100BA0002C1A5B00002706E0C018E41A7F1C40F2F4
:100BB0000026BE421AD0684A8618664A9642F3D288
:100BC000A84203D826468E42EED203E0099E36188C
:100BD0008E42E9D22EB1B91C0A913146079A0B9286
:100BE000E2E7B81C0A90002107980B9008980428A7
:100BF0002CD8801C0790A848059BB0FBF3F3980005
:100C00002C1A5B00002706E0C018E41A7F1C40F293
:100C10000026BE421AD0504A86184E4A9642F3D257
:100C2000A84203D826468E42EED203E0099E36182B
:100C30008E42E9D22EB1B91C0A913146079A0B9225
:100C4000E2E7B81C0A90002107980B900898032847
:100C500000D960E7C01C0790F948049BB0FBF3F390
:100C600098002C1A5B00002707E0C018E41A7F1CCC
:100C700040F20026BE4200D14DE7374A8618354A79
:100C80009642F2D2A84203D826468E42EDD203E025
:100C9000099E36188E42E8D2002E00D136E7B91CE4
:100CA0000A913146079A0B92DFE70B9C600240F2F3
:100CB0000021401A0A9DA91E009B9A030A43024381
:100CC0000298024301980260581C6043DC49B1FB62
:100CD000F0F068434200039C174DC7480068400885
:100CE0000421081A02E0001D012B22D0C31E594224
:100CF00059412B685B07234600D40B46CBB9831EB2
:100D0000594259412B685B07234600D40B4683B9EF
:100D1000431E594259412B685B07234600D40B46BA
:100D20003BB9414241412B685B072346DBD40B466C
:100D3000D9E710460CB0F0BD500200401000002072
:100D400000CA91FE006CDC02008C7D0A0EC200001D
:100D500000D8B80501EA3206002847FA55490A6862
:100D600002430A607047C046B0B52A480268836BE8
:100D7000D90313D49903284911D41C04A40F274D77
:100D80002C5D9D04ED0E6D1C6543DB059B0D244C15
:100D90005C436118B1FBF5F1890000E00021214BB3
:100DA0001960846807232340022B1AD0012B0FD12E
:100DB00002231A4048F200011B4A0DD104681C436B
:100DC0000460126804689C430460520607D408E07B
:100DD000990016A2515804E01268520601D547F650
:100DE000005180690F220240501CB1FBF0F0D04945
:100DF000086017494118174AB1FBF2F1164A116011
:100E0000B0BC02BC8E46714672467346F4468EF301
:100E10000088744708020040001BB700F459000026
:100E2000C0C62D000C00002000110440001BB700BC
:100E30000080000000000000007D000000000000B5
:100E4000006CDC0200093D00001BB7001000002010
:100E500020A1070040420F000800002080B501F0EB
:100E6000EDFEB348006880BC02BC8E4671467246F7
:100E70007346F4468EF300887447C0460D480068F8
:100E80000121014049426E4808407146724673464E
:100E9000F4468EF300887447001BB70005480068CD
:100EA000022101408803714672467346F4468EF370
:100EB0000088744700020040810AC9B291B18205DE
:100EC000D20E9140000C0C2303400A48C0580A4B34
:100ED000C0580840D040714672467346F4468EF3BF
:100EE000008874470020714672467346F4468EF3BC
:100EF00000887447A45900002002004010B5294919
:100F0000431829490A68032B10D8980001A2101829
:100F10008746C04600F006B800F02FB800F025B8AC
:100F200000F027B809690120084030E01F4B9842C3
:100F30000BD1900725D408680222104308601C4892
:100F400000680B6893430B601DE00201520F1DD037
:100F5000C301DB0E9A40800E0C2404401548005952
:100F6000081880681040D84011E00869C005C00F1B
:100F70000DE008698005C00F09E008698007C00F0F
:100F800005E00B4800680006C00F00E0002010BC20
:100F900002BC8E46714672467346F4468EF3008854
:100FA0007447C046F0FFFF7F080200400100004088
:100FB000001104409459000080B501F03FFEFE4846
:100FC000006880BC02BC8E46714672467346F44689
:100FD0008EF300887447C04680B501F02FFEF648B6
:100FE000006880BC02BC8E46714672467346F44669
:100FF0008EF300887447C046100000200F48016837
:10100000C80313D488030E4811D40A04920F0D4B61
:101010009A5C8B04DB0E5B1C5343C905890D0A4A9D
:101020004A431018B0FBF3F0800000E00020714646
:1010300072467346F4468EF30088744740020040BF
:10104000001BB700F4590000C0C62D00014800681D
:101050007047C04694020040F0B581B00146324D61
:10106000286800902F46503F386804263043386087
:101070002E48814200D80146CF4800684008301A07
:10108000012202E0001D012C22D0C41E63426341F4
:101090002C68E406144600D41C46CCB9841E634276
:1010A00063412C68E406144600D41C4684B9441EEF
:1010B000634263412C68E406144600D41C463CB9E4
:1010C000434243412C68E4061446DBD41C46D9E76E
:1010D0002846403802680723134303602846303807
:1010E00002680F239A4302601248814200D30146EE
:1010F0002868C00706D10120C004FFF76DFC044634
:101100002D6804E00020FFF767FC0446009D0220E4
:10111000002100F011F8E80602D43868B0433860C6
:10112000204601B0F0BDC0465002004000366E01BE
:101130001000002000D8B805F0B585B002909D4C95
:10114000A06D0490A26804273A43A260F3480268A5
:101150005208BA1A012502E0121D012E22D0D61E15
:1011600073427341A66DF6062E4600D41E46CEB9D4
:10117000961E73427341A66DF6062E4600D41E4697
:1011800086B9561E73427341A66DF6062E4600D4EC
:101190001E463EB953425341A66DF6062E46DBD499
:1011A0001E46D9E7A369072001900343A361DB4AE8
:1011B00013683A46FB1A02E01B1D012F22D0DF1EE6
:1011C0007E427E4127683F062F4600D53746CFB97D
:1011D0009F1E7E427E4127683F062F4600D5374638
:1011E00087B95F1E7E427E4127683F062F4600D5A5
:1011F00037463FB95E425E4127683F062F46DBD542
:101200003746D9E7236803260396B3432360FA4B96
:101210001B68D31A02E01B1D012F22D0DF1E7E4265
:101220007E416768FF072F4600D03746CFB99F1E23
:101230007E427E416768FF072F4600D0374687B958
:101240005F1E7E427E416768FF072F4600D037460B
:101250003FB95E425E416768FF072F46DBD03746E5
:10126000D9E756480368174613430B26B343036078
:10127000A36A0F26B3430B43A362A169019881437C
:1012800002980143A16101F0D9FCDB480068391ADA
:1012900002E0091D012B22D0CB1E5A425A4123687D
:1012A0001B062B4600D51346CBB98B1E5A425A411A
:1012B00023681B062B4600D5134683B94B1E5A42A2
:1012C0005A4123681B062B4600D513463BB94A42B8
:1012D0004A4123681B062B46DBD51346D9E738491C
:1012E0004118384A914201D2012005E036494018A0
:1012F0003649884205D80220216803229143081804
:1013000020601021BC480068314A904205D820680E
:10131000032202432260B8480068049A0A400492FB
:10132000391A02E0091D012B22D0CB1E5A425A4124
:101330006368DB072B4600D01346CBB98B1E5A429D
:101340005A416368DB072B4600D0134683B94B1E16
:101350005A425A416368DB072B4600D013463BB91B
:101360004A424A416368DB072B46DBD01346D9E784
:101370001849421818498A42104B05D3174A801859
:10138000884206D2022003901868B043039A80185E
:101390001860DB480068884205D2186801210143C3
:1013A0000E2081431960049810B9A068B843A0606A
:1013B00005B0F0BDF8010040100000204CC0004016
:1013C000FF9323FD00512502FFF6C2FFFF629F023B
:1013D00000093D00800F05FD40787D01C08782FE39
:1013E00070B51E4B1C681E4DA8420FD1A0071F48A8
:1013F0002DD41A68022422431A6002688025AA4369
:101400000A4302601868A043186070BD840AE4B201
:1014100064B18505ED0EAC40050C0C262E40114D37
:10142000AD595D19AE69A6431643AE610201520F74
:1014300012D0C401E40EA240800E0C2404400A48DD
:1014400000591818836893430B43836070BD02688A
:1014500080239A430A43026070BDC04608020040E0
:1014600001000040A45900009459000000110440FC
:10147000F0B501210904154A002405250E4602E0B5
:101480001460C01B17D93746B042064600D33E460B
:101490000F4B1B68734353609460156013680B42D5
:1014A000EED113680B42EBD113680B42E8D11368FD
:1014B0000B42F3D0E4E7F0BC01BC864670467146AF
:1014C00072467346F4468EF30088744710E000E0DD
:1014D00008000020B0B50146894800684008032292
:1014E000131A0F4C0120002225680D408D4214D0A4
:1014F000022B11D025680D408D420ED0012B0BD050
:1015000025680D408D4208D033B125680D408D42CD
:1015100003D01B1D032BE7D11046B0BD10000020E7
:101520005002004000480047B986000010B5012075
:10153000C407FFF78BFD07490A6822430A6010BC05
:1015400002BC8E46714672467346F4468EF300889E
:101550007447C04694020040F0B581B005467F480C
:1015600000240460FEF775FEC000404F404E384630
:1015700000D530462221C160FEF76BFEC000384620
:1015800000D5304600944560FEF763FEC000384643
:1015900000D53046012101610D07E448006880084C
:1015A000441CFEF756FE2842384600D030460069FB
:1015B000C00707D0641E002CF3DC0020C44367483A
:1015C000046000E0009CFEF744FE2842384600D04C
:1015D0003046006840060CD5FEF73BFE284200D09E
:1015E000374638684021014339600020C4435B48D6
:1015F0000460204601B0F0BD1000002010B5044684
:10160000FEF727FEC00001D5194800E01748016821
:1016100008220A4302602046FFF79EFF10BC02BC6E
:101620008E46714672467346F4468EF300887447C0
:101630000548016805480840714672467346F446FD
:101640008EF300887447C04640C0004000FEFF0093
:1016500080B5FEF7FEFDC00001D5054800E0034857
:10166000016801220A43026080BDC04600C00040FC
:1016700000C00050F0B581B004463848002606602E
:10168000FEF7E7FDC0001C4D1C4F284600D538462C
:10169000001F0660FEF7DDFDC000284600D5384675
:1016A00000960C380460FEF7D4FDC000284600D533
:1016B0003846012101600C079C480068C008461CA0
:1016C000FEF7C7FD2042284600D038460068C00714
:1016D00008D0761E002EF3DC0098C0431F49086036
:1016E00001B0F0BDFEF7B5FD204200D03D46083DFB
:1016F000286801B0F0BDC04610C0004010C00050C6
:101700001000002070B5960809D00C460546284602
:10171000FFF7B0FF01C4761E2D1D002EF7D10F4834
:10172000006870BC02BC8E46714672467346F44631
:101730008EF300887447C04670B559B10C46054613
:10174000032006053046FFF795FF01C5641E361DD0
:10175000002CF7D10148006870BDC046701200200F
:10176000F0B581B000910023194603E01033083131
:10177000202B61D0009DCD40EE0707D016469E403D
:1017800003279F400468BC4334430460AC0708D57A
:101790009C1C1646A6400C249C400768A743374370
:1017A00007606C0708D51C1D1646A64030249C40D7
:1017B0000768A743374307602C0708D59C1D1646CA
:1017C000A640C0249C400768A74337430760EC0647
:1017D0000AD51C4608341646A64040F200349C4008
:1017E0000768A74337430760AC060AD51C460A348E
:1017F0001646A64040F600449C400768A74337437E
:1018000007606C060AD51C460C341646A64043F207
:1018100000049C400768A743374307602C06A5D502
:101820001C460E341546A5404CF200049C40066848
:10183000A6432E43066099E701B0F0BDF0B581B034
:1018400000910023194603E010330831202B61D0AA
:10185000009DCD40EE0707D016469E4003279F40CF
:10186000046BBC4334430463AC0708D59C1C164688
:10187000A6400C249C40076BA743374307636C07C3
:1018800008D51C1D1646A64030249C40076BA74374
:10189000374307632C0708D59C1D1646A640C02475
:1018A0009C40076BA74337430763EC060AD51C46E9
:1018B00008341646A64040F200349C40076BA7430C
:1018C00037430763AC060AD51C460A341646A640C1
:1018D00040F600449C40076BA743374307636C0600
:1018E0000AD51C460C341646A64043F200049C4020
:1018F000076BA743374307632C06A5D51C460E3458
:101900001546A5404CF200049C40066BA6432E43AE
:10191000066399E701B0F0BD04480068714672465D
:101920007346F4468EF300887447C04610000020CA
:10193000B0B50D4604460D48844202D004F028FAA2
:1019400001E004F029FA0A210A464243AB00B2FB47
:10195000F3F2521DB2FBF1F14A1E226122684023CC
:10196000134323608900B0FBF1F0B0BD00100850B4
:1019700080B5FFF7DDFF80BC02BC8E467146724623
:101980007346F4468EF3008874470000BFF34F8F10
:10199000044805490160BFF34F8F00BF00BF00BF7F
:1019A00000BFFAE70CED00E00400FA05F0B585B0E1
:1019B00004910390800708D1049830B1144622B1F5
:1019C000049A1019411E91420BD205B0F0BC01BC23
:1019D00086467046714672467346F4468EF300881A
:1019E00074470A460498424040E880F0202A0246A4
:1019F00001D341E880F24102E7D49042E5D10D20C5
:101A0000460300250B2040030190701E029007E062
:101A1000049949193A4604F08BF97D19A542D4D2AC
:101A2000611B03982818321A91420F4600D31746BB
:101A3000864200D80F4602998842E9D90199401898
:101A4000E6E7F0B585B014460246022004929207FC
:101A500038D1B9B3B4B30A19521E8A4232D31346ED
:101A60004B4041E880F5202B2B4601D342E880F320
:101A70006A0227D49D4225D103910D2046030025FB
:101A80000B2040030190701E0290009506E0039920
:101A900049193A4604F048F97D1998B9AC4210D971
:101AA000611B04982818321A91420F4600D317463A
:101AB000864200D80F4602998842E8D90199401819
:101AC000E5E7009805B0F0BC02BC8E467146724650
:101AD0007346F4468EF3008874470000F0B585B075
:101AE0000E46042101404025054003D129B9EFF3FA
:101AF000888604E019B1164601E0EFF38986B169E2
:101B000082A003F005FC16B1B7693C88FFE784A00A
:101B100003F0B8FE87A0214603F0FAFB012000077E
:101B20003840401904D08948844205D1A24800E0D9
:101B3000A24803F0A7FE49E0200B0528049719D11D
:101B400007272740E005420F0392A006450F99485A
:101B500039462B4603F0DCFBA80030580399890076
:101B600071580818B900715800910190200527D5C7
:101B70007F4B26E0610B032908D107252540A006ED
:101B8000470F6005C30E039389480BE0092871D005
:101B900008287CD107252540A006470F6005C30E05
:101BA000039375A029463A4603F0B2FBA8003058CB
:101BB000B9007158039A8918009001912005D7D473
:101BC0006A4B04996B48224603F0A2FB7C480168EB
:101BD000002900D198E000200A46C240D30700D077
:101BE00080E093073AD453073AD413073AD4D30684
:101BF0003AD493063AD453063AD4130649D4D305BB
:101C000049D4930549D4530549D440F60003834091
:101C10000B4246D1D30446D4930446D4530446D44D
:101C2000130446D4D30346D4930346D4530346D473
:101C3000130346D4D30246D4930246D4530246D467
:101C4000130246D4D30146D4930146D4530146D45B
:101C5000120146D41C305428BED155E0401C41E04E
:101C6000801C3FE0C01C3DE0001D3BE0401D39E012
:101C7000801D37E0E5B26005470F35A039462A469A
:101C800003F046FBB8003058B169491994E742A007
:101C90004FE7C01D26E0083024E0093022E00A307A
:101CA00020E00B301EE00C301CE00D301AE00E304E
:101CB00018E00F3016E0103014E0113012E012304E
:101CC00010E013300EE014300CE015300AE016304E
:101CD00008E0173006E0183004E0193002E01A304E
:101CE00000E01B308100374A5158374A145C374DA9
:101CF00060194268364803F00BFB60598000354993
:101D00000958354803F004FBFEE7C0464861726499
:101D10004661756C742040203078253038780A0090
:101D2000486172644661756C7420416E616C7973B0
:101D300069733A00496E737472756374696F6E20CB
:101D4000636F6465203D2025780A0000ABBE00006B
:101D50004C4452482F535452482072743D257820E9
:101D6000696D6D383D25780A00000000135C0000A5
:101D70000F5C0000925B00004C4452482F535452B9
:101D8000482072743D257820726E3D257820696D5B
:101D90006D353D25780A0000556E65787065637471
:101DA000656420696E737472756374696F6E000088
:101DB000C05B0000DD5B0000175C00003A5C0000C7
:101DC00030F10240BC580000A458000000F002406E
:101DD000F85B000010590000B25B0000F0B589B05C
:101DE000D14F396801263004089070040790B00480
:101DF0000690F00405903005049070050390B0053E
:101E00000290F0050190002900D1C4E00020344682
:101E100084400C4200D0ACE0022484400C4273D1D8
:101E2000042484400C4271D1082484400C426FD1B8
:101E3000102484400C426DD1202484400C426BD18C
:101E4000402484400C4269D1802484400C4267D1F4
:101E500040F2001484400C4264D140F200248440DB
:101E60000C4261D140F2004484400C425ED140F605
:101E7000000484400C425BD141F2000484400C42D7
:101E800058D142F2000484400C4255D144F200047F
:101E900084400C4252D148F2000484400C424FD19D
:101EA000089C84400C424DD1079C84400C424BD18D
:101EB000069C84400C4249D1059C84400C4247D189
:101EC000049C84400C4245D1039C84400C4243D185
:101ED000029C84400C4241D1019C84400C423FD181
:101EE000340684400C423DD1740684400C423BD100
:101EF000B40684400C4239D1F40684400C4237D1F8
:101F00001C30542883D146E0401C32E0801C30E075
:101F1000C01C2EE0001D2CE0401D2AE0801D28E0A2
:101F2000C01D26E0083024E0093022E00A3020E01D
:101F30000B301EE00C301CE00D301AE00E3018E0C3
:101F40000F3016E0103014E0113012E0123010E0C3
:101F500013300EE014300CE015300AE0163008E0C3
:101F6000173006E0183004E0193002E01A3000E0C3
:101F70001B3081006D4A51586DA2105C3818024622
:101F80002C3A12683038006880006FA31B587AA082
:101F900003F0BEF93C6083480168002900D182E06B
:101FA0000020022204230827102520240094344610
:101FB00084400C4200D0ADE0144684400C4274D101
:101FC0001C4684400C4272D13C4684400C4270D185
:101FD0002C4684400C426ED1009C84400C426CD153
:101FE000402484400C426AD1802484400C4268D151
:101FF00040F2001484400C4265D140F20024844039
:102000000C4262D140F2004484400C425FD140F661
:10201000000484400C425CD141F2000484400C4234
:1020200059D142F2000484400C4256D144F20004DB
:1020300084400C4253D148F2000484400C4250D1F9
:10204000089C84400C424ED1079C84400C424CD1E9
:10205000069C84400C424AD1059C84400C4248D1E5
:10206000049C84400C4246D1039C84400C4244D1E1
:10207000029C84400C4242D1019C84400C4240D1DD
:10208000340684400C423ED1740684400C423CD15C
:10209000B40684400C423AD1F40684400C4238D154
:1020A0001C30542883D109B0F0BD401C32E0801CA4
:1020B00030E0C01C2EE0001D2CE0401D2AE0801DF9
:1020C00028E0C01D26E0083024E0093022E00A3074
:1020D00020E00B301EE00C301CE00D301AE00E301A
:1020E00018E00F3016E0103014E0113012E012301A
:1020F00010E013300EE014300CE015300AE016301A
:1021000008E0173006E0183004E0193002E01A3019
:1021100000E01B30800005490958234803F0F8F817
:102120002048046009B0F0BD30F002404059000082
:10213000343C0000444C545C6400747C848C949C5B
:10214000A4ACB4BCC40000008E5B00000000000022
:1021500000000000345B00003F5B0000855B000076
:10216000635B0000000000000000000000000000B1
:10217000000000004A5B00002020257328307825ED
:102180003038782920416C61726D2120696C6C6552
:1021900067616C20616363657373206279202573C6
:1021A0000A00000030F102400A5B0000F0B589B07F
:1021B0009A4B1846243800210160184620380160E7
:1021C0000A46089118461C38954901601846183887
:1021D00094490160184614380721016018461038E8
:1021E0009149016018460C380260904A904850614D
:1021F0009061D06110628F4951629062D062106329
:10220000196848F2000211431960196844F200028B
:1022100011431960196842F20002114319601968EC
:1022200041F2000211431960196840F6000211439F
:102230001960196840F2004211431960196840F2B0
:10224000002211431960196840F20012114319600D
:10225000196880220692114319601968402205927C
:1022600011431960196820220492114319601968FA
:1022700010263143009619601968082529430795EF
:10228000196019680422114319606B498C6848F27F
:1022900000073C438C60441C8868204327468860C4
:1022A000086840F2004318430860086840F60003DD
:1022B00018430860086844F2000420430860086876
:1022C00048F2000420430860086840F200242043DC
:1022D0000860086810430860086828430860012205
:1022E00093040193886818438860D4048868204365
:1022F0002346039488609405081F056825430560FC
:10230000D4050568254305600C681C430C60130563
:1023100002930C681C430C6094070D6825430D6004
:102320000C6834430C600C68049D2C430C600C68F2
:102330003E463C430C60530404930D681D430D60FE
:102340004D6840F200473D434D604D6840F6000740
:102350003D434D600D68059F3D430D600D68069F30
:102360003D430D604D68019B1D434D6015060F6890
:102370002F430F608F68009C27438F6007683743A7
:1023800007600768049C2743076004681C430460D7
:102390000468039B1C4304600468029B1C430460A4
:1023A00054050668264306604C6840F20016344324
:1023B0004C604C682C434C60046840F200431C4362
:1023C0000460046840F600031C430460046841F2A2
:1023D00000052C430460046842F200052C430460AD
:1023E000046844F200052C430460046848F20005C8
:1023F0002C430460486840F20024204348605006A3
:102400004A6802434A600898C04304498860074903
:1024100008600A480799016009B0F0BD24F0024045
:102420008C0006001F003F00010000082CF1024054
:10243000FFFF0000FFE7000084E300E00CE100E0A4
:102440000020704780B582B000910021042208234B
:1024500000F00CF802B080BC02BC8E467146724699
:102460007346F4468EF3008874470000F0B585B0DB
:102470001C4616460F460546006E0121039188430F
:10248000286603F081FC029003F082FC009003F0C8
:1024900083FC019000200495A860202C00D020022D
:1024A0005FB30743374303980743049D2F60002021
:1024B0006860954F7C1CFDF7CCFE20423DD0934ECA
:1024C0009348854254D09348854248D092488542EB
:1024D00065D1964C204603F06BFC384200D1FFE0FA
:1024E000204603F065FC3840012866D0204603F002
:1024F0005FFC3840022850D04EE00A9F0643039804
:102500000643049D2E600298874200D289E07E48EF
:10251000441CFDF79EFE204200D082E08648016800
:10252000C022D2437C4B9D4272D0794B9D426BD0EE
:10253000784B9D426FD1802370E07F480168744AD8
:1025400095424FD0734A9542019E46D0724A9542B9
:1025500051D120221143102291430160C0E0714CFF
:10256000204603F025FC800100D1B9E06E4D1EE04D
:102570006A4C204603F01CFC800200D1B0E0684D9C
:10258000204603F015FC2840012816D0204603F011
:102590000FFC2840022800D00196019EA0E0644C68
:1025A000204603F005FC000300D199E0614D204670
:1025B00003F0FEFB2840012805D105B0F0BC01BCAA
:1025C000864603F0F1BB204603F0F2FB28400228C8
:1025D000009800D03046064682E080221143402217
:1025E00091430EE040F60042914340F60002891804
:1025F0000160019E74E043F20002914342F2000246
:1026000089180160009E6BE040F600034B4A05E02C
:102610009032202302E042F20003494A114019435C
:1026200001603A4E3A48854215D03A4885420AD070
:102630003948854227D13D4C204603F0B9FB0001C3
:1026400032D0314D0EE0374C204603F0B1FB800113
:102650002AD0354D1EE0314C204603F0A9FB800204
:1026600022D02F4D204603F0A3FB2840012817D08D
:10267000204603F09DFB28400228049D14D103F05E
:102680008BFB064610E02A4C204603F091FB00032A
:102690000AD0284D204603F08BFB2840012822D188
:1026A00003F082FB0646049D0298874216D2B74289
:1026B00014D2244817B30A210A467243B2FBF7F238
:1026C000521DB2FBF1F2531E6968834217D81E48AF
:1026D000014019436960B6FBF2F601E00020686032
:1026E000304605B0F0BD204603F062FB28400228CA
:1026F000049DD9D103F04CFB0646D5E76968014338
:102700006960760AECE7C046FFFFFF0F001BB700C9
:102710000030065000200650001006500F00A06642
:10272000FFFF3F000E006066FFFFFF030D004066E5
:102730000600C0A6FFFF0F0018020040FFF3FFFFD6
:10274000FFCFFFFFFF01000000FEFFFF034908600D
:102750007047C046014800687047C046040000400A
:102760001B48016802220A430260704780B5FFF7E8
:10277000F7FF80BC01BC86467046714672467346C0
:10278000F4468EF3008874471148016801220A4319
:102790000260704780B5FFF7F7FF80BC01BC86463A
:1027A0007046714672467346F4468EF3008874474D
:1027B00010B5010E064A8B58FF242406A0430124BD
:1027C000844023438B508858A043885010BDC04696
:1027D0000800004080B5FFF7EBFF80BC01BC8646D7
:1027E0007046714672467346F4468EF3008874470D
:1027F000B0B51D4A116803235C1A1C490D682D06EB
:1028000013D5022C0ED00D682D060ED5012C09D043
:102810000D682D0609D52CB10D682D0605D5241D92
:10282000032CEBD10020C043B0BD0C689C43044393
:102830000C6010681B1A0020C2434C68E40711D0DA
:10284000022B0ED04C68E4070CD0012B09D04C6849
:10285000E40707D02BB14C68E40703D01B1D032B02
:10286000EBD11046B0BDC04610000020F80100407A
:10287000F0B581B00022EFF30584EFF30B83002C59
:1028800000D18CE0002B00D089E08F4C64CC236811
:10289000154335431D430C3C6E1E2A46B24125B1FB
:1028A0008B4200D17AE0082500E00025E3695E4212
:1028B0005E4127693FB967692FB9A7691FB93240DF
:1028C00001D0012502E08B4200D167E0E26A236A71
:1028D00043B9636A33B9A36A23B9082D02D10AB98F
:1028E000022501E08A4259D0E26B236B43B9636B46
:1028F00033B9A36B23B9082D02D10AB9032501E02E
:102900008A424BD0E26C236C43B9636C33B9A36C3D
:1029100023B9082D02D10AB9042501E08A423DD02D
:10292000E26D236D43B9636D33B9A36D23B9082DEF
:1029300002D10AB9052501E08A422FD0E26E236E4A
:1029400043B9636E33B9A36E23B9082D02D10AB916
:10295000062501E08A4221D0E36F226F42B9626FFF
:1029600032B9A26F22B91BB9082D01D1072504E0A5
:1029700000228B4213D0072D11D80E46074608308F
:1029800002F0CCFB50B10C49C151C2192B01E250ED
:102990005160E118091D45C16A1C00E00022104683
:1029A00001B0F0BC02BC8E46714672467346F446D6
:1029B0008EF300887447C046A5EDF5FE10B5401EA5
:1029C000EFF3058207280ED86AB100013E4A1418B9
:1029D000E068884207D1606802F046FC0020206071
:1029E0006060A060E06010BC01BC86467046714625
:1029F00072467346F4468EF30088744780B5EFF351
:102A00000580414241410F4802780A43D1070DD168
:102A100001210170002080F30B8880F309882A4887
:102A20008021FDF7BAFC022080F3148880BC01BC31
:102A300086467046714672467346F4468EF30088A9
:102A40007447C0461812002080B5401E07280AD8D7
:102A5000EFF30B823AB900011B4A1018C2688A4290
:102A600001D100F00BF880BC01BC8646704671466F
:102A700072467346F4468EF300887447EFF305817F
:102A800021B106C882F30B8881F3098870470000E2
:102A900080B5401E07280CD800010B4A1018EFF330
:102AA0000B824368934204D1C2688A4201D100F08C
:102AB0000DF880BC01BC864670467146724673466E
:102AC000F4468EF300887447883A0020EFF30581BE
:102AD00039B1EFF309810160002181F30B8881F3A3
:102AE00009887047EFF3058030B107480168074A4D
:102AF0000A430749114001607046714672467346A9
:102B0000F4468EF3008874470CED00E00040FA05AF
:102B1000FFFFFA05EFF3058078B10C48016840F635
:102B200000420A43026001204107094A13688B43AF
:102B30001360800611680143116070467146724649
:102B40007346F4468EF300887447C0468CED00E06F
:102B500034EF00E010B50121CA05C3B210490A2BB9
:102B60000FD10B68134208D00B68134205D00B68D5
:102B7000134202D00B681342F3D10B46183B0D24CD
:102B80001C600B68134208D00B68134205D00B6819
:102B9000134202D00B681342F3D11839086010BDFC
:102BA0001800075080B50A48FEF756FA09A002F04F
:102BB00069FE0320FFF71CFE80BC01BC8646704600
:102BC000714672467346F4468EF300887447C046D9
:102BD00000366E0153657420706F776572206C65E6
:102BE00076656C20746F20312E30560D0000000089
:102BF00080B50A48FEF730FA09A002F043FE002033
:102C0000FFF7F6FD80BC01BC8646704671467246F1
:102C10007346F4468EF300887447C04600D8B80562
:102C200053657420706F776572206C6576656C20D3
:102C3000746F20312E3236560D00000080B503F03F
:102C4000B3F80749086003F0ABF87D49086005490F
:102C500040180549B0FBF1F00449086080BDC0464A
:102C60000C00002020A1070040420F0008000020B7
:102C7000F0B581B0FDF7EDFAC0005F4D21D45920C9
:102C800016218822286029602A602B687BB9286079
:102C900029602A602B6853B9286029602A602B6854
:102CA0002BB9286029602A602B68002BEAD0534892
:102CB0000146103941F200020A600168504A0A4395
:102CC00002605049084608384F4A02604F480326C0
:102CD00006601F22530343604D4B8360042303604F
:102CE0004C4B43604C4B8360052303604B4C44606A
:102CF0004B4C8460062404604A4C44604A4C846017
:102D0000072404601B074360484B83600346083B6D
:102D100001241C600B680827BB430B60091F444B50
:102D20000B600660434991434160434931431C2293
:102D300091438160FFF73AFA3004404909688142C3
:102D400058D03F490968711A5922162388262A60EB
:102D50002B602E60022917D02F68AFB92A602B6034
:102D60002E60012910D02F6877B92A602B602E6061
:102D700051B12F6847B92A602B602E60091D0329C5
:102D800002D02F68002FE2D02E490A46103A1123B4
:102D900013600A460C3A2C4B13600A1F0023136081
:102DA0000C600B6833B10B6823B10B6813B10B686F
:102DB000002BF6D10B46083B1D686D1C0BD022255D
:102DC00015600C600D6835B10D6825B10D6815B141
:102DD0000D68002DF6D11860212010600C60086885
:102DE00030B1086820B1086810B108680028F6D131
:102DF0001648046001B0F0BD00010040040200402C
:102E00000040F0FF10ED00E000000000D8ED00E011
:102E1000E3F7030000000310E1FF0F10007E8000C5
:102E2000E37F800000800030E1FF0430E1FFFF5FBE
:102E30000000FA05A05C0000605F000028F002407E
:102E40001000002010C000400008210008000040D1
:102E5000F0B581B016460D4604462B4FB8420ED051
:102E600000202B498C420CDD2A498C4211D02A4982
:102E70008C4210D029498C4229D12B480EE02148A0
:102E80000CE027498C4208D026498C421FD12948A2
:102E900004E0274802E0254800E01C4802F088FFD3
:102EA000022808D12548844209DCBC420DD01C48C8
:102EB00084420AD022E080001F49085807E01748E2
:102EC000844202D01448844218D102F061FF4108C4
:102ED00000228E4201D9022107E0B0FBF6F10B0E71
:102EE00003D05A1CB1FBF2F11A461543256061600C
:102EF000521C4A43B0FBF2F001B0F0BD02F04CFFAF
:102F0000E5E7C0460200805E000005400300C05EA9
:102F1000FF100550001105500020055000210550FC
:102F200000010540001005500500C0BE040080BE31
:102F30000500405F0400005FB4590000FF1F05500A
:102F40000048004721820000044801684A424A4183
:102F500002600348012101607047C04630490040CB
:102F600008010540004800475D800000F0B589B0C9
:102F70000D460446434801A9CCC8CCC1CCC8CCC13D
:102F8000414884420ADC4848844215DC4A4884426D
:102F900025D04A48844226D0494809E03B4884422B
:102FA00012DC3E4884421AD03D4884421BD03D4842
:102FB000844265D1464E25E03C48844211D03C48CD
:102FC00084421ED03B4806E03148844209D0314853
:102FD000844216D03048844252D13A4E04E03E4EEC
:102FE00010E03A4E00E03B4E304602F0E1FE07466C
:102FF000304602F0E1FE0646042F1AD102F0CCFE64
:103000000CE0314E304602F0D3FE0746304602F067
:10301000D3FE0646042F0CD102F0BAFE0021216334
:103020000321E160A1682D4A0A40A26005900427AF
:103030000DE0002020630320E060A06827490140E4
:10304000A160012F03D102F0AFFE02900127BDB1B4
:10305000B80001A90858711CB0FBF1F16808081804
:10306000B0FBF5F0801E020C06D0E8000818B0FB9B
:10307000F5F00009801E02E00321090708436062A1
:1030800009B0F0BDD4590000FFFF0650FF2F0750D4
:103090000030075000400750005007500000075014
:1030A0000010075000200750FF2F07400030074056
:1030B0000040074000500740000007400010074054
:1030C00000200740953DCC7F143D8C7F933CCC6F16
:1030D000123C8C6F913D406F103D006F0FFFF0FF71
:1030E00080B5FFF743FF80BC01BC86467046714641
:1030F00072467346F4468EF30088744770B50C46EA
:1031000005469C4EFDF7A5F8C00001D59A4801E0A0
:1031100030461038016808220A43026030460C38F5
:10312000056068051FD0304608380460301F212133
:1031300001600120306092480068C00803210A1A2B
:1031400000212048336883B3022A2BD0336863B34D
:10315000012A27D0336843B322B333682BB3121D3F
:10316000032AEFD11EE0301F2221016001203060D0
:103170008348006880080321091A11483268002A30
:10318000D1D002290ED03268002ACCD0012909D032
:103190003268002AC7D029B13268002AC3D0091D7D
:1031A0000329EBD102F06EFB0221084670BC02BC81
:1031B0008E46714672467346F4468EF30088744715
:1031C000A45A0000E55A000010B5074C204641F211
:1031D0000001FDF7E2F819200103204640F29812A1
:1031E000FDF7C2F810BDC0460070002080B584B065
:1031F0000391029000200190024801A902F01CFEF8
:1032000004B080BD4D50D7DC10B50121CA05C3B252
:1032100010490A2B0FD10B68134208D00B681342D8
:1032200005D00B68134202D00B681342F3D10B4652
:10323000183B0D241C600B68134208D00B68134226
:1032400005D00B68134202D00B681342F3D1183932
:10325000086010BD18000750054800684000C00F06
:10326000714672467346F4468EF300887447C04632
:1032700040C0004070B504460120C54302F044FD43
:1032800074B12F210903AF2212030B4600B113467C
:103290001B680D4EB3420BD120B12432114602E01F
:1032A0006D1C05E02431094A2046FDF75DF8002534
:1032B000284670BC02BC8E46714672467346F44680
:1032C0008EF300887447C0464D53434B5C060000A4
:1032D00010B5FFF73FFA0446FFF738FA204610BC56
:1032E00002BC8E46714672467346F4468EF30088E1
:1032F0007447000070B5012585F310881D4CFCF75C
:10330000A8FFC00001D51C4801E020461038016824
:1033100029430160194800210160194A1268231FDE
:103320002E261E6023460C3B2E051E602560D2080B
:10333000521C236883B1531E012B0BDB25685DB142
:10334000022A07D025683DB1032B03DB23681BB19C
:10335000121FEED1C9430160FFF702FA70BC01BC35
:1033600086467046714672467346F4468EF3008870
:103370007447C04610C0004000C0005070120020CA
:1033800010000020F0B58BB04A4D2846FDF716FB23
:103390000024284621462246FEF722F8464D2F46B5
:1033A0000C3F38684549084003210904401838603B
:1033B00038684349084043F2000140183860414EE4
:1033C0003046FDF7FBFA304621462246FEF708F864
:1033D00028461C38016870220A9211438022099203
:1033E000D243089211400160016807220A43082174
:1033F00006918A430260344E3046FDF7DFFA3046CC
:1034000021462246FDF7ECFF2E46103E30682B4940
:1034100008400122D104401830600F2003900105BC
:103420003068079188430592D105401830602748DD
:10343000FDF7C4FA254821462246FDF7D1FF38683A
:103440000A990843089908403860386820490840BC
:1034500040F20071401838601E4F3846FDF7AEFA52
:10346000384621462246FDF7BBFFE8681849084068
:1034700040F200614018E860E868114F384046F2B9
:1034800000014018E8601448FDF798FA28691049CF
:10349000084040F20051401828612869384045F240
:1034A000000140182861FCF7D4FEC0000B481BD572
:1034B00016E0C046103D006F50000040FFFFF0FFD7
:1034C000FF0FFFFF913D406F123C8C6F933CCC6F20
:1034D000FFF0FFFF953DCC7F090000400041004018
:1034E000004801E000410050A42142580C2313433E
:1034F00043505F4F3846FDF761FA20210891384666
:103500002246FDF76DFF2846203801680422049208
:1035100011430B22D2430A400260016840220A9202
:103520001143B022914301600168524A114040F2B8
:1035300000428918016001684F4A114044F20002BC
:10354000891801604D4F3846FDF738FA3846214654
:103550002246FDF745FF4A4F3846FDF72FFA384619
:1035600006992246FDF73CFF30680D210291084381
:103570000224A04330603068D02101430898814381
:103580003160306840F600710843306030684FF2B7
:10359000000738433060039A1006291F0E6806435F
:1035A00003460E60E9693943E961E96940F6007054
:1035B0000143E961E969F02631430196E961E9696E
:1035C0001143E96129681143296029683143296061
:1035D00029680143296029683943296011042F684B
:1035E0000F432F602F68079807432F602F681E46F0
:1035F0001F432F6017072B683B432B602B46083B6C
:103600001A6832431A601A683A431A60059A120718
:10361000521E6B691340029A12079A186A616A690E
:1036200032436A616A6902436A616A690A436A618C
:1036300069694FF2000001436961696940F60070F1
:1036400001436961696901980143696169683943A6
:103650006960696831436960DB4F3E46403EDB4D3F
:10366000403DFCF7F6FDC00030460CD50AE0C046F0
:103670000D004066FFF0FFFFFF0FFFFF18002092D4
:103680001C0030922846102107912246FEF7D6F8FA
:10369000FCF7DFFDC000304600D528460A992246D7
:1036A000FEF7CCF8FCF7D5FDC000304600D5284623
:1036B00009992246FEF7C2F8FCF7CBFDC000304660
:1036C00000D5284640F600012246FEF7B7F8FCF781
:1036D000C0FDC000304600D5284644F20001224615
:1036E000FEF7ACF8FCF7B5FDC00000D52E4630461D
:1036F00048F200012246FEF7A1F8FCF7AAFDC0003F
:103700003846B24D00D5284607992246FEF796F86E
:10371000FCF79FFDC000384600D528460899224690
:10372000FEF78CF8FCF795FDC000384600D528461A
:103730000A992246FEF782F8FCF78BFDC000384656
:1037400000D5284609992246FEF778F8FCF781FD56
:10375000C000384600D5284640F200112246FEF748
:103760006DF8FCF776FDC000384600D5284640F2DB
:1037700000212246FEF762F8FCF76BFDC0003846D8
:1037800000D5284640F200412246FEF757F8FCF7E4
:1037900060FDC000384600D5284640F600012246AC
:1037A000FEF74CF8FCF755FDC000384600D528461A
:1037B00041F200012246FEF741F8FCF74AFDC00045
:1037C000384600D5284642F200012246FEF736F878
:1037D000FCF73FFDC000384600D5284648F20001FE
:1037E0002246FEF72BF83E4640364035FCF731FDC9
:1037F000C000304600D528460A992246FEF71EF83A
:10380000FCF727FDC00000D52E46304640F20011DF
:103810002246FEF713F880376C4E8036FCF719FD10
:10382000C000384600D5304605992246FEF706F816
:10383000FCF70FFDC0003846624D00D530462146EA
:103840002246FDF7FBFFFCF704FDC000384600D51B
:10385000304604992246FDF7F1FFFCF7FAFCC00060
:10386000384600D5304606992246FDF7E7FFFCF7BB
:10387000F0FCC000384600D5304607992246FDF7D7
:10388000DDFFFCF7E6FCC000384600D5304608995D
:103890002246FDF7D3FFFCF7DCFCC000384600D51C
:1038A000304640F200412246FDF7C8FFFCF7D1FC4C
:1038B000C00000D53746384640F600012246FDF7E5
:1038C000BDFFFCF7C6FCC0003D4F384600D528467A
:1038D00040F200112246FDF7B1FFFCF7BAFCC00030
:1038E000384600D5284640F200212246FDF7A6FFC3
:1038F000FCF7AFFCC000384600D5284640F2004136
:103900002246FDF79BFFFCF7A4FCC000384600D51B
:10391000284640F600012246FDF790FF3E4640361D
:103920004035FCF796FCC000304600D528460A9981
:103930002246FDF783FFFCF78CFCC000304600D523
:10394000284609992246FDF779FFFCF782FCC00062
:1039500000D52E46304640F200112246FDF76EFF9C
:10396000C037184DC035FCF774FCC000384600D590
:10397000284607992246FDF761FFFCF76AFCC00064
:10398000384600D5284608992246FDF757FFFCF730
:1039900060FCC000384600D528460A992246FDF74B
:1039A0004DFFFCF756FCC00000D52F46384609995C
:1039B00022460BB0F0BC08BC9E46FDF73FBFC04698
:1039C0000041004000410050404000404040005055
:1039D000F44801684A424A410260704671467246A4
:1039E0007346F4468EF300887447C04686B0B14EE5
:1039F00030680321081AB0495922162388240A6026
:103A00000B600C60022817D00D68ADB90A600B601E
:103A10000C60012810D00D6875B90A600B600C604D
:103A200050B10D6845B90A600B600C60001D032899
:103A300002D00D68002DE2D0A04A106840F6007157
:103A4000884340F600214018106010684FF20001D2
:103A500088434AF20001401810609948FDF77EF94A
:103A60003920FDF737FD9748FDF7F6FAFDF7F0FD31
:103A7000FFF788FC94481838E1214902FFF776FAED
:103A8000924C20689249014020684000C20F91A0EA
:103A900001F03EFC02A804210091FDF74DFE96A026
:103AA00001F0F0FE9748016897A001F031FC0299FF
:103AB0009DA001F02DFC802002990840890602D4C7
:103AC00020B1AB4903E030B9A3A005E0A749A9485C
:103AD00001F01EFC02E09BA001F0D4FE20688000F3
:103AE00001D5A64800E0A44801F0CCFE3168A44806
:103AF00001F00EFCFCF7ADFBC00001D5A24800E0D0
:103B0000A048012541F200012A46FDF729FE9F4CFD
:103B10002046FCF753FF0026204647F200013246BC
:103B2000FDF75EFCE9069A4F022438462246FFF76D
:103B30008FF9690738680191084338609548046037
:103B40005E495839386808433860934801F0E0FB13
:103B5000FFF73AFB30463146FFF748FB01462E0798
:103B6000193001D088B218B98C4801F08BFE02E000
:103B70008B4801F0CDFB8B4801684A424A41026004
:103B8000A80739688143396087480460BFF34F8FC5
:103B9000BFF36F8F38680199884338607B48FCF722
:103BA00001FF8248824901600168096881F38888C1
:103BB0000F210A07006841680A40B2424FD13D48D0
:103BC0000068009A101A404C01E0001D13BBC31E90
:103BD0005A425A41236833422B4600D11346CBB98F
:103BE000831E5A425A41236833422B4600D1134662
:103BF00083B9431E5A425A41236833422B4600D1AF
:103C000013463BB942424241236833422B46DCD142
:103C10001346DAE70198801E01400020F0B45F46A9
:103C200056464D464446F0B4012291430A460B469F
:103C30000C460D460E460F46884689468A468B46F8
:103C40008C4681F300888C47F0BCA046A946B2465A
:103C5000BB46F0BC30BF30BF30BF30BFFAE755487D
:103C600001F010FE544801F00DFE544880F388889E
:103C700053485449016000205349F0B45F4656460A
:103C80004D464446F0B4012291430A460B460C4689
:103C90000D460E460F46884689468A468B468C4618
:103CA00081F300888C47F0BCA046A946B246BB46CB
:103CB000F0BCFEE71000002000010040580000406A
:103CC0000D00200000D8B8051800075040C0004083
:103CD00000FEFF000A0A5365637572653A20564577
:103CE000434D4150203D20307825782C2062616E74
:103CF0006B203D256C750A004368697020696E660B
:103D00006F3A000028F00240095B536563757265E5
:103D100020626F756E64617279203A2030782530A8
:103D200038785D0A00000000095B434F4E46494762
:103D3000302020202020202020203A2030782530DC
:103D400038785D0009426F6F742066726F6D204194
:103D500050524F4D2E00000009426F6F7420667262
:103D60006F6D204C44524F4D2E000000635A0000EE
:103D7000695A0000045A0000895A00006F5A000076
:103D80001F5A000000410040004100500300C05E87
:103D90000001054004E100E0515A0000025B000010
:103DA000F85900003049004084E100E008ED02E0ED
:103DB00000000310335A0000C15A00000082003096
:103DC00000800030FFE7FEE701800030B0B502461A
:103DD000C648C74B9A421BD1EFF3108272B6C54C4E
:103DE0002278012A02D162B60B3011E00120207046
:103DF00062B60A7A0B7908680B4D1946A847EFF3AB
:103E0000108172B62178012901D10021217062B69A
:103E100000B2B0BC02BC8E46714672467346F44690
:103E20008EF300887447C04685350100B0B5024660
:103E3000DB48DC4B9A421BD1EFF3108272B6E14CA7
:103E40002278012A02D162B60B3011E001202070E5
:103E500062B60A7A0B7908680B4D1946A847EFF34A
:103E6000108172B62178012901D10021217062B63A
:103E700000B2B0BC02BC8E46714672467346F44630
:103E80008EF300887447C046D5D10000B0B5024615
:103E9000E348E44B9A421AD1EFF3108272B6E24C37
:103EA0002278012A02D162B60B3010E00120207086
:103EB00062B609C90A680B4D1946A847EFF310818D
:103EC00072B62178012901D10021217062B600B2B9
:103ED000B0BC02BC8E46714672467346F4468EF301
:103EE0000088744729D30000F0B587B00246E9483E
:103EF000E94B9A422DD1EFF3108272B6E74B1A7854
:103F0000012A02D162B60B3023E0CE690F6901208D
:103F1000187062B620200D5CC86806908B680C791A
:103F20000A6848698969B6B2BFB2009701AF43C752
:103F300004950E4D104621461A46069BA847F24AA4
:103F4000EFF3108172B61178012901D100211170AF
:103F500062B600B207B0F0BC02BC8E467146724633
:103F60007346F4468EF300887447C046CDCD0000FA
:103F700070B582B00246E248E24B9A4220D1EFF39C
:103F8000108272B6E04D2A78012A02D162B60B3057
:103F900016E00120287062B611C908390E460836AD
:103FA0004CCE4969009601910B4E2146B047EFF384
:103FB000108172B62978012901D10021297062B6D9
:103FC00000B202B070BC02BC8E46714672467346A7
:103FD000F4468EF300887447D1CF000070B582B0EC
:103FE0000246E148E14B9A4220D1EFF3108272B6CB
:103FF000DF4D2A78012A02D162B60B3016E001208B
:10400000287062B611C908390E4608364CCE496987
:10401000009601910B4E2146B047EFF3108172B626
:104020002978012901D10021297062B600B202B0BD
:1040300070BC02BC8E46714672467346F4468EF3DF
:1040400000887447F5D3000010B5EFF3108072B606
:10405000EA4C2078012802D162B60E480DE001201A
:10406000207062B60A488047EFF3108172B621785B
:10407000012901D10021217062B600B210BC02BC3E
:104080008E46714672467346F4468EF30088744736
:10409000F9200100F1FF000010B50146EF48F04A99
:1040A000914217D1EFF3108172B6EE4C21780129BD
:1040B00002D162B60B300DE00120207062B60E48CE
:1040C0008047EFF3108172B62178012901D10021D8
:1040D000217062B600B210BC02BC8E4671467246B8
:1040E0007346F4468EF300887447C046E6FF00002E
:1040F0004D50D7DC74120020513A0100F0B583B066
:10410000F14CF24A90423FD101912748007802A930
:104110000870264E3046FCF751FC002530462946F3
:104120002A46FDF75DF90320C106214E01273046DE
:104130003A46FEF78DFE78073168014331601D482D
:104140000760B807316801433160FDF781FA1A480A
:104150001A491B4A9047EFF3108072B6F64E30783A
:10416000012802D162B60B340EE0377062B6019AB4
:1041700007CA154B98470446EFF3108072B63078A3
:10418000012800D1357062B620B203B0F0BC02BC89
:104190008E46714672467346F4468EF30088744725
:1041A000E6FF00004D50D7DC018000000200805E79
:1041B0000000054004E100E0B1030000C557000025
:1041C000F9500100741200201D21010010B50146B4
:1041D000F048F14A914217D1EFF3108172B6EF4CDB
:1041E0002178012902D162B60B300DE00120207048
:1041F00062B60E488047EFF3108172B6217801292C
:1042000001D10021217062B600B210BC02BC8E4602
:10421000714672467346F4468EF300887447C04672
:10422000E6FF00004D50D7DC7412002085370100F6
:1042300070B582B00246F148F14B9A421DD1EFF3BE
:10424000108272B6EF4D2A78012A02D162B60B3085
:1042500013E00120287062B611C90A684B688968AA
:1042600000910F4E2146B047EFF3108172B62978C6
:10427000012901D10021297062B600B202B070BCE0
:1042800002BC8E46714672467346F4468EF3008831
:104290007447C046E6FF00004D50D7DC7412002082
:1042A00099E40000B0B50246EE48EF4B9A421BD1AC
:1042B000EFF3108272B6ED4C2278012A02D162B679
:1042C0000B3011E00120207062B60A7A0B79086881
:1042D0000E4D1946A847EFF3108172B621780129D7
:1042E00001D10021217062B600B2B0BC02BC8E4682
:1042F000714672467346F4468EF300887447C04692
:10430000E6FF00004D50D7DC7412002059E0000099
:10431000B0B50246ED48EE4B9A421AD1EFF3108247
:1043200072B6EC4C2278012A02D162B60B3010E052
:104330000120207062B609C90A680E4D1946A847C7
:10434000EFF3108172B62178012901D1002121708B
:1043500062B600B2B0BC02BC8E467146724673466D
:10436000F4468EF300887447E6FF00004D50D7DC1A
:1043700074120020BDE20000F0B587B00246F2489A
:10438000F24B9A422DD1EFF3108272B6F04B1A78AD
:10439000012A02D162B60B3023E0CE690F690120F9
:1043A000187062B620200D5CC86806908B680C7986
:1043B0000A6848698969B6B2BFB2009701AF43C7BE
:1043C00004950F4D104621461A46069BA847FA4A07
:1043D000EFF3108172B61178012901D1002111701B
:1043E00062B600B207B0F0BC02BC8E46714672469F
:1043F0007346F4468EF300887447C046741200205A
:104400008DE3000010B50246E948EA4B9A421AD102
:10441000EFF3108272B6E84C2278012A02D162B61C
:104420000B3010E00120207062B60A7908680E4B4C
:1044300011469847EFF3108172B62178012901D116
:104440000021217062B600B210BC02BC8E467146DB
:1044500072467346F4468EF300887447E6FF000008
:104460004D50D7DC74120020F1350100B0B5024682
:10447000E848E94B9A421BD1EFF3108272B6E74C41
:104480002278012A02D162B60B3011E0012020709F
:1044900062B68A680B7908680D4D1946A847EFF394
:1044A000108172B62178012901D10021217062B6F4
:1044B00000B2B0BC02BC8E46714672467346F446EA
:1044C0008EF300887447C046E6FF00004D50D7DCED
:1044D0004136010070B582B00246EC48EC4B9A427E
:1044E0001ED1EFF3108272B6EA4D2A78012A02D16A
:1044F00062B60B3014E00120287062B64C680E469C
:1045000008364CCE087800960C4E2146B047EFF3A3
:10451000108172B62978012901D10021297062B673
:1045200000B202B070BC02BC8E4671467246734641
:10453000F4468EF30088744774120020B9F7000027
:1045400010B50246EB48EC4B9A4218D1EFF31082BB
:1045500072B6EA4C2278012A02D162B60B300EE024
:104560000120207062B603C90D4A9047EFF3108115
:1045700072B62178012901D10021217062B600B202
:1045800010BC02BC8E46714672467346F4468EF3EA
:1045900000887447E6FF00004D50D7DC74120020FD
:1045A0005DF80000B0B50246EC48ED4B9A421AD1D6
:1045B000EFF3108272B6EB4C2278012A02D162B678
:1045C0000B3010E00120207062B609C90A680E4D58
:1045D0001946A847EFF3108172B62178012901D15D
:1045E0000021217062B600B2B0BC02BC8E4671469A
:1045F00072467346F4468EF300887447E6FF000067
:104600004D50D7DC741200207DF7000010B5024633
:10461000F148F24B9A421AD1EFF3108272B6F04C85
:104620002278012A02D162B60B3010E001202070FE
:1046300062B60A7908680E4B11469847EFF310816D
:1046400072B62178012901D10021217062B600B231
:1046500010BC02BC8E46714672467346F4468EF319
:1046600000887447E6FF00004D50D7DC741200202C
:104670005DF60000B0B50246F048F14B9A421AD1FF
:10468000EFF3108272B6EF4C2278012A02D162B6A3
:104690000B3010E00120207062B609C90A680E4D87
:1046A0001946A847EFF3108172B62178012901D18C
:1046B0000021217062B600B2B0BC02BC8E467146C9
:1046C00072467346F4468EF300887447E6FF000096
:1046D0004D50D7DC74120020F5F60000F0B583B021
:1046E0000246EF48EF4B9A4222D1EFF3108272B6A6
:1046F000ED4D2A78012A02D162B60B3018E08E699E
:104700000F698A680120287062B6CB684C68087807
:1047100049690097019102960E4E2146B047EFF38A
:10472000108172B62978012901D10021297062B661
:1047300000B203B0F0BC02BC8E46714672467346AE
:10474000F4468EF300887447E6FF00004D50D7DC36
:104750007412002095000100B0B50246E948EA4B0A
:104760009A421AD1EFF3108272B6E84C2278012AED
:1047700002D162B60B3010E08A680120207062B668
:1047800009C90E4D1946A847EFF3108172B621787A
:10479000012901D10021217062B600B2B0BC02BC77
:1047A0008E46714672467346F4468EF3008874470F
:1047B000E6FF00004D50D7DC74120020D9FF000046
:1047C00010B50246E848E94B9A4218D1EFF310823F
:1047D00072B6E74C2278012A02D162B60B300EE0A5
:1047E0000120207062B608680D498847EFF31081F8
:1047F00072B62178012901D10021217062B600B280
:1048000010BC02BC8E46714672467346F4468EF367
:1048100000887447E6FF00004D50D7DC741200207A
:10482000F9FD000070B582B00246ED48ED4B9A42AA
:104830001FD1EFF3108272B6EB4D2A78012A02D114
:1048400062B60B3015E00E69CB680120287062B6A5
:104850008A680C790868B1B200910F4E2146B047C2
:10486000EFF3108172B62978012901D10021297056
:1048700062B600B202B070BC02BC8E46714672468F
:104880007346F4468EF300887447C046E6FF000086
:104890004D50D7DC7412002021FC0000B0B5024658
:1048A000F648F74B9A421AD1EFF3108272B6F54CE4
:1048B0002278012A02D162B60B3010E08A6801200A
:1048C000207062B609C90E4D1946A847EFF3108152
:1048D00072B62178012901D10021217062B600B29F
:1048E000B0BC02BC8E46714672467346F4468EF3E7
:1048F00000887447E6FF00004D50D7DC741200209A
:10490000A1FE0000B0B50246F648F74B9A421AD114
:10491000EFF3108272B6F54C2278012A02D162B60A
:104920000B3010E00120207062B609C90A680E4DF4
:104930001946A847EFF3108172B62178012901D1F9
:104940000021217062B600B2B0BC02BC8E46714636
:1049500072467346F4468EF300887447E6FF000003
:104960004D50D7DC74120020ED1F0100F0B583B06C
:104970000246F948F94B9A4221D1EFF3108272B600
:10498000F74D2A78012A02D162B60B3017E00120D8
:10499000287062B611C908390F460837CCCF89692B
:1049A0000096019702910F4E2146B047EFF3108118
:1049B00072B62978012901D10021297062B600B2AE
:1049C00003B0F0BC02BC8E46714672467346F44694
:1049D0008EF300887447C046E6FF00004D50D7DCD8
:1049E000741200205D3A010010B50246F748F84BFA
:1049F0009A4218D1EFF3108272B6F64C2278012A4F
:104A000002D162B60B300EE00120207062B603C9FD
:104A10000D4A9047EFF3108172B62178012901D138
:104A20000021217062B600B210BC02BC8E467146F5
:104A300072467346F4468EF300887447E6FF000022
:104A40004D50D7DC74120020790B0100B0B501463F
:104A5000FC48FD4A914218D1EFF3108172B6FB4D2C
:104A60002978012902D162B60B300EE001202870AE
:104A700062B600240D4920468847EFF3108172B6D4
:104A80002978012900D12C7062B600B2B0BC02BCFA
:104A90008E46714672467346F4468EF3008874471C
:104AA000E6FF00004D50D7DC7412002039200100D1
:104AB00010B50246E348E44B9A4218D1EFF3108256
:104AC00072B6E24C2278012A02D162B60B300EE0B7
:104AD0000120207062B608680D498847EFF3108105
:104AE00072B62178012901D10021217062B600B28D
:104AF00010BC02BC8E46714672467346F4468EF375
:104B000000887447E6FF00004D50D7DC7412002087
:104B10005D4F010010B50246F148F24B9A4218D1A0
:104B2000EFF3108272B6F04C2278012A02D162B6FD
:104B30000B300EE00120207062B608780D498847DE
:104B4000EFF3108172B62178012901D10021217083
:104B500062B600B210BC02BC8E4671467246734605
:104B6000F4468EF300887447E6FF00004D50D7DC12
:104B700074120020B137010070B582B00246F248CD
:104B8000F24B9A4220D1EFF3108272B6F04D2A78A0
:104B9000012A02D162B60B3016E0CB6801202870E2
:104BA00062B68A680C7908680E69496900960191B5
:104BB0000E4E2146B047EFF3108172B629780129D5
:104BC00001D10021297062B600B202B070BC02BCF3
:104BD0008E46714672467346F4468EF300887447DB
:104BE000E6FF00004D50D7DC74120020959E0000B7
:104BF000F0B58DB00246F148F14B9A4231D1EFF356
:104C0000108272B6EF4B1A78012A02D162B60B30CD
:104C100027E00120187062B688680B90C8680C9075
:104C20000E694F698D6908790A90086809900C7FB0
:104C30000B4620330DCBC96A009601970295039469
:104C400004AC0DC40791104C09AB0FCBA047FA4A36
:104C5000EFF3108172B61178012901D10021117092
:104C600062B600B20DB0F0BC02BC8E467146724610
:104C70007346F4468EF300887447C046E6FF000092
:104C80004D50D7DC74120020259F0000B0B50246BD
:104C9000E748E84B9A421AD1EFF3108272B6E64C1D
:104CA0002278012A02D162B60B3010E00120207078
:104CB00062B609C90A680E4D1946A847EFF310817C
:104CC00072B62178012901D10021217062B600B2AB
:104CD000B0BC02BC8E46714672467346F4468EF3F3
:104CE00000887447E6FF00004D50D7DC74120020A6
:104CF000F1A2000070B582B00246EA48EA4B9A423F
:104D00001ED1EFF3108272B6E84D2A78012A02D143
:104D100062B60B3014E00E690120287062B6CB68D1
:104D20000A7A0C79086800960E4E2146B047EFF3D8
:104D3000108172B62978012901D10021297062B64B
:104D400000B202B070BC02BC8E4671467246734619
:104D5000F4468EF300887447E6FF00004D50D7DC20
:104D600074120020F1A1000070B582B00246E7483D
:104D7000E74B9A421DD1EFF3108272B6E54D2A78C7
:104D8000012A02D162B60B3013E08A680120287034
:104D900062B6CB6811C9896800910F4E2146B047B1
:104DA000EFF3108172B62978012901D10021297011
:104DB00062B600B202B070BC02BC8E46714672464A
:104DC0007346F4468EF300887447C046E6FF000041
:104DD0004D50D7DC7412002081A2000070B582B063
:104DE0000246CA48CA4B9A4220D1EFF3108272B6EB
:104DF000C84D2A78012A02D162B60B3016E0CB6882
:104E00000120287062B68A680C7908680E694969C1
:104E1000009601910E4E2146B047EFF3108172B615
:104E20002978012901D10021297062B600B202B0AF
:104E300070BC02BC8E46714672467346F4468EF3D1
:104E400000887447E6FF00004D50D7DC7412002044
:104E5000059E0000F0B58DB00246AC48AC4B9A42BE
:104E600031D1EFF3108272B6AA4B1A78012A02D11F
:104E700062B60B3027E00120187062B688680B908C
:104E8000C8680C900E694F698D6908790A900868A6
:104E900009900C7F0B4620330DCBC96A0096019711
:104EA0000295039404AC0DC40791104C09AB0FCBD1
:104EB000A047984AEFF3108172B61178012901D109
:104EC0000021117062B600B20DB0F0BC02BC8E467B
:104ED000714672467346F4468EF300887447C046A6
:104EE000E6FF00004D50D7DC74120020E59F000063
:104EF000B0B502468548864B9A421AD1EFF310822C
:104F000072B6844C2278012A02D162B60B3010E0CE
:104F10000120207062B609C90A680E4D1946A847DB
:104F2000EFF3108172B62178012901D1002121709F
:104F300062B600B2B0BC02BC8E4671467246734681
:104F4000F4468EF300887447E6FF00004D50D7DC2E
:104F50007412002089A1000070B582B002466B482F
:104F60006B4B9A421ED1EFF3108272B6694D2A78CC
:104F7000012A02D162B60B3014E00E6901202870BC
:104F800062B6CB680A7A0C79086800960E4E214604
:104F9000B047EFF3108172B62978012901D10021C1
:104FA000297062B600B202B070BC02BC8E46714677
:104FB00072467346F4468EF300887447E6FF00009D
:104FC0004D50D7DC7412002089A0000070B582B06B
:104FD00002464E484E4B9A421DD1EFF3108272B6F4
:104FE0004C4D2A78012A02D162B60B3013E08A6850
:104FF0000120287062B6CB6811C9896800910F4EF4
:105000002146B047EFF3108172B62978012901D10A
:105010000021297062B600B202B070BC02BC8E469C
:10502000714672467346F4468EF300887447C04654
:10503000E6FF00004D50D7DC7412002019A10000DB
:1050400070B582B002463148314B9A421ED1EFF31F
:10505000108272B62F4D2A78012A02D162B60B3027
:1050600014E0CB688A680120287062B611C9097AF9
:1050700000919BB20E4E2146B047EFF3108172B6FD
:105080002978012901D10021297062B600B202B04D
:1050900070BC02BC8E46714672467346F4468EF36F
:1050A00000887447E6FF00004D50D7DC74120020E2
:1050B000A19A0000B0B502461448154B9A421AD185
:1050C000EFF3108272B6134C2278012A02D162B635
:1050D0000B3010E00120207062B609C90A680E4D3D
:1050E0001946A847EFF3108172B62178012901D142
:1050F0000021217062B600B2B0BC02BC8E4671467F
:1051000072467346F4468EF300887447E6FF00004B
:105110004D50D7DC741200201D810000F0B582B024
:1051200001467A4A156815B1754803781DE00720D5
:10513000C3434B4C6007204601D0E01D1840724D20
:1051400042F60006A4191C40083C1460002309C55F
:10515000236063601568231A05604360414803605B
:10516000684803606648012303700020002902D4C8
:10517000044619B96AE00124002967D01C4065D1B2
:105180004B0703D007239943103100E008314B1E31
:105190005C4C2468A34259D25B4E346867688F42E6
:1051A00006D2236823B126461C465F688F42F8D397
:1051B000AC424BD03068236833607B1A112B31D35B
:1051C00065186E0705D0012080F3108880F3908861
:1051D000FEE76B6061604C4E3368AB4204D21E68E0
:1051E000AE421946F8D301E031461E464B680093A3
:1051F000CF1801976F68019BAB4203D1009BFF184A
:105200004F600D46EB19B34201D0324606E01268FA
:10521000964203D07268D2196A6032682A60A94245
:1052200000D00D606168374B1A68521A1A600D4B36
:105230001D68AA4200D21A600830314A1278002351
:105240002360531E9A41D20711436160410705D084
:10525000012080F3108880F39088FEE702B0F0BD53
:105260007C120020843A0020B0B5002847D02449A1
:1052700009784A1E9141CA07011F0B681A4208D0DB
:10528000083804685CB1012080F3108880F39088AE
:10529000FEE7012080F3108880F39088FEE79343B7
:1052A0000B60012282F390880968164A13685B1824
:1052B0001360154B1C68844204D223688342224643
:1052C000F8D301E01A46234654681519854202D1E5
:1052D00009195160104644189C4201D01C4607E051
:1052E0000A4C2468A34203D05C68611841601C68C2
:1052F0000460824200D01060002080F39088B0BD2E
:105300007C3A0020803A0020083B002078120020E0
:105310000FB410B503A9044B044A029800F018F822
:1053200010BC08BC04B01847093200001C12002051
:1053300002E008C8121F08C1002AFAD1704770475E
:10534000002001E001C1121F002AFBD170470000BC
:10535000FFB591B00F460546002606E025280AD085
:10536000149A139990476D1C761C28780028F5D163
:10537000304615B0F0BD002400940121F34A029498
:1053800000E004436D1C2B780846203B98401042F7
:10539000F7D128782A280ED0022128780246303A00
:1053A000092A15D8009A0A235A43303A80180C4328
:1053B0006D1C0090F1E701CF0090002805DA012074
:1053C00040030443009840420090022004436D1CB7
:1053D00028782E2815D10420044368786D1C2A28CB
:1053E0000AD101CF6D1C02900BE002990A225143B1
:1053F000303940186D1C029028780146303909294F
:10540000F3D928786C2810D006DC4C281AD06828EC
:105410000ED06A2817D104E0742813D07A2812D14C
:1054200010E00120400504430CE00121090501E0E2
:10543000032109050C436978814203D1012000054D
:1054400024186D1C6D1C287803906E281ED00CDC6F
:10545000632831D004DC00288AD0582811D1B2E06A
:1054600064287BD069280CD178E073282DD004DC27
:105470006F2870D0702804D1A7E075286CD07828E8
:105480006BD0149A13999047761C62E06002400F2B
:10549000022807D003280AD0042838680AD00660FA
:1054A0003F1D56E03868F11706604160F8E738683C
:1054B0000680F5E70670F3E738786946087400203F
:1054C000487404A80390012003E03868039000208A
:1054D000C0433F1D61070FD5002101E00199491C20
:1054E000029A0191914213DA8142F7DB019A039902
:1054F000895C0029F2D10BE0002101E00199491CEF
:1055000001918142FADB019A0399895C0029F5D166
:1055100001990098139A401A00902146149B00F0BC
:105520003BF901998019461807E003980399007820
:10553000491C0391149A139990470198401E0190B9
:10554000401CF2D12146149B139A009800F014F9E4
:1055500086196D1C09E741E033E034E00A200021A0
:10556000049005916002410F022905D001CFC217B6
:105570009446032905D007E0FF1DFF08FF0003CF75
:1055800006E000B2C2179446042902D140B2C11706
:105590008C4600226146944506DA0A4600214042C4
:1055A00091418C462D2102E0210504D52B216A462C
:1055B0001176012103E0E10701D02021F7E70191F5
:1055C00054E00A200BE0102009E010200490002194
:1055D0000420044308200591029003E008200021E4
:1055E000059104906002410F022905D001CF0022ED
:1055F0009446032906D006E0FF1DFF08FF0003CFF5
:105600008C4603E080B2042900D1C0B20021019190
:1056100021072BD50399702906D0049A1021059BE8
:105620004A401A4305D00EE040216A461176012116
:1056300008E06146014306D030216A46117603999D
:10564000517602210191049A0821059B4A401A4390
:105650000CD16146014301D1610707D530216A466B
:105660001176012101910299491E0291039958294D
:1056700004D037A103910FA90F910DE039A1F9E7EB
:105680006146059B049AFAF701FE039B8C469B5CDE
:105690000F9A521E0F92137061460143F0D10F987A
:1056A00007A9081A20300390600704D501200004E0
:1056B0008443029801E0012002900399884201DDB1
:1056C000401A00E000204118029001980918009843
:1056D000401A0090E00306D42146149B139A0098C8
:1056E00000F05AF886190020049008E006A9085C2A
:1056F000149A139990470498401C761C04900199C1
:105700008842F3DBE0030CD52146149B139A0098E2
:1057100000F042F8861904E0149A3020139990475B
:10572000761C0299481E02900029F5DC08E00F98CB
:105730000F990078491C0F91149A13999047761C81
:105740000399481E03900029F1DCFBE609280100BB
:1057500030313233343536373839616263646566E7
:1057600000000000303132333435363738394142A9
:105770004344454600000000F8B5044600251E4697
:105780001746880404D405E039462020B0476D1C34
:10579000641EF9D52846F8BDFFB50446002581B042
:1057A0001E46C80301D5302700E02027880404D511
:1057B00005E038460399B0476D1C641EF9D52846AC
:1057C00005B0F0BD10B5002823D0124B0022001FF9
:1057D000196803E0814203D80A4649680029F9D1D3
:1057E000002A0AD01368841A9C4204D10068181851
:1057F0001060104602E0506000E01860002907D0F9
:1058000002680B1A934203D10B68D21802604968F0
:10581000416010BD00000020F0B50B30C108C90088
:10582000144F0026144A0FE003688B420BD38B42BF
:1058300005D95C1A4318456830C3083B00E043684B
:10584000136002C004E0021D10680028ECD130464D
:10585000002803D13868002801D00020F0BD064A96
:1058600006481060064A121AD208D20044C001202D
:105870003860D7E70400002000000020143B00201F
:105880001063002010B5044601E0FDF7BDFC207850
:10589000641C03490028F8D10A20FDF7B5FC10BDAF
:1058A0001C120020343C0000444C545C6400747CA6
:1058B000848C949CA4ACB4BCC40000003A5B00008F
:1058C000505B00000000000000000000795B000059
:1058D0006E5B0000635B00005F5B00003F5B0000ED
:1058E00000000000345B00004A5B0000445B0000E5
:1058F000555B00005B5B0000685B00008A5B00009A
:10590000815B0000855B00007E5B0000725B000035
:105910008E5B00000000000000000000345B00000F
:105920003F5B0000855B0000635B0000000000003F
:105930000000000000000000000000004A5B0000C2
:105940003A5B0000505B0000000000000000000017
:10595000795B00006E5B0000635B00005F5B000032
:105960003F5B000000000000345B00004A5B000069
:10597000445B0000555B00005B5B0000685B00005F
:105980008A5B0000815B0000855B00007E5B00009D
:10599000725B00000000000004000000080000002E
:1059A0000C000000000000000400000008000000DF
:1059B00010000000001BB700008000000000000085
:1059C0000000000000093D00007D00000000000014
:1059D000001BB700001BB7000000000000800000A3
:1059E000001BB700000000000000000000000000E5
:1059F00000000000010202046661696C65642825EC
:105A000064290A0009426F6F742066726F6D204D21
:105A100061736B524F4D202D3E2025732E0A00538B
:105A200065637572652043505520402025642048E9
:105A30007A0A004E6F20636F646520696E206E6F76
:105A40006E2D73656375726520726567696F6E216F
:105A5000004178696F63727970746F20696E697440
:105A60002E2E004C44524F4D004150524F4D0009D4
:105A70004D6972726F7220426F756E646172793A0D
:105A800020456E61626C656400094D6972726F72C7
:105A900020426F756E646172793A20446973616265
:105AA0006C6564004552524F522121212C20584DE3
:105AB000445F57726974655F532C2065726173652A
:105AC000004350552077696C6C2068616C74656484
:105AD000206174206E6F6E2D73656375726520731F
